:020000040001F9
:10B0000008320020F5B001000FB1010011B10100BC
:10B010000000000000000000000000000000000030
:10B0200000000000000000000000000013B101005B
:10B03000000000000000000015B1010017B1010080
:10B0400019B1010019B10100BDB4010019B101002D
:10B0500019B101000000000089B2010019B101001E
:10B0600019B1010019B1010019B1010019B10100B4
:10B0700019B1010019B1010019B1010019B10100A4
:10B0800019B1010021B4010019B1010019B1010089
:10B0900041B4010019B1010049B4010019B1010026
:10B0A00019B1010019B1010000000000000000000A
:10B0B0000000000000000000000000000000000090
:10B0C0000348854600F0A2F80048004705E5010066
:10B0D00008320020401E00BF00BF00BF00BF00BFFD
:10B0E00000BF00BF00BF00BF00BF00BF00BFF1D165
:10B0F000704700000321094802680A4302600848BB
:10B1000002680A4302600748804707480047FEE795
:10B11000FEE7FEE7FEE7FEE7FEE70000240500404D
:10B120005405004069B40100C1B0010030B50B46C0
:10B13000014600202022012409E00D46D5409D4211
:10B1400005D31D469540491B254695404019154697
:10B15000521E002DF1DC30BD70B5002425460028BC
:10B1600001DA01244042002901DA01254942FFF7B2
:10B17000DDFFAC4200D04042002C00D0494270BDFF
:10B1800010B5431A934209D28318881803E0401E71
:10B1900001785B1E1970521EF9D210BD03460B4395
:10B1A0009B0703D009E008C9121F08C0042AFAD27D
:10B1B00003E00B780370401C491C521EF9D210BDED
:10B1C000D2B201E00270401C491EFBD2704700223F
:10B1D000F6E710B513460A4604461946FFF7F0FF96
:10B1E000204610BD421C0178401C0029FBD1801A6A
:10B1F000704730B504460020034600E05B1C9342D4
:10B2000003D2E05CCD5C401BF8D030BD064C01257C
:10B21000064E05E0E36807CC2B430C3C98471034FE
:10B22000B442F7D3FFF750FFFCFB01001CFC010008
:10B2300070B58C180578401C6B075B0F01D1037843
:10B24000401C2A1106D10278401C03E006780E70DB
:10B25000401C491C5B1EF9D12B0705D40023521E4C
:10B260000DD40B70491CFAE70378401CCB1A921CD2
:10B2700003E01D780D70491C5B1C521EF9D5A142DC
:10B28000D8D3002070BD0000F0B50025FF248BB09E
:10B29000013401262F460195204603F05BFB002870
:10B2A00008D047484068304204D046480021201862
:10B2B00035430160241D76007F1CA4B2042FEBD31C
:10B2C000FF207D3003F046FB002807D03E480021D8
:10B2D0000160400705433D48006901903C4C280748
:10B2E00012D0012700262F420AD03A48B200111886
:10B2F00008690969C004C00E8903A258890F9047E4
:10B300007F00761C042EEED3002D57DA0020059026
:10B31000401E4DE0A119403108788506AD0E42B2BD
:10B32000521C39D00121A940089A0091114233D012
:10B3300080090390284601F077FD80002058049092
:10B34000002802D10398032826D1039800990328E6
:10B3500002D10598084305901F4AA800801800688C
:10B36000019A8003800F114202D0022802D013E01C
:10B37000032811D10399032907D102281CD00221E7
:10B38000284603F0D7FA7F1CFFB20498002803D0A8
:10B39000049A284603999047761C042EBAD3002FAE
:10B3A0000CD00A4800690199884207D0019005989D
:10B3B00000273E460890ADE70321E1E70BB0F0BD62
:10B3C00000630040006000407C61004000050050C8
:10B3D0005028002000650040000700508307FF222E
:10B3E000DB0E9A408907090E994000280BDA000706
:10B3F000000F0838830808489B001818C369934356
:10B400000B43C3617047830804489B001B181868EE
:10B41000904308431860704700ED00E000E400E04E
:10B4200010B506490020086048608860C86003497C
:10B4300040390860486004F057F910BD40110140E0
:10B4400010B504F0E7F810BD10B5064840680028B4
:10B4500005D08047002801D000F062FA10BD02F04C
:10B46000BDFE10BDD021002010B502F001FF002864
:10B4700005D00E490C484860C8130D4988610D4835
:10B48000018CC9B201290ED1818C09070BD1018D24
:10B490000906090F042906D1808D0006000F02D18C
:10B4A00005490120886010BDDFFF07C0000500408E
:10B4B000006C0040C00F00F00006004010B504F022
:10B4C000B9F910BD30B47446641E2578641CAB42D3
:10B4D00000D21D46635D5B00E31830BC184702E0F4
:10B4E00008C8121F08C1002AFAD17047704700200F
:10B4F00001E001C1121F002AFBD17047F7B584B0EB
:10B500000025168807461580406B1446002813D086
:10B5100003780598032E51D302210170218811224E
:10B52000491C89B2218042542188491C89B221805A
:10B5300043542088401C2080386B00281DD00546CD
:10B540002088059902461232B24237D811220A5495
:10B5500020881022401C80B220800A542088401C81
:10B5600020800F202A5C2388401ECA54228840B2C3
:10B57000521C22800028F5DA00253846203002903F
:10B58000807B002806D033462246059902F0BCFE97
:10B59000050014D10298407B002806D0324621468F
:10B5A000059800F017FF050009D1B878002823D0CE
:10B5B000059886462088001DB04202D90C2007B0AD
:10B5C000F0BD684679DF0028F9D121880320724652
:10B5D000505420881921401C80B2208011542088AA
:10B5E0007146401C80B2208041186846008804F0F3
:10B5F000B5F9218840182080F878002817D02188D4
:10B6000003230A46FB56C91C0598B142D6D802212D
:10B61000815421880122491C89B221804254218809
:10B62000491C89B2218043542088401C20807868BE
:10B63000002817D021880023C3560A46C91C059844
:10B64000B142BBD80221815421880A22491C89B207
:10B65000218042542188491C89B22180435420888A
:10B66000401C2080388900280AD000943846019672
:10B67000062202210830059B04F0EFF905009ED157
:10B68000388A00280AD00094384601960722032100
:10B690001030059B04F0E1F9050090D1388B0028AB
:10B6A0000AD0009438460196152214211830059BC3
:10B6B00004F0D3F9050082D1386A002806D0334659
:10B6C0002246059901F05CFD0500D8D1786A002872
:10B6D00006D033462246059902F082FF0500CED1FE
:10B6E0000298007B002807D0334622463846059949
:10B6F00003F019FD0500C2D13878002807D0334681
:10B7000022463846059902F09FFF0500B7D128462A
:10B7100055E710B501220221002001F0B1F90028FF
:10B7200001D0072812D107220221012001F0A8F937
:10B73000002801D0072809D100210A22084601F07B
:10B740009FF9002801D0072800D1002010BD00007B
:10B7500010B598B0382101A8FFF739FD02216846DD
:10B760000171012484710621C171032181820D4878
:10B77000069024210FA8FFF72AFD10A80472FF20CD
:10B78000E1301390B4201490002001460090064B45
:10B790000FAA01A800F00CFB002801D000F0C0F8AF
:10B7A00018B010BDA420002083E9010004484268BD
:10B7B0000121C9050B46934383600A40C26070476C
:10B7C0000005005070B504460FCC114D0FC5A08880
:10B7D0002880E08868802089A880A07AE8802846B0
:10B7E0002146083007220B310646103C103DFFF77A
:10B7F000C7FC606A286228460321203001710021BD
:10B80000AE6201732963228AAA86E986017670BD39
:10B81000F02100207047000010B58AB0684602F0A1
:10B820001BFA014600231A46684672DF084C0028BE
:10B8300003D0216A002900D088470548243073DFEF
:10B84000002803D0216A002900D088470AB010BD23
:10B85000F021002074DF002804D00349096A002980
:10B8600000D0084770470000F021002070B5002488
:10B87000064D06E06968E000085C012102F06AFFFD
:10B88000641C28788442F5D3002070BD9C210020E0
:10B89000F8B515460C460646052A01D20720F8BD24
:10B8A00003F02EF8002803D103F000F80028F6D1A9
:10B8B000104900204E600C70C8608D6008610E4D0C
:10B8C0000DE0E00069688019009181786A46517046
:10B8D00000780A4A694602F08DFF0028DFD1204631
:10B8E000641EE4B20028ECD1054A0021024800F0B1
:10B8F0004FF8F8BD9C210020F4FB010081DF01001E
:10B9000049D30100BFF34F8F04490348C860BFF318
:10B910004F8F00BFFDE700000400FA0500ED00E0D6
:10B920000EB50021029000916A4601910148FFF78F
:10B93000E9FF0EBD01400000014B1B6818470000E5
:10B940002C28002038B50C46A2680C235A43064B1D
:10B9500009789D58054A126A00920246204608302E
:10B960002369A84738BD00008029002078210020E5
:10B9700010B5064914230A785A435118091DFFF7D8
:10B98000E1FF042003F0A2FC10BD0000B428002059
:10B99000094B9B68002B07D0002A07D0002805D050
:10B9A0000068037C002B03D00820704707207047F5
:10B9B0004174426100207047B0210020FFB590071C
:10B9C000002581B014460E46002832D11B4F002CB2
:10B9D00031D003F09DFA0498786103203870334623
:10B9E0001821224600204B43BC601834C10089183E
:10B9F0000D704D708E704C601C19401C0328F5DBD7
:10BA0000FD607D7001240E48BD7024050460032193
:10BA10001420FFF7E3FC0B4804600B4C0198A06076
:10BA200003211120FFF7DAFC60683861002005B0BF
:10BA3000F0BD0720FBE7BD60FBE70000B021002060
:10BA400080E200E000E100E000150140FEB50D4697
:10BA50001B4917468968044600292AD0002C28D0A3
:10BA6000052D01D20720FEBD6069002821D0607C31
:10BA7000012820D0002603F0B3FFC0001049019038
:10BA800089684018694603F0D5FF002815D00121C8
:10BA900001700C49446049680830E2C008490198C7
:10BAA0008968411868460078487003F0F5FD002069
:10BAB000FEBD0820FEBD2E46DDE70420FEBD0000D1
:10BAC000B021002000150140F8B5134D0446A968C7
:10BAD00000291CD0002C1AD06069002817D000263D
:10BAE000267403F07DFFC700A8686946381803F084
:10BAF000A1FF00280DD0022101704460A868391808
:10BB000068460078487003F0C7FD3046F8BD08204D
:10BB1000F8BD0420F8BD0000B021002010B5144C81
:10BB20000121002209042068FFF790FF002801D0BE
:10BB3000FFF7F6FE01210022C9036068FFF786FFC8
:10BB4000002801D0FFF7ECFE00220A49A068FFF7A9
:10BB50007DFF002801D0FFF7E3FE05210022C90385
:10BB6000E068FFF773FF002801D0FFF7D9FE10BD92
:10BB700048FB010066260000F0B50546007D002464
:10BB800093B00E4600280DD00120014668461031C2
:10BB900003940173717B4173817BF92001406846F6
:10BBA000891C81731C2104A8FFF711FB6946087CDE
:10BBB00002210843694608742A7DEF21002A02D039
:10BBC0001022104300E008406A4610740594079460
:10BBD0000894287D002800D003A8099001270A9422
:10BBE00010469771304A82800094B27B0270F27BDB
:10BBF00042708078F9221040F722801C1040EF211B
:10BC000008404108490068468170317B0172142167
:10BC10000BA8FFF7DCFA01A80B9068460C9087860A
:10BC2000C486078702A80F90A888AB1D0BAA04A999
:10BC3000A2DF002835D1B068002830D0684687716F
:10BC40001A4981800094317C0170002001466846C9
:10BC500041708078F9210840F721801C0840EF21CD
:10BC60000840410849006846817011A8B16800F099
:10BC700066FD064614210BA8FFF7A9FA01A80B9050
:10BC800068460C908686C486068711A80F902A46BF
:10BC9000E8880E320BA9A3DF002802D100E0EC8176
:10BCA000002013B0F0BD0000192A00000829000090
:10BCB00010B50B490B4803F029FAC1B2084868389F
:10BCC00000F088FA002809D0082807D006498842E1
:10BCD00004D00649884201D0FFF722FE10BD0000C3
:10BCE0004C2500208C20002004300000013400008E
:10BCF00010B50F4C0D481ECC1EC0FF2191311038DD
:10BD000001610C4981820C49C1824C210183C3210C
:10BD100081760A4941621B3071DF002801D0FFF7AC
:10BD2000FFFD0248FFF74EFD10BD0000BC240020BF
:10BD3000B0200020341200007856000041BD010000
:10BD400010B5FFF7EDFD10BDF0B50C4693B01F2107
:10BD50006A461180072600279180002809D0C17803
:10BD600049070DD502A9FFF7C9FB002809D102AD8B
:10BD700001E000251780002C0ED0E078002802D0CA
:10BD8000304613B0F0BD01AA0AA92046FFF7B6FB62
:10BD90000028F6D10AAA02E0684600228780684699
:10BDA0008088C3B268460088C1B2284672DFE8E7DF
:10BDB00070B50D4604991646040042D0002E40D0BE
:10BDC000424800224271C36001612422314640484A
:10BDD000FFF7D6F900F0D4F83D4934310846103861
:10BDE00001602031816038215C38FFF7F0F9384874
:10BDF000217838380170A1788170E178C17061785C
:10BE000041706269216942610161E268A168C260B2
:10BE100081600146E369A269CB618A61616A002998
:10BE200019D00146AC310246B83241628A60636A79
:10BE30001B880B80616A436A898899800021436A64
:10BE400006E00E2070BD666AB668765C5654491CE2
:10BE50009E888E42F7D8A16A00291CD01C4AAC32B9
:10BE600011460C398A608162A36A9B888B80A16A23
:10BE7000836A098819800021836A04E0A66AB6688B
:10BE8000765C5654491C9E888E42F7D82C210A5D58
:10BE90000F4918390A73216A002909D00B49143156
:10BEA0000162226A52884A80216A026A09881180E6
:10BEB0006168002904D00549891D416061684160BD
:10BEC000034829463838FFF73FFF70BDE0200020C7
:10BED0002026002010B502881C4C102A17D0002103
:10BEE000112A1AD01B2A11D1007A00280ED16079AC
:10BEF00001281ED0022822D0032822D0042805D1F0
:10BF00002171E2680846002A00D0904710BD817D6B
:10BF10000129FBD18088208110BD61708088218932
:10BF20008842F9D1012005E021690029F4D0884731
:10BF300010BD022000F058F80028F5D110BD0320F4
:10BF4000F8E7032020710420F4E70000E02000203F
:10BF500010B5022801D003280ED1084C2078002803
:10BF60000AD000202070607900F03EF8002803D04D
:10BF70002169002900D0884710BD0000E020002082
:10BF800010B507210148FFF722F910BDF820002065
:10BF900010B51348007801281FD1124C6078002892
:10BFA0001BD16079002802D074DF002816D101204F
:10BFB0000B49607006203839C870094800213838AC
:10BFC000FFF7C2FE002809D1607900F00DF80028C3
:10BFD00003D02169002900D08847002010BD00004F
:10BFE00020260020E0200020F0B5784C87B060715A
:10BFF000002606A8069602F041FD0127082802D077
:10C00000002808D104E006A801F0A8FE002804D109
:10C010000698002801D02770D4E0FFF7B1FF6C4DDF
:10C020006878002802D06079012807D0A878002815
:10C030000CD06079012801D0022824D1E1680029C0
:10C0400003D0E7700820884700E0E6706079012897
:10C0500008D16878002809D05C48193002F0B2FC99
:10C06000002803D06079022802D00CE00220607121
:10C07000A878002805D05548193002F0A3FC002804
:10C0800001D103206071287B002804D16079032846
:10C0900001D104206071287E002804D16079042831
:10C0A00001D166712671E16800290AD06079032800
:10C0B00001D0042805D12878002802D06078002813
:10C0C00017D0A67018216846FFF781F868460670F9
:10C0D000019606720396607901280ED0022815D0C9
:10C0E0003B4E243637465C3F03281BD004285DD1E5
:10C0F0003AE0A77007208847E4E7344818300190F9
:10C100006846077046820682277152E02F48183031
:10C1100001906846077029894182A988018202201E
:10C12000207146E0A88A69464882288A0882284801
:10C13000243003F001FD002805D02878002802D023
:10C140006078002801D003202FE0022069460872A1
:10C1500004200396F8701E4800213838FFF7F4FDDC
:10C16000002830D1052020E0A88B69460882288C61
:10C1700048821748243003F0DFFC002805D02878D7
:10C18000002802D06078002801D004200DE00220B1
:10C190006946087204200396F8700D48002138386B
:10C1A000FFF7D2FD00280ED106202071607900280B
:10C1B00003D0684673DF002805D1E168002901D06B
:10C1C00020798847002007B0F0BD0000E020002063
:10C1D0002026002073B586B004002FD06A46217C4B
:10C1E000127F0020914227D0002501266846009545
:10C1F0000680458007A80190E188608A6A46A4DF2E
:10C20000002819D16846007F2074608A0D49884251
:10C2100016D0207D002813D002950395049505952E
:10C22000E188684601818672418881810490019885
:10C230000590608A02A9A6DF08B070BD0E20FBE75A
:10C240000820F9E7FFFF000038B50D4604001AD0BA
:10C25000002D18D0286820600020C0436082287913
:10C260002075FF20207401216846817007490180F4
:10C27000221D69460120A0DF002803D1294620465F
:10C28000FFF77AFC38BD0E2038BD00000F18000003
:10C2900038B5002824D0002922D00A88102A1AD0C4
:10C2A000112A1AD0502A1BD1027D002A18D0CA8820
:10C2B0004389891D9A4213D14A89022A10D1026802
:10C2C000002A0DD04B7B0C7B19022143C907C90FF3
:10C2D00007D0002106E0898801E00021C94341829E
:10C2E00038BD01216B4619706946904738BD000082
:10C2F00070B5054601461C220E48FEF741FF0E4C64
:10C30000002626702968002906D00822201DFEF785
:10C3100037FF201D7ADF02E00748001D7BDF002881
:10C3200007D1401E60806670044A00210448FFF770
:10C330002FFB70BD0C270020002100207DF901009B
:10C3400098FB0100F8B5214C028800271E4DE689B4
:10C35000102A15D01E49112A21D0122A2DD0502A78
:10C360001CD1C288801DB24218D14289022A15D13F
:10C37000427B037B10021843C007C00F0CD112E0B0
:10C380008188698001461048082218310C30FEF778
:10C39000F7FE6F70002E01D100F03AFFF8BD0020CB
:10C3A000C04368806F700868FFF78EFB0028F5D0E7
:10C3B000A1690029F2D08847F8BD082281180248F7
:10C3C0000C30FEF7DDFEE7E7002100200C270020FF
:10C3D00098FB01007CB5054608880C460930904260
:10C3E00001D90C207CBD684671DF0028FAD1218874
:10C3F0000820685420881B21401C80B220802954CA
:10C40000208800A9401C80B22080401906220131FA
:10C41000FEF7B6FE20886946801D80B2208009782C
:10C42000002900D0012129542088401C20800020B0
:10C430007CBD00007FB504460121684681714A49F0
:10C4400081804A4A01A90120A0DF00287ED12288EC
:10C4500025463C35002A09D044482B46801C0090D4
:10C460004348616800F0E8FC00287BD12289002A5B
:10C470000AD03E482B460A3000903D48E168401FF4
:10C4800000F0DAFC00286DD1228A002A0AD0374851
:10C490002B461230009036486169001F00F0CCFC3A
:10C4A00000285FD1228B002A0AD030482B461A3050
:10C4B00000902F48E169801E00F0BEFC002851D199
:10C4C000228C002A0AD029482B4622300090284886
:10C4D000616AC01E00F0B0FC002843D1228D002A02
:10C4E0000AD022482B462A3000902148E16A401E9B
:10C4F00000F0A2FC002835D1216B00290ED002A843
:10C5000003F053F819482B4632300090184808229F
:10C5100002A9801F00F090FC002823D1606B002846
:10C520000BD012492B463A3100910279016810482C
:10C53000401C00F081FC002814D1A16B002910D010
:10C5400002A802F07FFA0948423000E00AE00090B9
:10C5500007482B46072202A9273000F06DFC00286F
:10C5600000D1002004B070BD0A1800001421002082
:10C57000292A000010B5044601F00EF821461B4898
:10C5800000F092F8194821461838FFF781FE20463E
:10C59000FFF7D8FE204600F0ABF92088102802D023
:10C5A00011281FD10CE0072000F08EFA002801D0DE
:10C5B000FFF7B6F90E49A0888880FFF72DF911E042
:10C5C000002000F081FA002801D0FFF7A9F9FFF759
:10C5D00041F9FFF7BDF80320FFF706FD002801D061
:10C5E000FFF79EF92046FFF775FC10BDFC240020E4
:10C5F0008020002030B50446008C134A8BB0904256
:10C600001FD006AA204601F0A5FD69460546088010
:10C610000020019002900390049022898A800122D8
:10C620008A71088106A803910490208C01A9A6DFD5
:10C63000002804D169460988A94200D00C200BB01B
:10C6400030BD0820FBE70000FFFF000038B50446BE
:10C6500008682060087960710020C0430D4620847E
:10C660000020222108554C21085301216846817081
:10C670000C490180A21D69460120A0DF00280FD1CE
:10C680002946204601F00EFD002809D1A86800289F
:10C6900005D02946204600F099F8002800D1002056
:10C6A00038BD00000D18000038B50A88102A17D0D0
:10C6B000112A17D0502A18D1CA888389891D9A4215
:10C6C00013D14A89022A10D10268002A0DD04B7B6F
:10C6D0000C7B19022143C907C90F07D0002106E0CE
:10C6E000898801E00021C943018438BD01216B46DE
:10C6F00019706946904738BD70B505460446403507
:10C70000A8890E46142807D12622A118881EFEF7F4
:10C7100037FDA889401EA88180B241000919401C3C
:10C72000A8818E8470BD20308170704770B504463A
:10C730000D460846FEF756FD2080656070BD0A78FC
:10C7400002704978417002207047000000B51A4815
:10C7500087B00069059000234822184905A802F017
:10C7600005FE002801D0FFF7DBF86A460121002012
:10C7700002F0E4FD002801D0FFF7D2F8104802F0E3
:10C7800013FC002801D0FFF7CBF8684602F0CCFD7F
:10C79000002801D0FFF7C4F80A4802F0BBFD0028CA
:10C7A00001D0FFF7BDF8084802F0FAFD002801D0DB
:10C7B000FFF7B6F807B000BD48FB01007424002065
:10C7C000E81F002075C5010095F50100F0B58FB098
:10C7D0000D4606461C216846FEF7F9FC68460178BE
:10C7E00002200143684601700024019403940494DC
:10C7F0000594012708A806948770154968460184A6
:10C800000794E97B0177297C4177807FF9210840F3
:10C81000F721801C0840EF21084041084900684684
:10C820008177142109A8FEF7D2FC08A8099007A86F
:10C830000A9068468785C4850786A8680D903346A8
:10C84000F088103309AA6946A2DF0FB0F0BD0000DE
:10C85000382A00001CB5044681786A460C4802F06C
:10C8600021F9002812D160781C21484309491C2372
:10C8700040181A46694602F0CFF90648064940308A
:10C88000807A80000A582146684690471CBD000007
:10C8900070210020EC270020ACFB01007CB5134E7A
:10C8A00000250C463060002918D06946002000F0B1
:10C8B000B5F8002819D101A9012000F0AFF800282F
:10C8C00013D1684601790020002901D0022004E03C
:10C8D00069460978002900D00B2020707068002874
:10C8E00002D1FEF716FF054628467CBDD820002061
:10C8F00010B51C4C0188606810290DD011290AD18F
:10C90000401E606007D1FEF704FF002803D02168B5
:10C91000002900D0884710BD00281ED10021012227
:10C92000084600F0ADF8002801D0072811D10722F1
:10C930000221012000F0A4F8002801D0072808D126
:10C9400004220221002000F09BF8002805D00728CF
:10C9500003D02168002900D088476068401C6060CF
:10C9600010BD0000D820002010B5032000F006FA0A
:10C97000002801D0062800D1002010BDF8B50746D8
:10C980000024234802E0641C042C1AD2A20082581E
:10C99000BA42F8D1042C14D21D481E4E0C3800297E
:10C9A00029D001290ED002290BD16000201880194E
:10C9B0004578002D05D018480169002901D0284686
:10C9C0008847F8BD61006118755C8E19717800297F
:10C9D0000CD011490A224968806851430E4A521C02
:10C9E000FFF734F8002801D10B4847700A48B178A6
:10C9F00014300155DDE78068FFF766F806486100EE
:10CA0000611814308919005D8D78A842D1D0F8BD25
:10CA100068FB0100BC250020C020002004280CD2A7
:10CA2000074A1269074B80001B5C01209840904325
:10CA300000D001200870002070470020FAE70000B5
:10CA40000005005068FB010010B5042806D0072837
:10CA50000ED00A2801D102F025FC10BD0748132191
:10CA6000808876DF06E00028F7D0FEF759FF10BD7A
:10CA7000FFF78EFA0828F6D110BD000080200020B4
:10CA800070B50023042811D2440004190D4D012A69
:10CA900002D101290DD0002246008019094E8019CB
:10CAA00000290CD0012906D0022906D007231846F8
:10CAB00070BD0D30C2B22A55F9E74270F7E78270B7
:10CAC000F5E70000BC25002010B5054A0146127AA2
:10CAD0000020D20702D0084600F054F810BD000034
:10CAE000C020002070B50E46204905464E608D607E
:10CAF00000200A61A9071ED5002401221146204604
:10CB0000FFF7BEFF641C042C02D20028F5D012E00F
:10CB1000002810D1720804211548FEF7B9FE00283C
:10CB200009D1FEF7A3FE002805D11148114A0021C2
:10CB30001438FEF72DFFE90706D00F220E495205E3
:10CB40008A600023CB608A6100280DD108480B4A17
:10CB500000211C38FEF71CFF002805D10448084AB4
:10CB600001211838FEF714FF70BD0000C02000201E
:10CB700078FB0100B9CD0100000500505DE3010024
:10CB8000ADB70100FEB57A4D0722EB6892059A43D6
:10CB900002936B6800939C0006461B19002001213C
:10CBA000019349050746734C3300FEF78BFC180DC3
:10CBB0001515374755677C887F8891DE9E9E9E9E1F
:10CBC0009EC8CED1D8DEDE140F21029A49059143CA
:10CBD000A160E7602F70FEBDA260E76060680F2271
:10CBE00052055040800209D5A160E760022E02D1B3
:10CBF000E120C0000AE07D20400107E0E160A7607D
:10CC0000022E01D1C82001E0FF2091302E70642156
:10CC1000FEF78CFA0099414300223FE0A260E760F2
:10CC200060680F2252055040800204D5A160E76081
:10CC300019204001EAE7E160A760E3E7A260E7604E
:10CC400060680F2252055040800202D5A160E76063
:10CC5000D1E7E160A760D7E7A260E76060680F22D4
:10CC600052055040800202D5A160E76001E0E1601A
:10CC7000A7602E700098410000220FE0A260E760DC
:10CC800060680F2252055040800202D5A160E76023
:10CC900001E0E160A7602E7000990022364800682C
:10CCA000FEF7D4FEFEBDA260E7601BE061680120D4
:10CCB000800502468A43A2600140E16010E060689E
:10CCC000012189050A468243A2600840E060E3E74B
:10CCD0006068012189050A468243A2600840E0603D
:10CCE0000199C9E7E160A7602DE023484068FEF79D
:10CCF000EBFE11218A1B01D0002807D00F22E96822
:10CD000052051140A160E760EF60FEBD0121C90539
:10CD1000E960012A0CD91046C82148436421FEF776
:10CD200005FA69680022414313484068FEF78EFE09
:10CD30000F22E96852051140E160A760FEBD0F2196
:10CD40004905A160E7602E70FEBD07229205AAE7A3
:10CD50000D214905A160E76001218905C2E7032192
:10CD6000C905A160E7608910BCE70F214905B9E753
:10CD7000C0200020000500505CFB0100F0B5002140
:10CD80000B4C0C4D03273F048A00A2589200561901
:10CD9000326801238B40034000D00323BA431B04B5
:10CDA00013433360491C0429EED30020F0BD00007A
:10CDB00068FB01000007005010B500780221FFF762
:10CDC000DDFD10BD0022D243830004490428CA506F
:10CDD00002D3081820300277704700005028002046
:10CDE000F0B50025ED43002A02D00023042601E01F
:10CDF000042308260B4C04E09F00E7597F1C04D055
:10CE00005B1CB342F8D32846F0BD26185DB220362D
:10CE100035709E00A151002AF5D1E1182031087724
:10CE2000F1E7000050280020024909182020085688
:10CE30007047000050280020FFB58FB01E461546F1
:10CE40000F0002D10020FEF76BFD002D02D1002063
:10CE5000FEF766FD1C216846FEF7B9F968460178C1
:10CE60000220014368460170002401940394049455
:10CE70000594012108A80694817068460F990184E1
:10CE800007943178017771784177807FF9210840E4
:10CE9000F721801C0840EF210840410849006846FE
:10CEA0008177142109A8FEF792F908A8099007A82C
:10CEB0000A9068468585C485058604480D9709AAA9
:10CEC00069460088189BA2DF13B0F0BD1421002032
:10CED000F8B53E481422017851430C18E0680C2143
:10CEE00048433A492769CC31401805894189009166
:10CEF000241D466801F064FE01463846FEF716F927
:10CF0000002932D000200099A2884D436188AE19D3
:10CF10008918CD1900222E4900280A6109D001F094
:10CF20004FFE6188884222D0B54202D1A0880028F5
:10CF30001DD0A06802281AD001F042FEA188CA19AB
:10CF400001461046FEF7F2F8214C8808E06001F037
:10CF500037FE01462846FEF7E9F8002911D00020E7
:10CF6000B5422FD000280ED02CE00120CBE701F0F5
:10CF700027FE01463846FEF7D9F8154948610320D7
:10CF800021E00120ECE7ADB2B7B201F019FE014695
:10CF90003846FEF7CBF8064601F012FE0146284659
:10CFA000FEF7C4F8864201D1781B09E001F008FEC3
:10CFB000064601F005FE01462846FEF7B7F8701A4E
:10CFC00080082061022002F081F9F8BDB428002019
:10CFD0007821002010B50748142201785143081821
:10CFE0000079042802D000F059F810BD012002F0A9
:10CFF0006DF910BDB428002010B50B48142201783B
:10D0000051430818094AC18811620079012806D0E5
:10D01000032801D0042801D1FFF75AFF10BD0120D9
:10D0200002F054F910BD0000B4280020782100203F
:10D0300014225043054A002180180171C180012249
:10D040000161C2604161018170470000B428002085
:10D05000F8B5104C069E65780A2D19D027787D19F1
:10D060000A2D00D30A3D14277D432D1928716A61CA
:10D0700003C92961E860EB802E816078401C6070F4
:10D0800005480078002801D1FFF7B6FF0020F8BD61
:10D090000420F8BDB42800207821002010B50D4CE4
:10D0A00014212078484301190020091DFEF74AFC8D
:10D0B0002078FFF7BDFF6078401E60702078401C2C
:10D0C000C0B220700A2801D100202070002002F098
:10D0D000FDF810BDB4280020F8B52348C168002928
:10D0E0003ED00E6821494C680769C078E11B0D02EB
:10D0F0002D0AED1C002814D101201D4A00045060A7
:10D100001B4A403A50601B49400008601A490860B9
:10D110001A49012008602F20FDF7DCFF1249012089
:10D12000C870B54200D23546E81900020F4B000A1C
:10D13000403318600D4A5168001B091B0902090A97
:10D140000002000AC91C814209D9506818602F20CA
:10D15000FDF7C0FF01200749400480390860F8BD91
:10D1600001F0D6FEF8BD0000B021002000150140FE
:10D170004013014080E200E000E100E000100140C7
:10D18000F8B50646108814468446801D0D46984220
:10D1900001D90C20F8BD32880720062AFAD31927B6
:10D1A000FF01184BBA4201D99A42F3D1718806297E
:10D1B000F0D3B94201D99942ECD19A4203D09942B5
:10D1C00001D08A42E6D805216046295420881221E0
:10D1D000401C80B2208029542088401C80B22080CE
:10D1E0004119308802F0BAFB2188401880B22080B3
:10D1F0004119708802F0B2FB21884018208000207D
:10D20000F8BD0000FFFF000010B5FEF789FB10BD60
:10D21000F8B5164801F01EF8144D00260C3D144CCC
:10D22000002807D0616900291CD001206A461070CF
:10D23000684616E02878002805D06169002911D0D9
:10D24000684606700DE0687800280DD0A16809488E
:10D2500000220068FEF7FAFB002803D0A16900292C
:10D2600000D088472E70F8BD6168F0E70C210020DF
:10D270000C27002098FB010070B5094B04469E7AEC
:10D28000082000250E4207D00648844202D01889A3
:10D29000A04202D10020156070BD052070BD0000C5
:10D2A00020280020FFFF00000C214843064910B54C
:10D2B000012240188272911E0181FF21C172072153
:10D2C000FDF785FF10BD00002028002010B5134C8D
:10D2D000207900071FD46069401C6061E068002865
:10D2E00001D0042004E000F0E7FF002803D0022072
:10D2F00002F046F910BD2069002809D06068C10716
:10D3000001D00320F4E70121084360600020EFE72B
:10D31000FFF760FE10BD02F027F910BD7821002054
:10D3200010B5084841680A0708D48A0702D50122C7
:10D3300011434160022002F023F910BD02F014F9FC
:10D3400010BD000078210020F8B500260124154DFD
:10D3500023E06968F0004718387821462A6981403F
:10D36000114218D08A432A6101F096FA3A78214690
:10D37000EB68914019400346934099420BD179786C
:10D38000012901D0012100E000217B684140002BF0
:10D3900001D010469847761CF6B228788642D8D33A
:10D3A000F8BD00009C210020FEB50E4604468178A1
:10D3B0006A46234801F076FB002827D160780C21CB
:10D3C000204F4843C019807A400620D4022E1ED038
:10D3D000012E1ED01C4DA0781C2148431949002362
:10D3E000F83941181C226846A847002813D0022E9D
:10D3F0000CD020780C21484312490C314018807A17
:10D40000124980000A58214668469047FEBD104DDB
:10D41000E1E7104DDFE7022EF8D060780C21484399
:10D42000C019817ABF221140817260781C21484363
:10D430000449343941181C231A466846A847D8E7DE
:10D440007021002020280020EDF401009CFB010049
:10D4500059EE01007DED010070B50546114A1248F4
:10D4600000241C2363431B189B7EFF2B04D0641CE9
:10D47000072CF6D3104670BD0A78022A09D01C2268
:10D4800062431018FD22827607221030FDF778FEE5
:10D4900004E01C2161430818FE2181762C700022D3
:10D4A000E8E700004380000028270020F7B50525A5
:10D4B0000F4F06460024002E0AD01C206043C019DE
:10D4C000072231461030FDF794FE002807D00AE00D
:10D4D0001C206043C019018B0298814203D101983E
:10D4E0000025046002E0641C072CE4D32846FEBD3E
:10D4F000282700207CB5054681B26A46074801F01E
:10D50000D1FA040008D15421684601F0F5FA04006C
:10D5100002D1284601F062FA20467CBD702100202D
:10D5200010B5100001D0FEF7FBF9002010BD00007F
:10D530001FB56946087301F049FB002801D0FEF7CA
:10D54000EFF903A800F01AFA002801D0FEF7E8F975
:10D5500001A805210130FDF73AFE6946497901200D
:10D5600001438122114030314A06520E69464A7108
:10D5700007228A711022CA71054900916946087113
:10D58000044800F00FFB002801D0FEF7C9F91FBDC9
:10D5900021D5010082200020F0B591B00546FF247E
:10D5A000002007940290E9480078002849D0E84F0D
:10D5B0003868002845D001A800F0D2F9002801D031
:10D5C000FEF7AEF9281D05902C2069460883FF2040
:10D5D000002688710E710396DD4C28880C3C1028BB
:10D5E0000ED0A88803AA0221FFF746FE002807D123
:10D5F00003980C2141430919CA7A69468A71487116
:10D600002A881320192A7DD00FDC102A1BD0112A5A
:10D6100055D0132A77D0142A13D103980C214843EC
:10D620000019C07AFF286FD0A1E0CA491A2A6CD02D
:10D630001E2A65D0522A04D1B87A8000095801A860
:10D64000884711B0F0BDC44F03AA01213846FFF747
:10D6500013FE0028F5D103990C204843022200193B
:10D66000827211236A4613745171A9880181294677
:10D67000083107220091FDF783FDE87DC10707D03F
:10D680004108B2480830405CFF2808D0079006E007
:10D690003A4607A90098FFF709FF002837D10399F8
:10D6A0000C22514309190798C8728A7A08231A4331
:10D6B0008A726946887101A8FFF7CCF827E00398C1
:10D6C0000C2148430119887AFD2210408872010715
:10D6D00006D5C0090DD0002101A8FFF765FE08E0BE
:10D6E00068468079FF2804D001F078F9FF20694668
:10D6F000887103980C225043102100198172122066
:10D70000694603E08BE043E014E0E4E0087432464D
:10D7100004A901A8FEF710F96846007C122890D1F0
:10D7200003980C2141430919897A012989D0FFF70F
:10D73000BBFD86E72A8A07A90020FFF7B7FE00286D
:10D740000ED103990C22514309190798C8728A7A9D
:10D7500008231A438A726946887101A8FFF77AF88C
:10D7600003980C2148430019C07AFF2806D003987B
:10D770001C214843764940394018029003981C21E7
:10D78000484376494218A8880023029986DF58E763
:10D790006946087403980C2148430119887A0422C9
:10D7A00010438872CA7AFF2A0BD040221043887235
:10D7B0001620694608740023A8881A4685217FDF51
:10D7C00021E007A8FFF748FE00281FD006460020EA
:10D7D0000D9003990C224A431219D27A1C235A4302
:10D7E0005E4B0F90D2180E921C2251431A46C4323F
:10D7F0008918109009910A900B900C903A1DA888F6
:10D8000009AB00217FDF002893D180E769460798A4
:10D81000887103990C2251430919C872D7E7787AA5
:10D820000C2140084000787203986F460246484336
:10D83000011984468B7AFB2003408B7214203874C4
:10D84000287A002806D05806DFD4C87AFFF752FE9F
:10D850002E7A5CE7687A4007D7D5B879FF28D4D00C
:10D8600008273B438B726B7B9B0708D51C2503461F
:10D870006B433A4D5B199D7E6D086D009D76CB7AAA
:10D88000FF2BC2D06346E35C022B10D01C22504316
:10D89000324D072240191030FDF772FC684680793E
:10D8A0001C2148434019817EFD2211400DE01C21BE
:10D8B0004A432749403951184A8A1C21484327497D
:10D8C00040180283817E490849008176012101A820
:10D8D000FFF76AFD1BE7287A0209012A23D1000716
:10D8E000000F01281FD103980C2242431219927A8B
:10D8F000120718D5182148431549243940180E211C
:10D900000830FDF764FC16206946087403980C2162
:10D9100048430119887A602210438872787A02217C
:10D92000084378720FE003980C2250430019827A62
:10D9300080231A43827215206A461074B87A8000D8
:10D94000095801A888470026E1E600006021002070
:10D950002C280020BCFB0100FFFF0000282700202E
:10D96000002806D0FF21017041708170C170002035
:10D9700070470148704700000E800000F0B585B088
:10D98000040036D029480025056045728572284676
:10D99000FFF78AFC254818212438FDF718FC0026DB
:10D9A000FF27304601F01AF821488755761C072ECC
:10D9B000F7D35421684681800721C1801D481C4946
:10D9C00000900831684601F07BF900280FD1184E0D
:10D9D0000120083E3070207800280CD069468888E5
:10D9E000C988484381B23046103001F085F805B04F
:10D9F000F0BD1148FBE7114F00240D48A1B202AA67
:10DA0000083001F04FF8002809D11C206043C019EC
:10DA100000231C2202A901F0FFF8002801D0357074
:10DA2000E5E7641C072CE8D3E1E700002C28002080
:10DA30006821002041DA01000E8000002827002024
:10DA4000FFB5554891B000681A9F1E4600286AD05D
:10DA5000542F68D86846FFF783FF002801D0FDF7F0
:10DA60005FFF0024684604700471254605970696FA
:10DA7000A9B20FAA494801F015F8002806D10822DA
:10DA80000FA91198FDF7B5FB002819D06D1C072DC3
:10DA9000EED3684680780790FF2844D0129820255E
:10DAA000032810D03E481C21301AFDF73FFB012708
:10DAB000072825D204A802901398002812D019E054
:10DAC00068468570E5E7542F03D040206946087109
:10DAD00001E0684605716846017903200143684604
:10DAE00001714FE00799384688402C491039496840
:10DAF000084218D0079801F037FF6846057138E0F2
:10DB000025481C214038301AFDF710FB00280CD0A6
:10DB1000214D1821243D701BFDF708FB00281AD069
:10DB200040206946087115B0F0BD04A8029068460F
:10DB30000571447018480B940C300C904C380790C9
:10DB4000684680781C21484315490595401808907F
:10DB500007A806900DE03021684601714470C77037
:10DB60000D480C38807A800703D428461821FDF729
:10DB70002EFB12986946022808790BD0022108432F
:10DB80006946087104A8029001A96846139AFDF736
:10DB9000D3FEC8E73843F4E72C280020702100208A
:10DBA0002827002070B5064618480D460078002842
:10DBB0000ED01749002E0ED0002D0CD0286800285A
:10DBC00009D0144C2168002907D011480A3870BDCB
:10DBD0000F48801F70BD084670BD20600522691D7A
:10DBE000201DFDF7CDFA2879A072207A0221400885
:10DBF00040000843FB2210402072E07901231843C3
:10DC000008431040E0710020307070BD602100209A
:10DC10000E8000002C28002010B50E4900234A7801
:10DC20008C78A24212D0521CD2B24A70022A00D181
:10DC30004B704A78074B920018339A580260086973
:10DC400010180002000A0861012010BD03600020C6
:10DC500010BD0000B021002070B502220446027001
:10DC6000012060700620A0701A20E070FF20207153
:10DC70000C4D1520A98A6171090AA171E271207207
:10DC80002046093010222946FDF77AFA298A617662
:10DC9000090AA176698AE176090A2177A87D607769
:10DCA0001E2070BDF021002010B5002803D01128DF
:10DCB00002D0FDF75DFE10BD024808224168114305
:10DCC000416010BD7821002010B51C4C2178204601
:10DCD0004068012906D0022929D0032912D1000762
:10DCE00017D513E0000711D41548142201785143C9
:10DCF0000818C188A28B891A0904090CC18002D0B6
:10DD000001F0F6FB10BDFFF7C9F910BD00F05CFC97
:10DD100010BD6069401C606100F0CEFA002803D09D
:10DD2000207801F0D3FA10BDFFF754F910BD6078E8
:10DD3000044980000858804710BD00007821002069
:10DD4000B4280020E0FB010010B528DFFFF7ACFF8E
:10DD500010BD10B529DFFFF7A7FF10BD002804D0C4
:10DD60000349496D0160002070470320704700009F
:10DD7000AC2900200EB51120694608720D220FA1B2
:10DD800002A87CDF002801D0FDF7CAFD0F4878DF2C
:10DD9000002801D0FDF7C4FD0021FF209130009143
:10DDA0006A4601911080430053809180D08068467C
:10DDB0007ADF002801D0FDF7B3FD0EBD4B61726D17
:10DDC000615F48524D5F61647600000041030000CE
:10DDD000002070470020704700207047F8B50646C5
:10DDE0004078182104464C4324490C2250436118C2
:10DDF000224A00254B6818328018AE462F469C46B2
:10DE0000002B0CD0827A1346D20908D05A0606D4C9
:10DE10000D461A4A614689B2175908358E46174C85
:10DE2000008918343B4672462946A9DF0B2819D0D1
:10DE3000002800D01248012F13D170780C214843DC
:10DE4000001900890F4AA7DF00280AD00E4988422E
:10DE500012D0082810D0891C88420DD011280BD070
:10DE60000020F8BD70780C21484301230019008977
:10DE700072462946A9DFE0E70148F8BD08280020DE
:10DE800041800000FFFF00000230000070B50C462A
:10DE9000014660781822084D50434019382300F09D
:10DEA000BBFE002807D161781822514349194A68FE
:10DEB000521C00D14A6070BD08280020F3B585B01F
:10DEC0000D460E206946088268780C2103274843D6
:10DED000224E3B468019008904AA6946AADF002821
:10DEE00038D1687818214843741A001969460A8A9B
:10DEF0000830FDF77EF90028687807D018214843DC
:10DF00000119496800290DD0154E0CE00C21414340
:10DF10008919897A89071DD4182148430019FDF70A
:10DF200056F917E00F4E27506846028A6878182184
:10DF30004843001942606878484300196946083030
:10DF4000FDF71EF968781821484301193823182273
:10DF50000598B047002007B0F0BD00002028002041
:10DF600059EE01007DED010010B5FFF737FF10BD40
:10DF700010B5FFF78BFF10BD10B5FFF79FFF10BD69
:10DF8000F8B50746104E0125BD403068FDF79CFDF1
:10DF900000280DD10D4C2069284207D1384600F0E9
:10DFA0007BFC0028E06804D0284303E0A8432061FC
:10DFB000F8BDA843E0602069002228432061A168E1
:10DFC0003068FDF743FDF8BDF4FB01009C21002003
:10DFD00070B51B4C207900072ED41A481422017802
:10DFE00051430D182E6900F0EBFD0146E8882A899F
:10DFF000761E80188019FDF799F8216900250029FF
:10E0000009D06169814206D1E56060680121084359
:10E01000606000200AE000F04FF9002802D00220E2
:10E02000E56003E02069002803D0032001F0A8FA8E
:10E0300070BDFEF7CFFF70BD01F096FA70BD000015
:10E0400078210020B428002010B51249124801F0B0
:10E050005DF8114C81B2143CA068401CA0600D48D2
:10E060006038FEF7C7FA002809D0082807D00B4906
:10E07000884204D00A49884201D0FDF751FC0321AF
:10E08000A068FDF753F8002901D0012000E000202E
:10E09000207010BD5C25002094200020043000007A
:10E0A00001340000F0B5002406460D46601C01074F
:10E0B00095B0090F08A810310C940174297B4174A4
:10E0C000817CF9273940891C81741C2105A8FDF742
:10E0D0007EF86846017D10200143684601750CA852
:10E0E00006940A900894099401220B9408A8827659
:10E0F0001749684601870D94697B08A80175A97BBB
:10E100004175817DF7203940891C0140EF20014095
:10E11000114308A8817514216846FDF758F80EA828
:10E1200000900DA801900FAA0021304600F012F8CF
:10E130000146684601811421448181810FA8049021
:10E140003346F08808336A4605A9A2DF15B0F0BD52
:10E15000372A0000F7B542790025002A00D00425AF
:10E160002222135C0222002B00D01543CBB2FF29E0
:10E1700007D901221543029A090A537091700326A8
:10E1800002E0029902264B7004464034A18900291E
:10E1900001D010210D43002716E0B11C142909D924
:10E1A000A189C91B4A007900091824302431FCF7E1
:10E1B000E7FF0CE0029B7A0012189B19928C1A70F0
:10E1C000120A5A70CEB27F1CA189B942E5DCA0893F
:10E1D000C01BA081029805703046FEBDF8B51C4CEE
:10E1E0002078002833D02069002807D00026E06876
:10E1F000002805D00025002E04D011E00126F6E706
:10E200000125F8E7684652DF052804D0002804D02D
:10E21000FDF786FB04E0012602E0216900988847AB
:10E22000002D10D1608869460880A06861DF05284C
:10E2300004D0002804D0FDF773FB04E0012502E0C0
:10E24000E168A0688847002EDCD0002DD3D0F8BD4F
:10E25000D0210020418805480288914204D340889B
:10E26000814201D80120704700207047042100201E
:10E270001048018CC9B2012917D1818C090714D12A
:10E28000018D09060A0F03D1828D1206120F0ED0DE
:10E29000090F012903D1828D1206120F07D003291D
:10E2A00003D1808D0006000F01D0002070470120AF
:10E2B00070470000C00F00F070B50E4814220178BE
:10E2C00051430C18256900F07BFC0146E088228947
:10E2D0006D1E80184019FCF729FF07494A698242E0
:10E2E00006D3824202D10869002801D0002070BD07
:10E2F000012070BDB428002078210020800701D0C3
:10E30000002070470120704730B51588EC1C9C42F6
:10E3100001D90C2030BD02244C5513881C255B1CF0
:10E320009BB21380CD5413885B1C9BB213800128D1
:10E3300007D0022807D0032807D0042807D00720D9
:10E3400030BD002004E0012002E0CC5401E00320B5
:10E35000C8541088401C1080002030BD10B50448FF
:10E36000017AC90702D00078FEF70CFC10BD00004E
:10E37000C0200020F8B52C49C8680A690C780F79CC
:10E3800089688646944600913EE00099E20055185F
:10E390002A7836E0182353436968521CC918AB78B1
:10E3A000D2B2934200D100220B78022B02D0032B71
:10E3B00027D123E04E680346014603E0B14204D072
:10E3C0000B46C96900291CD0F8E7002919D08B42F7
:10E3D00008D1C069002805D1144F0126BE6000266F
:10E3E000B44601270E68C969D961002909D00B68B4
:10E3F0009B190B6005E00174C06900E00021002852
:10E40000F9D169789142C5D12146641EE4B2002950
:10E41000BBD1054962460A61C8600F71704501D0E1
:10E420000120F8BD0020F8BDB021002000100140FF
:10E43000F8B5044631480026C168009107784EE0DF
:10E440002E48F90080680D1843E0002C02D02046C9
:10E45000E4691FE02878182141436A68401CC0B273
:10E4600051182870AA78904200D12E700A78486816
:10E47000012A30D1027C002A2DD18A684260CA6804
:10E4800082600A69C260496981611C490979002971
:10E4900000D04660194943680A699C46991A0902E6
:10E4A000174B090A994202D28268891807E061462F
:10E4B000511A09028268090A8A4202D9511A016076
:10E4C00000E006604660012186600174C66101F0CB
:10E4D000EBF8002CB9D1287869788842BAD138464F
:10E4E0007F1EFFB20028ABD10448C168009881426A
:10E4F00001D00120F8BD0020F8BD0000B0210020AF
:10E50000FFFF7F0088B001F02FF92A4A2A49032033
:10E51000FEF7E8FA002801D0FDF702FA01A9002071
:10E52000FEF7BCF9002801D0FDF7FAF9684600793A
:10E53000022837D0002069460870FEF707F9FDF77A
:10E54000D7FB69460878FEF7F3FFFFF713FCFDF7EA
:10E55000FFF800F02FFE00F083FD1C216846FCF759
:10E5600036FE0521C90301910F2109040020029103
:10E570000090032269460A7310498A896946CA8154
:10E5800008740F4805900F4806906846FDF7B0FEE6
:10E59000002801D0FDF7C4F9FDF7C0FA0320FDF70C
:10E5A00023FD02E00120C6E748DF0028FCD0FDF78C
:10E5B000B7F9F9E749CA0100CD0C0000FC2400209E
:10E5C000A5E9010009D2010010B5044808224168FC
:10E5D00091434160007800F079FE10BD7821002061
:10E5E00070B5144682880E4605462088111D4118D4
:10E5F000921C994201D8FE2A01D90C2070BD521CF0
:10E6000032542088FF21401C80B220803154208861
:10E61000401C80B220808119288801F09FF9218850
:10E62000401880B22080AA88002A09D0A968002951
:10E6300008D08019FCF7A4FD2088A9884018208004
:10E64000002070BD072070BDF8B50F460178144654
:10E650000546012902D16878002806D02088821C4E
:10E660009A422DD8012902D006E00720F8BD69782A
:10E670004118891C994223D8181A801E86B2684610
:10E6800006802188B81C081869467DDF0028EDD176
:10E690002878022805D169460988B14201D80921A4
:10E6A0000AE00821012805D16878B04202D86A46FC
:10E6B000108001E06846068068460088FE2801D97F
:10E6C0000C20F8BD2288401CB8542088401C80B221
:10E6D0002080395420886946401C208009884018D1
:10E6E00020800020F8BD00207047002070470020E7
:10E6F000704700008207D30EFF229A408907090E57
:10E7000010B5994000280BDA03071B0F083B9C0843
:10E710000C4BA400E318DC6994430C43DC6107E074
:10E720008408094BA400E418236893430B43236037
:10E73000C106C90E012088400449086004490860E8
:10E7400010BD000000ED00E000E400E080E200E029
:10E7500000E100E0F3B581B00F46019800F05AF9EE
:10E76000012400281E4E019817D0FEF75DFB80198A
:10E770002030007F8009032802D0012806D007E05E
:10E780001848006901998C40204201D1022100E023
:10E790000321019800F0CEF8FEBD00F047F90028F3
:10E7A000FAD00198FEF740FB05468100C81D0E4ACD
:10E7B000F93089180A6980B222430A610B4940186E
:10E7C00000210160002FE7D00198FEF72DFB8000AB
:10E7D00030580028E0D00648AC404460FEBD000040
:10E7E00050280020000500500065004000600040F7
:10E7F00000630040FEB5044623480E460019202160
:10E8000041560027C8171346401C01D0082738E09E
:10E81000F27819462046FEF7E3FA0546401C2FD051
:10E82000B078002807D01948A1000918086802220A
:10E830009043086007E000217378204600910A4663
:10E84000019100F065F8F078002810D01048AA0077
:10E850001018317802690F4B1A400261E206D20C9F
:10E860008907890B0A4301690A43026109E00648E6
:10E87000327840192030017F92011143017700E086
:10E8800004273846FEBD0000502800200007005035
:10E8900000650040FFE0FCFF03490969C140C8076B
:10E8A000C00F00D0012070470005005070B5124D18
:10E8B0002879002801D0082070BD0F490020403978
:10E8C000421E0B182033401CC0B21A702028F8D307
:10E8D00000242046FEF776FA641CE4B2082CF8D334
:10E8E00003210620FFF706FF01200449C007486006
:10E8F00001202871002070BD902800200063004096
:10E9000002480079002800D001207047902800209C
:10E9100030B552000A439900039C0A432102049D2A
:10E920000A4329040A43024980004018026030BDAE
:10E9300000070050820006481018026803231B04D9
:10E940009A430260026809040A43026070470000AB
:10E9500000070050034940180068012800D000203B
:10E9600070470000006000404058002800D001209F
:10E9700070470322120280184068084000D001202E
:10E98000704710B5002809D0032806D10220FEF7F1
:10E990009BF8002801D0FCF7C3FF10BD00F082FCFB
:10E9A00010BD000010B50078002807D104483B21B5
:10E9B000808876DF002801D0FCF7B2FF10BD000090
:10E9C000802000200021425C002A01D001207047F5
:10E9D000491C0629F7D300207047000070B5054692
:10E9E0001C200B4968434418204611300621FCF7CF
:10E9F000EEFB20461021FCF7EAFBFF2121740020EA
:10EA0000A176C0432083284600F0AEFF70BD000011
:10EA1000282700200449081820214156042901DB39
:10EA20000120704700207047502800200449081832
:10EA300020214156042901D201207047002070474F
:10EA40005028002070B50D00044602D10020FCF7CC
:10EA500067FF002C02D10020FCF762FF28782070AD
:10EA600069886170090AA170A988E170090A217199
:10EA7000E8886071000AA07170BD0000074909793B
:10EA8000490701D408207047002804D00449497878
:10EA90000160002070470E207047000078210020A0
:10EAA000B428002030B5124B1B795B0701D4082035
:10EAB00030BD002805D0002A03D00468002C10D1F6
:10EAC00001E00E2030BD0B4B1D68002D09D04568BC
:10EAD0001889414369185D89454358682818884258
:10EAE00001D8072030BD14600020516030BD000007
:10EAF0007821002080290020FEB5054625480E46D5
:10EB00000079400701D40820FEBD002D03D02868FD
:10EB1000002834D101E00E20FEBD1F4C21680029E1
:10EB20002DD0608921894843616841186868814215
:10EB300025D9FFF7E3FB00280FD06868019029680A
:10EB40000C2251430F1979680091401A39890C46FB
:10EB5000FCF7ECFA002912D101E01020FEBD21469D
:10EB60003046FCF7E3FA002909D1002E07D0788956
:10EB700044430198811900980019814201D9072066
:10EB8000FEBD002002460090334629460320FEF7D2
:10EB90005FFAFEBD782100208029002010B50748CB
:10EBA0004469601C06D000F00BF801462046FCF7D3
:10EBB000BDFA10BD01200007406910BD0010001013
:10EBC00001200007006980B27047000070B5002482
:10EBD0000F482546047044702846FEF729FA6D1C3C
:10EBE0000A2DF9D30B4D6C80FFF7D8FF861EFFF777
:10EBF000E7FF46430648AE60CC306C610460048198
:10EC000044812C70AC610420EC616860002070BD10
:10EC1000B428002078210020FFB5274881B0007972
:10EC20001F4616460D46400702D4082005B0F0BD29
:10EC3000002D06D00198002803D02868002815D19F
:10EC400001E00E20F2E71D4C206800280ED06189FB
:10EC500020896268414389186A68914206D9002E6A
:10EC600004D0B04202D3F119814201D90720DDE777
:10EC70000198FFF743FB00281BD03846FFF73EFB07
:10EC8000002816D06868FFF739FB002811D06868A3
:10EC90003246C1190198FCF773FA009628680C21D6
:10ECA00048432458002202212846019BA047002007
:10ECB000BCE71020BAE7000078210020802900205E
:10ECC000F8B52C4D044628790E46400701D408209B
:10ECD000F8BD002C20D0002E1ED0206800281BD0AC
:10ECE000FFF76EFF0146A088814213D3102811D38D
:10ECF000E08800280ED0FFF751FF471EFFF760FFA6
:10ED00004743E288A188A8684A431218974201D372
:10ED1000890703D00720F8BD0E20F8BD69880129B6
:10ED200026D031600C22144B51437060CA185060D9
:10ED300020685850A0881081E0885081FFF740FF7C
:10ED40000646FFF73DFFA188E288401E5143401868
:10ED50003146FCF701FA0446FFF732FF0146A86886
:10ED600061430818A8606888401C68800020F8BDCE
:10ED70000420F8BD7821002080290020F8B5044641
:10ED800020481E46007915460F46400701D408204A
:10ED9000F8BD002F05D0002C03D02068002815D125
:10EDA00001E00E20F8BD1848016800290ED0428904
:10EDB000018940684A4310186268904206D9002DC4
:10EDC00004D0A94202D3A819884201D90720F8BD6E
:10EDD0003846FFF793FA002811D03046FFF78EFA35
:10EDE00000280CD06068FFF789FA002807D02B466E
:10EDF0003A46214601200096FEF72AF9F8BD102078
:10EE0000F8BD0000782100208029002010B51149AC
:10EE100002460878002811D004280FD0022A16D004
:10EE2000032A0BD10A79120711D48A69521C8A610C
:10EE3000032A08D0022802D000F048FA10BD487812
:10EE400000F09EFB10BD0D20FCF792FD10BDFEF7FB
:10EE50003BFF10BD78210020F8B5044620481E462F
:10EE6000007915460F46400701D40820F8BD002F51
:10EE700005D0002C03D02068002815D101E00E2019
:10EE8000F8BD1848016800290ED042890189406800
:10EE90004A4310186268904206D9002D04D0A94256
:10EEA00002D3A819884201D90720F8BD3846FFF7D8
:10EEB00025FA002811D03046FFF720FA00280CD0A0
:10EEC0006068FFF71BFA002807D02B463A46214618
:10EED00004200096FEF7BCF8F8BD1020F8BD000035
:10EEE000782100208029002010B5074800780028EC
:10EEF00009D0054805491C3000F008F981B20348E3
:10EF00007038FDF7F9FB10BD802000206C25002033
:10EF100070B501240B49600408600B4940108860FB
:10EF2000094940398860094D6C602F20FCF7D2F800
:10EF3000AC60074D00242F202C61FCF7CBF8EC705F
:10EF400070BD000080E100E040130140001001406E
:10EF5000B021002030B50A48FF21C57D0022094CB0
:10EF60000931094B002D625007D09969437EC26870
:10EF7000D154417E491C417630BD986930BD0000B6
:10EF80009828002000200040002500401FB50123E4
:10EF90006A46137010720348019106C8684690478C
:10EFA0001FBD00009828002008B5024900200091EC
:10EFB00008BD00008020002010B50121202805DABE
:10EFC0001A4A8140114201D1194810BD8107C90E6A
:10EFD000002808DA0207120F083A9208154B92002F
:10EFE000D218D26904E08208134B9200D21812683A
:10EFF000CA401106890F042911D200290FD0022915
:10F000000DD00E494C68C306DB0E01229A40002C3D
:10F0100008D0400980000B5813430B5004E004480B
:10F02000401C10BD06480260002010BDFC06FFBC5D
:10F030000120000000ED00E000E400E0E4210020F9
:10F0400000E100E010B504480122417851404170D0
:10F050000248FDF768FB10BD80200020FC24002042
:10F0600070B51448012451216425846022C00471C4
:10F070001049114800F03EF80E488C211030016014
:10F08000FF212D3141600A2181600026067301466F
:10F090000948083000F02EF80648FF2120300560AE
:10F0A000F53184604160067301460348103000F07A
:10F0B00021F870BD4C2500208C20002010B503687D
:10F0C0000A6889689C1A8C4202D9591A016010BDDD
:10F0D00001210260017110BD10B54B68026889689A
:10F0E0009C1A8C4202D95118016010BD00210360A6
:10F0F000017110BD0A7B002A03D04968016000211C
:10F1000002E00968016001210171704710B50446F1
:10F1100000790028204602D0FFF7DEFF01E0FFF76C
:10F12000CDFF206810BDFFB50746806A81B0144648
:10F1300000283DD0002538462030009033E00C20D8
:10F14000B96A68430E18B088801CFE2802D90C20CA
:10F1500005B0F0BD22880299401C885420881622F0
:10F16000401C80B2208002990A542088401C80B242
:10F17000208002994118308800F0F0FB2188401867
:10F1800080B22080B288002A0AD0B16800290FD04E
:10F19000029BC018FBF7F4FF2088B188401820803C
:10F1A0006D1C0098EDB2007BA842C8D80020CFE7C4
:10F1B0000720CDE730B59BB0032118A801721421B8
:10F1C00010A8FCF704F80024012510A8109405717C
:10F1D0001AA81290601C0107090F10A810310173C2
:10F1E00044738473601C0107090F10A81031C173A8
:10F1F0000020014610A8017401462448FDF726FAB4
:10F20000002801D0FCF78CFB142115A8FBF7DFFFC9
:10F210000120014618A8103141700120014618A8AC
:10F22000103181700020014618A8C17001200146EC
:10F2300018A81031017110A815940576642118A83A
:10F2400017940170114815A91838FCF7FDFF002824
:10F2500001D0FCF765FB40216846FBF7B8FF0CA125
:10F260006846FDF763FA0120014608A810310177CE
:10F270000020014608A841776846FDF7DBF8002822
:10F2800001D0FCF74DFB1BB030BD0000FC2400207A
:10F290004E6F7264696353656D69636F6E64756305
:10F2A000746F720010B50020FDF70EFC002801D02D
:10F2B000FCF736FBFDF758FB002801D0FCF730FBCC
:10F2C0003CDF002801D0FCF72BFB10BD10B50F4927
:10F2D0000028087009D0012811D0022812D0032874
:10F2E00002D14869FEF730FD10BD00208861C86179
:10F2F000074840780028F7D0FDF77EFE10BD00F0EB
:10F30000F7F810BD00F056F810BD0000782100207D
:10F31000B4280020002803D00249C86000207047AC
:10F320000E207047D02100201CB5034901910091A7
:10F33000694660DF1CBD00008020002070B50E46CD
:10F340000546144614211046FBF741FF0120002119
:10F3500020802161217326726572002D00D0A07279
:10F36000002070BD10B5FCF7CDFA10BD70B50029B6
:10F3700001D08C0701D0072070BD074C0125A1608A
:10F3800062800649636010DF0028F5D125701620E1
:10F39000FFF712FE70BD0000D021002065F30100D0
:10F3A000002803D002490861002070470E207047F2
:10F3B000D0210020F8B5164C1422606840084000A7
:10F3C00060601448017851430E183769FFF7F8FB65
:10F3D00001463846FBF7AAFE05466061FFF7F0FBE1
:10F3E0000146F0887F1EC019FBF7A0FE022285426D
:10F3F000606801D1104300E090436060E168104014
:10F40000084303D0002000F0BBF8F8BD0220FAE763
:10F4100078210020B428002010B502484069FEF78A
:10F4200093FC10BD7821002010B5FFF7B7FB441EF8
:10F43000FFF7C6FB4443FFF7C3FB04494A69521E6A
:10F440005043CA682146FEF784FC10BD7821002095
:10F45000F8B510481422017851430C182569FFF7BC
:10F46000AFFB0146E088228980184019FBF75EFE59
:10F470000F46FFF793FB461EFFF7A2FB4643E088CB
:10F480002289F1198018044A40191269FEF761FCBB
:10F49000F8BD0000B42800207821002070B5FFF7E7
:10F4A0008FFB0546FFF77AFB441EFFF789FB60439D
:10F4B0002946FBF73BFEFEF747FC70BD70B5FFF732
:10F4C0007FFB8608FFF77CFB0749496948430446F0
:10F4D000FFF764FB451EFFF773FB68433246214686
:10F4E000FEF737FC70BD0000782100200020704737
:10F4F00070B514481422017851430C18241DFFF7ED
:10F500005FFB6188104E884211D2FFF759FB61887A
:10F510000D1AFFF755FB8208A188E06840182169A1
:10F5200040194919FEF715FCFFF74AFB07E0A288CE
:10F53000E06880188A082169FEF70BFC6088F0619A
:10F5400070BD0000B42800207821002010B50548C7
:10F550000079000703D4012000F012F810BD00F07C
:10F5600003F810BD7821002010B504480822416836
:10F5700091434160407800F003F810BD78210020ED
:10F58000024948700249800008580047782100204D
:10F59000CCFB010010B50446FFF738FC2046FCF711
:10F5A00039F92046FCF7D4FC10BD70B50C000546B7
:10F5B00002D10020FCF7B4F9002D02D10020FCF7A5
:10F5C000AFF9207828702088FF2109020840000A3E
:10F5D0006870206809020840000CA8702068000EBE
:10F5E000E87020792871207A68712089000AA87152
:10F5F000A068000CE87170BD10B5054800790007DF
:10F6000002D4FDF7E7FC10BDFFF7AEFF10BD000010
:10F6100078210020FEB51F4C00252769E068029084
:10F620006846FEF7F9FA0190FEF7A4FE0646019837
:10F63000002822D000230098E16817E00E680A46EF
:10F64000864202D9301A086012E0801BF3180026A7
:10F650001660D668D169B446002E07D0FE1836026F
:10F66000360A566066469660D56115460029E5D192
:10F670002846E160FEF7DCFE06E02846FEF7D8FEED
:10F68000002801D1002E02D00298FDF725FD0020B0
:10F690002071FEBDB0210020012002490005086054
:10F6A0007047000000E200E010B50E4BD968002959
:10F6B00006D002680C68A24204D8A21A0A60C1618E
:10F6C000D86010BD0B4604E00B46C969121B002927
:10F6D00004D00C689442F7D3A41A0C600260C16194
:10F6E000D86110BDB0210020F8B51D4DEC68002C8C
:10F6F00034D01C48002740682969401A0602360A9F
:10F700002068B04218D8361AC7192246107CE4691E
:10F7100000280FD0002010746B69002B07D091696E
:10F7200050699847002805D0FCF7FAF802E05169C3
:10F7300090698847002CE3D16978A878814206D186
:10F74000401CC0B2A870022801D10020A870044952
:10F750000006800D18310F50FFF79EFFF8BD000026
:10F76000B02100200015014010B50023184A0521E2
:10F770001846FCF723F9002801D0FCF7D1F8154A08
:10F7800001211548FCF704F9002801D0FCF7C8F85E
:10F790001148124A0121001DFCF7FAF8002801D097
:10F7A000FCF7BEF80C480E4A01210830FCF7F0F8CF
:10F7B000002801D0FCF7B4F807480A4A01210C30B0
:10F7C000FCF7E6F8002801D0FCF7AAF810BD00000D
:10F7D000AC220020B1BC010048FB010049E001005F
:10F7E000E9EE010045F00100FF2107481D3100222C
:10F7F00042500648828A8168895C828A521C8282D1
:10F800000348C16170470000002000409828002094
:10F81000002500401FB500216A461170107204488F
:10F8200082680192817506C8684690471FBD000036
:10F8300098280020F0B5454D012185B049022846A1
:10F84000FFF797F801270026414C002824D0FF211C
:10F8500025312846FFF788F800281DD0FF202530E5
:10F860002E5081203B4980008860A07E002800D176
:10F870006F6002216846017037490868086003908C
:10F88000E17D68460172E0680190E675267606CC57
:10F890006846083C90472BE004212846FFF769F8AA
:10F8A000002825D0FF2109312846FFF75DF8002800
:10F8B0001ED0FFF74FFBE07D617E884218D1207E8D
:10F8C000002808D0627EE168E0752069E060267655
:10F8D000667610460AE0A07E002800D16F60812085
:10F8E0001C4980008860E675607EE168FFF74EFB8A
:10F8F000FF211D312846FFF737F800280DD0A18AD7
:10F90000A07D814202D2FFF76FFF06E0FF211D318B
:10F910006E50002801D0FFF77DFFFF2145312846BA
:10F92000FFF722F800280ED0FF2045302E50A07E91
:10F93000002800D02F60E07D002804D0E675607EAE
:10F94000E168FFF723FB05B0F0BD00000020004098
:10F950009828002000230040802400400870000AFE
:10F96000487002207047000001218140024842682F
:10F970008A434260704700006021002038B5154975
:10F98000154A488890420FD04A78144C521CD2B283
:10F990004A70237B934208D3091D75DF002803D0EA
:10F9A000A169002900D0884738BD00254D70217C11
:10F9B000002907D03B2176DF002803D0A169002968
:10F9C00000D0884761690029EED0684605708847F5
:10F9D00038BD000000210020FFFF00000C270020A0
:10F9E000EFF30580C005C00D1AD0103840B20028D2
:10F9F00008DA0107090F083989080C4A89008918B3
:10FA0000C96904E081080A4A8900891809688007E1
:10FA1000C00EC1400806800F012803D0032803D080
:10FA200002207047002070470120704700ED00E081
:10FA300000E400E042788378521CD2B2934200D1B5
:10FA400000220378934201D1002070470A70416878
:10FA500040781822504308187047FFB583B0164607
:10FA60000C9D0D9C1F46022200950194039800F006
:10FA70000CF8002807D13B4610223146009501942E
:10FA8000039800F002F807B0F0BDFFB583B0074659
:10FA900000200C9C8646268805463AE07868A90036
:10FAA00042181188684681805188C18000226946C9
:10FAB00001A865DF002839D16846017805988142A0
:10FAC00026D17046002801D0002200E002222088C2
:10FAD000891842180D998A4227D8714600290AD1FF
:10FAE000401C80B22080069A049911542088401C42
:10FAF000208001208646218806980A18694601A8B8
:10FB000065DF002812D169462088097840182080D6
:10FB10006D1C3888A842C1DC704600280AD02088B5
:10FB2000801B401E80B2FF2802D90C2007B0F0BD18
:10FB3000069988550020F9E70179002902D1007B58
:10FB4000002800D0012070472C2200204C220020E9
:10FB50006C2200208C220020010000077C25002060
:10FB60009C250020C8250020110000001200000084
:10FB70001300000014000000110003007DC9010003
:10FB8000120003007DC90100130003007DC90100BC
:10FB9000140003007DC90100EC260020EFE60100FF
:10FBA000BDDE0100D9DD010079DF0100EBE60100D7
:10FBB0008DDE0100D5DD010071DF0100E7E6010007
:10FBC000DDDD0100D1DD010069DF01009DF40100F0
:10FBD000BDF4010019F4010051F4010029F4010001
:10FBE0004DF5010021D30100CDD20100F9F501004E
:10FBF000D1DF01008C290020030000001CFC010063
:10FC0000802000207001000030B2010048FC01009B
:10FC1000F021002018100000EEB401003201031E94
:10FC2000FFFF140D18011A0F041A0A04001128010D
:10FC300012233445566778899AABBCCDDEEFF009C4
:08FC40001E6401E51324F40029
:040000050001B0C185
:00000001FF
