:020000040001F9
:10C00000C831002015C101002FC1010031C101005C
:10C010000000000000000000000000000000000020
:10C0200000000000000000000000000033C101001B
:10C03000000000000000000035C1010037C1010010
:10C0400039C1010039C1010041C80100DDC701004B
:10C0500039C101000000000039C1010039C10100EF
:10C0600039C1010039C1010039C1010039C10100E4
:10C0700039C1010039C1010039C1010039C10100D4
:10C0800039C1010039C1010039C1010039C10100C4
:10C0900039C1010039C1010039C1010039C10100B4
:10C0A00039C1010039C1010000000000000000009A
:10C0B0000000000000000000000000000000000080
:10C0C0000348854600F0BAF900480047CDD6010084
:10C0D000C8310020401E00BF00BF00BF00BF00BF2E
:10C0E00000BF00BF00BF00BF00BF00BF00BFF1D155
:10C0F00070470000401E00BF00BF00BF00BF00BF70
:10C1000000BF00BF00BF00BF00BF00BF00BFF1D134
:10C11000704700000321094802680A43026008488A
:10C1200002680A4302600748804707480047FEE765
:10C13000FEE7FEE7FEE7FEE7FEE70000240500401D
:10C1400054050040EDC70100C1C001000048704720
:10C1500010E6010010B50446FFF7F8FF0068005D27
:10C16000C007C00F10BD01464139192900D8203041
:10C17000704703460B439B0703D009E008C9121F11
:10C1800008C0042AFAD203E00B780370401C491C53
:10C19000521EF9D27047D2B201E00270401C491E13
:10C1A000FBD270470022F6E710B513460A46044654
:10C1B0001946FFF7F0FF204610BD421C0178401CD5
:10C1C0000029FBD1801A70470FB400B58DB00990DB
:10C1D0000B9010A900200091C0430A9000200C9001
:10C1E00006480690064807906A4609A80F9900F08D
:10C1F000F3F80DB008BC04B018470000F9C3010003
:10C2000019C40100FFB50027FF4383B000205C681C
:10C2100001909E681D46A9697F1C0498884700907C
:10C22000296A88470028F6D10098401C0CD00320CA
:10C2300040028443002E19DD600614D500982B2897
:10C2400009D02D280FD103E00020C04307B0F0BD76
:10C25000012080020443A9697F1C04988847761E48
:10C260000090002E02DD0098302803D005980028A9
:10C2700025D035E0012040020443A969761E7F1CC9
:10C28000049888470090002E03DD782805D05828B0
:10C2900003D00598002810D022E00598002801D08E
:10C2A00010281DD1012040028443A969761E7F1CFD
:10C2B000049888470090102002E0082000E00A203F
:10C2C00005900DE0012149020C43059A0199761E63
:10C2D000514308180190A9697F1C04988847009071
:10C2E000002E05DD0599009800F061F80028E9DAD4
:10C2F000E96904988847A00502D40120C043A5E756
:10C30000E00722D1600611D56005019800D54042B2
:10C3100029680A1D2A600968220501D5087014E001
:10C32000220701D5088010E008600EE02868011D92
:10C3300029600068210502D50199017005E02107F7
:10C34000019901D5018000E0016038467EE7F0B533
:10C350001FB40646002082B005464024019100909B
:10C360001BE0019922460F46304600F089F8049AF6
:10C37000059B801A994110D310461946224600F0B9
:10C380006FF8361A8F410197224601200021009F45
:10C3900000F066F838184D4100902046641E0028D1
:10C3A000DFDC019B00982946324607B0F0BD3A28F1
:10C3B00000D23038202302469A43412A01D3104646
:10C3C0003738884201D30020C04370470268137891
:10C3D000511801601846704710B5D1600449516189
:10C3E0000449116200211161114600F05BF810BD93
:10C3F000CDC3010055C101004268002A08D0016880
:10C400000B78491C002B03D0521E06C018467047FB
:10C410000121C160881E70474268002A0BD0C368A2
:10C420000168002B07D183688B4204D0491E521C3F
:10C4300006C0002070470020C0437047064C01250D
:10C44000064E05E0E36807CC2B430C3C98471034BC
:10C45000B442F7D3FFF738FE14E6010034E60100DA
:10C4600010B5202A04DB0146203A9140002010BD7F
:10C47000914020239C1A0346E3401943904010BD8D
:10C4800010B5202A04DB0846203AD040002110BD18
:10C490000B46D340D0402024A21A914008431946AD
:10C4A00010BD0000F3B58DB000200A9001200B9064
:10C4B000002608460C300C46099062690121099853
:10C4C0009047051E2ED0252D2DD0216A88470028A3
:10C4D00018D06269012109989047216A884700288D
:10C4E000F7D1411E62690998904700E0761CA16966
:10C4F0000D988847216A88470028F7D1E1690D988F
:10C500008847DAE7A1690D9888470746A84201D114
:10C51000761CD2E7E1690D9888477F1C02D10A9802
:10C52000002877D049E1002762693D4639460998DD
:10C5300090472A280CD1626901210998904701256A
:10C5400006E00A214F433F18303FEBD4102005434B
:10C550006269012109989047014630390A2903D2BE
:10C560009B498F42DEDCECE7E90600D4994F6C284A
:10C570000AD04C2810D0682824D06A282ED07428DD
:10C580000CD07A280AD00DE0626901210998904701
:10C590006C2823D004211CE020200543626901217E
:10C5A00009989047A760656065284FD026DC582819
:10C5B00039D01ADC452849D012DC252834D041284E
:10C5C000B0D143E06269012109989047682802D000
:10C5D00008210D43E6E70120C002DEE70220DCE788
:10C5E000462833D047282CD130E05B2870D0612812
:10C5F0002CD063286CD0642823D161E06F284FD001
:10C6000009DC662822D0672820D0692826D06E2829
:10C6100017D12EE0CDE070284DD073286FD075284B
:10C620004ED078280DD154E0A1690D988847054671
:10C63000252800D16CE7E1690D9888476D1C00D171
:10C640006DE7BAE00A224CE00A2252E001202346BC
:10C650006A46C0430D99C046C046A3E02846402123
:10C6600008436060A807234601D5002239E0002274
:10C670003FE0E80700D020E72068011D2160006846
:10C68000290501D5067018E7290701D5068014E7AA
:10C69000A90703D5F117066041600EE706600CE7B5
:10C6A0002846402108436060A807234601D5082298
:10C6B00017E008221DE0484928460840606016E05F
:10C6C0002846402108436060A8072346BCD5B9E747
:10C6D00015E02846402108436060A80707D5234697
:10C6E00010220120C0430D99C046C0465AE023469F
:10C6F00010220120C0430D99FFF784FD52E0002174
:10C700000C910B460091632802D05B2807D043E0D0
:10C71000E80601D40120A060012000903CE062699D
:10C720000121099890475E2805D101200C9001460F
:10C730006269099890472169002906D10B4601AA30
:10C740008F00491CD3510829FADB002835D0216914
:10C7500000290ED1C117C90E09184A11930001AA68
:10C760009A1849094901411A012013688840034376
:10C77000136062690121099890475D28E5D10C9802
:10C78000002808D0002001AB81005A58401CD24339
:10C790005A500828F8DB01AB01202246C0430D990E
:10C7A000C046C04600280ADA401C06D10B98002873
:10C7B00003D00020C0430FB0F0BD0A98FBE7E907A3
:10C7C00002D10A99491C0A91361800200B9074E690
:10C7D000CCCCCC0CFFFFFF7FF1F7FFFF10B50021A1
:10C7E000014801F041F810BD0030004010B500F0E4
:10C7F0001FFF002805D00E490C484860C8130D499A
:10C8000088610D48018CC9B201290ED1818C0907BC
:10C810000BD1018D0906090F042906D1808D000670
:10C82000000F02D105490120886010BDDFFF07C05D
:10C8300000050040006C0040C00F00F00006004002
:10C84000F0B53C4D012185B04902284601F0CAF9F6
:10C8500001270026384C002823D0FF212531284607
:10C8600001F0BBF900281CD0FF2025302E5081207C
:10C87000324980008860607D002800D16F6002210D
:10C88000684601702E49086808600390E17C68469C
:10C890000172E0680190E67406CC6846083C904757
:10C8A0001DE00421284601F09DF9002817D0FF2142
:10C8B0000931284601F091F9002810D001F068FAFA
:10C8C000E07C217D88420AD1607D002800D16F6024
:10C8D00081201A4980008860207D01F089FAFF21BB
:10C8E0001D31284601F079F900280DD0A07C218A5D
:10C8F000884202D901F0A2FC06E0FF211D316E50F2
:10C90000002801D001F0C2FCFF214531284601F08A
:10C9100064F900280CD0FF2045302E50607D00289F
:10C9200000D02F60E07C002802D0207D01F060FA6A
:10C9300005B0F0BD00200040682800200023004022
:10C94000802400400FB410B503A9044B044A029898
:10C9500000F024F810BC08BC04B018474DD001000A
:10C960002C28002030B47446641E2578641CAB4229
:10C9700000D21D46635D5B00E31830BC184702E03F
:10C9800008C8121F08C1002AFAD17047704700205A
:10C9900001E001C1121F002AFBD17047FFB591B021
:10C9A0000F460546002606E025280AD0149A13995A
:10C9B00090476D1C761C28780028F5D1304615B0BC
:10C9C000F0BD002400940121F34A029400E00443E6
:10C9D0006D1C2B780846203B98401042F7D12878F0
:10C9E0002A280ED0022128780246303A092A15D882
:10C9F000009A0A235A43303A80180C436D1C009069
:10CA0000F1E701CF0090002805DA0120400304433C
:10CA1000009840420090022004436D1C28782E2884
:10CA200015D10420044368786D1C2A280AD101CF4F
:10CA30006D1C02900BE002990A22514330394018D4
:10CA40006D1C02902878014630390929F3D92878DD
:10CA50006C2810D006DC4C281AD068280ED06A2822
:10CA600017D104E0742813D07A2812D110E00120E5
:10CA7000400504430CE00121090501E003210905FB
:10CA80000C436978814203D10120000524186D1CF4
:10CA90006D1C287803906E281ED00CDC632831D0E2
:10CAA00004DC00288AD0582811D1B2E064287BD059
:10CAB00069280CD178E073282DD004DC6F2870D061
:10CAC000702804D1A7E075286CD078286BD0149A10
:10CAD00013999047761C62E06002400F022807D04D
:10CAE00003280AD0042838680AD006603F1D56E0A3
:10CAF0003868F11706604160F8E738680680F5E7A6
:10CB00000670F3E73878694608740020487404A872
:10CB10000390012003E0386803900020C0433F1DCC
:10CB200061070FD5002101E00199491C029A01918A
:10CB3000914213DA8142F7DB019A0399895C00295B
:10CB4000F2D10BE0002101E00199491C01918142E1
:10CB5000FADB019A0399895C0029F5D101990098C3
:10CB6000139A401A00902146149B00F03BF901995A
:10CB70008019461807E0039803990078491C03912F
:10CB8000149A139990470198401E0190401CF2D1CD
:10CB90002146149B139A009800F014F986196D1C15
:10CBA00009E741E033E034E00A20002104900591D8
:10CBB0006002410F022905D001CFC2179446032914
:10CBC00005D007E0FF1DFF08FF0003CF06E000B21D
:10CBD000C2179446042902D140B2C1178C460022E4
:10CBE0006146944506DA0A460021404291418C464E
:10CBF0002D2102E0210504D52B216A461176012161
:10CC000003E0E10701D02021F7E7019154E00A2079
:10CC10000BE0102009E010200490002104200443C0
:10CC200008200591029003E008200021059104905E
:10CC30006002410F022905D001CF0022944603294A
:10CC400006D006E0FF1DFF08FF0003CF8C4603E07F
:10CC500080B2042900D1C0B20021019121072BD557
:10CC60000399702906D0049A1021059B4A401A4363
:10CC700005D00EE040216A461176012108E06146A8
:10CC8000014306D030216A4611760399517602217C
:10CC90000191049A0821059B4A401A430CD1614630
:10CCA000014301D1610707D530216A461176012180
:10CCB00001910299491E02910399582904D037A184
:10CCC00003910FA90F910DE039A1F9E76146059B8A
:10CCD000049AFFF73CFB039B8C469B5C0F9A521E09
:10CCE0000F92137061460143F0D10F9807A9081AFB
:10CCF00020300390600704D501200004844302988B
:10CD000001E0012002900399884201DD401A00E011
:10CD1000002041180290019809180098401A0090CC
:10CD2000E00306D42146149B139A009800F05AF8A9
:10CD300086190020049008E006A9085C149A13994B
:10CD400090470498401C761C049001998842F3DBBC
:10CD5000E0030CD52146149B139A009800F042F88A
:10CD6000861904E0149A302013999047761C029992
:10CD7000481E02900029F5DC08E00F980F99007812
:10CD8000491C0F91149A13999047761C0399481ED9
:10CD900003900029F1DCFBE6092801003031323331
:10CDA00034353637383961626364656600000000E7
:10CDB00030313233343536373839414243444546D1
:10CDC00000000000F8B5044600251E4617468804FA
:10CDD00004D405E039462020B0476D1C641EF9D507
:10CDE0002846F8BDFFB50446002581B01E46C8039D
:10CDF00001D5302700E02027880404D505E0384617
:10CE00000399B0476D1C641EF9D5284605B0F0BDE6
:10CE10004079182148430249401801218171704727
:10CE20008028002010B5417918225143134A0B2461
:10CE300089180368E401CA791B199A600268012302
:10CE4000136208220A74FF221D324A8203680024FA
:10CE50009C5042790A4B92009A58091D002A0AD028
:10CE60000368032424021B190A699A6080220A615C
:10CE7000016809194A6001F019FA10BD80280020E4
:10CE800008280020BFF34F8F04490348C860BFF350
:10CE90004F8F00BFFDE700000400FA0500ED00E041
:10CEA00010B58268C368934203D000F0BCF800203C
:10CEB00010BD052010BD002906D0002A02D0531E47
:10CEC000134203D0092070470E2070470160838011
:10CED00000218160C1600846704710B58268C36850
:10CEE0009A1A83889A4203D800F0A7F8002010BD50
:10CEF000042010BD10B5044609488168C2688088C6
:10CF0000511A814207D10121064800F087FD00280F
:10CF100001D0052010BD21460148FFF7C1FF10BD1B
:10CF2000482800200228002070B50446224888B016
:10CF30001E460D0042601CD0A888296882B21F4896
:10CF4000FFF7B9FF002815D1A889A96882B21B484C
:10CF50001030FFF7B0FF00280CD120221849684696
:10CF6000FFF707F9A06806902079002804D0012176
:10CF700003E0072008B070BD002168460175067700
:10CF80006079002800D00E2069464875E07802904C
:10CF9000A078039020780190607800900949684655
:10CFA00000F0E4FC0028E5D100F092FD02480121E8
:10CFB000801C00F033FDDDE7002800204828002019
:10CFC0006CE401007DE3010010B504460648012130
:10CFD0004470401C00F088FD112803D1214603480D
:10CFE000FFF77BFF10BD000000280020582800201C
:10CFF00072B602480168491C016070472828002069
:10D0000003490868401E086000D162B670470000FE
:10D010002828002008B56846FFF76CFF0528FAD0DD
:10D020006846007808BD826883881A4003689A5C65
:10D030000A708168491C81607047C26883881A4001
:10D0400003689954C168491CC160704710B5044613
:10D05000C0B2FFF7B9FF204610BD10B5FFF7DAFFE9
:10D0600010BD0000FFB581B00E461C46174619469C
:10D0700010460A9DFFF796F823463A463146019836
:10D0800000F0FEF8040006D0002D04D0324603A0C4
:10D090000199FFF757FC204605B0F0BD4572726F4D
:10D0A000722072656164696E67204932432063684B
:10D0B0006970202530325820616464722025303236
:10D0C000580A0000F0B58BB00D46109F0646114679
:10D0D0001C46202B06D92022194611A0FFF732FC4E
:10D0E0000C2410E06A46157101A81A460130FFF7BA
:10D0F00040F800200090234601AA3146144800F071
:10D100002DFC040006D0002F04D02A46314611A081
:10D11000FFF718FC1948FEF7EDFF20460BB0F0BDF5
:10D120004572726F7220696E206932635F7772692F
:10D1300074653A206C656E203E206D617820286C05
:10D14000656E3D25642C206D61783D2564290A00BB
:10D1500074E501004572726F722077726974696EAE
:10D160006720493243206368697020253032582097
:10D170006164647220253032580A000010270000D4
:10D180001FB50A4B6C460FCB0FC4084800231A4644
:10D190006946083800F016FB040004D1034808383B
:10D1A00000F0DCFA204604B010BD00007CE5010070
:10D1B00010B515A000F0ACFD19A000F0A9FD1AA053
:10D1C00000F0A6FD1BA000F0A3FD20A000F0A0FD34
:10D1D00022A0FFF7B7FB00F05DFD0400E9D0FEF7E9
:10D1E000ECFF0128E5D82078FEF7BDFF312804D0F8
:10D1F000322805D06D28DCD110BD00F05BF8D8E7EF
:10D2000000F036F9D5E700000A0A3E3E3E202049EC
:10D210003243204D656E7520203C3C3C0A000000E6
:10D22000312E205265616400322E20577269746578
:10D23000000000002D2D2D2D2D2D2D2D2D2D2D2DD2
:10D240002D2D2D2D2D2D2D2D2D0000004D2E204D61
:10D2500061696E206D656E75000000000A456E7490
:10D2600065722053656C656374696F6E3A200000C7
:10D2700008B501236A46002100F002F808BD00004D
:10D28000FFB581B017460546002401461E4602AA96
:10D290000748009400F062FB002806D133463A4666
:10D2A00029460348009400F051FB05B0F0BD000092
:10D2B00074E501007CB541A000F02AFD434C44A078
:10D2C000E178FFF73FFB00F0E5FC050073D0FEF7C7
:10D2D00074FF002811D00121284600F0CDF9002864
:10D2E00026D001AA3FA12846FEF76EFF01281FD1D4
:10D2F0000198411E7E291BD8E07021793AA0FFF7E2
:10D3000021FB00F0C7FC050055D0FEF756FF0028B2
:10D3100015D00121284600F0AFF9002806D001AA57
:10D3200030A12846FEF750FF012806D033A020E0A8
:10D330007F2137A0FFF706FB3DE0019820713CA05C
:10D34000A168FFF7FFFA00F0A5FC050033D0FEF757
:10D3500034FF002812D00121284600F08DF9002862
:10D3600006D001AA1FA12846FEF72EFF012803D0F0
:10D3700033A000F0CDFC1EE00198A06001200090D9
:10D38000334A2179E078A368FFF76CFE002812D1B8
:10D39000E17830A0FFF7D6FA00252D4E04E0715D4C
:10D3A00030A0FFF7CFFA6D1CA0688542F7D32F4954
:10D3B0000A2000F0A9FC00F045FC7CBD4932432066
:10D3C00052656164204F505300000000382800204F
:10D3D0004932432041646472657373205B25585D54
:10D3E0003A20000025780000446576696365205284
:10D3F0006567205B25585D3A20000000496E766124
:10D400006C6964207265676973746572000000005E
:10D4100056616C6964204164647265737320617243
:10D42000652030783020746F2030782530325800F5
:10D430004C656E677468205B25585D3A20000000DB
:10D44000496E76616C6964204C656E677468000093
:10D45000982900204461746120617420307825305F
:10D460003258200025303258000000002C280020BF
:10D470007CB53DA000F04CFC3F4C40A02178FFF76C
:10D4800061FA00F007FC05006BD0FEF796FE00285D
:10D4900011D00121284600F0EFF8002826D001AA7B
:10D4A0003BA12846FEF790FE01281FD10198411E9E
:10D4B0007E291BD82070617836A0FFF743FA00F070
:10D4C000E9FB05004DD0FEF778FE002815D00121BC
:10D4D000284600F0D1F8002806D001AA2CA1284641
:10D4E000FEF772FE012806D02FA038E07F2133A07E
:10D4F000FFF728FA35E001986070A17837A0FFF7B0
:10D5000021FA00F0C7FB05002BD0FEF756FE0028DD
:10D5100010D00121284600F0AFF800281ED001AA43
:10D520001BA12846FEF750FE012817D10198FF28BD
:10D5300014D8A0702D490A2000F0E6FBA378627889
:10D5400021782BA0FFF7FEF901200B4A009003463B
:10D55000921C61782078FFF7B5FD02E02CA000F066
:10D56000D7FB00F06FFB7CBD4932432057726974D2
:10D5700065204F50530000003828002049324320D6
:10D5800041646472657373205B25585D3A20000026
:10D590002578000044657669636520526567205BE5
:10D5A00025585D3A20000000496E76616C69642060
:10D5B00072656769737465720000000056616C697A
:10D5C00064204164647265737320617265203078F1
:10D5D0003020746F203078253032580056616C75D9
:10D5E00065205B25585D3A20000000002C280020B3
:10D5F00063686970205B25585D20726567205B2534
:10D60000585D2064617461205B25585D3A200A00F2
:10D6100056616C69642076616C7565732061726512
:10D620002030783020746F203078464600000000AB
:10D630001048018CC9B2012917D1818C090714D176
:10D64000018D09060A0F03D1828D1206120F0ED02A
:10D65000090F012903D1828D1206120F07D0032969
:10D6600003D1808D0006000F01D0002070470120FB
:10D6700070470000C00F00F0F8B506460446007879
:10D6800000270D46302805D17078FEF76CFD78280C
:10D6900000D1A41C3046FEF790FD061E10DD680088
:10D6A000B0420DDB002509E0FEF750FD0068615D2A
:10D6B000405C81004140080602D56D1CB542F3DB99
:10D6C000B54200D101273846F8BD000000F0A8FEA1
:10D6D000FFF756FD05A0FFF735F90748FFF7BDFC3A
:10D6E000C0B21B28F9D100F00BFCF6E70A0D537409
:10D6F0006172743A200A0D00302800208207D30E90
:10D70000FF229A408907090E10B5994000280BDACC
:10D7100003071B0F083B9C080C4BA400E318DC69B3
:10D7200094430C43DC6107E08408094BA400E4182F
:10D73000236893430B432360C106C90E0120884030
:10D74000044908600449086010BD000000ED00E0D5
:10D7500000E400E080E200E000E100E010B5FF231B
:10D76000053302680021D15002681B1DD150FF23F0
:10D7700002681D33D150FF2302682533D15042790E
:10D780000E4B92009A58002A06D001230324026807
:10D790005B02240212195360052302681C0212194D
:10D7A0001360437918225343054A0224D454407924
:10D7B000182358438018417010BD0000082800202D
:10D7C00080280020F8B504460D4640791821214EE6
:10D7D0004143715C002901D00820F8BD002D02D121
:10D7E0001D4D01014D191D4F80003A506079391DC2
:10D7F00080000B506079091D80000C50294620469E
:10D8000000F04CFC296816488A001649521810602E
:10D810006A6892005118086021680522120289186E
:10D82000A8684862216809CD89188860CB60607952
:10D83000083D80003858002804D00420297B205659
:10D84000FFF75CFF6079182201215043315400201A
:10D85000F8BD000080280020ACE40100082800206A
:10D860000C06000000070050F3B585B00546069889
:10D870001821484332494618FF21341D25312846D6
:10D8800000F0A6F90746E189284600F0A1F9014613
:10D890000020FF222532A850FF221D32A850FF226F
:10D8A0000932A850121FA8503846084346D0002F0E
:10D8B00001D0052105E02078002801D0022100E0F8
:10D8C0000321069887001F48C05900F0B3FA1D498C
:10D8D000A078091F002817D00020B0701A484DC842
:10D8E000009001A84CC060680190608902900920F6
:10D8F000C0012A18506C5064800701D5022000E056
:10D9000004206A46107313E060892289904215D37F
:10D9100000200090019002900390B07020780028C1
:10D9200000D001206A461070606801906089029002
:10D930000448C9590838C2596846904707B0F0BD35
:10D940008028002010280020D0E401007CB5069C2F
:10D9500000250195009400F0EDFB7CBD7CB5069C94
:10D9600001250195009400F0E5FB7CBDF3B504466C
:10D97000244881B0807D002801D00820FEBD002C05
:10D9800000D1214C206800F010F920780127394699
:10D990001E4E8140B1600021606800F0FDF81C4D12
:10D9A000A0696862607D217D0843E86603CCE86079
:10D9B0006961207B083C01280ED10021A06800F09D
:10D9C000EBF8E06800F0F1F8207B39468140B16067
:10D9D000E168A068A96028610A4E02987060216918
:10D9E0003160002806D00C4A217F0A48506002208E
:10D9F000FFF784FE042028600020F074B074B7752F
:10DA00007075FEBD682800208CE401000005005000
:10DA1000002500408000020000230040F8B5294D99
:10DA2000EA7C002A01D01120F8BDE974E8600020EA
:10DA30002875687D002801D100F0EAF96868224C59
:10DA4000002805D081202149800048600020F8BDD1
:10DA5000FF212531204600F0C0F80546FF2109319D
:10DA6000204600F0BAF80746FF214531204600F075
:10DA7000B4F80646394631432943E9D028463043B5
:10DA800006D100F085F90F48C17C007D8142DFD8C6
:10DA9000FF21453100206050FF21253160500949A8
:10DAA000002DC87401D00320F8BD002E01D00F2036
:10DAB000F8BD497D0120002901D02060C6E76060E3
:10DAC000C4E7000068280020002000400023004038
:10DAD00010B5044C607D002803D100F099F90120B5
:10DAE000607510BD68280020F8B5204C0026A27C87
:10DAF000002A01D01120F8BDA174A060002020826E
:10DB00001B4DFF271D37E8510120A86000F096FB50
:10DB10006168002911D024E0FF2701372946144805
:10DB200000F05BF8002802D1208AB842F6D1208AA2
:10DB3000B84203D000F082FB00E03D46A07C218A81
:10DB40008842E9D8218AC81FF9380CD0084F2946E5
:10DB5000384600F042F80028F9D00120F860002093
:10DB6000A0743046F8BD0F26F9E7000068280020B1
:10DB70000020004030B552000A439900039C0A433C
:10DB80002102049D0A4329040A43024980004018E7
:10DB9000026030BD000700501CB500220B46009209
:10DBA00011460192FFF7E6FF1CBD1CB50021009154
:10DBB0000B46012201911146FFF7DCFF1CBD00005E
:10DBC000012181400148816070470000000500503C
:10DBD0004058002800D0012070474058002800D04D
:10DBE000012070470322120280184068084000D0CC
:10DBF0000120704710B54179182251430F4A891806
:10DC0000FF2205324A82036800249C5042790C4B63
:10DC100092009A58091D002A0AD00368032424029E
:10DC20001B190A699A6002220A61016809194A608F
:10DC30000268012111620068416110BD8028002046
:10DC40000828002010B505A0FEF77CFE00F018F8AB
:10DC50000A490A2000F058F810BD00000A50726509
:10DC6000737320616E79206B657920746F20636F08
:10DC70006E74696E75652E2E2E0000002C28002013
:10DC800010B50348FFF7E9F90028FADDC0B210BD6E
:10DC900030280020F8B51A4D012400262F46FFF742
:10DCA000EFFF082815D00D2805D01B280AD02870B2
:10DCB00014496D1C1BE02E7012490A2000F024F854
:10DCC0000F48F8BD3E700F490A2000F01DF80020F3
:10DCD000F8BDBD420ED90B490820A41E6D1E00F0F0
:10DCE00013F80849202000F00FF80649082000F03A
:10DCF0000BF800E0641E641C202CD0DBFE77DBE711
:10DD0000A82900202C28002010B5FFF79FF910BD8E
:10DD100010B5044601E0FFF799F92078641C034927
:10DD20000028F8D10A20FFF791F910BD2C28002017
:10DD300010B5417918225143134A0B2489180268FF
:10DD4000E401CB7912199360026801231362002267
:10DD5000FF230A7409334B820468E25042790B4B6B
:10DD600092009A58091D002A0AD0046803231B0256
:10DD7000E4180A69A26004220A610168C9184A60AD
:10DD800000F0A8FA10BD000080280020082800201C
:10DD9000FF210748093100224250064881690648A0
:10DDA000037DC268D154017D491C01757047000094
:10DDB00000200040002500406828002010B541796F
:10DDC00018225143094A0523891802681B02D218F8
:10DDD0009269CC898B681A55CA89521C92B2CA8141
:10DDE00089898A4201D200F075FA10BD802800208E
:10DDF0001FB5012269460A7008720448C168019182
:10DE00000021C17406C8684690471FBD68280020DD
:10DE1000FF220548253200218150FF22093281501E
:10DE200001210160704700000020004010B500F0A3
:10DE300051FA10BDF0B4427918235A430D4B0F4EDE
:10DE4000D418627895000C4A5359002275590DE098
:10DE5000D6009E5D8E4208D1D100C9184A78627002
:10DE60004968002904D0F0BC0847521C9542EFD8FD
:10DE7000F0BC70478028002014280020BCE401007A
:10DE800000B587B00020694608714871022101AAD7
:10DE90005054491C1229FBDB69468875C8750690E9
:10DEA00001200090182380216020FFF70BF9FFF775
:10DEB000C9FE07B000BD00B587B0002168460171FA
:10DEC00020224271022001AA2F231354401C122841
:10DED000FBDB4D22684682754822C275FF2202761E
:10DEE00041768176C17601200090182301AA802115
:10DEF0006020FFF7E7F8FFF7A5FE07B000BD0000C0
:10DF00001CB533A0FFF704FF37A0FFF701FF39A0CE
:10DF1000FFF7FEFE3AA0FFF7FBFE3DA0FFF7F8FE7D
:10DF20003FA0FFF7F5FE41A0FFF7F2FE41A0FEF78C
:10DF300009FDFFF7AFFE0400E3D0FEF73EF901282C
:10DF4000DFD82078FEF70FF93628DAD008DC303831
:10DF50000300FEF707FD06040B0E111F3A04D0E77D
:10DF60006528CED138A0FFF7D3FE1CBDFFF788FF90
:10DF7000C7E7FFF7A0FFC4E7A521684601715A2152
:10DF8000417101200090022301AA00216820FFF7BF
:10DF900099F817E032A0FFF7BBFE37A0FEF7D2FCDE
:10DFA00000242046FFF764F9002803D1214638A059
:10DFB000FEF7C8FC641CE4B2802CF2D336490A2078
:10DFC000FFF7A2FEFFF73EFE9BE7FFF7F1F898E7A9
:10DFD0000A3E3E3E20204D61696E204D656E7520E3
:10DFE000203C3C3C0A000000312E204C4544204F90
:10DFF00046460000322E204C4544204F4E00000083
:10E00000332E204C45442052455345540000000017
:10E01000342E204932432050726F626500000000A8
:10E02000352E2049324320522F570000452E2045DF
:10E03000786974000A456E7465722053656C656377
:10E0400074696F6E3A2000000A52756E6E696E67D1
:10E0500020276D61696E27206C6F6F702E2E2E0049
:10E060000A50726F62696E6720493243206275738D
:10E070002E2E2E0A0000000056616C696420636831
:10E080006970206164647265737365733A0000009F
:10E0900020253032580000002C280020F8B50C460E
:10E0A0000968224D89002048491908606168890083
:10E0B000491908602068FFF783FD6068FFF780FD5D
:10E0C00019482168401C8900491908606168890065
:10E0D000491908600420FDF7FDFF0025144F0126B3
:10E0E00020793969C140C807C00F02D0002D19D06E
:10E0F0000FE0207831468140F9600420FDF7EAFF07
:10E100002068FFF75DFD0420FDF7E4FF6D1C092D7D
:10E11000E6DB20798640FE600420FDF7DBFF6068C7
:10E12000FFF74EFDF8BD00000C0600000007005090
:10E1300000050050FFB50646407918213C4F484382
:10E1400083B0C519FEF754FFA878002804D0FEF765
:10E1500057FF112007B0F0BD0120A870FEF750FF57
:10E160000498E8710698A8810598A8600020E881C5
:10E170000C9969710D992971A8712C1DC8B20028DC
:10E180000AD000213046FFF755FE707929498000FA
:10E190000858002802D048E00121F3E72078002841
:10E1A00001D0022000E0032000907079182148433C
:10E1B0001F4900274018001D0290C1893068FFF7F1
:10E1C00007FD0190FF2125313068FFF701FD014671
:10E1D00019487F1C874201D3012000E0002008433A
:10E1E0000199014303D00121484002D008E0029880
:10E1F000E3E7FF21253130680022425005200090DE
:10E20000E18930680022425030460099FFF712FE43
:10E21000A078002803D00020A87003209AE7608926
:10E2200021898842C1D30020A870002092E7000015
:10E230008028002008280020FF0F0000FF21074849
:10E240001D31002242500648028A8168895C028A98
:10E25000521C02820348C161704700000020004048
:10E26000682800200025004010B54179182251434C
:10E27000054A8918CA89521C92B2CA8189898A4280
:10E2800001D200F013F810BD802800201FB5002136
:10E290006A4611701072044882680192817406C83F
:10E2A000684690471FBD00006828002010B54179DE
:10E2B00018225143064A89188B68C9890268595C3B
:10E2C00005231B02D218D16100F004F810BD000034
:10E2D0008028002070B505464079182148431F4921
:10E2E00044182868FF30FF3002300168890889002F
:10E2F0000160E089A189401C241D884202D1607818
:10E3000000280ED001262868FF30FF300230016857
:10E3100031430160207B20212173296801220A50AA
:10E3200070BDFF200530E0810226296800220A50D6
:10E3300068790B498000085800280AD02A68032011
:10E340000002121821699160022121612A681018C7
:10E35000416004212846FFF76DFDD4E780280020A6
:10E360000828002010B50178022901D0012904D124
:10E37000002240681146FEF785FD10BD7CB501788E
:10E38000254D01290AD002292FD000292CD1294658
:10E390002248FEF785FD00282ED031E04068017844
:10E3A0001E481038FEF799FD1C4C103C002805D083
:10E3B00001216A4611700190684608E0A068E16892
:10E3C000081A012805D10020694608706846696866
:10E3D0008847A068E168081AA188884204D80E48D6
:10E3E0000121801CFFF71AFB7CBD02216A461170D7
:10E3F000C068019068460CE001210748FFF774FBF4
:10E4000006488168C0688842EED1032069460870DA
:10E410006846696888477CBD00280020582800208D
:10E4200000B50E4A87B007CA04AB07C30C4800907A
:10E43000012001900B480290FF200130039003233C
:10E44000094A694604A8FEF76FFD002803D00022A0
:10E450001146FEF717FD07B000BD000068E501009A
:10E46000342800209828002065E3010009000000FE
:10E470000B0000000A00000008000000000000007F
:10E480000000000000509D00030000000900000093
:10E490000B0000000A00000008000000000000005F
:10E4A0000000000000509D00030000000700000075
:10E4B0001E000000000098010300000002000000A0
:10E4C000050000000400000003000000030000003D
:10E4D000020000000000000000000000000000003A
:10E4E0000001000025CE01000102000031DD010025
:10E4F0000201000069E201000102000031DD0100BB
:10E5000000010000ADE20100040300000000000073
:10E5100005040000F5DB0100010200002DDE010012
:10E5200003020000BDDD0100040300000000000044
:10E5300005040000F5DB010003000000BDDD010063
:10E540000200000069E201000500000011CE010098
:10E550000300000011CE01000200000011CE0100F6
:10E560000500000011CE01000C0D0E0F010000008F
:10E5700000509D0000300040030000000700000034
:10E580001E00000000009801010000000040404013
:10E590004040404040404141414141404040404076
:10E5A0004040404040404040404040404005020222
:10E5B00002020202020202020202020202202020E1
:10E5C000202020202020200202020202020290903D
:10E5D000909090901010101010101010101010103B
:10E5E000101010101010101002020202020288888F
:10E5F000888888880808080808080808080808089B
:10E600000808080808080808020202024000000082
:10E610008DE5010034E601000028002048000000DC
:10E620007EC901007CE60100482800208009000026
:10E630008EC9010000000000000000000000000082
:10E640000000000000000000E0E40100F0E4010030
:10E6500018E5010038E5010050E501000000000068
:10E6600000000000000000000000000000000000AA
:0CE6700000000000010000000024F40085
:040000050001C0C175
:00000001FF
