:020000040001F9
:10B0000010240020F5B001000FB1010011B10100C2
:10B010000000000000000000000000000000000030
:10B0200000000000000000000000000013B101005B
:10B03000000000000000000015B1010017B1010080
:10B0400019B1010019B1010045B4010019B10100A5
:10B0500019B1010000000000C5B1010019B10100E3
:10B0600019B1010019B1010019B1010019B10100B4
:10B0700019B1010019B1010019B1010019B10100A4
:10B0800019B101005DB3010019B1010019B101004E
:10B090007DB3010019B1010085B3010019B10100B0
:10B0A00019B1010019B1010000000000000000000A
:10B0B0000000000000000000000000000000000090
:10B0C0000348854600F06CF80048004729C301009A
:10B0D00010240020401E00BF00BF00BF00BF00BF03
:10B0E00000BF00BF00BF00BF00BF00BF00BFF1D165
:10B0F000704700000321094802680A4302600848BB
:10B1000002680A4302600748804707480047FEE795
:10B11000FEE7FEE7FEE7FEE7FEE70000240500404D
:10B1200054050040A5B30100C1B0010030B50B4685
:10B13000014600202022012409E00D46D5409D4211
:10B1400005D31D469540491B254695404019154697
:10B15000521E002DF1DC30BD03460B439B0703D08C
:10B1600009E008C9121F08C0042AFAD203E00B78CC
:10B170000370401C491C521EF9D27047D2B201E044
:10B180000270401C491EFBD270470022F6E710B542
:10B1900013460A4604461946FFF7F0FF204610BD45
:10B1A000064C0125064E05E0E36807CC2B430C3C1A
:10B1B00098471034B442F7D3FFF786FF4CCE010016
:10B1C0006CCE0100F0B50025FF248BB001340126C0
:10B1D0002F460195204601F0B1FA002808D04748D3
:10B1E0004068304204D046480021201835430160B1
:10B1F000241D76007F1CA4B2042FEBD3FF207D30EA
:10B2000001F09CFA002807D03E4800210160400769
:10B2100005433D48006901903C4C280712D00127A6
:10B2200000262F420AD03A48B2001118086909696D
:10B23000C004C00E8903A258890F90477F00761C76
:10B24000042EEED3002D57DA00200590401E4DE06D
:10B25000A119403108788506AD0E42B2521C39D092
:10B260000121A940089A0091114233D0800903902E
:10B27000284600F0E3FD800020580490002802D109
:10B280000398032826D103980099032802D1059832
:10B29000084305901F4AA80080180068019A80039F
:10B2A000800F114202D0022802D013E0032811D1EE
:10B2B0000399032907D102281CD00221284601F056
:10B2C0002DFA7F1CFFB20498002803D0049A284668
:10B2D00003999047761C042EBAD3002F0CD00A484D
:10B2E00000690199884207D00190059800273E46E1
:10B2F0000890ADE70321E1E70BB0F0BD006300402B
:10B30000006000407C61004000050050881B002068
:10B3100000650040000700508307FF22DB0E9A40C3
:10B320008907090E994000280BDA0007000F08383A
:10B33000830808489B001818C36993430B43C361F3
:10B340007047830804489B001B1818689043084303
:10B350001860704700ED00E000E400E010B5064919
:10B360000020086048608860C86003494039086070
:10B37000486001F09BFB10BD4011014010B501F089
:10B380002BFB10BD10B506484068002805D080474B
:10B39000002801D000F016FA10BD00F067FE10BDC5
:10B3A000D418002010B500F09DFE002805D01F49DC
:10B3B0001D484860C8131E4988611E48018CC9B2E7
:10B3C00001290BD1828C120708D1028D1206120FAF
:10B3D000042A03D1828D1206120F0AD0012921D12D
:10B3E000818C09071ED1018D0906090F0A2904D095
:10B3F00007E0114A01219160F5E7828D1206120FD4
:10B4000005D00D290ED1808D0006000F0AD10B4802
:10B410000168012904D00A49016001680129FCD1B1
:10B42000C021416110BD0000DFFF07C000050040E2
:10B43000006C0040C00F00F00006004000EC064029
:10B440007593000010B501F097FB10BD30B4744641
:10B45000641E2578641CAB4200D21D46635D5B0010
:10B46000E31830BC184702E008C8121F08C1002AC0
:10B47000FAD170477047002001E001C1121F002A75
:10B48000FBD17047F7B584B00025168807461580B4
:10B49000406B1446002813D003780598032E51D32F
:10B4A0000221017021881122491C89B22180425455
:10B4B0002188491C89B2218043542088401C208067
:10B4C000386B00281DD005462088059902461232A7
:10B4D000B24237D811220A5420881022401C80B270
:10B4E00020800A542088401C20800F202A5C23885A
:10B4F000401ECA54228840B2521C22800028F5DA2D
:10B500000025384620300290807B002806D0334644
:10B510002246059900F00AFE050014D10298407BEE
:10B52000002806D032462146059800F051FA050061
:10B5300009D1B878002823D0059886462088001DB8
:10B54000B04202D90C2007B0F0BD684679DF002870
:10B55000F9D1218803207246505420881921401CBB
:10B5600080B22080115420887146401C80B2208017
:10B5700041186846008801F093FB2188401820801C
:10B58000F878002817D0218803230A46FB56C91CE7
:10B590000598B142D6D80221815421880122491C44
:10B5A00089B2218042542188491C89B221804354A8
:10B5B0002088401C20807868002817D0218800232C
:10B5C000C3560A46C91C0598B142BBD80221815412
:10B5D00021880A22491C89B2218042542188491CB1
:10B5E00089B2218043542088401C2080388900285B
:10B5F0000AD0009438460196062202210830059BA5
:10B6000001F091FB05009ED1388A00280AD00094F1
:10B6100038460196072203211030059B01F083FB79
:10B62000050090D1388B00280AD000943846019646
:10B63000152214211830059B01F075FB050082D1FD
:10B64000386A002806D033462246059900F052FC9D
:10B650000500D8D1786A002806D0334622460599DD
:10B6600000F0B8FE0500CED10298007B002807D07C
:10B67000334622463846059901F02AF90500C2D121
:10B680003878002807D0334622463846059900F01E
:10B69000D5FE0500B7D1284655E7000030B591B07A
:10B6A0004C2168460187124810901721684681870F
:10B6B00004253821FFF769FD002468460470C57031
:10B6C0000EA809902146684600F04EF9002801D0E6
:10B6D00000F078F818210748FFF757FD05480321C7
:10B6E000017044600472A0210182448211B030BD17
:10B6F00070180020041B0020044842680121C9057D
:10B700000B46934383600A40C260704700050050B7
:10B7100070B50024064D06E06968E000085C012170
:10B7200000F00CFF641C28788442F5D3002070BD23
:10B73000A0180020F8B515460C460646052A01D289
:10B740000720F8BD00F0D0FF002803D100F0A2FFD1
:10B750000028F6D1104900204E600C70C8608D6042
:10B7600008610E4D0DE0E000696880190091817854
:10B770006A46517000780A4A694600F02FFF002897
:10B78000DFD12046641EE4B20028ECD1054A002136
:10B79000024800F023F8F8BDA018002044CE0100B4
:10B7A0001DC001007DBF0100BFF34F8F0449034856
:10B7B000C860BFF34F8F00BFFDE700000400FA052B
:10B7C00000ED00E00EB50021029000916A46019163
:10B7D0000148FFF7E9FF0EBD01400000094B9B68DF
:10B7E000002B07D0002A07D0002805D00068037C72
:10B7F000002B03D008207047072070474174426136
:10B8000000207047B4180020FFB59007002581B0D4
:10B8100014460E46002832D11B4F002C31D000F0C8
:10B82000BDFF049878610320387033461821224602
:10B8300000204B43BC601834C10089180D704D7056
:10B840008E704C601C19401C0328F5DBFD607D7078
:10B8500001240E48BD702405046003211420FFF765
:10B860005BFD0B4804600B4C0198A0600321112084
:10B87000FFF752FD60683861002005B0F0BD072079
:10B88000FBE7BD60FBE70000B418002080E200E0A9
:10B8900000E100E000150140FEB50D461B491746CA
:10B8A0008968044600292AD0002C28D0052D01D211
:10B8B0000720FEBD6069002821D0607C012820D0CF
:10B8C000002601F0F3F9C000104901908968401882
:10B8D000694601F015FA002815D0012101700C49C4
:10B8E000446049680830E2C00849019889684118F5
:10B8F00068460078487001F0B1F80020FEBD0820CD
:10B90000FEBD2E46DDE70420FEBD0000B418002079
:10B9100000150140F8B5134D0446A96800291CD054
:10B92000002C1AD06069002817D00026267401F078
:10B93000BDF9C700A8686946381801F0E1F9002888
:10B940000DD0022101704460A8683918684600785B
:10B95000487001F083F83046F8BD0820F8BD042097
:10B96000F8BD0000B4180020F0B50C4693B01F21BC
:10B970006A461180072600279180002809D0C178E7
:10B9800049070DD502A9FFF77DFD002809D102ADB9
:10B9900001E000251780002C0ED0E078002802D0AE
:10B9A000304613B0F0BD01AA0AA92046FFF76AFD90
:10B9B0000028F6D10AAA02E068460022878068467D
:10B9C0008088C3B268460088C1B2284672DFE8E7C3
:10B9D0007CB5054608880C460930904201D90C20F8
:10B9E0007CBD684671DF0028FAD1218808206854A0
:10B9F00020881B21401C80B220802954208800A967
:10BA0000401C80B22080401906220131FFF7A4FBC0
:10BA100020886946801D80B220800978002900D0E6
:10BA2000012129542088401C208000207CBD00007A
:10BA3000F8B507460024234802E0641C042C1AD2FF
:10BA4000A2008258BA42F8D1042C14D21D481E4ECE
:10BA50000C38002929D001290ED002290BD1600011
:10BA6000201880194578002D05D018480169002953
:10BA700001D028468847F8BD61006118755C8E19B1
:10BA8000717800290CD011490A2249688068514315
:10BA90000E4A521CFFF700FF002801D10B484770E7
:10BAA0000A48B17814300155DDE78068FFF732FFAE
:10BAB00006486100611814308919005D8D78A8422C
:10BAC000D1D0F8BD14CE01005C1B002088180020E6
:10BAD00070B50023042811D2440004190D4D012A29
:10BAE00002D101290DD0002246008019094E80198B
:10BAF00000290CD0012906D0022906D007231846B8
:10BB000070BD0D30C2B22A55F9E74270F7E7827076
:10BB1000F5E700005C1B002010B5054A0146127ACB
:10BB20000020D20702D0084600F054F810BD0000F3
:10BB30008818002070B50E46204905464E608D607D
:10BB400000200A61A9071ED50024012211462046C3
:10BB5000FFF7BEFF641C042C02D20028F5D012E0CF
:10BB6000002810D1720804211548FFF7E3FD0028D2
:10BB700009D1FFF7CDFD002805D11148114A002158
:10BB80001438FFF72BFEE90706D00F220E495205A5
:10BB90008A600023CB608A6100280DD108480B4AD7
:10BBA00000211C38FFF71AFE002805D10448084A76
:10BBB00001211838FFF712FE70BD00008818002020
:10BBC00024CE0100CDBD01000005005081C101005F
:10BBD000F9B60100FEB57A4D0722EB6892059A434B
:10BBE00002936B6800939C0006461B1900200121FC
:10BBF000019349050746734C3300FFF727FC180DE6
:10BC00001515374755677C887F8891DE9E9E9E9EDE
:10BC10009EC8CED1D8DEDE140F21029A4905914389
:10BC2000A160E7602F70FEBDA260E76060680F2230
:10BC300052055040800209D5A160E760022E02D172
:10BC4000E120C0000AE07D20400107E0E160A7603C
:10BC5000022E01D1C82001E0FF2091302E70642116
:10BC6000FFF764FA0099414300223FE0A260E760D9
:10BC700060680F2252055040800204D5A160E76041
:10BC800019204001EAE7E160A760E3E7A260E7600E
:10BC900060680F2252055040800202D5A160E76023
:10BCA000D1E7E160A760D7E7A260E76060680F2294
:10BCB00052055040800202D5A160E76001E0E160DA
:10BCC000A7602E700098410000220FE0A260E7609C
:10BCD00060680F2252055040800202D5A160E760E3
:10BCE00001E0E160A7602E700099002236480068EC
:10BCF000FFF7D2FDFEBDA260E7601BE06168012096
:10BD0000800502468A43A2600140E16010E060685D
:10BD1000012189050A468243A2600840E060E3E70A
:10BD20006068012189050A468243A2600840E060FC
:10BD30000199C9E7E160A7602DE023484068FFF75B
:10BD4000E9FD11218A1B01D0002807D00F22E968E4
:10BD500052051140A160E760EF60FEBD0121C905F9
:10BD6000E960012A0CD91046C82148436421FFF735
:10BD7000DDF969680022414313484068FFF78CFDF4
:10BD80000F22E96852051140E160A760FEBD0F2156
:10BD90004905A160E7602E70FEBD07229205AAE763
:10BDA0000D214905A160E76001218905C2E7032152
:10BDB000C905A160E7608910BCE70F214905B9E713
:10BDC000881800200005005008CE010010B500784A
:10BDD0000221FFF72DFE10BD0022D243830004494B
:10BDE0000428CA5002D30818203002777047000098
:10BDF000881B0020F0B50025ED43002A02D0002367
:10BE0000042601E0042308260B4C04E09F00E759B8
:10BE10007F1C04D05B1CB342F8D32846F0BD261823
:10BE20005DB2203635709E00A151002AF5D1E1188F
:10BE300020310877F1E70000881B0020024909182B
:10BE40002020085670470000881B0020F8B52348C2
:10BE5000C16800293ED00E6821494C680769C07846
:10BE6000E11B0D022D0AED1C002814D101201D4AF2
:10BE7000000450601B4A403A50601B494000086073
:10BE80001A4908601A49012008602F20FFF722F99B
:10BE900012490120C870B54200D23546E8190002A7
:10BEA0000F4B000A403318600D4A5168001B091BF4
:10BEB0000902090A0002000AC91C814209D9506816
:10BEC00018602F20FFF706F9012007494004803948
:10BED0000860F8BD00F062FCF8BD0000B418002056
:10BEE000001501404013014080E200E000E100E065
:10BEF00000100140F8B50646108814468446801D9F
:10BF00000D46984201D90C20F8BD32880720062A38
:10BF1000FAD31927FF01184BBA4201D99A42F3D13B
:10BF200071880629F0D3B94201D99942ECD19A42DD
:10BF300003D0994201D08A42E6D8052160462954AF
:10BF400020881221401C80B2208029542088401C67
:10BF500080B220804119308800F0A2FE218840186C
:10BF600080B220804119708800F09AFE2188401824
:10BF700020800020F8BD0000FFFF0000F8B500267B
:10BF80000124154D23E06968F000471838782146F0
:10BF90002A698140114218D08A432A6100F070FB5F
:10BFA0003A782146EB689140194003469340994204
:10BFB0000BD17978012901D0012100E000217B68B3
:10BFC0004140002B01D010469847761CF6B22878E5
:10BFD0008642D8D3F8BD0000A018002010B50E4945
:10BFE00000234A788C78A24212D0521CD2B24A70F6
:10BFF000022A00D14B704A78074B920018339A58A6
:10C000000260086910180002000A0861012010BDD2
:10C010000360002010BD0000B4180020F8B50746EA
:10C02000104E0125BD403068FFF774FC00280DD18B
:10C030000D4C2069284207D1384600F021FB00282A
:10C04000E06804D0284303E0A8432061F8BDA8437A
:10C05000E0602069002228432061A1683068FFF772
:10C060001BFCF8BD44CE0100A0180020F8B51C4C04
:10C070002078002833D02069002807D00026E06807
:10C08000002805D00025002E04D011E00126F6E797
:10C090000125F8E7684652DF052804D0002804D0BF
:10C0A000FFF790FB04E0012602E021690098884731
:10C0B000002D10D1608869460880A06861DF0528DE
:10C0C00004D0002804D0FFF77DFB04E0012502E046
:10C0D000E168A0688847002EDCD0002DD3D0F8BDE1
:10C0E000D41800201048018CC9B2012917D1818CC5
:10C0F000090714D1018D09060A0F03D1828D12069A
:10C10000120F0ED0090F012903D1828D1206120FD2
:10C1100007D0032903D1808D0006000F01D0002035
:10C120007047012070470000C00F00F030B515883F
:10C13000EC1C9C4201D90C2030BD02244C551388C4
:10C140001C255B1C9BB21380CD5413885B1C9BB2D7
:10C150001380012807D0022807D0032807D004281D
:10C1600007D0072030BD002004E0012002E0CC54BD
:10C1700001E00320C8541088401C1080002030BD0E
:10C1800010B50448017AC90702D00078FFF722FDF4
:10C1900010BD000088180020F8B52C49C8680A694D
:10C1A0000C780F7989688646944600913EE00099A4
:10C1B000E20055182A7836E0182353436968521C68
:10C1C000C918AB78D2B2934200D100220B78022B6F
:10C1D00002D0032B27D123E04E680346014603E03B
:10C1E000B14204D00B46C96900291CD0F8E70029E8
:10C1F00019D08B4208D1C069002805D1144F0126FF
:10C20000BE600026B44601270E68C969D9610029BD
:10C2100009D00B689B190B6005E00174C06900E050
:10C2200000210028F9D169789142C5D12146641EC8
:10C23000E4B20029BBD1054962460A61C8600F71AA
:10C24000704501D00120F8BD0020F8BDB4180020D1
:10C2500000100140F8B5044631480026C16800913D
:10C2600007784EE02E48F90080680D1843E0002C56
:10C2700002D02046E4691FE02878182141436A680B
:10C28000401CC0B251182870AA78904200D12E707C
:10C290000A784868012A30D1027C002A2DD18A68A8
:10C2A0004260CA6882600A69C260496981611C494A
:10C2B0000979002900D04660194943680A699C46FB
:10C2C000991A0902174B090A994202D28268891801
:10C2D00007E06146511A09028268090A8A4202D9B6
:10C2E000511A016000E00660466001218660017419
:10C2F000C66100F0BBFB002CB9D128786978884270
:10C30000BAD138467F1EFFB20028ABD10448C168BD
:10C310000098814201D00120F8BD0020F8BD000046
:10C32000B4180020FFFF7F00002386B0244A0521B7
:10C330001846FFF769FA002801D0FFF743FA0022F8
:10C3400020490120FFF7F6FB002801D0FFF73AFA59
:10C350001D481B490068059000234822483905A85C
:10C3600000F020FB002801D0FFF72CFA00216A46DC
:10C37000084600F0FFFA002801D0FFF723FA13481F
:10C3800000F058FA002801D0FFF71CFA684600F0C8
:10C39000E7FA002801D0FFF715FAFFF77FF90C48FC
:10C3A00073DF002801D0FFF70DFA0220FFF7B4FB7E
:10C3B00000E048DF0028FCD0FFF704FAF9E70000AE
:10C3C0003C190020CD0C000004CE010070180020A4
:10C3D000041B002070B5144682880E46054620884E
:10C3E000111D4118921C994201D8FE2A01D90C2036
:10C3F00070BD521C32542088FF21401C80B2208026
:10C4000031542088401C80B220808119288800F097
:10C4100047FC2188401880B22080AA88002A09D0D1
:10C42000A968002908D08019FEF796FE2088A988FF
:10C4300040182080002070BD072070BDF8B50F4661
:10C44000017814460546012902D16878002806D0F3
:10C450002088821C9A422DD8012902D006E00720AC
:10C46000F8BD69784118891C994223D8181A801E92
:10C4700086B2684606802188B81C081869467DDFA8
:10C480000028EDD12878022805D169460988B142F3
:10C4900001D809210AE00821012805D16878B042B5
:10C4A00002D86A46108001E0684606806846008827
:10C4B000FE2801D90C20F8BD2288401CB8542088E1
:10C4C000401C80B22080395420886946401C20805E
:10C4D0000988401820800020F8BD00008207D30E94
:10C4E000FF229A408907090E10B5994000280BDAFF
:10C4F00003071B0F083B9C080C4BA400E318DC69E6
:10C5000094430C43DC6107E08408094BA400E41861
:10C51000236893430B432360C106C90E0120884062
:10C52000044908600449086010BD000000ED00E007
:10C5300000E400E080E200E000E100E0F3B581B05B
:10C540000F46019800F012F9012400281E4E0198B0
:10C5500017D0FFF773FC80192030007F8009032873
:10C5600002D0012806D007E01848006901998C40E4
:10C57000204201D1022100E00321019800F0CEF811
:10C58000FEBD00F0FFF80028FAD00198FFF756FC36
:10C5900005468100C81D0E4AF93089180A6980B223
:10C5A00022430A610B49401800210160002FE7D0A7
:10C5B0000198FFF743FC800030580028E0D006487F
:10C5C000AC404460FEBD0000881B00200005005008
:10C5D000006500400060004000630040FEB5044676
:10C5E00023480E460019202141560027C81713463C
:10C5F000401C01D0082738E0F27819462046FFF7A2
:10C60000F9FB0546401C2FD0B078002807D0194808
:10C61000A1000918086802229043086007E0002181
:10C620007378204600910A46019100F065F8F07891
:10C63000002810D01048AA001018317802690F4B5A
:10C640001A400261E206D20C8907890B0A4301698C
:10C650000A43026109E00648327840192030017F20
:10C6600092011143017700E004273846FEBD000027
:10C67000881B00200007005000650040FFE0FCFF21
:10C6800003490969C140C807C00F00D001207047A5
:10C690000005005070B5124D2879002801D00820FF
:10C6A00070BD0F4900204039421E0B182033401C3A
:10C6B000C0B21A702028F8D300242046FFF78CFB64
:10C6C000641CE4B2082CF8D303210620FFF706FF10
:10C6D00001200449C007486001202871002070BD76
:10C6E000C81B00200063004002480079002800D0E9
:10C6F00001207047C81B002030B552000A43990042
:10C70000039C0A432102049D0A4329040A43024967
:10C7100080004018026030BD0007005082000648CB
:10C720001018026803231B049A430260026809047C
:10C730000A43026070470000000700500349401898
:10C740000068012800D00020704700000060004011
:10C750004058002800D001207047032212028018A0
:10C760004068084000D001207047000004490818C4
:10C7700020214156042901DB012070470020704729
:10C78000881B00200449081820214156042901D2A1
:10C790000120704700207047881B002070B50124DD
:10C7A0000B49600408600B49401088600949403912
:10C7B0008860094D6C602F20FEF78CFCAC60074D43
:10C7C00000242F202C61FEF785FCEC7070BD00006A
:10C7D00080E100E04013014000100140B418002047
:10C7E00030B50A48FF21C57D0022094C0931094BAB
:10C7F000002D625007D09969437EC268D154417EB2
:10C80000491C417630BD986930BD0000D01B002026
:10C8100000200040002500401FB501236A46137028
:10C8200010720348019106C8684690471FBD00007A
:10C83000D01B002008B502490020009108BD00006F
:10C840007018002010B50121202805DA1A4A81400D
:10C85000114201D1194810BD8107C90E002808DA1C
:10C860000207120F083A9208154B9200D218D269AB
:10C8700004E08208134B9200D2181268CA401106D5
:10C88000890F042911D200290FD002290DD00E4999
:10C890004C68C306DB0E01229A40002C08D04009E8
:10C8A00080000B5813430B5004E00448401C10BD9B
:10C8B00006480260002010BDFC06FFBC01200000FD
:10C8C00000ED00E000E400E0E818002000E100E0F6
:10C8D000FFB50746806A81B0144600283DD0002588
:10C8E00038462030009033E00C20B96A68430E18B7
:10C8F000B088801CFE2802D90C2005B0F0BD22882B
:10C900000299401C885420881622401C80B2208046
:10C9100002990A542088401C80B220800299411854
:10C92000308800F0BDF92188401880B22080B2889C
:10C93000002A0AD0B16800290FD0029BC018FEF768
:10C940000BFC2088B188401820806D1C0098EDB247
:10C95000007BA842C8D80020CFE70720CDE7000021
:10C960001CB5034901910091694660DF1CBD0000C0
:10C970007018002070B50E46054614461421104666
:10C98000FEF703FC01200021208021612173267223
:10C990006572002D00D0A072002070BD10B5FEF7AA
:10C9A00003FF10BD70B5002901D08C0701D007200E
:10C9B00070BD074C0125A16062800649636010DFED
:10C9C0000028F5D125701620FFF73CFF70BD000050
:10C9D000D41800209DC90100FEB51F4C0025276911
:10C9E000E06802906846FFF7F9FA0190FFF7D4FB80
:10C9F00006460198002822D000230098E16817E03D
:10CA00000E680A46864202D9301A086012E0801B7E
:10CA1000F31800261660D668D169B446002E07D0F8
:10CA2000FE183602360A566066469660D56115468F
:10CA30000029E5D12846E160FFF70CFC06E0284616
:10CA4000FFF708FC002801D1002E02D00298FFF762
:10CA5000FDF900202071FEBDB4180020012002491C
:10CA6000000508607047000000E200E010B50E4BC2
:10CA7000D968002906D002680C68A24204D8A21A1C
:10CA80000A60C161D86010BD0B4604E00B46C9695D
:10CA9000121B002904D00C689442F7D3A41A0C602E
:10CAA0000260C161D86110BDB4180020F8B51D4DF9
:10CAB000EC68002C34D01C48002740682969401AD3
:10CAC0000602360A2068B04218D8361AC71922461C
:10CAD000107CE46900280FD0002010746B69002BD3
:10CAE00007D0916950699847002805D0FEF76AFE83
:10CAF00002E0516990698847002CE3D16978A878F1
:10CB0000814206D1401CC0B2A870022801D1002089
:10CB1000A87004490006800D18310F50FFF79EFFE2
:10CB2000F8BD0000B418002000150140FF2107489F
:10CB30001D31002242500648828A8168895C828ABF
:10CB4000521C82820348C1617047000000200040EF
:10CB5000D01B0020002500401FB500216A4611703F
:10CB60001072044882680192817506C86846904731
:10CB70001FBD0000D01B0020F0B5454D012185B040
:10CB800049022846FFF7E9FD01270026414C00280D
:10CB900024D0FF2125312846FFF7DAFD00281DD0DB
:10CBA000FF2025302E5081203B4980008860A07EE8
:10CBB000002800D16F60022168460170374908687B
:10CBC00008600390E17D68460172E0680190E675B7
:10CBD000267606CC6846083C90472BE00421284680
:10CBE000FFF7BBFD002825D0FF2109312846FFF7BC
:10CBF000AFFD00281ED0FFF7F3FDE07D617E884287
:10CC000018D1207E002808D0627EE168E075206996
:10CC1000E0602676667610460AE0A07E002800D105
:10CC20006F6081201C4980008860E675607EE16845
:10CC3000FFF7F2FDFF211D312846FFF789FD00288F
:10CC40000DD0A18AA07D814202D2FFF76FFF06E0DE
:10CC5000FF211D316E50002801D0FFF77DFFFF211D
:10CC600045312846FFF774FD00280ED0FF204530DF
:10CC70002E50A07E002800D02F60E07D002804D038
:10CC8000E675607EE168FFF7C7FD05B0F0BD000006
:10CC900000200040D01B00200023004080240040E2
:10CCA0000870000A4870022070470000EFF305800A
:10CCB000C005C00D1AD0103840B2002808DA0107AC
:10CCC000090F083989080C4A89008918C96904E0E4
:10CCD00081080A4A8900891809688007C00EC14086
:10CCE0000806800F012803D0032803D002207047D4
:10CCF000002070470120704700ED00E000E400E0F4
:10CD000042788378521CD2B2934200D10022037839
:10CD1000934201D1002070470A7041684078182280
:10CD2000504308187047FFB583B016460C9D0D9C04
:10CD30001F46022200950194039800F00CF8002889
:10CD400007D13B461022314600950194039800F02C
:10CD500002F807B0F0BDFFB583B0074600200C9C79
:10CD60008646268805463AE07868A9004218118868
:10CD7000684681805188C1800022694601A865DF2C
:10CD8000002839D1684601780598814226D170463D
:10CD9000002801D0002200E00222208889184218D1
:10CDA0000D998A4227D8714600290AD1401C80B2C9
:10CDB0002080069A049911542088401C208001206C
:10CDC0008646218806980A18694601A865DF00286A
:10CDD00012D1694620880978401820806D1C388857
:10CDE000A842C1DC704600280AD02088801B401E63
:10CDF00080B2FF2802D90C2007B0F0BD06998855F3
:10CE00000020F9E7010000071C1B00203C1B00204C
:10CE1000681B002011000000120000001300000039
:10CE2000140000001100030031BA010012000300D9
:10CE300031BA01001300030031BA010014000300ED
:10CE400031BA0100EC1B0020030000006CCE010091
:10CE5000701800208400000066B40100F0CE0100CC
:10CE6000F41800201C0B000076B40100021501121A
:10CE7000233445566778899AABBCCDDEEFF00102CA
:10CE80000304C300000000000000000000000000D8
:10CE90000000000000000000000000000000000092
:10CEA0000000000000000000000000000000000082
:10CEB0000000000000000000000000000000000072
:10CEC0000000000000000000000000000000000062
:10CED0000000000000000000000000000000000052
:10CEE0000000000000000000000000000024F4002A
:040000050001B0C185
:00000001FF
