:020000040001F9
:10B0000040320020F5B001000FB1010011B1010084
:10B010000000000000000000000000000000000030
:10B0200000000000000000000000000013B101005B
:10B03000000000000000000015B1010017B1010080
:10B0400019B1010019B10100BDB4010019B101002D
:10B0500019B101000000000089B2010019B101001E
:10B0600019B1010019B1010019B1010019B10100B4
:10B0700019B1010019B1010019B1010019B10100A4
:10B0800019B1010021B4010019B1010019B1010089
:10B0900041B4010019B1010049B4010019B1010026
:10B0A00019B1010019B1010000000000000000000A
:10B0B0000000000000000000000000000000000090
:10B0C0000348854600F0A2F80048004725E7010044
:10B0D00040320020401E00BF00BF00BF00BF00BFC5
:10B0E00000BF00BF00BF00BF00BF00BF00BFF1D165
:10B0F000704700000321094802680A4302600848BB
:10B1000002680A4302600748804707480047FEE795
:10B11000FEE7FEE7FEE7FEE7FEE70000240500404D
:10B120005405004069B40100C1B0010030B50B46C0
:10B13000014600202022012409E00D46D5409D4211
:10B1400005D31D469540491B254695404019154697
:10B15000521E002DF1DC30BD70B5002425460028BC
:10B1600001DA01244042002901DA01254942FFF7B2
:10B17000DDFFAC4200D04042002C00D0494270BDFF
:10B1800010B5431A934209D28318881803E0401E71
:10B1900001785B1E1970521EF9D210BD03460B4395
:10B1A0009B0703D009E008C9121F08C0042AFAD27D
:10B1B00003E00B780370401C491C521EF9D210BDED
:10B1C000D2B201E00270401C491EFBD2704700223F
:10B1D000F6E710B513460A4604461946FFF7F0FF96
:10B1E000204610BD421C0178401C0029FBD1801A6A
:10B1F000704730B504460020034600E05B1C9342D4
:10B2000003D2E05CCD5C401BF8D030BD064C01257C
:10B21000064E05E0E36807CC2B430C3C98471034FE
:10B22000B442F7D3FFF750FF1CFE01003CFE0100C3
:10B2300070B58C180578401C6B075B0F01D1037843
:10B24000401C2A1106D10278401C03E006780E70DB
:10B25000401C491C5B1EF9D12B0705D40023521E4C
:10B260000DD40B70491CFAE70378401CCB1A921CD2
:10B2700003E01D780D70491C5B1C521EF9D5A142DC
:10B28000D8D3002070BD0000F0B50025FF248BB09E
:10B29000013401262F460195204603F06BFC00285F
:10B2A00008D047484068304204D046480021201862
:10B2B00035430160241D76007F1CA4B2042FEBD31C
:10B2C000FF207D3003F056FC002807D03E480021C7
:10B2D0000160400705433D48006901903C4C280748
:10B2E00012D0012700262F420AD03A48B200111886
:10B2F00008690969C004C00E8903A258890F9047E4
:10B300007F00761C042EEED3002D57DA0020059026
:10B31000401E4DE0A119403108788506AD0E42B2BD
:10B32000521C39D00121A940089A0091114233D012
:10B3300080090390284601F087FD80002058049082
:10B34000002802D10398032826D1039800990328E6
:10B3500002D10598084305901F4AA800801800688C
:10B36000019A8003800F114202D0022802D013E01C
:10B37000032811D10399032907D102281CD00221E7
:10B38000284603F0E7FB7F1CFFB20498002803D097
:10B39000049A284603999047761C042EBAD3002FAE
:10B3A0000CD00A4800690199884207D0019005989D
:10B3B00000273E460890ADE70321E1E70BB0F0BD62
:10B3C00000630040006000407C61004000050050C8
:10B3D0008828002000650040000700508307FF22F6
:10B3E000DB0E9A408907090E994000280BDA000706
:10B3F000000F0838830808489B001818C369934356
:10B400000B43C3617047830804489B001B181868EE
:10B41000904308431860704700ED00E000E400E04E
:10B4200010B506490020086048608860C86003497C
:10B4300040390860486004F067FA10BD40110140CF
:10B4400010B504F0F7F910BD10B5064840680028A3
:10B4500005D08047002801D000F072FA10BD02F03C
:10B46000A5FE10BDDC21002010B502F0E9FE002889
:10B4700005D00E490C484860C8130D4988610D4835
:10B48000018CC9B201290ED1818C09070BD1018D24
:10B490000906090F042906D1808D0006000F02D18C
:10B4A00005490120886010BDDFFF07C0000500408E
:10B4B000006C0040C00F00F00006004010B504F022
:10B4C000C9FA10BD30B47446641E2578641CAB42C2
:10B4D00000D21D46635D5B00E31830BC184702E0F4
:10B4E00008C8121F08C1002AFAD17047704700200F
:10B4F00001E001C1121F002AFBD17047F7B584B0EB
:10B500000025168807461580406B1446002813D086
:10B5100003780598032E51D302210170218811224E
:10B52000491C89B2218042542188491C89B221805A
:10B5300043542088401C2080386B00281DD00546CD
:10B540002088059902461232B24237D811220A5495
:10B5500020881022401C80B220800A542088401C81
:10B5600020800F202A5C2388401ECA54228840B2C3
:10B57000521C22800028F5DA00253846203002903F
:10B58000807B002806D033462246059902F0A4FEAF
:10B59000050014D10298407B002806D0324621468F
:10B5A000059800F027FF050009D1B878002823D0BE
:10B5B000059886462088001DB04202D90C2007B0AD
:10B5C000F0BD684679DF0028F9D121880320724652
:10B5D000505420881921401C80B2208011542088AA
:10B5E0007146401C80B2208041186846008804F0F3
:10B5F000C5FA218840182080F878002817D02188C3
:10B6000003230A46FB56C91C0598B142D6D802212D
:10B61000815421880122491C89B221804254218809
:10B62000491C89B2218043542088401C20807868BE
:10B63000002817D021880023C3560A46C91C059844
:10B64000B142BBD80221815421880A22491C89B207
:10B65000218042542188491C89B22180435420888A
:10B66000401C2080388900280AD000943846019672
:10B67000062202210830059B04F0FFFA05009ED146
:10B68000388A00280AD00094384601960722032100
:10B690001030059B04F0F1FA050090D1388B00289A
:10B6A0000AD0009438460196152214211830059BC3
:10B6B00004F0E3FA050082D1386A002806D0334648
:10B6C0002246059901F06CFD0500D8D1786A002862
:10B6D00006D033462246059903F092F80500CED1F4
:10B6E0000298007B002807D0334622463846059949
:10B6F00003F029FE0500C2D13878002807D0334670
:10B7000022463846059903F0AFF80500B7D1284620
:10B7100055E710B501220221002001F0C1F90028EF
:10B7200001D0072812D107220221012001F0B8F927
:10B73000002801D0072809D100210A22084601F07B
:10B74000AFF9002801D0072800D1002010BD00006B
:10B7500010B598B0382101A8FFF739FD02216846DD
:10B760000171012484710621C171032181820D4878
:10B77000069024210FA8FFF72AFD10A80472FF20CD
:10B78000E1301390B4201490002001460090064B45
:10B790000FAA01A800F01CFB002801D000F0D0F88F
:10B7A00018B010BDB0200020A3EB0100044842688F
:10B7B0000121C9050B46934383600A40C26070476C
:10B7C0000005005070B504462ECC0D482EC00C4D1F
:10B7D00020682861A088A882E088E8820948E8619A
:10B7E00020892886A07A68862146284607220B31C0
:10B7F0003430103CFFF7C4FC606AE86370BD0000A1
:10B80000242200207C15000010B50E4C04280FD017
:10B8100005280DD007280AD1607E002807D0002017
:10B82000607650DF0AE0E16B002900D0884710BD48
:10B83000207E0028FBD0002002F00EFF0028F2D16D
:10B8400010BD00002422002010B50B4C01202076F2
:10B8500060760A484FDF002803D0E16B002900D052
:10B860008847012002F0F8FE002803D0E16B002990
:10B8700000D0884710BD000024220020ADE6010062
:10B8800001490020087670472422002070B500246A
:10B89000064D06E06968E000085C012103F06AF8E3
:10B8A000641C28788442F5D3002070BDA8210020B4
:10B8B000F8B515460C460646052A01D20720F8BD04
:10B8C00003F02EF9002803D103F000F90028F6D187
:10B8D000104900204E600C70C8608D6008610E4DEC
:10B8E0000DE0E00069688019009181786A46517026
:10B8F00000780A4A694603F08DF80028DFD1204617
:10B90000641EE4B20028ECD1054A0021024800F090
:10B910004FF8F8BDA821002014FE010051DF0100FE
:10B9200069D30100BFF34F8F04490348C860BFF3D8
:10B930004F8F00BFFDE700000400FA0500ED00E0B6
:10B940000EB50021029000916A4601910148FFF76F
:10B95000E9FF0EBD01400000014B1B6818470000C5
:10B960006428002038B50C46A2680C235A43064BC5
:10B9700009789D58054A126A00920246204608300E
:10B980002369A84738BD0000B82900208421002081
:10B9900010B5064914230A785A435118091DFFF7B8
:10B9A000E1FF042003F0A2FD10BD0000EC28002000
:10B9B000094B9B68002B07D0002A07D0002805D030
:10B9C0000068037C002B03D00820704707207047D5
:10B9D0004174426100207047BC210020FFB59007F0
:10B9E000002581B014460E46002832D11B4F002C92
:10B9F00031D003F09DFB0498786103203870334602
:10BA00001821224600204B43BC601834C10089181D
:10BA10000D704D708E704C601C19401C0328F5DBB6
:10BA2000FD607D7001240E48BD7024050460032173
:10BA30001420FFF7D3FC0B4804600B4C0198A06066
:10BA400003211120FFF7CAFC60683861002005B0AF
:10BA5000F0BD0720FBE7BD60FBE70000BC21002034
:10BA600080E200E000E100E000150140FEB50D4677
:10BA70001B4917468968044600292AD0002C28D083
:10BA8000052D01D20720FEBD6069002821D0607C11
:10BA9000012820D0002604F0B3F8C000104901901E
:10BAA00089684018694604F0D5F8002815D00121AE
:10BAB00001700C49446049680830E2C008490198A7
:10BAC0008968411868460078487003F0F5FE002048
:10BAD000FEBD0820FEBD2E46DDE70420FEBD0000B1
:10BAE000BC21002000150140F8B5134D0446A9689B
:10BAF00000291CD0002C1AD06069002817D000261D
:10BB0000267404F07DF8C700A8686946381804F068
:10BB1000A1F800280DD0022101704460A8683918EE
:10BB200068460078487003F0C7FE3046F8BD08202C
:10BB3000F8BD0420F8BD0000BC21002010B5144C55
:10BB40000121002209042068FFF790FF002801D09E
:10BB5000FFF7F6FE01210022C9036068FFF786FFA8
:10BB6000002801D0FFF7ECFE00220A49A068FFF789
:10BB70007DFF002801D0FFF7E3FE05210022C90365
:10BB8000E068FFF773FF002801D0FFF7D9FE10BD72
:10BB900068FD010066260000F0B50546007D002422
:10BBA00093B00E4600280DD00120014668461031A2
:10BBB00003940173717B4173817BF92001406846D6
:10BBC000891C81731C2104A8FFF701FB6946087CCE
:10BBD00002210843694608742A7DEF21002A02D019
:10BBE0001022104300E008406A4610740594079440
:10BBF0000894287D002800D003A8099001270A9402
:10BC000010469771304A82800094B27B0270F27BBA
:10BC100042708078F9221040F722801C1040EF21FA
:10BC200008404108490068468170317B0172142147
:10BC30000BA8FFF7CCFA01A80B9068460C908786FA
:10BC4000C486078702A80F90A888AB1D0BAA04A979
:10BC5000A2DF002835D1B068002830D0684687714F
:10BC60001A4981800094317C0170002001466846A9
:10BC700041708078F9210840F721801C0840EF21AD
:10BC80000840410849006846817011A8B16800F079
:10BC900066FD064614210BA8FFF799FA01A80B9040
:10BCA00068460C908686C486068711A80F902A469F
:10BCB000E8880E320BA9A3DF002802D100E0EC8156
:10BCC000002013B0F0BD0000192A00000829000070
:10BCD00010B50B490B4803F029FBC1B2084868387E
:10BCE00000F088FA002809D0082807D006498842C1
:10BCF00004D00649884201D0FFF722FE10BD0000A3
:10BD00008425002098200020043000000134000029
:10BD100010B50F4C0D481ECC1EC0FF2191311038BC
:10BD200001610C4981820C49C18259210183C321DF
:10BD300081760A4941621B3071DF002801D0FFF78C
:10BD4000FFFD0248FFF73EFD10BD0000F424002077
:10BD5000BC200020341200007856000061BD0100B4
:10BD600010B5FFF7EDFD10BDF0B50C4693B01F21E7
:10BD70006A461180072600279180002809D0C178E3
:10BD800049070DD502A9FFF7B9FB002809D102AD7B
:10BD900001E000251780002C0ED0E078002802D0AA
:10BDA000304613B0F0BD01AA0AA92046FFF7A6FB52
:10BDB0000028F6D10AAA02E0684600228780684679
:10BDC0008088C3B268460088C1B2284672DFE8E7BF
:10BDD00070B50D4604991646040042D0002E40D09E
:10BDE000424800224271C36001612422314640482A
:10BDF000FFF7C6F900F0D4F83D4934310846103851
:10BE000001602031816038215C38FFF7E0F9384863
:10BE1000217838380170A1788170E178C17061783B
:10BE200041706269216942610161E268A168C26092
:10BE300081600146E369A269CB618A61616A002978
:10BE400019D00146AC310246B83241628A60636A59
:10BE50001B880B80616A436A898899800021436A44
:10BE600006E00E2070BD666AB668765C5654491CC2
:10BE70009E888E42F7D8A16A00291CD01C4AAC3299
:10BE800011460C398A608162A36A9B888B80A16A03
:10BE9000836A098819800021836A04E0A66AB6686B
:10BEA000765C5654491C9E888E42F7D82C210A5D38
:10BEB0000F4918390A73216A002909D00B49143136
:10BEC0000162226A52884A80216A026A09881180C6
:10BED0006168002904D00549891D4160616841609D
:10BEE000034829463838FFF73FFF70BDEC2000209B
:10BEF0005826002010B502881C4C102A17D00021AB
:10BF0000112A1AD01B2A11D1007A00280ED160798B
:10BF100001281ED0022822D0032822D0042805D1CF
:10BF20002171E2680846002A00D0904710BD817D4B
:10BF30000129FBD18088208110BD61708088218912
:10BF40008842F9D1012005E021690029F4D0884711
:10BF500010BD022000F058F80028F5D110BD0320D4
:10BF6000F8E7032020710420F4E70000EC20002013
:10BF700010B5022801D003280ED1084C20780028E3
:10BF80000AD000202070607900F03EF8002803D02D
:10BF90002169002900D0884710BD0000EC20002056
:10BFA00010B507210148FFF712F910BD0421002048
:10BFB00010B51348007801281FD1124C6078002872
:10BFC0001BD16079002802D074DF002816D101202F
:10BFD0000B49607006203839C8700948002138388C
:10BFE000FFF7C2FE002809D1607900F00DF80028A3
:10BFF00003D02169002900D08847002010BD00002F
:10C0000058260020EC200020F0B5784C87B06071F5
:10C01000002606A8069602F041FE0127082802D055
:10C02000002808D104E006A801F080FE002804D111
:10C030000698002801D02770D4E0FFF7B1FF6C4DBF
:10C040006878002802D06079012807D0A8780028F5
:10C050000CD06079012801D0022824D1E1680029A0
:10C0600003D0E7700820884700E0E6706079012877
:10C0700008D16878002809D05C48193002F0B2FD78
:10C08000002803D06079022802D00CE00220607101
:10C09000A878002805D05548193002F0A3FD0028E3
:10C0A00001D103206071287B002804D16079032826
:10C0B00001D104206071287E002804D16079042811
:10C0C00001D166712671E16800290AD060790328E0
:10C0D00001D0042805D12878002802D060780028F3
:10C0E00017D0A67018216846FFF771F868460670E9
:10C0F000019606720396607901280ED0022815D0A9
:10C100003B4E243637465C3F03281BD004285DD1C4
:10C110003AE0A77007208847E4E7344818300190D8
:10C120006846077046820682277152E02F48183011
:10C1300001906846077029894182A98801820220FE
:10C14000207146E0A88A69464882288A08822848E1
:10C15000243003F001FE002805D02878002802D002
:10C160006078002801D003202FE002206946087281
:10C1700004200396F8701E4800213838FFF7F4FDBC
:10C18000002830D1052020E0A88B69460882288C41
:10C1900048821748243003F0DFFD002805D02878B6
:10C1A000002802D06078002801D004200DE0022091
:10C1B0006946087204200396F8700D48002138384B
:10C1C000FFF7D2FD00280ED10620207160790028EB
:10C1D00003D0684673DF002805D1E168002901D04B
:10C1E00020798847002007B0F0BD0000EC20002037
:10C1F0005826002073B586B004002FD06A46217CF3
:10C20000127F0020914227D0002501266846009524
:10C210000680458007A80190E188608A6A46A4DF0D
:10C22000002819D16846007F2074608A0D49884231
:10C2300016D0207D002813D002950395049505950E
:10C24000E188684601818672418881810490019865
:10C250000590608A02A9A6DF08B070BD0E20FBE73A
:10C260000820F9E7FFFF000038B50D4604001AD09A
:10C27000002D18D0286820600020C04360822879F3
:10C280002075FF20207401216846817007490180D4
:10C29000221D69460120A0DF002803D1294620463F
:10C2A000FFF77AFC38BD0E2038BD00000F180000E3
:10C2B00038B5002824D0002922D00A88102A1AD0A4
:10C2C000112A1AD0502A1BD1027D002A18D0CA8800
:10C2D0004389891D9A4213D14A89022A10D10268E2
:10C2E000002A0DD04B7B0C7B19022143C907C90FD3
:10C2F00007D0002106E0898801E00021C94341827E
:10C3000038BD01216B4619706946904738BD000061
:10C3100070B5054601461C220E48FEF731FF0E4C53
:10C32000002626702968002906D00822201DFEF765
:10C3300027FF201D7ADF02E00748001D7BDF002871
:10C3400007D1401E60806670044A00210448FFF750
:10C350002FFB70BD442700200C2100209DFB010015
:10C36000B8FD0100F8B5214C028800271E4DE68972
:10C37000102A15D01E49112A21D0122A2DD0502A58
:10C380001CD1C288801DB24218D14289022A15D11F
:10C39000427B037B10021843C007C00F0CD112E090
:10C3A0008188698001461048082218310C30FEF758
:10C3B000E7FE6F70002E01D100F03AFFF8BD0020BB
:10C3C000C04368806F700868FFF78EFB0028F5D0C7
:10C3D000A1690029F2D08847F8BD082281180248D7
:10C3E0000C30FEF7CDFEE7E70C21002044270020AB
:10C3F000B8FD01007CB5054608880C46093090421E
:10C4000001D90C207CBD684671DF0028FAD1218853
:10C410000820685420881B21401C80B220802954A9
:10C42000208800A9401C80B22080401906220131DA
:10C43000FEF7A6FE20886946801D80B2208009781C
:10C44000002900D0012129542088401C2080002090
:10C450007CBD00007FB504460121684681714A49D0
:10C4600081804A4A01A90120A0DF00287ED12288CC
:10C4700025463C35002A09D044482B46801C0090B4
:10C480004348616800F0E8FC00287BD12289002A3B
:10C490000AD03E482B460A3000903D48E168401FD4
:10C4A00000F0DAFC00286DD1228A002A0AD0374831
:10C4B0002B461230009036486169001F00F0CCFC1A
:10C4C00000285FD1228B002A0AD030482B461A3030
:10C4D00000902F48E169801E00F0BEFC002851D179
:10C4E000228C002A0AD029482B4622300090284866
:10C4F000616AC01E00F0B0FC002843D1228D002AE2
:10C500000AD022482B462A3000902148E16A401E7A
:10C5100000F0A2FC002835D1216B00290ED002A822
:10C5200003F053F919482B4632300090184808227E
:10C5300002A9801F00F090FC002823D1606B002826
:10C540000BD012492B463A3100910279016810480C
:10C55000401C00F081FC002814D1A16B002910D0F0
:10C5600002A802F07FFB0948423000E00AE0009098
:10C5700007482B46072202A9273000F06DFC00284F
:10C5800000D1002004B070BD0A1800002021002056
:10C59000292A000010B5044601F00EF821461B4878
:10C5A00000F092F8194821461838FFF781FE20461E
:10C5B000FFF7D8FE204600F0ABF92088102802D003
:10C5C00011281FD10CE0072000F08EFA002801D0BE
:10C5D000FFF7B6F90E49A0888880FFF735F911E01A
:10C5E000002000F081FA002801D0FFF7A9F9FFF739
:10C5F00047F9FFF7ADF80320FFF706FD002801D04B
:10C60000FFF79EF92046FFF775FC10BD342500208A
:10C610008C20002030B50446008C134A8BB0904229
:10C620001FD006AA204601F07DFD69460546088018
:10C630000020019002900390049022898A800122B8
:10C640008A71088106A803910490208C01A9A6DFB5
:10C65000002804D169460988A94200D00C200BB0FB
:10C6600030BD0820FBE70000FFFF000038B504469E
:10C6700008682060087960710020C0430D4620845E
:10C680000020222108554C21085301216846817061
:10C690000C490180A21D69460120A0DF00280FD1AE
:10C6A0002946204601F0E6FC002809D1A8680028A8
:10C6B00005D02946204600F099F8002800D1002036
:10C6C00038BD00000D18000038B50A88102A17D0B0
:10C6D000112A17D0502A18D1CA888389891D9A42F5
:10C6E00013D14A89022A10D10268002A0DD04B7B4F
:10C6F0000C7B19022143C907C90F07D0002106E0AE
:10C70000898801E00021C943018438BD01216B46BD
:10C7100019706946904738BD70B5054604464035E6
:10C72000A8890E46142807D12622A118881EFEF7D4
:10C7300027FDA889401EA88180B241000919401C2C
:10C74000A8818E8470BD20308170704770B504461A
:10C750000D460846FEF746FD2080656070BD0A78EC
:10C7600002704978417002207047000000B51A48F5
:10C7700087B00069059000234822184905A802F0F7
:10C7800005FF002801D0FFF7DBF86A4601210020F1
:10C7900002F0E4FE002801D0FFF7D2F8104802F0C2
:10C7A00013FD002801D0FFF7CBF8684602F0CCFE5D
:10C7B000002801D0FFF7C4F80A4802F0BBFE0028A9
:10C7C00001D0FFF7BDF8084802F0FAFE002801D0BA
:10C7D000FFF7B6F807B000BD68FD0100AC240020EB
:10C7E000E81F002095C50100B5F70100F0B58FB036
:10C7F0000D4606461C216846FEF7E9FC68460178AE
:10C8000002200143684601700024019403940494BB
:10C810000594012708A80694877015496846018485
:10C820000794E97B0177297C4177807FF9210840D3
:10C83000F721801C0840EF21084041084900684664
:10C840008177142109A8FEF7C2FC08A8099007A85F
:10C850000A9068468785C4850786A8680D90334688
:10C86000F088103309AA6946A2DF0FB0F0BD0000BE
:10C87000382A00001CB5044681786A460C4802F04C
:10C8800021FA002812D160781C21484309491C2351
:10C8900040181A46694602F0CFFA06480649403069
:10C8A000807A80000A582146684690471CBD0000E7
:10C8B0007C21002024280020CCFD01007CB5134EF3
:10C8C00000250C463060002918D06946002000F091
:10C8D000B5F8002819D101A9012000F0AFF800280F
:10C8E00013D1684601790020002901D0022004E01C
:10C8F00069460978002900D00B2020707068002854
:10C9000002D1FEF706FF054628467CBDE420002044
:10C9100010B51C4C0188606810290DD011290AD16E
:10C92000401E606007D1FEF7F4FE002803D02168A6
:10C93000002900D0884710BD00281ED10021012207
:10C94000084600F0ADF8002801D0072811D10722D1
:10C950000221012000F0A4F8002801D0072808D106
:10C9600004220221002000F09BF8002805D00728AF
:10C9700003D02168002900D088476068401C6060AF
:10C9800010BD0000E420002010B5032000F006FADE
:10C99000002801D0062800D1002010BDF8B50746B8
:10C9A0000024234802E0641C042C1AD2A2008258FE
:10C9B000BA42F8D1042C14D21D481E4E0C3800295E
:10C9C00029D001290ED002290BD16000201880192E
:10C9D0004578002D05D018480169002901D0284666
:10C9E0008847F8BD61006118755C8E19717800295F
:10C9F0000CD011490A224968806851430E4A521CE2
:10CA0000FFF734F8002801D10B4847700A48B17885
:10CA100014300155DDE78068FFF766F806486100CD
:10CA2000611814308919005D8D78A842D1D0F8BD05
:10CA300088FD0100F4250020CC20002004280CD221
:10CA4000074A1269074B80001B5C01209840904305
:10CA500000D001200870002070470020FAE7000095
:10CA60000005005088FD010010B5042806D00728F5
:10CA70000ED00A2801D102F025FD10BD0748132170
:10CA8000808876DF06E00028F7D0FEF759FF10BD5A
:10CA9000FFF78EFA0828F6D110BD00008C20002088
:10CAA00070B50023042811D2440004190D4D012A49
:10CAB00002D101290DD0002246008019094E8019AB
:10CAC00000290CD0012906D0022906D007231846D8
:10CAD00070BD0D30C2B22A55F9E74270F7E7827097
:10CAE000F5E70000F425002010B5054A0146127A4A
:10CAF0000020D20702D0084600F054F810BD000014
:10CB0000CC20002070B50E46204905464E608D6051
:10CB100000200A61A9071ED50024012211462046E3
:10CB2000FFF7BEFF641C042C02D20028F5D012E0EF
:10CB3000002810D1720804211548FEF7B9FE00281C
:10CB400009D1FEF7A3FE002805D11148114A0021A2
:10CB50001438FEF72DFFE90706D00F220E495205C3
:10CB60008A600023CB608A6100280DD108480B4AF7
:10CB700000211C38FEF71CFF002805D10448084A94
:10CB800001211838FEF714FF70BD0000CC200020F2
:10CB900098FD0100D9CD0100000500502DE30100F2
:10CBA000ADB70100FEB57A4D0722EB6892059A43B6
:10CBB00002936B6800939C0006461B19002001211C
:10CBC000019349050746734C3300FEF77BFC180DB3
:10CBD0001515374755677C887F8891DE9E9E9E9EFF
:10CBE0009EC8CED1D8DEDE140F21029A49059143AA
:10CBF000A160E7602F70FEBDA260E76060680F2251
:10CC000052055040800209D5A160E760022E02D192
:10CC1000E120C0000AE07D20400107E0E160A7605C
:10CC2000022E01D1C82001E0FF2091302E70642136
:10CC3000FEF77CFA0099414300223FE0A260E760E2
:10CC400060680F2252055040800204D5A160E76061
:10CC500019204001EAE7E160A760E3E7A260E7602E
:10CC600060680F2252055040800202D5A160E76043
:10CC7000D1E7E160A760D7E7A260E76060680F22B4
:10CC800052055040800202D5A160E76001E0E160FA
:10CC9000A7602E700098410000220FE0A260E760BC
:10CCA00060680F2252055040800202D5A160E76003
:10CCB00001E0E160A7602E7000990022364800680C
:10CCC000FEF7D4FEFEBDA260E7601BE061680120B4
:10CCD000800502468A43A2600140E16010E060687E
:10CCE000012189050A468243A2600840E060E3E72B
:10CCF0006068012189050A468243A2600840E0601D
:10CD00000199C9E7E160A7602DE023484068FEF77C
:10CD1000EBFE11218A1B01D0002807D00F22E96801
:10CD200052051140A160E760EF60FEBD0121C90519
:10CD3000E960012A0CD91046C82148436421FEF756
:10CD4000F5F969680022414313484068FEF78EFEFA
:10CD50000F22E96852051140E160A760FEBD0F2176
:10CD60004905A160E7602E70FEBD07229205AAE783
:10CD70000D214905A160E76001218905C2E7032172
:10CD8000C905A160E7608910BCE70F214905B9E733
:10CD9000CC200020000500507CFD0100F0B50021F2
:10CDA0000B4C0C4D03273F048A00A25892005619E1
:10CDB000326801238B40034000D00323BA431B0495
:10CDC00013433360491C0429EED30020F0BD00005A
:10CDD00088FD01000007005010B500780221FFF720
:10CDE000DDFD10BD0022D243830004490428CA504F
:10CDF00002D30818203002777047000088280020EE
:10CE0000F0B50025ED43002A02D00023042601E0FE
:10CE1000042308260B4C04E09F00E7597F1C04D034
:10CE20005B1CB342F8D32846F0BD26185DB220360D
:10CE300035709E00A151002AF5D1E1182031087704
:10CE4000F1E7000088280020024909182020085630
:10CE50007047000088280020FFB58FB01E46154699
:10CE60000F0002D10020FEF76BFD002D02D1002043
:10CE7000FEF766FD1C216846FEF7A9F968460178B1
:10CE80000220014368460170002401940394049435
:10CE90000594012108A80694817068460F990184C1
:10CEA00007943178017771784177807FF9210840C4
:10CEB000F721801C0840EF210840410849006846DE
:10CEC0008177142109A8FEF782F908A8099007A81C
:10CED0000A9068468585C485058604480D9709AA89
:10CEE00069460088189BA2DF13B0F0BD2021002006
:10CEF000F8B53E481422017851430C18E0680C2123
:10CF000048433A492769CC31401805894189009145
:10CF1000241D466801F064FF01463846FEF706F915
:10CF2000002932D000200099A2884D436188AE19B3
:10CF30008918CD1900222E4900280A6109D001F074
:10CF40004FFF6188884222D0B54202D1A0880028D4
:10CF50001DD0A06802281AD001F042FFA188CA198A
:10CF600001461046FEF7E2F8214C8808E06001F027
:10CF700037FF01462846FEF7D9F8002911D00020D6
:10CF8000B5422FD000280ED02CE00120CBE701F0D5
:10CF900027FF01463846FEF7C9F8154948610320C6
:10CFA00021E00120ECE7ADB2B7B201F019FF014674
:10CFB0003846FEF7BBF8064601F012FF0146284648
:10CFC000FEF7B4F8864201D1781B09E001F008FFB2
:10CFD000064601F005FF01462846FEF7A7F8701A3D
:10CFE00080082061022002F081FAF8BDEC280020C0
:10CFF0008421002010B507481422017851430818F5
:10D000000079042802D000F059F810BD012002F088
:10D010006DFA10BDEC28002010B50B4814220178E1
:10D0200051430818094AC18811620079012806D0C5
:10D03000032801D0042801D1FFF75AFF10BD0120B9
:10D0400002F054FA10BD0000EC28002084210020DA
:10D0500014225043054A002180180171C180012229
:10D060000161C2604161018170470000EC2800202D
:10D07000F8B5104C069E65780A2D19D027787D19D1
:10D080000A2D00D30A3D14277D432D1928716A61AA
:10D0900003C92961E860EB802E816078401C6070D4
:10D0A00005480078002801D1FFF7B6FF0020F8BD41
:10D0B0000420F8BDEC2800208421002010B50D4C80
:10D0C00014212078484301190020091DFEF74AFC6D
:10D0D0002078FFF7BDFF6078401E60702078401C0C
:10D0E000C0B220700A2801D100202070002002F078
:10D0F000FDF910BDEC280020F8B52348C1680029CF
:10D100003ED00E6821494C680769C078E11B0D02CA
:10D110002D0AED1C002814D101201D4A0004506086
:10D120001B4A403A50601B49400008601A49086099
:10D130001A49012008602F20FDF7CCFF1249012079
:10D14000C870B54200D23546E81900020F4B000AFC
:10D15000403318600D4A5168001B091B0902090A77
:10D160000002000AC91C814209D9506818602F20AA
:10D17000FDF7B0FF01200749400480390860F8BD81
:10D1800001F0D6FFF8BD0000BC21002000150140D1
:10D190004013014080E200E000E100E000100140A7
:10D1A000F8B50646108814468446801D0D46984200
:10D1B00001D90C20F8BD32880720062AFAD3192796
:10D1C000FF01184BBA4201D99A42F3D1718806295E
:10D1D000F0D3B94201D99942ECD19A4203D0994295
:10D1E00001D08A42E6D805216046295420881221C0
:10D1F000401C80B2208029542088401C80B22080AE
:10D200004119308802F0BAFC2188401880B2208091
:10D210004119708802F0B2FC21884018208000205B
:10D22000F8BD0000FFFF000010B5FEF789FB10BD40
:10D23000F8B5164800F0F6FF144D00260C3D144CCE
:10D24000002807D0616900291CD001206A461070AF
:10D25000684616E02878002805D06169002911D0B9
:10D26000684606700DE0687800280DD0A16809486E
:10D2700000220068FEF7FAFB002803D0A16900290C
:10D2800000D088472E70F8BD6168F0E718210020B3
:10D2900044270020B8FD010070B5094B04469E7A72
:10D2A000082000250E4207D00648844202D0188983
:10D2B000A04202D10020156070BD052070BD0000A5
:10D2C00058280020FFFF00000C214843064910B5F4
:10D2D000012240188272911E0181FF21C172072133
:10D2E000FDF775FF10BD00005828002010B5134C45
:10D2F000207900071FD46069401C6061E068002845
:10D3000001D0042004E000F0BFFF002803D0022079
:10D3100002F046FA10BD2069002809D06068C107F4
:10D3200001D00320F4E70121084360600020EFE70B
:10D33000FFF760FE10BD02F027FA10BD8421002027
:10D3400010B5084841680A0708D48A0702D50122A7
:10D3500011434160022002F023FA10BD02F014FADA
:10D3600010BD000084210020F8B500260124154DD1
:10D3700023E06968F0004718387821462A6981401F
:10D38000114218D08A432A6101F096FB3A7821466F
:10D39000EB68914019400346934099420BD179784C
:10D3A000012901D0012100E000217B684140002BD0
:10D3B00001D010469847761CF6B228788642D8D31A
:10D3C000F8BD0000A8210020FEB50E460446817875
:10D3D0006A46234801F076FC002827D160780C21AA
:10D3E000204F4843C019807A400620D4022E1ED018
:10D3F000012E1ED01C4DA0781C2148431949002342
:10D40000F83941181C226846A847002813D0022E7C
:10D410000CD020780C21484312490C314018807AF6
:10D42000124980000A58214668469047FEBD104DBB
:10D43000E1E7104DDFE7022EF8D060780C21484379
:10D44000C019817ABF221140817260781C21484343
:10D450000449343941181C231A466846A847D8E7BE
:10D460007C210020582800200DF70100BCFD0100A0
:10D4700079F001009DEF010070B50546114A124890
:10D4800000241C2363431B189B7EFF2B04D0641CC9
:10D49000072CF6D3104670BD0A78022A09D01C2248
:10D4A00062431018FD22827607221030FDF768FED5
:10D4B00004E01C2161430818FE2181762C700022B3
:10D4C000E8E700004380000060270020F7B505254D
:10D4D0000F4F06460024002E0AD01C206043C019BE
:10D4E000072231461030FDF784FE002807D00AE0FD
:10D4F0001C206043C019018B0298814203D101981E
:10D500000025046002E0641C072CE4D32846FEBD1D
:10D51000602700207CB5054681B26A46074801F0C5
:10D52000D1FB040008D15421684601F0F5FB04004A
:10D5300002D1284601F062FB20467CBD7C21002000
:10D5400010B5100001D0FEF7FBF9002010BD00005F
:10D550001FB56946087301F049FC002801D0FEF7A9
:10D56000EFF903A800F01AFA002801D0FEF7E8F955
:10D5700001A805210130FDF72AFE694649790120FD
:10D5800001438122114030314A06520E69464A71E8
:10D5900007228A711022CA710549009169460871F3
:10D5A000044800F00FFB002801D0FEF7C9F91FBDA9
:10D5B00041D501008E200020F0B591B00546FF2432
:10D5C000002007940290E9480078002849D0E84FED
:10D5D0003868002845D001A800F0D2F9002801D011
:10D5E000FEF7AEF9281D05902C2069460883FF2020
:10D5F000002688710E710396DD4C28880C3C10289B
:10D600000ED0A88803AA0221FFF746FE002807D102
:10D6100003980C2141430919CA7A69468A714871F5
:10D620002A881320192A7DD00FDC102A1BD0112A3A
:10D6300055D0132A77D0142A13D103980C214843CC
:10D640000019C07AFF286FD0A1E0CA491A2A6CD00D
:10D650001E2A65D0522A04D1B87A8000095801A840
:10D66000884711B0F0BDC44F03AA01213846FFF727
:10D6700013FE0028F5D103990C204843022200191B
:10D68000827211236A4613745171A9880181294657
:10D69000083107220091FDF773FDE87DC10707D02F
:10D6A0004108B2480830405CFF2808D0079006E0E7
:10D6B0003A4607A90098FFF709FF002837D10399D8
:10D6C0000C22514309190798C8728A7A08231A4311
:10D6D0008A726946887101A8FFF7CCF827E00398A1
:10D6E0000C2148430119887AFD22104088720107F5
:10D6F00006D5C0090DD0002101A8FFF765FE08E09E
:10D7000068468079FF2804D001F078FAFF20694646
:10D71000887103980C225043102100198172122045
:10D72000694603E08BE043E014E0E4E0087432462D
:10D7300004A901A8FEF710F96846007C122890D1D0
:10D7400003980C2141430919897A012989D0FFF7EF
:10D75000BBFD86E72A8A07A90020FFF7B7FE00284D
:10D760000ED103990C22514309190798C8728A7A7D
:10D7700008231A438A726946887101A8FFF77AF86C
:10D7800003980C2148430019C07AFF2806D003985B
:10D790001C214843764940394018029003981C21C7
:10D7A000484376494218A8880023029986DF58E743
:10D7B0006946087403980C2148430119887A0422A9
:10D7C00010438872CA7AFF2A0BD040221043887215
:10D7D0001620694608740023A8881A4685217FDF31
:10D7E00021E007A8FFF748FE00281FD006460020CA
:10D7F0000D9003990C224A431219D27A1C235A43E2
:10D800005E4B0F90D2180E921C2251431A46C4321E
:10D810008918109009910A900B900C903A1DA888D5
:10D8200009AB00217FDF002893D180E76946079884
:10D83000887103990C2251430919C872D7E7787A85
:10D840000C2140084000787203986F460246484316
:10D85000011984468B7AFB2003408B7214203874A4
:10D86000287A002806D05806DFD4C87AFFF752FE7F
:10D870002E7A5CE7687A4007D7D5B879FF28D4D0EC
:10D8800008273B438B726B7B9B0708D51C250346FF
:10D890006B433A4D5B199D7E6D086D009D76CB7A8A
:10D8A000FF2BC2D06346E35C022B10D01C225043F6
:10D8B000324D072240191030FDF762FC684680792E
:10D8C0001C2148434019817EFD2211400DE01C219E
:10D8D0004A432749403951184A8A1C21484327495D
:10D8E00040180283817E490849008176012101A800
:10D8F000FFF76AFD1BE7287A0209012A23D10007F6
:10D90000000F01281FD103980C2242431219927A6A
:10D91000120718D5182148431549243940180E21FB
:10D920000830FDF754FC16206946087403980C2152
:10D9300048430119887A602210438872787A02215C
:10D94000084378720FE003980C2250430019827A42
:10D9500080231A43827215206A461074B87A8000B8
:10D96000095801A888470026E1E600006C21002044
:10D9700064280020DCFD0100FFFF0000602700207C
:10D98000002806D0FF21017041708170C170002015
:10D9900070470148704700000E800000F0B585B068
:10D9A000040036D029480025056045728572284656
:10D9B000FFF78AFC254818212438FDF708FC0026CB
:10D9C000FF27304601F01AF921488755761C072EAB
:10D9D000F7D35421684681800721C1801D481C4926
:10D9E00000900831684601F07BFA00280FD1184EEC
:10D9F0000120083E3070207800280CD069468888C5
:10DA0000C988484381B23046103001F085F905B02D
:10DA1000F0BD1148FBE7114F00240D48A1B202AA46
:10DA2000083001F04FF9002809D11C206043C019CB
:10DA300000231C2202A901F0FFF9002801D0357053
:10DA4000E5E7641C072CE8D3E1E700006428002028
:10DA50007421002061DA01000E80000060270020A0
:10DA6000FFB5554891B000681A9F1E4600286AD03D
:10DA7000542F68D86846FFF783FF002801D0FDF7D0
:10DA80005FFF0024684604700471254605970696DA
:10DA9000A9B20FAA494801F015F9002806D10822B9
:10DAA0000FA91198FDF7A5FB002819D06D1C072DB3
:10DAB000EED3684680780790FF2844D0129820253E
:10DAC000032810D03E481C21301AFDF72FFB0127F8
:10DAD000072825D204A802901398002812D019E034
:10DAE00068468570E5E7542F03D0402069460871E9
:10DAF00001E06846057168460179032001436846E4
:10DB000001714FE00799384688402C49103949681F
:10DB1000084218D0079802F037F86846057138E0D7
:10DB200025481C214038301AFDF700FB00280CD096
:10DB3000214D1821243D701BFDF7F8FA00281AD05A
:10DB400040206946087115B0F0BD04A802906846EF
:10DB50000571447018480B940C300C904C380790A9
:10DB6000684680781C21484315490595401808905F
:10DB700007A806900DE03021684601714470C77017
:10DB80000D480C38807A800703D428461821FDF709
:10DB90001EFB12986946022808790BD0022108431F
:10DBA0006946087104A8029001A96846139AFDF716
:10DBB000D3FEC8E73843F4E7642800207C21002026
:10DBC0006027002070B5064618480D4600780028EA
:10DBD0000ED01749002E0ED0002D0CD0286800283A
:10DBE00009D0144C2168002907D011480A3870BDAB
:10DBF0000F48801F70BD084670BD20600522691D5A
:10DC0000201DFDF7BDFA2879A072207A0221400874
:10DC100040000843FB2210402072E07901231843A2
:10DC200008431040E0710020307070BD6C2100206E
:10DC30000E8000006428002010B50E4900234A78A9
:10DC40008C78A24212D0521CD2B24A70022A00D161
:10DC50004B704A78074B920018339A580260086953
:10DC600010180002000A0861012010BD03600020A6
:10DC700010BD0000BC21002010B5002803D01128E1
:10DC800002D0FDF785FE10BD02480822416811430D
:10DC9000416010BD8421002010B51C4C2178204625
:10DCA0004068012906D0022929D0032912D1000792
:10DCB00017D513E0000711D41548142201785143F9
:10DCC0000818C188A28B891A0904090CC18002D0E6
:10DCD00001F01EFD10BDFFF7F1F910BD00F084FD4D
:10DCE00010BD6069401C606100F0CEFA002803D0CE
:10DCF000207801F0FBFB10BDFFF77CF910BD6078C8
:10DD0000044980000858804710BD0000842100208D
:10DD1000EC28002000FE010010B528DFFFF7ACFF63
:10DD200010BD10B529DFFFF7A7FF10BD002804D0F4
:10DD30000349496D016000207047032070470000CF
:10DD4000E42900200EB51120694608720E220FA1A9
:10DD500002A87CDF002801D0FDF7F2FD0F4878DF34
:10DD6000002801D0FDF7ECFD0021FF20913000914B
:10DD70006A4601911080430053809180D0806846AC
:10DD80007ADF002801D0FDF7DBFD0EBD4E6F726417
:10DD900069635F48524D5F61647600004103000093
:10DDA000002070470020704700207047F8B50646F5
:10DDB0004078182104464C4324490C2250436118F2
:10DDC000224A00254B6818328018AE462F469C46E2
:10DDD000002B0CD0827A1346D20908D05A0606D4FA
:10DDE0000D461A4A614689B2175908358E46174CB6
:10DDF000008918343B4672462946A9DF0B2819D002
:10DE0000002800D01248012F13D170780C2148430C
:10DE1000001900890F4AA7DF00280AD00E4988425E
:10DE200012D0082810D0891C88420DD011280BD0A0
:10DE30000020F8BD70780C214843012300190089A7
:10DE400072462946A9DFE0E70148F8BD40280020D6
:10DE500041800000FFFF00000230000070B50C465A
:10DE6000014660781822084D50434019382300F0CD
:10DE7000E3FF002807D161781822514349194A6805
:10DE8000521C00D14A6070BD40280020F3B585B017
:10DE90000D460E206946088268780C210327484306
:10DEA000224E3B468019008904AA6946AADF002851
:10DEB00038D1687818214843741A001969460A8ACB
:10DEC0000830FDF796F90028687807D018214843F4
:10DED0000119496800290DD0154E0CE00C21414371
:10DEE0008919897A89071DD4182148430019FDF73B
:10DEF0006EF917E00F4E27506846028A687818219D
:10DF00004843001942606878484300196946083060
:10DF1000FDF736F96878182148430119382318228B
:10DF20000598B047002007B0F0BD00005828002039
:10DF300079F001009DEF010010B5FFF737FF10BD2C
:10DF400010B5FFF78BFF10BD10B5FFF79FFF10BD99
:10DF5000F8B50746104E0125BD403068FDF7C4FDF9
:10DF600000280DD10D4C2069284207D1384600F019
:10DF7000A3FD0028E06804D0284303E0A843206103
:10DF8000F8BDA843E0602069002228432061A16811
:10DF90003068FDF76BFDF8BD14FE0100A8210020DC
:10DFA00070B51B4C207900072ED41A481422017832
:10DFB00051430D182E6900F013FF0146E8882A89A5
:10DFC000761E80188019FDF7B1F821690025002917
:10DFD00009D06169814206D1E5606068012108438A
:10DFE000606000200AE000F04FF9002802D0022013
:10DFF000E56003E02069002803D0032001F0D0FB96
:10E0000070BDFEF7F7FF70BD01F0BEFB70BD0000F4
:10E0100084210020EC28002010B51249124801F09C
:10E0200085F9114C81B2143CA068401CA0600D48D9
:10E030006038FEF7EFFA002809D0082807D00B490E
:10E04000884204D00A49884201D0FDF779FC0321B7
:10E05000A068FDF76BF8002901D0012000E0002046
:10E06000207010BD94250020A02000200430000066
:10E0700001340000F0B5002406460D46601C01077F
:10E0800095B0090F08A810310C940174297B4174D4
:10E09000817CF9273940891C81741C2105A8FDF772
:10E0A00096F86846017D10200143684601750CA86A
:10E0B00006940A900894099401220B9408A8827689
:10E0C0001749684601870D94697B08A80175A97BEB
:10E0D0004175817DF7203940891C0140EF200140C6
:10E0E000114308A8817514216846FDF770F80EA841
:10E0F00000900DA801900FAA0021304600F012F800
:10E100000146684601811421448181810FA8049051
:10E110003346F08808336A4605A9A2DF15B0F0BD82
:10E12000372A0000F7B542790025002A00D00425DF
:10E130002222135C0222002B00D01543CBB2FF2910
:10E1400007D901221543029A090A537091700326D8
:10E1500002E0029902264B7004464034A18900294E
:10E1600001D010210D43002716E0B11C142909D954
:10E17000A189C91B4A007900091824302431FCF711
:10E18000FFFF0CE0029B7A0012189B19928C1A7008
:10E19000120A5A70CEB27F1CA189B942E5DCA0896F
:10E1A000C01BA081029805703046FEBDF8B51C4C1E
:10E1B0002078002833D02069002807D00026E068A6
:10E1C000002805D00025002E04D011E00126F6E736
:10E1D0000125F8E7684652DF052804D0002804D05E
:10E1E000FDF7AEFB04E0012602E0216900988847B4
:10E1F000002D10D1608869460880A06861DF05287D
:10E2000004D0002804D0FDF79BFB04E0012502E0C8
:10E21000E168A0688847002EDCD0002DD3D0F8BD7F
:10E22000DC210020418805480288914204D34088BF
:10E23000814201D801207047002070471021002042
:10E240001048018CC9B2012917D1818C090714D15A
:10E25000018D09060A0F03D1828D1206120F0ED00E
:10E26000090F012903D1828D1206120F07D003294D
:10E2700003D1808D0006000F01D0002070470120DF
:10E2800070470000C00F00F070B50E4814220178EE
:10E2900051430C18256900F0A3FD0146E08822894E
:10E2A0006D1E80184019FCF741FF07494A698242F8
:10E2B00006D3824202D10869002801D0002070BD37
:10E2C000012070BDEC28002084210020800701D0AF
:10E2D000002070470120704730B51588EC1C9C4227
:10E2E00001D90C2030BD02244C5513881C255B1C21
:10E2F0009BB21380CD5413885B1C9BB21380012802
:10E3000007D0022807D0032807D0042807D0072009
:10E3100030BD002004E0012002E0CC5401E00320E5
:10E32000C8541088401C1080002030BD10B504482F
:10E33000017AC90702D00078FEF734FC10BD000056
:10E34000CC200020F8B52C49C8680A690C780F79F0
:10E3500089688646944600913EE00099E20055188F
:10E360002A7836E0182353436968521CC918AB78E1
:10E37000D2B2934200D100220B78022B02D0032BA1
:10E3800027D123E04E680346014603E0B14204D0A2
:10E390000B46C96900291CD0F8E7002919D08B4227
:10E3A00008D1C069002805D1144F0126BE6000269F
:10E3B000B44601270E68C969D961002909D00B68E4
:10E3C0009B190B6005E00174C06900E00021002882
:10E3D000F9D169789142C5D12146641EE4B2002981
:10E3E000BBD1054962460A61C8600F71704501D012
:10E3F0000120F8BD0020F8BDBC2100200010014024
:10E40000F8B5044631480026C168009107784EE00F
:10E410002E48F90080680D1843E0002C02D02046F9
:10E42000E4691FE02878182141436A68401CC0B2A3
:10E4300051182870AA78904200D12E700A78486846
:10E44000012A30D1027C002A2DD18A684260CA6834
:10E4500082600A69C260496981611C4909790029A1
:10E4600000D04660194943680A699C46991A090216
:10E47000174B090A994202D28268891807E061465F
:10E48000511A09028268090A8A4202D9511A0160A6
:10E4900000E006604660012186600174C66101F0FB
:10E4A00013FA002CB9D1287869788842BAD1384655
:10E4B0007F1EFFB20028ABD10448C168009881429A
:10E4C00001D00120F8BD0020F8BD0000BC210020D3
:10E4D000FFFF7F0007480121017000210171417198
:10E4E000014620397D230A69DB005A438A62CA69E2
:10E4F000CA6270474422002010B500F039F8124972
:10E500000122CA631249114B4B61124B8B61FF23ED
:10E5100004334B63104B8B630A63104B03221A6066
:10E520000A610B4B962240335A600D4B10225A6001
:10E530008E224A620B4ACA610B4ACA6348600B4981
:10E540000220086010BD0000C01F0040060102004C
:10E5500000150040250003025B0600000012004089
:10E560000013004000D6BE895555550000E100E07B
:10E5700070B51D4C4220207000206070A0702146B4
:10E580000225E01C06225D31FCF7FAFD65720120D0
:10E59000A0720620E07200202073FF2026466073E0
:10E5A0002836308E21468873000AC87308462574C1
:10E5B0001230054610222831FCF7E2FDB08AB11F67
:10E5C0000870000A48702422F18AA0180170090A14
:10E5D00041702621708E605462701A2020731520BD
:10E5E000203DE877204670BDFC210020F8B50124CD
:10E5F00001280DD0FF260A4D91360A4F02280DD072
:10E60000032804D1272000F039F8EC603E60F8BD03
:10E61000252000F033F804480460F8BD2620F2E716
:10E6200000800040408500400010004010B50848C0
:10E63000064C44610749016105498015403948602D
:10E64000FFF75AFF0120206110BD000000100040BC
:10E6500040F501404081004002460648002101701B
:10E660000171014642712039CA698A62024ACA624E
:10E6700051DF70474422002040420F000A4A0A49F5
:10E680004032252808D026280AD0272803D1502038
:10E690008860272050617047022088602520F9E7B4
:10E6A0001A2088602620F5E70015004070B5194D46
:10E6B000002169602C1F2970002809D0164E0228FD
:10E6C0000AD0F16B002901D008208847114870BD9D
:10E6D000FFF7ACFF01200BE010480269012AF5D1D9
:10E6E00001612078FFF782FF2078042802D0401CC7
:10E6F0002070EBE7FF200A4901308860307E002857
:10E7000004D0FFF7E7FE6860032000E002202870D5
:10E71000DCE70000842000202422002000110040BB
:10E7200000F5014088B001F02FF92A4A2A49032058
:10E73000FEF7E8F9002801D0FDF702F901A9002051
:10E74000FEF7BCF8002801D0FDF7FAF8684600791A
:10E75000022837D0002069460870FEF707F8FDF759
:10E76000D7FA69460878FEF7F3FEFFF7EBFAFCF7F5
:10E77000EFFF00F02FFE00F083FD1C216846FCF740
:10E7800026FD0521C90301910F21090400200291F2
:10E790000090032269460A7310498A896946CA8132
:10E7A00008740F4805900F4806906846FDF7B0FDC5
:10E7B000002801D0FDF7C4F8FDF7C0F90320FDF7EC
:10E7C00023FC02E00120C6E748DF0028FCD0FDF76B
:10E7D000B7F8F9E769CA0100CD0C00003425002024
:10E7E000C5EB010029D2010010B504480822416898
:10E7F00091434160007800F079FE10BD8421002033
:10E8000070B5144682880E4605462088111D4118B1
:10E81000921C994201D8FE2A01D90C2070BD521CCD
:10E8200032542088FF21401C80B22080315420883F
:10E83000401C80B220808119288801F09FF921882E
:10E84000401880B22080AA88002A09D0A96800292F
:10E8500008D08019FCF794FC2088A98840182080F3
:10E86000002070BD072070BDF8B50F460178144632
:10E870000546012902D16878002806D02088821C2C
:10E880009A422DD8012902D006E00720F8BD697808
:10E890004118891C994223D8181A801E86B26846EE
:10E8A00006802188B81C081869467DDF0028EDD154
:10E8B0002878022805D169460988B14201D8092182
:10E8C0000AE00821012805D16878B04202D86A46DA
:10E8D000108001E06846068068460088FE2801D95D
:10E8E0000C20F8BD2288401CB8542088401C80B2FF
:10E8F0002080395420886946401C208009884018AF
:10E9000020800020F8BD00207047002070470020C4
:10E91000704700008207D30EFF229A408907090E34
:10E9200010B5994000280BDA03071B0F083B9C0821
:10E930000C4BA400E318DC6994430C43DC6107E052
:10E940008408094BA400E418236893430B43236015
:10E95000C106C90E012088400449086004490860C6
:10E9600010BD000000ED00E000E400E080E200E007
:10E9700000E100E0F3B581B00F46019800F05AF9CC
:10E98000012400281E4E019817D0FEF75DFA801969
:10E990002030007F8009032802D0012806D007E03C
:10E9A0001848006901998C40204201D1022100E001
:10E9B0000321019800F0CEF8FEBD00F047F90028D1
:10E9C000FAD00198FEF740FA05468100C81D0E4AAC
:10E9D000F93089180A6980B222430A610B4940184C
:10E9E00000210160002FE7D00198FEF72DFA80008A
:10E9F00030580028E0D00648AC404460FEBD00001E
:10EA0000882800200005005000650040006000409C
:10EA100000630040FEB5044623480E46001920213D
:10EA200041560027C8171346401C01D0082738E07C
:10EA3000F27819462046FEF7E3F90546401C2FD030
:10EA4000B078002807D01948A100091808680222E8
:10EA50009043086007E000217378204600910A4641
:10EA6000019100F065F8F078002810D01048AA0055
:10EA70001018317802690F4B1A400261E206D20C7D
:10EA80008907890B0A4301690A43026109E00648C4
:10EA9000327840192030017F92011143017700E064
:10EAA00004273846FEBD00008828002000070050DB
:10EAB00000650040FFE0FCFF03490969C140C80749
:10EAC000C00F00D0012070470005005070B5124DF6
:10EAD0002879002801D0082070BD0F490020403956
:10EAE000421E0B182033401CC0B21A702028F8D3E5
:10EAF00000242046FEF776F9641CE4B2082CF8D313
:10EB000003210620FFF706FF01200449C0074860E3
:10EB100001202871002070BDC8280020006300403B
:10EB200002480079002800D001207047C828002042
:10EB300030B552000A439900039C0A432102049D08
:10EB40000A4329040A43024980004018026030BD8C
:10EB500000070050820006481018026803231B04B7
:10EB60009A430260026809040A4302607047000089
:10EB700000070050034940180068012800D0002019
:10EB800070470000006000404058002800D001207D
:10EB900070470322120280184068084000D001200C
:10EBA000704710B5002809D0032806D10220FDF7D0
:10EBB0009BFF002801D0FCF7C3FE10BD00F082FCD3
:10EBC00010BD000010B50078002807D104483B2193
:10EBD000808876DF002801D0FCF7B2FE10BD00006F
:10EBE0008C2000200021425C002A01D001207047C7
:10EBF000491C0629F7D300207047000070B5054670
:10EC00001C200B4968434418204611300621FCF7AC
:10EC1000DEFA20461021FCF7DAFAFF2121740020E9
:10EC2000A176C0432083284600F0AEFF70BD0000EF
:10EC3000602700200449081820214156042901DBDF
:10EC400001207047002070478828002004490818D8
:10EC500020214156042901D201207047002070472D
:10EC60008828002070B50D00044602D10020FCF772
:10EC700067FE002C02D10020FCF762FE287820708D
:10EC800069886170090AA170A988E170090A217177
:10EC9000E8886071000AA07170BD00000749097919
:10ECA000490701D408207047002804D00449497856
:10ECB0000160002070470E20704700008421002072
:10ECC000EC28002030B5124B1B795B0701D40820DB
:10ECD00030BD002805D0002A03D00468002C10D1D4
:10ECE00001E00E2030BD0B4B1D68002D09D045689A
:10ECF0001889414369185D89454358682818884236
:10ED000001D8072030BD14600020516030BD0000E4
:10ED100084210020B8290020FEB5054625480E466E
:10ED20000079400701D40820FEBD002D03D02868DB
:10ED3000002834D101E00E20FEBD1F4C21680029BF
:10ED40002DD06089218948436168411868688142F3
:10ED500025D9FFF7BBFA00280FD068680190296811
:10ED60000C2251430F1979680091401A39890C46D9
:10ED7000FCF7DCF9002912D101E01020FEBD21468C
:10ED80003046FCF7D3F9002909D1002E07D0788945
:10ED900044430198811900980019814201D9072044
:10EDA000FEBD002002460090334629460320FEF7B0
:10EDB0005FF9FEBD84210020B829002010B5074866
:10EDC0004469601C06D000F00BF801462046FCF7B1
:10EDD000ADF910BD01200007406910BD0010001002
:10EDE00001200007006980B27047000070B5002460
:10EDF0000F482546047044702846FEF729F96D1C1B
:10EE00000A2DF9D30B4D6C80FFF7D8FF861EFFF754
:10EE1000E7FF46430648AE60CC306C610460048175
:10EE200044812C70AC610420EC616860002070BDEE
:10EE3000EC28002084210020FFB5274881B000790C
:10EE40001F4616460D46400702D4082005B0F0BD07
:10EE5000002D06D00198002803D02868002815D17D
:10EE600001E00E20F2E71D4C206800280ED06189D9
:10EE700020896268414389186A68914206D9002E48
:10EE800004D0B04202D3F119814201D90720DDE755
:10EE90000198FFF71BFA00281BD03846FFF716FA37
:10EEA000002816D06868FFF711FA002811D06868AA
:10EEB0003246C1190198FCF763F9009628680C21C5
:10EEC00048432458002202212846019BA0470020E5
:10EED000BCE71020BAE7000084210020B8290020F8
:10EEE000F8B52C4D044628790E46400701D4082079
:10EEF000F8BD002C20D0002E1ED0206800281BD08A
:10EF0000FFF76EFF0146A088814213D3102811D36A
:10EF1000E08800280ED0FFF751FF471EFFF760FF83
:10EF20004743E288A188A8684A431218974201D350
:10EF3000890703D00720F8BD0E20F8BD6988012994
:10EF400026D031600C22144B51437060CA185060B7
:10EF500020685850A0881081E0885081FFF740FF5A
:10EF60000646FFF73DFFA188E288401E5143401846
:10EF70003146FCF7F1F80446FFF732FF0146A86876
:10EF800061430818A8606888401C68800020F8BDAC
:10EF90000420F8BD84210020B8290020F8B50446DB
:10EFA00020481E46007915460F46400701D4082028
:10EFB000F8BD002F05D0002C03D02068002815D103
:10EFC00001E00E20F8BD1848016800290ED04289E2
:10EFD000018940684A4310186268904206D9002DA2
:10EFE00004D0A94202D3A819884201D90720F8BD4C
:10EFF0003846FFF76BF9002811D03046FFF766F965
:10F0000000280CD06068FFF761F9002807D02B4674
:10F010003A46214601200096FEF72AF8F8BD102056
:10F02000F8BD000084210020B829002010B5114946
:10F0300002460878002811D004280FD0022A16D0E2
:10F04000032A0BD10A79120711D48A69521C8A61EA
:10F05000032A08D0022802D000F048FA10BD4878F0
:10F0600000F09EFB10BD0D20FCF792FC10BDFEF7DA
:10F0700013FE10BD84210020F8B5044620481E462A
:10F08000007915460F46400701D40820F8BD002F2F
:10F0900005D0002C03D02068002815D101E00E20F7
:10F0A000F8BD1848016800290ED0428901894068DE
:10F0B0004A4310186268904206D9002D04D0A94234
:10F0C00002D3A819884201D90720F8BD3846FFF7B6
:10F0D000FDF8002811D03046FFF7F8F800280CD0D2
:10F0E0006068FFF7F3F8002807D02B463A46214620
:10F0F00004200096FDF7BCFFF8BD1020F8BD00000D
:10F1000084210020B829002010B507480078002885
:10F1100009D0054805491C3000F008F981B20348C0
:10F120007038FDF7F9FA10BD8C200020A4250020CE
:10F1300070B501240B49600408600B4940108860D9
:10F14000094940398860094D6C602F20FBF7C2FFE8
:10F15000AC60074D00242F202C61FBF7BBFFEC7047
:10F1600070BD000080E100E040130140001001404C
:10F17000BC21002030B50A48FF21C57D0022094C82
:10F180000931094B002D625007D09969437EC2684E
:10F19000D154417E491C417630BD986930BD000094
:10F1A000D028002000200040002500401FB501238A
:10F1B0006A46137010720348019106C8684690476A
:10F1C0001FBD0000D028002008B502490020009192
:10F1D00008BD00008020002010B50121202805DA9C
:10F1E0001A4A8140114201D1194810BD8107C90E48
:10F1F000002808DA0207120F083A9208154B92000D
:10F20000D218D26904E08208134B9200D218126817
:10F21000CA401106890F042911D200290FD00229F2
:10F220000DD00E494C68C306DB0E01229A40002C1B
:10F2300008D0400980000B5813430B5004E00448E9
:10F24000401C10BD06480260002010BDFC06FFBC3B
:10F250000120000000ED00E000E400E0F0210020CB
:10F2600000E100E010B504480122417851404170AE
:10F270000248FDF768FA10BD8C20002034250020DC
:10F2800070B51448012451216425846022C00471A2
:10F290001049114800F03EF80E488C2110300160F2
:10F2A000FF212D3141600A2181600026067301464D
:10F2B0000948083000F02EF80648FF21203005608C
:10F2C000F53184604160067301460348103000F058
:10F2D00021F870BD842500209820002010B5036817
:10F2E0000A6889689C1A8C4202D9591A016010BDBB
:10F2F00001210260017110BD10B54B680268896878
:10F300009C1A8C4202D95118016010BD0021036083
:10F31000017110BD0A7B002A03D0496801600021F9
:10F3200002E00968016001210171704710B50446CF
:10F3300000790028204602D0FFF7DEFF01E0FFF74A
:10F34000CDFF206810BDFFB50746806A81B0144626
:10F3500000283DD0002538462030009033E00C20B6
:10F36000B96A68430E18B088801CFE2802D90C20A8
:10F3700005B0F0BD22880299401C885420881622CE
:10F38000401C80B2208002990A542088401C80B220
:10F39000208002994118308800F0F0FB2188401845
:10F3A00080B22080B288002A0AD0B16800290FD02C
:10F3B000029BC018FBF7E4FE2088B188401820802B
:10F3C0006D1C0098EDB2007BA842C8D80020CFE7A2
:10F3D0000720CDE730B59BB0032118A80172142196
:10F3E00010A8FBF7F4FE0024012510A81094057165
:10F3F0001AA81290601C0107090F10A810310173A0
:10F4000044738473601C0107090F10A81031C17385
:10F410000020014610A8017401462448FDF726F992
:10F42000002801D0FCF78CFA142115A8FBF7CFFEB9
:10F430000120014618A8103141700120014618A88A
:10F44000103181700020014618A8C17001200146CA
:10F4500018A81031017110A815940576642118A818
:10F4600017940170114815A91838FCF7FDFE002803
:10F4700001D0FCF765FA40216846FBF7A8FE0CA115
:10F480006846FDF763F90120014608A810310177AD
:10F490000020014608A841776846FCF7DBFF0028FA
:10F4A00001D0FCF74DFA1BB030BD00003425002020
:10F4B0004E6F7264696353656D69636F6E647563E3
:10F4C000746F720010B50020FDF70EFB002801D00C
:10F4D000FCF736FAFDF758FA002801D0FCF730FAAD
:10F4E0003CDF002801D0FCF72BFA10BD10B50F4906
:10F4F0000028087009D0012811D0022812D0032852
:10F5000002D14869FEF708FC10BD00208861C8617F
:10F51000074840780028F7D0FDF77EFD10BD00F0C9
:10F52000F7F810BD00F056F810BD0000842100204F
:10F53000EC280020002803D00249C8600020704752
:10F540000E207047DC2100201CB503490191009179
:10F55000694660DF1CBD00008020002070B50E46AB
:10F560000546144614211046FBF731FE0120002108
:10F5700020802161217326726572002D00D0A07257
:10F58000002070BD10B5FCF7CDF910BD70B5002995
:10F5900001D08C0701D0072070BD074C0125A16068
:10F5A00062800649636010DF0028F5D125701620BF
:10F5B000FFF712FE70BD0000DC21002085F5010080
:10F5C000002803D002490861002070470E207047D0
:10F5D000DC210020F8B5164C142260684008400079
:10F5E00060601448017851430E183769FFF7F8FB43
:10F5F00001463846FBF79AFD05466061FFF7F0FBD0
:10F600000146F0887F1EC019FBF790FD022285425B
:10F61000606801D1104300E090436060E1681040F1
:10F62000084303D0002000F0BBF8F8BD0220FAE741
:10F6300084210020EC28002010B502484069FEF724
:10F640006BFB10BD8421002010B5FFF7B7FB441EF3
:10F65000FFF7C6FB4443FFF7C3FB04494A69521E48
:10F660005043CA682146FEF75CFB10BD8421002090
:10F67000F8B510481422017851430C182569FFF79A
:10F68000AFFB0146E088228980184019FBF74EFD48
:10F690000F46FFF793FB461EFFF7A2FB4643E088A9
:10F6A0002289F1198018044A40191269FEF739FBC2
:10F6B000F8BD0000EC2800208421002070B5FFF781
:10F6C0008FFB0546FFF77AFB441EFFF789FB60437B
:10F6D0002946FBF72BFDFEF71FFB70BD70B5FFF74A
:10F6E0007FFB8608FFF77CFB0749496948430446CE
:10F6F000FFF764FB451EFFF773FB68433246214664
:10F70000FEF70FFB70BD0000842100200020704731
:10F7100070B514481422017851430C18241DFFF7CA
:10F720005FFB6188104E884211D2FFF759FB618858
:10F730000D1AFFF755FB8208A188E068401821697F
:10F7400040194919FEF7EDFAFFF74AFB07E0A288D6
:10F75000E06880188A082169FEF7E3FA6088F061A2
:10F7600070BD0000EC2800208421002010B5054861
:10F770000079000703D4012000F012F810BD00F05A
:10F7800003F810BD8421002010B504480822416808
:10F7900091434160407800F003F810BD84210020BF
:10F7A000024948700249800008580047842100201F
:10F7B000ECFD010010B50446FFF738FC2046FCF7CD
:10F7C00023F82046FCF7D4FB10BD70B50C000546AD
:10F7D00002D10020FCF7B4F8002D02D10020FCF784
:10F7E000AFF8207828702088FF2109020840000A1D
:10F7F0006870206809020840000CA8702068000E9C
:10F80000E87020792871207A68712089000AA8712F
:10F81000A068000CE87170BD10B5054800790007BC
:10F8200002D4FDF7E7FB10BDFFF7AEFF10BD0000EF
:10F8300084210020FEB51F4C00252769E068029056
:10F840006846FEF7F9F90190FEF77CFD064601983F
:10F85000002822D000230098E16817E00E680A46CD
:10F86000864202D9301A086012E0801BF318002685
:10F870001660D668D169B446002E07D0FE1836024D
:10F88000360A566066469660D56115460029E5D170
:10F890002846E160FEF7B4FD06E02846FEF7B0FD1D
:10F8A000002801D1002E02D00298FDF725FC00208F
:10F8B0002071FEBDBC210020012002490005086026
:10F8C0007047000000E200E010B50E4BD968002937
:10F8D00006D002680C68A24204D8A21A0A60C1616C
:10F8E000D86010BD0B4604E00B46C969121B002905
:10F8F00004D00C689442F7D3A41A0C600260C16172
:10F90000D86110BDBC210020F8B51D4DEC68002C5D
:10F9100034D01C48002740682969401A0602360A7C
:10F920002068B04218D8361AC7192246107CE469FC
:10F9300000280FD0002010746B69002B07D091694C
:10F9400050699847002805D0FBF7FAFF02E051699B
:10F9500090698847002CE3D16978A878814206D164
:10F96000401CC0B2A870022801D10020A870044930
:10F970000006800D18310F50FFF79EFFF8BD000004
:10F98000BC2100200015014010B50023184A0521B4
:10F990001846FCF723F8002801D0FBF7D1FF154AE1
:10F9A00001211548FCF704F8002801D0FBF7C8FF37
:10F9B0001148124A0121001DFBF7FAFF002801D06F
:10F9C000FBF7BEFF0C480E4A01210830FBF7F0FFA1
:10F9D000002801D0FBF7B4FF07480A4A01210C3088
:10F9E000FBF7E6FF002801D0FBF7AAFF10BD0000DF
:10F9F000E4220020D1BC010068FD010019E00100F3
:10FA000009F1010065F20100FF2107481D310022C4
:10FA100042500648828A8168895C828A521C8282AE
:10FA20000348C1617047000000200040D02800203A
:10FA3000002500401FB500216A461170107204486D
:10FA400082680192817506C8684690471FBD000014
:10FA5000D0280020F0B5454D012185B04902284647
:10FA6000FFF797F801270026414C002824D0FF21FA
:10FA700025312846FFF788F800281DD0FF202530C3
:10FA80002E5081203B4980008860A07E002800D154
:10FA90006F6002216846017037490868086003906A
:10FAA000E17D68460172E0680190E675267606CC35
:10FAB0006846083C90472BE004212846FFF769F888
:10FAC000002825D0FF2109312846FFF75DF80028DE
:10FAD0001ED0FFF74FFBE07D617E884218D1207E6B
:10FAE000002808D0627EE168E0752069E060267633
:10FAF000667610460AE0A07E002800D16F60812063
:10FB00001C4980008860E675607EE168FFF74EFB67
:10FB1000FF211D312846FFF737F800280DD0A18AB4
:10FB2000A07D814202D2FFF76FFF06E0FF211D3169
:10FB30006E50002801D0FFF77DFFFF214531284698
:10FB4000FFF722F800280ED0FF2045302E50A07E6F
:10FB5000002800D02F60E07D002804D0E675607E8C
:10FB6000E168FFF723FB05B0F0BD00000020004076
:10FB7000D028002000230040802400400870000AA4
:10FB8000487002207047000001218140024842680D
:10FB90008A434260704700006C21002038B5154947
:10FBA000154A488890420FD04A78144C521CD2B261
:10FBB0004A70237B934208D3091D75DF002803D0C8
:10FBC000A169002900D0884738BD00254D70217CEF
:10FBD000002907D03B2176DF002803D0A169002946
:10FBE00000D0884761690029EED0684605708847D3
:10FBF00038BD00000C210020FFFF0000442700203A
:10FC0000EFF30580C005C00D1AD0103840B20028AF
:10FC100008DA0107090F083989080C4A8900891890
:10FC2000C96904E081080A4A8900891809688007BF
:10FC3000C00EC1400806800F012803D0032803D05E
:10FC400002207047002070470120704700ED00E05F
:10FC500000E400E042788378521CD2B2934200D193
:10FC600000220378934201D1002070470A70416856
:10FC700040781822504308187047FFB583B01646E5
:10FC80000C9D0D9C1F46022200950194039800F0E4
:10FC90000CF8002807D13B4610223146009501940C
:10FCA000039800F002F807B0F0BDFFB583B0074637
:10FCB00000200C9C8646268805463AE07868A90014
:10FCC00042181188684681805188C18000226946A7
:10FCD00001A865DF002839D168460178059881427E
:10FCE00026D17046002801D0002200E002222088A0
:10FCF000891842180D998A4227D8714600290AD1DD
:10FD0000401C80B22080069A049911542088401C1F
:10FD1000208001208646218806980A18694601A895
:10FD200065DF002812D169462088097840182080B4
:10FD30006D1C3888A842C1DC704600280AD0208893
:10FD4000801B401E80B2FF2802D90C2007B0F0BDF6
:10FD5000069988550020F9E70179002902D1007B36
:10FD6000002800D001207047642200208422002057
:10FD7000A4220020C422002001000007B425002096
:10FD8000D4250020002600201100000012000000F1
:10FD90001300000014000000110003009DC90100C1
:10FDA000120003009DC90100130003009DC901005A
:10FDB000140003009DC90100242700200FE9010061
:10FDC0008DDE0100A9DD010049DF01000BE9010022
:10FDD0005DDE0100A5DD010041DF010007E9010052
:10FDE000ADDD0100A1DD010039DF0100BDF601003C
:10FDF000DDF6010039F6010071F6010049F6010057
:10FE00006DF7010041D30100EDD2010019F80100A6
:10FE1000A1DF0100C4290020030000003CFE010016
:10FE2000802000207C01000030B2010068FE01004B
:10FE3000FC21002044100000EEB40100C132010397
:10FE40001EFFFF140D18011A0F041A0A04001128CE
:10FE5000FFFE2D121E4B0FA4994ECEB531F4054571
:08FE6000091E6401E51324F4FE
:040000050001B0C185
:00000001FF
