:020000040001F9
:10B0000058330020F5B001000FB1010011B101006B
:10B010000000000000000000000000000000000030
:10B0200000000000000000000000000013B101005B
:10B03000000000000000000015B1010017B1010080
:10B0400019B1010019B10100EDB4010019B10100FD
:10B0500019B10100000000006DB2010019B101003A
:10B0600019B1010019B1010019B1010019B10100B4
:10B0700019B1010019B1010019B1010019B10100A4
:10B0800019B1010005B4010019B1010019B10100A5
:10B0900025B4010019B101002DB4010019B101005E
:10B0A00019B1010019B1010000000000000000000A
:10B0B0000000000000000000000000000000000090
:10B0C0000348854600F0A2F80048004795E30100D8
:10B0D00058330020401E00BF00BF00BF00BF00BFAC
:10B0E00000BF00BF00BF00BF00BF00BF00BFF1D165
:10B0F000704700000321094802680A4302600848BB
:10B1000002680A4302600748804707480047FEE795
:10B11000FEE7FEE7FEE7FEE7FEE70000240500404D
:10B12000540500404DB40100C1B0010030B50B46DC
:10B13000014600202022012409E00D46D5409D4211
:10B1400005D31D469540491B254695404019154697
:10B15000521E002DF1DC30BD70B5002425460028BC
:10B1600001DA01244042002901DA01254942FFF7B2
:10B17000DDFFAC4200D04042002C00D0494270BDFF
:10B1800010B5431A934209D28318881803E0401E71
:10B1900001785B1E1970521EF9D210BD03460B4395
:10B1A0009B0703D009E008C9121F08C0042AFAD27D
:10B1B00003E00B780370401C491C521EF9D210BDED
:10B1C000D2B201E00270401C491EFBD2704700223F
:10B1D000F6E710B513460A4604461946FFF7F0FF96
:10B1E000204610BD421C0178401C0029FBD1801A6A
:10B1F000704730B504460020034600E05B1C9342D4
:10B2000003D2E05CCD5C401BF8D030BD064C01257C
:10B21000064E05E0E36807CC2B430C3C98471034FE
:10B22000B442F7D3FFF750FF00FB010020FB010001
:10B2300030B58C180278401C13071B0F01D103781E
:10B24000401C120906D10278401C03E005780D70FD
:10B25000401C491C5B1EF9D101E00B70491C521EB9
:10B26000FBD1A142E6D3002030BD0000F0B500259F
:10B27000FF248BB0013401262F460195204603F0B0
:10B28000D5FA002808D047484068304204D04648E4
:10B290000021201835430160241D76007F1CA4B2D4
:10B2A000042FEBD3FF207D3003F0C0FA002807D035
:10B2B0003E4800210160400705433D480069019078
:10B2C0003C4C280712D0012700262F420AD03A48CA
:10B2D000B200111808690969C004C00E8903A25898
:10B2E000890F90477F00761C042EEED3002D57DA8D
:10B2F00000200590401E4DE0A119403108788506D8
:10B30000AD0E42B2521C39D00121A940089A0091D9
:10B31000114233D080090390284601F0DDFC800003
:10B3200020580490002802D10398032826D10398BE
:10B330000099032802D10598084305901F4AA800E8
:10B3400080180068019A8003800F114202D0022801
:10B3500002D013E0032811D10399032907D1022851
:10B360001CD00221284603F051FA7F1CFFB204983A
:10B37000002803D0049A284603999047761C042E8F
:10B38000BAD3002F0CD00A4800690199884207D02F
:10B390000190059800273E460890ADE70321E1E7BC
:10B3A0000BB0F0BD00630040006000407C610040D5
:10B3B00000050050042800200065004000070050F0
:10B3C0008307FF22DB0E9A408907090E9940002867
:10B3D0000BDA0007000F0838830808489B0018188C
:10B3E000C36993430B43C3617047830804489B00C0
:10B3F0001B181868904308431860704700ED00E080
:10B4000000E400E010B5064900200860486088604C
:10B41000C860034940390860486004F0E5F810BD91
:10B420004011014010B504F075F810BD10B5064884
:10B430004068002805D08047002801D000F006FAB7
:10B4400010BD02F013FE10BDC021002010B502F0A7
:10B4500057FE002805D01F491D484860C8131E49E3
:10B4600088611E48018CC9B201290BD1828C120758
:10B4700008D1028D1206120F042A03D1828D120602
:10B48000120F0AD0012921D1818C09071ED1018D0B
:10B490000906090F0A2904D007E0114A0121916029
:10B4A000F5E7828D1206120F05D00D290ED1808D81
:10B4B0000006000F0AD10B480168012904D00A498F
:10B4C000016001680129FCD1C021416110BD00006B
:10B4D000DFFF07C000050040006C0040C00F00F017
:10B4E0000006004000EC06407593000010B504F023
:10B4F00021F910BD30B47446641E2578641CAB423B
:10B5000000D21D46635D5B00E31830BC184702E0C3
:10B5100008C8121F08C1002AFAD1704770470020DE
:10B5200001E001C1121F002AFBD17047F7B584B0BA
:10B530000025168807461580406B1446002813D056
:10B5400003780598032E51D302210170218811221E
:10B55000491C89B2218042542188491C89B221802A
:10B5600043542088401C2080386B00281DD005469D
:10B570002088059902461232B24237D811220A5465
:10B5800020881022401C80B220800A542088401C51
:10B5900020800F202A5C2388401ECA54228840B293
:10B5A000521C22800028F5DA00253846203002900F
:10B5B000807B002806D033462246059902F0ECFD38
:10B5C000050014D10298407B002806D0324621465F
:10B5D000059800F069FE050009D1B878002823D04D
:10B5E000059886462088001DB04202D90C2007B07D
:10B5F000F0BD684679DF0028F9D121880320724622
:10B60000505420881921401C80B220801154208879
:10B610007146401C80B2208041186846008804F0C2
:10B620001DF9218840182080F878002817D021883B
:10B6300003230A46FB56C91C0598B142D6D80221FD
:10B64000815421880122491C89B2218042542188D9
:10B65000491C89B2218043542088401C208078688E
:10B66000002817D021880023C3560A46C91C059814
:10B67000B142BBD80221815421880A22491C89B2D7
:10B68000218042542188491C89B22180435420885A
:10B69000401C2080388900280AD000943846019642
:10B6A000062202210830059B04F057F905009ED1BF
:10B6B000388A00280AD000943846019607220321D0
:10B6C0001030059B04F049F9050090D1388B002813
:10B6D0000AD0009438460196152214211830059B93
:10B6E00004F03BF9050082D1386A002806D03346C1
:10B6F0002246059901F09EFC0500D8D1786A002801
:10B7000006D033462246059902F0D6FE0500CED17A
:10B710000298007B002807D0334622463846059918
:10B7200003F083FC0500C2D13878002807D03346E7
:10B7300022463846059902F0F3FE0500B7D12846A7
:10B7400055E710B501220221002001F0F1F8002890
:10B7500001D0072812D107220221012001F0E8F8C8
:10B76000002801D0072809D100210A22084601F04B
:10B77000DFF8002801D0072800D1002010BD00000C
:10B78000044842680121C9050B46934383600A407F
:10B79000C26070470005005070B50024064D06E0F9
:10B7A0006968E000085C012102F040FF641C287811
:10B7B0008442F5D3002070BD8C210020F8B51546D9
:10B7C0000C460646052A01D20720F8BD03F004F80E
:10B7D000002803D102F0D6FF0028F6D1104900203E
:10B7E0004E600C70C8608D6008610E4D0DE0E00089
:10B7F00069688019009181786A46517000780A4A18
:10B80000694602F063FF0028DFD12046641EE4B2DF
:10B810000028ECD1054A0021024800F04FF8F8BD9D
:10B820008C210020F8FA010011DE0100FDD1010099
:10B83000BFF34F8F04490348C860BFF34F8F00BF69
:10B84000FDE700000400FA0500ED00E00EB5002160
:10B85000029000916A4601910148FFF7E9FF0EBD91
:10B8600001400000014B1B6818470000E027002042
:10B8700038B50C46A2680C235A43064B09789D58EC
:10B88000054A126A00920246204608302369A847FA
:10B8900038BD0000C42A00206821002010B50649E8
:10B8A00014230A785A435118091DFFF7E1FF0420B9
:10B8B00003F08EFC10BD000068280020094B9B6837
:10B8C000002B07D0002A07D0002805D00068037C91
:10B8D000002B03D008207047072070474174426155
:10B8E00000207047A0210020FFB59007002581B0FF
:10B8F00014460E46002832D11B4F002C31D003F0E5
:10B9000089FA04987861032038703346182122465A
:10B9100000204B43BC601834C10089180D704D7075
:10B920008E704C601C19401C0328F5DBFD607D7097
:10B9300001240E48BD702405046003211420FFF784
:10B940003FFD0B4804600B4C0198A06003211120BF
:10B95000FFF736FD60683861002005B0F0BD0720B4
:10B96000FBE7BD60FBE70000A021002080E200E0D3
:10B9700000E100E000150140FEB50D461B491746E9
:10B980008968044600292AD0002C28D0052D01D230
:10B990000720FEBD6069002821D0607C012820D0EE
:10B9A000002603F09DFFC0001049019089684018EF
:10B9B000694603F0BFFF002815D0012101700C4932
:10B9C000446049680830E2C0084901988968411814
:10B9D00068460078487003F0DFFD0020FEBD0820B7
:10B9E000FEBD2E46DDE70420FEBD0000A0210020A4
:10B9F00000150140F8B5134D0446A96800291CD074
:10BA0000002C1AD06069002817D00026267403F095
:10BA100067FFC700A8686946381803F08BFF002845
:10BA20000DD0022101704460A8683918684600787A
:10BA3000487003F0B1FD3046F8BD0820F8BD042081
:10BA4000F8BD0000A021002010B5144C01210022F7
:10BA500009042068FFF790FF002801D0FFF7F6FEE9
:10BA600001210022C9036068FFF786FF002801D08A
:10BA7000FFF7ECFE00220A49A068FFF77DFF0028CF
:10BA800001D0FFF7E3FE05210022C903E068FFF7BC
:10BA900073FF002801D0FFF7D9FE10BD48FA01005E
:10BAA00066260000F0B50546007D002493B00E46E2
:10BAB00000280DD00120014668461031039401731F
:10BAC000717B4173817BF92001406846891C817339
:10BAD0001C2104A8FFF77BFB6946087C0221084370
:10BAE000694608742A7DEF21002A02D010221043F3
:10BAF00000E008406A461074059407940894287D75
:10BB0000002800D003A8099001270A9410469771D5
:10BB1000304A82800094B27B0270F27B427080785F
:10BB2000F9221040F722801C1040EF210840410804
:10BB3000490068468170317B017214210BA8FFF720
:10BB400046FB01A80B9068460C908786C486078741
:10BB500002A80F90A888AB1D0BAA04A9A2DF002899
:10BB600035D1B068002830D0684687711A49818085
:10BB70000094317C01700020014668464170807855
:10BB8000F9210840F721801C0840EF2108404108B6
:10BB900049006846817011A8B16800F028FD06468A
:10BBA00014210BA8FFF713FB01A80B9068460C901B
:10BBB0008686C486068711A80F902A46E8880E322A
:10BBC0000BA9A3DF002802D100E0EC81002013B014
:10BBD000F0BD0000192A00000829000010B50B492B
:10BBE0000B4803F015FAC1B20848683800F05CFA57
:10BBF000002809D0082807D00649884204D0064901
:10BC0000884201D0FFF722FE10BD0000D82400209A
:10BC10008C2000200430000001340000F0B50C46F8
:10BC200093B01F216A4611800726002791800028C3
:10BC300009D0C17849070DD502A9FFF777FC002884
:10BC400009D102AD01E000251780002C0ED0E0786C
:10BC5000002802D0304613B0F0BD01AA0AA9204640
:10BC6000FFF764FC0028F6D10AAA02E06846002229
:10BC7000878068468088C3B268460088C1B228467B
:10BC800072DFE8E770B50D4604991646040042D00D
:10BC9000002E40D0424800224271C360016124223C
:10BCA00031464048FFF76CFA00F0D4F83D49343192
:10BCB0000846103801602031816038215C38FFF778
:10BCC00086FA3848217838380170A1788170E17897
:10BCD000C170617841706269216942610161E26805
:10BCE000A168C26081600146E369A269CB618A6193
:10BCF000616A002919D00146AC310246B83241626E
:10BD00008A60636A1B880B80616A436A89889980AC
:10BD10000021436A06E00E2070BD666AB668765C54
:10BD20005654491C9E888E42F7D8A16A00291CD01F
:10BD30001C4AAC3211460C398A608162A36A9B8826
:10BD40008B80A16A836A098819800021836A04E0D4
:10BD5000A66AB668765C5654491C9E888E42F7D80F
:10BD60002C210A5D0F4918390A73216A002909D06C
:10BD70000B4914310162226A52884A80216A026AA0
:10BD8000098811806168002904D00549891D416036
:10BD900061684160034829463838FFF73FFF70BDAE
:10BDA000D0200020AC25002010B502881C4C102AA1
:10BDB00017D00021112A1AD01B2A11D1007A00288D
:10BDC0000ED1607901281ED0022822D0032822D06B
:10BDD000042805D12171E2680846002A00D0904766
:10BDE00010BD817D0129FBD18088208110BD61704B
:10BDF000808821898842F9D1012005E02169002944
:10BE0000F4D0884710BD022000F058F80028F5D182
:10BE100010BD0320F8E7032020710420F4E70000A0
:10BE2000D020002010B5022801D003280ED1084CE4
:10BE3000207800280AD000202070607900F03EF8B9
:10BE4000002803D02169002900D0884710BD0000D8
:10BE5000D020002010B507210148FFF7B8F910BD28
:10BE6000E820002010B51348007801281FD1124C9B
:10BE7000607800281BD16079002802D074DF002888
:10BE800016D101200B49607006203839C870094866
:10BE900000213838FFF7C2FE002809D1607900F090
:10BEA0000DF8002803D02169002900D08847002020
:10BEB00010BD0000AC250020D0200020F0B5784C4B
:10BEC00087B06071002606A8069602F047FD01279C
:10BED000082802D0002808D104E006A801F084FE5A
:10BEE000002804D10698002801D02770D4E0FFF77D
:10BEF000B1FF6C4D6878002802D06079012807D026
:10BF0000A87800280CD06079012801D0022824D11B
:10BF1000E168002903D0E7700820884700E0E67058
:10BF20006079012808D16878002809D05C48193068
:10BF300002F0B4FC002803D06079022802D00CE0A3
:10BF400002206071A878002805D05548193002F009
:10BF5000A5FC002801D103206071287B002804D1B2
:10BF60006079032801D104206071287E002804D163
:10BF70006079042801D166712671E16800290AD030
:10BF80006079032801D0042805D12878002802D040
:10BF90006078002817D0A67018216846FFF717F9B7
:10BFA00068460670019606720396607901280ED0E5
:10BFB000022815D03B4E243637465C3F03281BD061
:10BFC00004285DD13AE0A77007208847E4E73448A9
:10BFD000183001906846077046820682277152E049
:10BFE0002F48183001906846077029894182A98836
:10BFF00001820220207146E0A88A69464882288A88
:10C0000008822848243003F017FD002805D028783E
:10C01000002802D06078002801D003202FE0022001
:10C020006946087204200396F8701E4800213838CB
:10C03000FFF7F4FD002830D1052020E0A88B6946E9
:10C040000882288C48821748243003F0F5FC002829
:10C0500005D02878002802D06078002801D004207C
:10C060000DE002206946087204200396F8700D481E
:10C0700000213838FFF7D2FD00280ED106202071AC
:10C080006079002803D0684673DF002805D1E16895
:10C09000002901D020798847002007B0F0BD0000BA
:10C0A000D0200020AC25002073B586B004002FD02E
:10C0B0006A46217C127F0020914227D0002501266C
:10C0C000684600950680458007A80190E188608A4F
:10C0D0006A46A4DF002819D16846007F2074608A70
:10C0E0000D49884216D0207D002813D00295039573
:10C0F00004950595E18868460181867241888181B1
:10C10000049001980590608A02A9A6DF08B070BD6E
:10C110000E20FBE70820F9E7FFFF000038B50D46C9
:10C1200004001AD0002D18D0286820600020C043D9
:10C13000608228792075FF20207401216846817073
:10C1400007490180221D69460120A0DF002803D194
:10C1500029462046FFF7A6FC38BD0E2038BD00005A
:10C160000F18000038B5002824D0002922D00A88F2
:10C17000102A1AD0112A1AD0502A1BD1027D002A67
:10C1800018D0CA884389891D9A4213D14A89022A44
:10C1900010D10268002A0DD04B7B0C7B1902214381
:10C1A000C907C90F07D0002106E0898801E00021F6
:10C1B000C943418238BD01216B46197069469047D9
:10C1C00038BD000070B5054601461C220E48FEF73A
:10C1D000D7FF0E4C002626702968002906D00822B9
:10C1E000201DFEF7CDFF201D7ADF02E00748001D6D
:10C1F0007BDF002807D1401E60806670044A002162
:10C200000448FFF75BFB70BD98260020F02000205B
:10C210007DF8010098FA0100F8B5214C028800274A
:10C220001E4DE689102A15D01E49112A21D0122A46
:10C230002DD0502A1CD1C288801DB24218D142890B
:10C24000022A15D1427B037B10021843C007C00F9E
:10C250000CD112E08188698001461048082218310B
:10C260000C30FEF78DFF6F70002E01D100F02AFF19
:10C27000F8BD0020C04368806F700868FFF7BAFB04
:10C280000028F5D0A1690029F2D08847F8BD08221E
:10C29000811802480C30FEF773FFE7E7F02000201A
:10C2A0009826002098FA01007CB5054608880C46BF
:10C2B0000930904201D90C207CBD684671DF00280E
:10C2C000FAD121880820685420881B21401C80B2A4
:10C2D00020802954208800A9401C80B22080401969
:10C2E00006220131FEF74CFF20886946801D80B28E
:10C2F00020800978002900D0012129542088401C81
:10C30000208000207CBD00007FB5044601216846E6
:10C3100081714A4981804A4A01A90120A0DF002891
:10C320007ED1228825463C35002A09D044482B4638
:10C33000801C00904348616800F0D6FC00287BD147
:10C340002289002A0AD03E482B460A3000903D48F8
:10C35000E168401F00F0C8FC00286DD1228A002A45
:10C360000AD037482B461230009036486169001FCA
:10C3700000F0BAFC00285FD1228B002A0AD0304896
:10C380002B461A3000902F48E169801E00F0ACFC6B
:10C39000002851D1228C002A0AD029482B4622306D
:10C3A00000902848616AC01E00F09EFC002843D11E
:10C3B000228D002A0AD022482B462A30009021489C
:10C3C000E16A401E00F090FC002835D1216B002965
:10C3D0000ED002A803F068F819482B4632300090BE
:10C3E0001848082202A9801F00F07EFC002823D1F3
:10C3F000606B00280BD012492B463A31009102792C
:10C4000001681048401C00F06FFC002814D1A16B9B
:10C41000002910D002A802F085FA0948423000E055
:10C420000AE0009007482B46072202A9273000F0B7
:10C430005BFC002800D1002004B070BD0A18000089
:10C4400004210020292A000070B5044601F000F8FC
:10C450002146124800F080F8104821461838FFF7AE
:10C4600081FE2046FFF7D8FE204600F099F920888B
:10C470000B4D102802D011280CD108E0072000F045
:10C480007BFA002801D0FFF7E1F9A08801E0002045
:10C49000C043A8802046FFF787FC70BD8824002099
:10C4A0008020002030B50446008C134A8BB09042A7
:10C4B0001FD006AA204601F095FD69460546088072
:10C4C0000020019002900390049022898A8001222A
:10C4D0008A71088106A803910490208C01A9A6DF27
:10C4E000002804D169460988A94200D00C200BB06D
:10C4F00030BD0820FBE70000FFFF000038B5044610
:10C5000008682060087960710020C0430D462084CF
:10C510000020222108554C210853012168468170D2
:10C520000C490180A21D69460120A0DF00280FD11F
:10C530002946204601F0FEFC002809D1A868002801
:10C5400005D02946204600F099F8002800D10020A7
:10C5500038BD00000D18000038B50A88102A17D021
:10C56000112A17D0502A18D1CA888389891D9A4266
:10C5700013D14A89022A10D10268002A0DD04B7BC0
:10C580000C7B19022143C907C90F07D0002106E01F
:10C59000898801E00021C943018438BD01216B462F
:10C5A00019706946904738BD70B505460446403558
:10C5B000A8890E46142807D12622A118881EFEF746
:10C5C000DFFDA889401EA88180B241000919401CE6
:10C5D000A8818E8470BD20308170704770B504468C
:10C5E0000D460846FEF7FEFD2080656070BD0A78A6
:10C5F00002704978417002207047000000B51A4867
:10C6000087B00069059000234822184905A802F068
:10C610002FFE002801D0FFF719F96A4601210020FA
:10C6200002F00EFE002801D0FFF710F9104802F0CA
:10C630003DFC002801D0FFF709F9684602F0F6FD3D
:10C64000002801D0FFF702F90A4802F0E5FD0028B2
:10C6500001D0FFF7FBF8084802F024FE002801D0C3
:10C66000FFF7F4F807B000BD48FA010028240020C5
:10C67000E81F002049C4010099F40100F0B58FB013
:10C680000D4606461C216846FEF7A1FD6846017866
:10C69000022001436846017000240194039404942D
:10C6A0000594012708A806948770154968460184F7
:10C6B0000794E97B0177297C4177807FF921084045
:10C6C000F721801C0840EF210840410849006846D6
:10C6D0008177142109A8FEF77AFD08A8099007A818
:10C6E0000A9068468785C4850786A8680D903346FA
:10C6F000F088103309AA6946A2DF0FB0F0BD000030
:10C70000382A00001CB5044681786A460C4802F0BD
:10C7100039F9002812D160781C21484309491C23AB
:10C7200040181A46694602F0F3F9064806494C30AB
:10C73000807A80000A582146684690471CBD000058
:10C740006021002094270020B0FA01007CB5134E30
:10C7500000250C463060002918D06946002000F002
:10C76000B5F8002819D101A9012000F0AFF8002880
:10C7700013D1684601790020002901D0022004E08D
:10C7800069460978002900D00B20207070680028C5
:10C7900002D1FEF7D6FF054628467CBDC820002002
:10C7A00010B51C4C0188606810290DD011290AD1E0
:10C7B000401E606007D1FEF7C4FF002803D0216847
:10C7C000002900D0884710BD00281ED10021012279
:10C7D000084600F0ADF8002801D0072811D1072243
:10C7E0000221012000F0A4F8002801D0072808D178
:10C7F00004220221002000F09BF8002805D0072821
:10C8000003D02168002900D088476068401C606020
:10C8100010BD0000C820002010B5032000F006FA6B
:10C82000002801D0062800D1002010BDF8B5074629
:10C830000024234802E0641C042C1AD2A20082586F
:10C84000BA42F8D1042C14D21D481E4E0C380029CF
:10C8500029D001290ED002290BD16000201880199F
:10C860004578002D05D018480169002901D02846D7
:10C870008847F8BD61006118755C8E1971780029D0
:10C880000CD011490A224968806851430E4A521C53
:10C89000FFF772F8002801D10B4847700A48B178B9
:10C8A00014300155DDE78068FFF7A4F80648610001
:10C8B000611814308919005D8D78A842D1D0F8BD77
:10C8C00068FA010048250020B020002004280CD27E
:10C8D000074A1269074B80001B5C01209840904377
:10C8E00000D001200870002070470020FAE7000007
:10C8F0000005005068FA010010B5042806D007288A
:10C900000ED00A2801D102F04FFC10BD07481321B8
:10C91000808876DF06E00028F7D0FEF797FF10BD8D
:10C92000FFF7A0FA0828F6D110BD000080200020F3
:10C9300070B50023042811D2440004190D4D012ABA
:10C9400002D101290DD0002246008019094E80191C
:10C9500000290CD0012906D0022906D00723184649
:10C9600070BD0D30C2B22A55F9E74270F7E7827008
:10C97000F5E700004825002010B5054A0146127A67
:10C980000020D20702D0084600F054F810BD000085
:10C99000B020002070B50E46204905464E608D60DF
:10C9A00000200A61A9071ED5002401221146204655
:10C9B000FFF7BEFF641C042C02D20028F5D012E061
:10C9C000002810D1720804211548FEF7F7FE002850
:10C9D00009D1FEF7E1FE002805D11148114A0021D6
:10C9E0001438FEF76BFFE90706D00F220E495205F7
:10C9F0008A600023CB608A6100280DD108480B4A69
:10CA000000211C38FEF75AFF002805D10448084AC7
:10CA100001211838FEF752FF70BD0000B020002041
:10CA200078FA010069CC010000050050EDE1010039
:10CA300081B70100FEB57A4D0722EB6892059A4353
:10CA400002936B6800939C0006461B19002001218D
:10CA5000019349050746734C3300FEF74BFD180D53
:10CA60001515374755677C887F8891DE9E9E9E9E70
:10CA70009EC8CED1D8DEDE140F21029A490591431B
:10CA8000A160E7602F70FEBDA260E76060680F22C2
:10CA900052055040800209D5A160E760022E02D104
:10CAA000E120C0000AE07D20400107E0E160A760CE
:10CAB000022E01D1C82001E0FF2091302E706421A8
:10CAC000FEF734FB0099414300223FE0A260E7609B
:10CAD00060680F2252055040800204D5A160E760D3
:10CAE00019204001EAE7E160A760E3E7A260E760A0
:10CAF00060680F2252055040800202D5A160E760B5
:10CB0000D1E7E160A760D7E7A260E76060680F2225
:10CB100052055040800202D5A160E76001E0E1606B
:10CB2000A7602E700098410000220FE0A260E7602D
:10CB300060680F2252055040800202D5A160E76074
:10CB400001E0E160A7602E7000990022364800687D
:10CB5000FEF712FFFEBDA260E7601BE061680120E6
:10CB6000800502468A43A2600140E16010E06068EF
:10CB7000012189050A468243A2600840E060E3E79C
:10CB80006068012189050A468243A2600840E0608E
:10CB90000199C9E7E160A7602DE023484068FEF7EE
:10CBA00029FF11218A1B01D0002807D00F22E96834
:10CBB00052051140A160E760EF60FEBD0121C9058B
:10CBC000E960012A0CD91046C82148436421FEF7C8
:10CBD000ADFA69680022414313484068FEF7CCFE75
:10CBE0000F22E96852051140E160A760FEBD0F21E8
:10CBF0004905A160E7602E70FEBD07229205AAE7F5
:10CC00000D214905A160E76001218905C2E70321E3
:10CC1000C905A160E7608910BCE70F214905B9E7A4
:10CC2000B0200020000500505CFA0100F0B50021A2
:10CC30000B4C0C4D03273F048A00A2589200561952
:10CC4000326801238B40034000D00323BA431B0406
:10CC500013433360491C0429EED30020F0BD0000CB
:10CC600068FA01000007005010B500780221FFF7B4
:10CC7000DDFD10BD0022D243830004490428CA50C0
:10CC800002D30818203002777047000004280020E3
:10CC9000F0B50025ED43002A02D00023042601E070
:10CCA000042308260B4C04E09F00E7597F1C04D0A6
:10CCB0005B1CB342F8D32846F0BD26185DB220367F
:10CCC00035709E00A151002AF5D1E1182031087776
:10CCD000F1E7000004280020024909182020085626
:10CCE0007047000004280020FFB58FB01E4615468F
:10CCF0000F0002D10020FEF7A9FD002D02D1002077
:10CD0000FEF7A4FD1C216846FEF761FA684601782B
:10CD100002200143684601700024019403940494A6
:10CD20000594012108A80694817068460F99018432
:10CD300007943178017771784177807FF921084035
:10CD4000F721801C0840EF2108404108490068464F
:10CD50008177142109A8FEF73AFA08A8099007A8D4
:10CD60000A9068468585C485058604480D9709AAFA
:10CD700069460088189BA2DF13B0F0BD0421002093
:10CD8000F8B53E481422017851430C18E0680C2194
:10CD900048433B4927694018058941890091241D72
:10CDA000466801F081FE01463846FEF7BFF90029CA
:10CDB00032D000200099A2884D436188AE198918AD
:10CDC000CD1900222F4900280A6109D001F06CFE1C
:10CDD0006188884222D0B54202D1A08800281DD0A7
:10CDE000A06803281AD001F05FFEA188CA19014685
:10CDF0001046FEF79BF9234C8808E06001F054FED2
:10CE000001462846FEF792F9002911D00020B542CC
:10CE10002FD000280ED02CE00120CBE701F044FEFB
:10CE200001463846FEF782F916494861032021E0A1
:10CE30000120ECE7ADB2B7B201F036FE014638464C
:10CE4000FEF774F9064601F02FFE01462846FEF76C
:10CE50006DF9864201D1781B09E001F025FE0646F6
:10CE600001F022FE01462846FEF760F9701A80089C
:10CE70002061022002F0ACF9F8BD00006828002013
:10CE8000C42A00206821002010B507481422017828
:10CE9000514308180079042802D000F059F810BD59
:10CEA000012002F095F910BD6828002010B50B484C
:10CEB0001422017851430818094AC1881162007987
:10CEC000012806D0032801D0042801D1FFF758FF1C
:10CED00010BD012002F07CF910BD00006828002080
:10CEE0006821002014225043054A00218018017156
:10CEF000C18002220161C26041610181704700006E
:10CF000068280020F8B5104C069E65781E2D19D0B3
:10CF100027787D191E2D00D31E3D14277D432D1922
:10CF200028716A6103C92961E860EB802E8160780D
:10CF3000401C607005480078002801D1FFF7B6FF5B
:10CF40000020F8BD0420F8BD6828002068210020DA
:10CF500010B50D4C14212078484301190020091DFB
:10CF6000FEF786FC2078FFF7BDFF6078401E6070FA
:10CF70002078401CC0B220701E2801D100202070F3
:10CF8000002002F025F910BD68280020F8B52348DC
:10CF9000C16800293ED00E6821494C680769C078F5
:10CFA000E11B0D022D0AED1C002814D101201D4AA1
:10CFB000000450601B4A403A50601B494000086022
:10CFC0001A4908601A49012008602F20FEF782F8EC
:10CFD00012490120C870B54200D23546E819000256
:10CFE0000F4B000A403318600D4A5168001B091BA3
:10CFF0000902090A0002000AC91C814209D95068C5
:10D0000018602F20FEF766F8012007494004803998
:10D010000860F8BD01F0FEFEF8BD0000A021002070
:10D02000001501404013014080E200E000E100E013
:10D0300000100140F8B50646108814468446801D4D
:10D040000D46984201D90C20F8BD32880720062AE7
:10D05000FAD31927FF01184BBA4201D99A42F3D1EA
:10D0600071880629F0D3B94201D99942ECD19A428C
:10D0700003D0994201D08A42E6D80521604629545E
:10D0800020881221401C80B2208029542088401C16
:10D0900080B220804119308802F0E0FB21884018DE
:10D0A00080B220804119708802F0D8FB2188401896
:10D0B00020800020F8BD0000FFFF000010B5FEF743
:10D0C000C5FB10BDF8B5164801F00CF8144D00264C
:10D0D0000C3D144C002807D0616900291CD00120A8
:10D0E0006A461070684616E02878002805D0616905
:10D0F000002911D0684606700DE0687800280DD030
:10D10000A168094800220068FEF736FC002803D019
:10D11000A169002900D088472E70F8BD6168F0E74A
:10D12000FC2000209826002098FA010070B5094BD9
:10D1300004469E7A082000250E4207D00648844205
:10D1400002D01889A04202D10020156070BD0520D0
:10D1500070BD0000D4270020FFFF00000C214843D1
:10D16000064910B5012240188272911E0181FF21EB
:10D17000C1720721FEF72BF810BD0000D427002054
:10D1800010B5134C207900071FD46069401C606102
:10D19000E068002801D0042004E000F0D5FF00285A
:10D1A00003D0022002F06EF910BD2069002809D0DA
:10D1B0006068C10701D00320F4E7012108436060E3
:10D1C0000020EFE7FFF760FE10BD02F04FF910BD41
:10D1D0006821002010B5084841680A0708D48A076A
:10D1E00002D5012211434160022002F04BF910BD2B
:10D1F00002F03CF910BD000068210020F8B50026BF
:10D200000124154D23E06968F0004718387821465D
:10D210002A698140114218D08A432A6101F0A8FA94
:10D220003A782146EB689140194003469340994271
:10D230000BD17978012901D0012100E000217B6820
:10D240004140002B01D010469847761CF6B2287852
:10D250008642D8D3F8BD00008C210020FEB50E46D2
:10D26000044681786A46234801F08CFB002826D1C9
:10D2700060780C21204F4843C019807A40061FD4A3
:10D28000022E1DD0012E1DD01C4DA0781C2148431C
:10D290001B49002341181C226846A847002813D0C8
:10D2A000022E0CD020780C21484313490C31401831
:10D2B000807A144980000A58214668469047FEBD8E
:10D2C000114DE2E7114DE0E7022EF8D060780C2115
:10D2D0004843C019817ABF221140817260781C21B5
:10D2E00048430549403941181C231A466846A84757
:10D2F000D8E7000060210020D4270020F1F30100CE
:10D30000D0260020A0FA010059ED010079EC0100BF
:10D3100070B50546114A124800241C2363431B18AC
:10D320009B7EFF2B04D0641C072CF6D3104670BDE7
:10D330000A78022A09D01C2262431018FD22827644
:10D3400007221030FDF71CFF04E01C216143081880
:10D35000FE2181762C700022E8E700004380000067
:10D36000D0260020F7B505250F4F06460024002ED5
:10D370000AD01C206043C019072231461030FDF747
:10D3800038FF002807D00AE01C206043C019018B39
:10D390000298814203D101980025046002E0641CD8
:10D3A000072CE4D32846FEBDD02600207CB50546D8
:10D3B00081B26A46074801F0E5FA040008D17421F9
:10D3C000684601F00BFB040002D1284601F072FA16
:10D3D00020467CBD6021002010B5100001D0FEF772
:10D3E00035FA002010BD00001FB56946087301F032
:10D3F00061FB002801D0FEF729FA03A800F01AFA11
:10D40000002801D0FEF722FA01A805210130FDF71E
:10D41000DEFE694649790120014381221140303105
:10D420004A06520E69464A7107228A711022CA7151
:10D430000549009169460871044800F021FB002865
:10D4400001D0FEF703FA1FBDD9D3010082200020CE
:10D45000F0B591B00546FF24002007940290E948FA
:10D460000078002849D0E84F3868002845D001A846
:10D4700000F0D2F9002801D0FEF7E8F9281D059048
:10D480002C2069460883FF20002688710E710396C0
:10D49000DD4C28880C3C10280ED0A88803AA022155
:10D4A000FFF744FE002807D103980C2141430919D6
:10D4B000CA7A69468A7148712A881320192A7DD050
:10D4C0000FDC102A1BD0112A55D0132A77D0142A2A
:10D4D00013D103980C2148430019C07AFF286FD05C
:10D4E000A1E0CA491A2A6CD01E2A65D0522A04D15A
:10D4F000B87A8000095801A8884711B0F0BDC44F20
:10D5000003AA01213846FFF711FE0028F5D103993F
:10D510000C20484302220019827211236A461374B8
:10D520005171A98801812946083107220091FDF730
:10D5300027FEE87DC10707D04108B2480830405CAB
:10D54000FF2808D0079006E03A4607A90098FFF7A1
:10D5500009FF002837D103990C2251430919079874
:10D56000C8728A7A08231A438A726946887101A8A8
:10D57000FFF7C8F827E003980C2148430119887A7F
:10D58000FD2210408872010706D5C0090DD0002188
:10D5900001A8FFF763FE08E068468079FF2804D001
:10D5A00001F088F9FF206946887103980C225043E6
:10D5B0001021001981721220694603E08BE043E0DC
:10D5C00014E0E4E00874324604A901A8FEF74AF921
:10D5D0006846007C122890D103980C214143091918
:10D5E000897A012989D0FFF7B9FD86E72A8A07A938
:10D5F0000020FFF7B7FE00280ED103990C225143FB
:10D6000009190798C8728A7A08231A438A726946E8
:10D61000887101A8FFF776F803980C214843001998
:10D62000C07AFF2806D003981C21484376494C391C
:10D630004018029003981C21484376494218A88854
:10D640000023029986DF58E76946087403980C2185
:10D6500048430119887A042210438872CA7AFF2A43
:10D660000BD04022104388721620694608740023AC
:10D67000A8881A4685217FDF21E007A8FFF748FE2A
:10D6800000281FD0064600200D9003990C224A4323
:10D690001219D27A1C235A435E4B0F90D2180E9265
:10D6A0001C2251431A46C4328918109009910A90DD
:10D6B0000B900C903A1DA88809AB00217FDF002851
:10D6C00093D180E769460798887103990C225143EA
:10D6D0000919C872D7E7787A0C214008400078729F
:10D6E00003986F4602464843011984468B7AFB2013
:10D6F00003408B7214203874287A002806D058060C
:10D70000DFD4C87AFFF752FE2E7A5CE7687A4007CA
:10D71000D7D5B879FF28D4D008273B438B726B7BD1
:10D720009B0708D51C2503466B433A4D5B199D7E2C
:10D730006D086D009D76CB7AFF2BC2D06346E35C0B
:10D74000022B10D01C225043324D072240191030BA
:10D75000FDF716FD684680791C2148434019817EFB
:10D76000FD2211400DE01C214A4327494C39511834
:10D770004A8A1C214843274940180283817E490870
:10D7800049008176012101A8FFF768FD1BE7287A8F
:10D790000209012A23D10007000F01281FD1039895
:10D7A0000C2242431219927A120718D524214843B9
:10D7B0001549303940181A210830FDF708FD1620A8
:10D7C0006946087403980C2148430119887A60223D
:10D7D00010438872787A0221084378720FE0039828
:10D7E0000C2250430019827A80231A43827215203A
:10D7F0006A461074B87A8000095801A88847002644
:10D80000E1E6000050210020E0270020C0FA0100DE
:10D81000FFFF0000D0260020002806D0FF21017065
:10D8200041708170C170002070470148704700004E
:10D830000E800000F0B585B0040036D029480025E0
:10D840000560457285722846FFF788FC254824212B
:10D850003038FDF7BCFC0026FF27304601F02AF8DF
:10D8600021488755761C072EF7D37421684681809E
:10D870000721C1801D481C4900900831684601F00D
:10D880009DF900280FD1184E0120083E30702078F5
:10D8900000280CD069468888C988484381B2304640
:10D8A000103001F09BF805B0F0BD1148FBE7114FB7
:10D8B00000240D48A1B202AA083001F063F8002844
:10D8C00009D11C206043C01900231C2202A901F0C9
:10D8D0001FF9002801D03570E5E7641C072CE8D358
:10D8E000E1E70000E027002058210020F9D80100DE
:10D8F0000E800000D0260020FFB55C4891B0006883
:10D900001A9F1E46002873D0742F71D86846FFF7FF
:10D9100083FF002801D0FDF799FF002468460470BA
:10D920000471254605970696A9B20FAA504801F042
:10D9300029F8002806D108220FA91198FDF759FCF3
:10D94000002817D06D1C072DEED368468578FF2D73
:10D950004ED01298032810D046481C21301AFDF7EB
:10D96000E5FB012707281ED204A80290139800287F
:10D970000BD011E068468570E7E7742F03D0402094
:10D98000694608716BE02020FAE738463849A8401C
:10D9900010394968084260D0284601F065FF202010
:10D9A0006946087149E031481C214C38301AFDF7AE
:10D9B000BDFB00281DD02D4824213038301AFDF73A
:10D9C000B5FB01002C482BD040216A4611712B4930
:10D9D0008E4244D0274AA9001C3A5158B1423CD14A
:10D9E00004A90291C07A854227D16846447024E098
:10D9F00033E004A802902020694608714C701B494E
:10DA00000B940C310C9158390791694689781C2286
:10DA10005143184A05908918089107A906910CE00E
:10DA2000302269460A714C70CF70807A800704D426
:10DA3000114824212438FDF7CAFB129869460228B0
:10DA4000087910D0022108436946087104A80290A1
:10DA500001A96846139AFDF705FF15B0F0BD6946A8
:10DA600008790321EFE73843EFE70000E0270020C3
:10DA700060210020D0260020D42700209CFA01003D
:10DA800070B5064618480D46007800280ED0174994
:10DA9000002E0ED0002D0CD02868002809D0144C80
:10DAA0002168002907D011480A3870BD0F48801F2F
:10DAB00070BD084670BD20600522691D201DFDF760
:10DAC0005FFB2879A072207A0221400840000843B9
:10DAD000FB2210402072E0790123184308431040D4
:10DAE000E0710020307070BD502100200E800000D9
:10DAF000E027002010B50E4900234A788C78A24216
:10DB000012D0521CD2B24A70022A00D14B704A780D
:10DB1000074B920018339A580260086910180002E7
:10DB2000000A0861012010BD0360002010BD000044
:10DB3000A021002010B5002803D0112802D0FDF745
:10DB4000ADFE10BD0248082241681143416010BD7E
:10DB50006821002010B51C4C21782046406801291E
:10DB600006D0022929D0032912D1000717D513E0C6
:10DB7000000711D415481422017851430818C188B0
:10DB8000A28B891A0904090CC18002D001F032FC71
:10DB900010BDFFF7DDF910BD00F082FC10BD60691B
:10DBA000401C606100F0D0FA002803D0207801F01A
:10DBB0000FFB10BDFFF768F910BD607804498000C5
:10DBC0000858804710BD0000682100206828002008
:10DBD000E4FA010010B528DFFFF7ACFF10BD10B567
:10DBE00029DFFFF7A7FF10BD002804D00349496DC6
:10DBF000016000207047032070470000FC2A0020CD
:10DC00000EB51120694608720A2211A102A87CDF14
:10DC1000002801D0FDF71AFE104878DF002801D057
:10DC2000FDF714FE0020FF2200904132694601906A
:10DC30000A804122D2004A808880FF209130C8802B
:10DC400068467ADF002801D0FDF700FE0EBD000017
:10DC50004E6F726469635F48524D000041030000DB
:10DC6000002070470020704700207047F8B5064636
:10DC70004078242104464C4324490C225043611827
:10DC8000224A00254B6824328018AE462F469C4617
:10DC9000002B0CD0827A1346D20908D05A0606D43B
:10DCA0000D461A4A614689B2175908358E46174CF7
:10DCB000008924343B4672462946A9DF0B2819D037
:10DCC000002800D01248012F13D170780C2148434E
:10DCD000001900890F4AA7DF00280AD00E498842A0
:10DCE00012D0082810D0891C88420DD011280BD0E2
:10DCF0000020F8BD70780C214843012300190089E9
:10DD000072462946A9DFE0E70148F8BDB0270020A8
:10DD100041800000FFFF00000230000070B50C469B
:10DD2000014660782422084D50434019382300F002
:10DD3000EFFE002807D161782422514349194A682F
:10DD4000521C00D14A6070BDB0270020F3B589B0E5
:10DD50000D461A206946888368780C2103274843BA
:10DD6000224E3B468019008907AA6946AADF00288F
:10DD700038D1687824214843741A001969468A8B7F
:10DD80000830FDF736FA0028687807D02421484388
:10DD90000119496800290DD0154E0CE00C214143B2
:10DDA0008919897A89071DD4242148430019FDF770
:10DDB0000EFA17E00F4E27506846828B68782421B0
:10DDC00048430019426068784843001969460830A2
:10DDD000FDF7D6F968782421484301193823242215
:10DDE0000998B04700200BB0F0BD0000D4270020F8
:10DDF00059ED010079EC010010B5FFF737FF10BDB8
:10DE000010B5FFF78BFF10BD10B5FFF79FFF10BDDA
:10DE1000F8B50746104E0125BD403068FDF7EAFD14
:10DE200000280DD10D4C2069284207D1384600F05A
:10DE30009FFC0028E06804D0284303E0A843206149
:10DE4000F8BDA843E0602069002228432061A16852
:10DE50003068FDF791FDF8BDF8FA01008C21002033
:10DE600070B51B4C207900072ED41A481422017873
:10DE700051430D182E6900F017FE0146E8882A89E3
:10DE8000761E80188019FDF751F9216900250029B7
:10DE900009D06169814206D1E560606801210843CB
:10DEA000606000200AE000F04FF9002802D0022054
:10DEB000E56003E02069002803D0032001F0E2FAC6
:10DEC00070BDFEF7E1FF70BD01F0D0FA70BD00003B
:10DED000682100206828002010B51249124801F07E
:10DEE00097F8114C81B2143CA068401CA0600D480A
:10DEF0006038FEF7D7FA002809D0082807D00B4968
:10DF0000884204D00A49884201D0FDF79FFC0321D2
:10DF1000A068FDF70BF9002901D0012000E00020E6
:10DF2000207010BDE8240020942000200430000060
:10DF300001340000F0B5002406460D46601C0107C0
:10DF400095B0090F08A810310C940174297B417415
:10DF5000817CF9273940891C81741C2105A8FDF7B3
:10DF600036F96846017D10200143684601750CA80A
:10DF700006940A900894099401220B9408A88276CA
:10DF80001749684601870D94697B08A80175A97B2C
:10DF90004175817DF7203940891C0140EF20014007
:10DFA000114308A8817514216846FDF710F90EA8E1
:10DFB00000900DA801900FAA0021304600F012F841
:10DFC0000146684601811421448181810FA8049093
:10DFD0003346F08808336A4605A9A2DF15B0F0BDC4
:10DFE000372A0000F7B542790025002A00D0042521
:10DFF0002222135C0222002B00D01543CBB2FF2952
:10E0000007D901221543029A090A53709170032619
:10E0100002E0029902264B7004464034A18900298F
:10E0200001D010210D43002716E0B11C142909D995
:10E03000A189C91B4A007900091824302431FDF751
:10E040009FF80CE0029B7A0012189B19928C1A70B0
:10E05000120A5A70CEB27F1CA189B942E5DCA089B0
:10E06000C01BA081029805703046FEBDF8B51C4C5F
:10E070002078002833D02069002807D00026E068E7
:10E08000002805D00025002E04D011E00126F6E777
:10E090000125F8E7684652DF052804D0002804D09F
:10E0A000FDF7D4FB04E0012602E0216900988847CF
:10E0B000002D10D1608869460880A06861DF0528BE
:10E0C00004D0002804D0FDF7C1FB04E0012502E0E4
:10E0D000E168A0688847002EDCD0002DD3D0F8BDC1
:10E0E000C0210020418805480288914204D340881D
:10E0F000814201D80120704700207047F4200020A1
:10E100001048018CC9B2012917D1818C090714D19B
:10E11000018D09060A0F03D1828D1206120F0ED04F
:10E12000090F012903D1828D1206120F07D003298E
:10E1300003D1808D0006000F01D000207047012020
:10E1400070470000C00F00F070B50E48142201782F
:10E1500051430C18256900F0A7FC0146E08822898C
:10E160006D1E80184019FCF7E1FF07494A69824299
:10E1700006D3824202D10869002801D0002070BD78
:10E18000012070BD6828002068210020800701D090
:10E19000002070470120704730B51588EC1C9C4268
:10E1A00001D90C2030BD02244C5513881C255B1C62
:10E1B0009BB21380CD5413885B1C9BB21380012843
:10E1C00007D0022807D0032807D0042807D007204B
:10E1D00030BD002004E0012002E0CC5401E0032027
:10E1E000C8541088401C1080002030BD10B5044871
:10E1F000017AC90702D00078FEF71CFC10BD0000B0
:10E20000B0200020F8B52C49C8680A690C780F794D
:10E2100089688646944600913EE00099E2005518D0
:10E220002A7836E0182353436968521CC918AB7822
:10E23000D2B2934200D100220B78022B02D0032BE2
:10E2400027D123E04E680346014603E0B14204D0E3
:10E250000B46C96900291CD0F8E7002919D08B4268
:10E2600008D1C069002805D1144F0126BE600026E0
:10E27000B44601270E68C969D961002909D00B6825
:10E280009B190B6005E00174C06900E000210028C3
:10E29000F9D169789142C5D12146641EE4B20029C2
:10E2A000BBD1054962460A61C8600F71704501D053
:10E2B0000120F8BD0020F8BDA02100200010014081
:10E2C000F8B5044631480026C168009107784EE051
:10E2D0002E48F90080680D1843E0002C02D020463B
:10E2E000E4691FE02878182141436A68401CC0B2E5
:10E2F00051182870AA78904200D12E700A78486888
:10E30000012A30D1027C002A2DD18A684260CA6875
:10E3100082600A69C260496981611C4909790029E2
:10E3200000D04660194943680A699C46991A090257
:10E33000174B090A994202D28268891807E06146A0
:10E34000511A09028268090A8A4202D9511A0160E7
:10E3500000E006604660012186600174C66101F03C
:10E3600023F9002CB9D1287869788842BAD1384687
:10E370007F1EFFB20028ABD10448C16800988142DB
:10E3800001D00120F8BD0020F8BD0000A021002030
:10E39000FFFF7F0098B001F067F93A4A3A4903203D
:10E3A000FEF7F8FA002801D0FDF750FA01A9002085
:10E3B000FEF7CCF9002801D0FDF748FA684600794D
:10E3C000022857D0002168460170FEF717F9684609
:10E3D0000078FFF709F8FFF713FC382101A8FCF7D4
:10E3E000F6FE022168460171012484710621C17183
:10E3F000032585822548069024210FA8FCF7E7FE17
:10E4000010A80472FF202D3000241390B420009433
:10E4100014901F4B0FAA214601A8FDF733FC0028DA
:10E4200001D0FDF713FA00F047FE00F09BFD1C2120
:10E430006846FCF7CCFE0520C00301900F200004C5
:10E440000290009468460573124881896846C1812C
:10E45000047411480590114806906846FDF7B2FE15
:10E46000002801D0FDF7F2F9FDF7EEFA0320FDF7E1
:10E4700025FD02E00121A6E748DF0028FCD0FDF7DA
:10E48000E5F9F9E7F9C80100CD0C0000A42000204F
:10E490005BE80100882400207DE80100BDD0010078
:10E4A00010B504480822416891434160007800F0AB
:10E4B0008FFE10BD6821002070B5144682880E467C
:10E4C00005462088111D4118921C994201D8FE2A48
:10E4D00001D90C2070BD521C32542088FF21401CF1
:10E4E00080B2208031542088401C80B22080811965
:10E4F000288801F0B3F92188401880B22080AA88CA
:10E50000002A09D0A968002908D08019FCF738FE34
:10E510002088A98840182080002070BD072070BD89
:10E52000F8B50F46017814460546012902D16878EE
:10E53000002806D02088821C9A422DD8012902D0BA
:10E5400006E00720F8BD69784118891C994223D854
:10E55000181A801E86B2684606802188B81C0818E2
:10E5600069467DDF0028EDD12878022805D169466B
:10E570000988B14201D809210AE00821012805D102
:10E580006878B04202D86A46108001E0684606808A
:10E5900068460088FE2801D90C20F8BD2288401C5E
:10E5A000B8542088401C80B22080395420886946A5
:10E5B000401C20800988401820800020F8BD0020E1
:10E5C0007047002070470020704700008207D30E7C
:10E5D000FF229A408907090E10B5994000280BDAEE
:10E5E00003071B0F083B9C080C4BA400E318DC69D5
:10E5F00094430C43DC6107E08408094BA400E41851
:10E60000236893430B432360C106C90E0120884051
:10E61000044908600449086010BD000000ED00E0F6
:10E6200000E400E080E200E000E100E0F3B581B04A
:10E630000F46019800F05EF9012400281E4E019853
:10E6400017D0FEF749FB80192030007F800903288E
:10E6500002D0012806D007E01848006901998C40D3
:10E66000204201D1022100E00321019800F0CEF800
:10E67000FEBD00F04BF90028FAD00198FEF72CFB04
:10E6800005468100C81D0E4AF93089180A6980B212
:10E6900022430A610B49401800210160002FE7D096
:10E6A0000198FEF719FB800030580028E0D006489A
:10E6B000AC404460FEBD000004280020000500506E
:10E6C000006500400060004000630040FEB5044665
:10E6D00023480E460019202141560027C81713462B
:10E6E000401C01D0082738E0F27819462046FEF792
:10E6F000CFFA0546401C2FD0B078002807D0194823
:10E70000A1000918086802229043086007E0002170
:10E710007378204600910A46019100F065F8F07880
:10E72000002810D01048AA001018317802690F4B49
:10E730001A400261E206D20C8907890B0A4301697B
:10E740000A43026109E00648327840192030017F0F
:10E7500092011143017700E004273846FEBD000016
:10E76000042800200007005000650040FFE0FCFF87
:10E7700003490969C140C807C00F00D00120704794
:10E780000005005070B5124D2879002801D00820EE
:10E7900070BD0F4900204039421E0B182033401C29
:10E7A000C0B21A702028F8D300242046FEF762FA7F
:10E7B000641CE4B2082CF8D303210620FFF706FFFF
:10E7C00001200449C007486001202871002070BD65
:10E7D000442800200063004002480079002800D04F
:10E7E000012070474428002030B552000A439900A8
:10E7F000039C0A432102049D0A4329040A43024957
:10E8000080004018026030BD0007005082000648BA
:10E810001018026803231B049A430260026809046B
:10E820000A43026070470000000700500349401887
:10E830000068012800D00020704700000060004000
:10E840004058002800D0012070470322120280188F
:10E850004068084000D00120704710B5002809D05A
:10E86000032806D10220FEF787F8002801D0FCF724
:10E87000EDFF10BD00F098FC10BD000010B5007851
:10E88000002807D104483B21808876DF002801D08A
:10E89000FCF7DCFF10BD0000802000200021425C5E
:10E8A000002A01D001207047491C0629F7D3002017
:10E8B0007047000070B505461C200D496843441898
:10E8C000204611300621FCF782FC20461021FCF77F
:10E8D0007EFCFF2121740020A176C04320832846BE
:10E8E00000F0C2FF024A0020A9001C3A505070BD3F
:10E8F000D02600200449081820214156042901DBB4
:10E90000012070470020704704280020044908189F
:10E9100020214156042901D2012070470020704770
:10E920000428002070B50D00044602D10020FCF739
:10E930008DFF002C02D10020FCF788FF2878207082
:10E9400069886170090AA170A988E170090A2171BA
:10E95000E8886071000AA07170BD0000074909795C
:10E96000490701D408207047002804D00449497899
:10E970000160002070470E207047000068210020D1
:10E980006828002070B5134B1B795B0701D4082061
:10E9900070BD002817D0002A15D00368022B10D2B2
:10E9A0000C240D4D5C432E59002E0AD04668601988
:10E9B0000489458940686143654371182818884275
:10E9C00003D8072070BD0E2070BD13600020516079
:10E9D00070BD000068210020C42A0020FEB5044656
:10E9E00026480E460079400701D40820FEBD002CC1
:10E9F00025D02068022836D20C21214D48432958C1
:10EA0000002930D0401941890289406851430918D2
:10EA10006068814227D9FFF7B9FB002811D06068F0
:10EA2000019021680C2251434F1979680091401AD6
:10EA300039890D46FCF77AFB002914D103E00E203A
:10EA4000FEBD1020FEBD29463046FCF76FFB0029B5
:10EA500009D1002E07D078890099454301984919BA
:10EA60008019884201D90720FEBD0020024600908F
:10EA7000334621460320FEF745FAFEBD68210020FB
:10EA8000C42A002010B507484469601C06D000F075
:10EA90000BF801462046FCF749FB10BD012000079A
:10EAA000406910BD0010001001200007006980B20D
:10EAB0007047000070B50024124825460470447069
:10EAC0002846FEF70FFA6D1C1E2DF9D30E4D6C80F3
:10EAD000FFF7D8FFC61EFFF7E7FF46430B4AAE60BD
:10EAE00000206C610C214143545089180C81401C5A
:10EAF0004C810228F6D32C70AC610420EC61686074
:10EB0000002070BD6828002068210020C42A002051
:10EB1000FFB5284881B000791F4616460C464007CD
:10EB200002D4082005B0F0BD002C1DD001980028AB
:10EB30001AD02068022815D20C211F4D48432958AD
:10EB400000290FD041194A89088949684243511860
:10EB50006268914206D9002E04D0B04202D3F11966
:10EB6000814203D90720DDE70E20DBE70198FFF79C
:10EB70000DFB00281BD03846FFF708FB002816D0F5
:10EB80006068FFF703FB002811D060683246C119A6
:10EB90000198FCF7F5FA009620680C2148432D589F
:10EBA000002202212046019BA8470020BAE710203E
:10EBB000B8E7000068210020C42A0020F8B52C4DD9
:10EBC000044628790E46400701D40820F8BD002CE1
:10EBD00020D0002E1ED0206800281BD0FFF764FF35
:10EBE0000146A088814213D3102811D3E088002861
:10EBF0000ED0FFF747FF471EFFF756FF4743E28857
:10EC0000A188A8684A431218974201D3890703D004
:10EC10000720F8BD0E20F8BD6988022926D0316092
:10EC20000C22144B51437060CA1850602068585031
:10EC3000A0881081E0885081FFF736FF0646FFF775
:10EC400033FFA188E288401E514340183146FCF74B
:10EC500083FA0446FFF728FF0146A86861430818B5
:10EC6000A8606888401C68800020F8BD0420F8BDBA
:10EC700068210020C42A0020F8B5044621481E4619
:10EC8000007915460F46400701D40820F8BD002F33
:10EC90001CD0002C1AD02168022915D20C20414327
:10ECA00019484258002A0FD0081842890189406843
:10ECB0004A4310186268904206D9002D04D0A94238
:10ECC00002D3A819884203D90720F8BD0E20F8BD49
:10ECD0003846FFF75BFA002811D03046FFF756FAA6
:10ECE00000280CD06068FFF751FA002807D02B46A7
:10ECF0003A46214601200096FEF704F9F8BD10209F
:10ED0000F8BD000068210020C42A002010B5114978
:10ED100002460878002811D004280FD0022A16D005
:10ED2000032A0BD10A79120711D48A69521C8A610D
:10ED3000032A08D0022802D000F04AFA10BD487811
:10ED400000F0A0FB10BD0D20FCF7A8FD10BDFEF7E4
:10ED500001FF10BD68210020F8B5044621481E4679
:10ED6000007915460F46400701D40820F8BD002F52
:10ED70001CD0002C1AD02168022915D20C20414346
:10ED800019484258002A0FD0081842890189406862
:10ED90004A4310186268904206D9002D04D0A94257
:10EDA00002D3A819884203D90720F8BD0E20F8BD68
:10EDB0003846FFF7EBF9002811D03046FFF7E6F9A7
:10EDC00000280CD06068FFF7E1F9002807D02B4637
:10EDD0003A46214604200096FEF794F8F8BD10202C
:10EDE000F8BD000068210020C42A002010B50748A3
:10EDF0000078002809D0054805491C3000F008F9C2
:10EE000081B203487038FDF7CFFB10BD8020002091
:10EE1000F824002070B501240B49600408600B49F8
:10EE200040108860094940398860094D6C602F2086
:10EE3000FCF750F9AC60074D00242F202C61FCF743
:10EE400049F9EC7070BD000080E100E04013014022
:10EE500000100140A021002030B50A48FF21C57DE7
:10EE60000022094C0931094B002D625007D09969E5
:10EE7000437EC268D154417E491C417630BD9869B9
:10EE800030BD00004C28002000200040002500403C
:10EE90001FB501236A46137010720348019106C81A
:10EEA000684690471FBD00004C28002008B5024965
:10EEB0000020009108BD00008020002010B5012135
:10EEC000202805DA1A4A8140114201D1194810BDA3
:10EED0008107C90E002808DA0207120F083A9208C3
:10EEE000154B9200D218D26904E08208134B9200AD
:10EEF000D2181268CA401106890F042911D20029BC
:10EF00000FD002290DD00E494C68C306DB0E01223A
:10EF10009A40002C08D0400980000B5813430B5036
:10EF200004E00448401C10BD06480260002010BDEB
:10EF3000FC06FFBC0120000000ED00E000E400E062
:10EF4000D421002000E100E010B5044801224178FE
:10EF5000514041700248FDF73EFB10BD802000206B
:10EF60008824002070B51448012451216425846050
:10EF700022C004711049114800F03EF80E488C215F
:10EF800010300160FF212D3141600A21816000268F
:10EF9000067301460948083000F02EF80648FF21A4
:10EFA00020300560F53184604160067301460348F6
:10EFB000103000F021F870BDD82400208C200020F3
:10EFC00010B503680A6889689C1A8C4202D9591ADC
:10EFD000016010BD01210260017110BD10B54B68C8
:10EFE000026889689C1A8C4202D95118016010BDD0
:10EFF00000210360017110BD0A7B002A03D049681B
:10F000000160002102E0096801600121017170477F
:10F0100010B5044600790028204602D0FFF7DEFF35
:10F0200001E0FFF7CDFF206810BDFFB50746806AFD
:10F0300081B0144600283DD000253846203000908D
:10F0400033E00C20B96A68430E18B088801CFE2893
:10F0500002D90C2005B0F0BD22880299401C8854CA
:10F0600020881622401C80B2208002990A542088F1
:10F07000401C80B2208002994118308800F0EEFBDD
:10F080002188401880B22080B288002A0AD0B16856
:10F0900000290FD0029BC018FCF772F82088B188B5
:10F0A000401820806D1C0098EDB2007BA842C8D8A3
:10F0B0000020CFE70720CDE730B59BB0032118A88B
:10F0C0000172142110A8FCF782F80024012510A871
:10F0D000109405711AA81290601C0107090F10A85E
:10F0E0001031017344738473601C0107090F10A869
:10F0F0001031C1730020014610A801740146244854
:10F10000FDF7FCF9002801D0FCF7A0FB142115A89D
:10F11000FCF75DF80120014618A81031417001206C
:10F12000014618A8103181700020014618A8C1704E
:10F130000120014618A81031017110A81594057618
:10F14000642118A817940170114815A91838FCF704
:10F15000E5FF002801D0FCF779FB40216846FCF769
:10F1600036F80CA16846FDF739FA0120014608A8D7
:10F17000103101770020014608A841776846FDF765
:10F18000C3F8002801D0FCF761FB1BB030BD0000C4
:10F19000882400204E6F7264696353656D69636FE4
:10F1A0006E647563746F720010B50020FDF7E4FBA8
:10F1B000002801D0FCF74AFBFDF72EFB002801D008
:10F1C000FCF744FB3CDF002801D0FCF73FFB10BDFF
:10F1D00010B50F490028087009D0012811D0022865
:10F1E00012D0032802D14869FEF7F4FC10BD0020BC
:10F1F0008861C861074840780028F7D0FDF756FEBF
:10F2000010BD00F0F7F810BD00F056F810BD00007A
:10F210006821002068280020002803D00249C86027
:10F22000002070470E207047C02100201CB5034904
:10F2300001910091694660DF1CBD00008020002024
:10F2400070B50E460546144614211046FBF7BFFF65
:10F250000120002120802161217326726572002D1A
:10F2600000D0A072002070BD10B5FCF7E1FA10BD0F
:10F2700070B5002901D08C0701D0072070BD074C64
:10F280000125A16062800649636010DF0028F5D186
:10F2900025701620FFF712FE70BD0000C02100206F
:10F2A00069F20100002803D002490861002070477C
:10F2B0000E207047C0210020F8B5164C142260685B
:10F2C0004008400060601448017851430E183769C7
:10F2D000FFF7EAFB01463846FBF728FF0546606169
:10F2E000FFF7E2FB0146F0887F1EC019FBF71EFF07
:10F2F00002228542606801D1104300E090436060C3
:10F30000E1681040084303D0002000F0BBF8F8BDCE
:10F310000220FAE7682100206828002010B5024882
:10F320004069FEF757FC10BD6821002010B5FFF7BB
:10F33000A9FB441EFFF7B8FB4443FFF7B5FB0449A4
:10F340004A69521E5043CA682146FEF748FC10BD68
:10F3500068210020F8B510481422017851430C1898
:10F360002569FFF7A1FB0146E08822898018401932
:10F37000FBF7DCFE0F46FFF785FB461EFFF794FB0D
:10F380004643E0882289F1198018044A401912691D
:10F39000FEF725FCF8BD0000682800206821002049
:10F3A00070B5FFF781FB0546FFF76CFB441EFFF7C6
:10F3B0007BFB60432946FBF7B9FEFEF70BFC70BDF3
:10F3C00070B5FFF771FB8608FFF76EFB07494969C7
:10F3D00048430446FFF756FB451EFFF765FB6843AD
:10F3E00032462146FEF7FBFB70BD0000682100207D
:10F3F0000020704770B514481422017851430C184E
:10F40000241DFFF751FB6188104E884211D2FFF78F
:10F410004BFB61880D1AFFF747FB8208A188E06863
:10F420004018216940194919FEF7D9FBFFF73CFB49
:10F4300007E0A288E06880188A082169FEF7CFFB00
:10F440006088F06170BD00006828002068210020FD
:10F4500010B505480079000703D4012000F012F828
:10F4600010BD00F003F810BD6821002010B504485D
:10F470000822416891434160407800F003F810BDD4
:10F48000682100200249487002498000085800475E
:10F4900068210020D0FA010010B50446FFF736FCC1
:10F4A0002046FCF7BFFC10BD70B50C00054602D12C
:10F4B0000020FCF7CBF9002D02D10020FCF7C6F9A3
:10F4C000207828702088FF2109020840000A68700F
:10F4D000206809020840000CA8702068000EE8703F
:10F4E00020792871207A68712089000AA871A068A3
:10F4F000000CE87170BD000010B5054800790007E8
:10F5000002D4FDF7C1FC10BDFFF7B0FF10BD000035
:10F5100068210020FEB51F4C00252769E068029095
:10F520006846FEF7E7FA0190FEF76CFE0646019882
:10F53000002822D000230098E16817E00E680A46F0
:10F54000864202D9301A086012E0801BF3180026A8
:10F550001660D668D169B446002E07D0FE18360270
:10F56000360A566066469660D56115460029E5D193
:10F570002846E160FEF7A4FE06E02846FEF7A0FE5E
:10F58000002801D1002E02D00298FDF7FFFC0020D8
:10F590002071FEBDA0210020012002490005086065
:10F5A0007047000000E200E010B50E4BD96800295A
:10F5B00006D002680C68A24204D8A21A0A60C1618F
:10F5C000D86010BD0B4604E00B46C969121B002928
:10F5D00004D00C689442F7D3A41A0C600260C16195
:10F5E000D86110BDA0210020F8B51D4DEC68002C9D
:10F5F00034D01C48002740682969401A0602360AA0
:10F600002068B04218D8361AC7192246107CE4691F
:10F6100000280FD0002010746B69002B07D091696F
:10F6200050699847002805D0FCF710F902E05169AD
:10F6300090698847002CE3D16978A878814206D187
:10F64000401CC0B2A870022801D10020A870044953
:10F650000006800D18310F50FFF79EFFF8BD000027
:10F66000A02100200015014010B50023184A0521F3
:10F670001846FCF739F9002801D0FCF7E7F8154ADD
:10F6800001211548FCF71AF9002801D0FCF7DEF833
:10F690001148124A0121001DFCF710F9002801D081
:10F6A000FCF7D4F80C480E4A01210830FCF706F9A3
:10F6B000002801D0FCF7CAF807480A4A01210C309B
:10F6C000FCF7FCF8002801D0FCF7C0F810BD0000E2
:10F6D00060220020DDBB010048FA0100D9DE0100F4
:10F6E000EDED010049EF0100FF2107481D31002227
:10F6F00042500648828A8168895C828A521C8282D2
:10F700000348C16170470000002000404C280020E1
:10F71000002500401FB500216A4611701072044890
:10F7200082680192817506C8684690471FBD000037
:10F730004C280020F0B5454D012185B049022846EE
:10F74000FFF783F801270026414C002824D0FF2131
:10F7500025312846FFF774F800281DD0FF202530FA
:10F760002E5081203B4980008860A07E002800D177
:10F770006F6002216846017037490868086003908D
:10F78000E17D68460172E0680190E675267606CC58
:10F790006846083C90472BE004212846FFF755F8BF
:10F7A000002825D0FF2109312846FFF749F8002815
:10F7B0001ED0FFF751FBE07D617E884218D1207E8C
:10F7C000002808D0627EE168E0752069E060267656
:10F7D000667610460AE0A07E002800D16F60812086
:10F7E0001C4980008860E675607EE168FFF750FB89
:10F7F000FF211D312846FFF723F800280DD0A18AEC
:10F80000A07D814202D2FFF76FFF06E0FF211D318C
:10F810006E50002801D0FFF77DFFFF2145312846BB
:10F82000FFF70EF800280ED0FF2045302E50A07EA6
:10F83000002800D02F60E07D002804D0E675607EAF
:10F84000E168FFF725FB05B0F0BD00000020004097
:10F850004C28002000230040802400400870000A4B
:10F860004870022070470000012181400248426830
:10F870008A434260704700005021002038B5154986
:10F88000154A488890420FD04A78144C521CD2B284
:10F890004A70237B934208D3091D75DF002803D0EB
:10F8A000A169002900D0884738BD00254D70217C12
:10F8B000002907D03B2176DF002803D0A169002969
:10F8C00000D0884761690029EED0684605708847F6
:10F8D00038BD0000F0200020FFFF00009826002027
:10F8E000EFF30580C005C00D1AD0103840B20028D3
:10F8F00008DA0107090F083989080C4A89008918B4
:10F90000C96904E081080A4A8900891809688007E2
:10F91000C00EC1400806800F012803D0032803D081
:10F9200002207047002070470120704700ED00E082
:10F9300000E400E042788378521CD2B2934200D1B6
:10F9400000220378934201D1002070470A70416879
:10F9500040781822504308187047FFB583B0164608
:10F960000C9D0D9C1F46022200950194039800F007
:10F970000CF8002807D13B4610223146009501942F
:10F98000039800F002F807B0F0BDFFB583B007465A
:10F9900000200C9C8646268805463AE07868A90037
:10F9A00042181188684681805188C18000226946CA
:10F9B00001A865DF002839D16846017805988142A1
:10F9C00026D17046002801D0002200E002222088C3
:10F9D000891842180D998A4227D8714600290AD100
:10F9E000401C80B22080069A049911542088401C43
:10F9F000208001208646218806980A18694601A8B9
:10FA000065DF002812D169462088097840182080D7
:10FA10006D1C3888A842C1DC704600280AD02088B6
:10FA2000801B401E80B2FF2802D90C2007B0F0BD19
:10FA3000069988550020F9E70179002902D1007B59
:10FA4000002800D001207047E02100200022002083
:10FA5000202200204022002001000007082500206D
:10FA6000282500205425002011000000120000006D
:10FA70001300000014000000110003002DC8010055
:10FA8000120003002DC80100130003002DC801005F
:10FA9000140003002DC8010078260020FFFFFFFF9F
:10FAA000C7E501004DDD010069DC010009DE010050
:10FAB000C3E501001DDD010065DC010001DE010080
:10FAC000BFE501006DDC010061DC0100F9DD010032
:10FAD000A1F30100C1F301001DF3010055F3010082
:10FAE0002DF3010051F40100D5D1010081D10100B5
:10FAF000F9F4010061DE0100DC2A002003000000AF
:10FB000020FB0100802000206001000030B20100D5
:10FB10003CFB0100E0210020781100001EB501002F
:10FB20004201031FFFFF0C2A0D1801000F180100EE
:0CFB30000A180103FFFFFF611424F40019
:040000050001B0C185
:00000001FF
