:020000040001F9
:10B00000C0390020F5B001000FB1010011B10100FD
:10B010000000000000000000000000000000000030
:10B0200000000000000000000000000013B101005B
:10B03000000000000000000015B1010017B1010080
:10B0400019B1010019B10100CDB7010019B101001A
:10B0500019B101000000000065B2010019B1010042
:10B0600019B1010019B1010019B1010019B10100B4
:10B0700019B1010019B1010019B1010019B10100A4
:10B0800019B10100FDB3010019B1010019B10100AE
:10B09000F9B6010019B1010001B7010019B10100B1
:10B0A00019B1010019B1010000000000000000000A
:10B0B0000000000000000000000000000000000090
:10B0C0000348854600F09EF80048004761E701000C
:10B0D000C0390020401E00BF00BF00BF00BF00BF3E
:10B0E00000BF00BF00BF00BF00BF00BF00BFF1D165
:10B0F000704700000321094802680A4302600848BB
:10B1000002680A4302600748804707480047FEE795
:10B11000FEE7FEE7FEE7FEE7FEE70000240500404D
:10B12000540500402DB70100C1B0010030B50B46F9
:10B13000014600202022012409E00D46D5409D4211
:10B1400005D31D469540491B254695404019154697
:10B15000521E002DF1DC30BD70B5002425460028BC
:10B1600001DA01244042002901DA01254942FFF7B2
:10B17000DDFFAC4200D04042002C00D0494270BDFF
:10B1800003460B439B0703D009E008C9121F08C000
:10B19000042AFAD203E00B780370401C491C521EAB
:10B1A000F9D27047D2B201E00270401C491EFBD2B6
:10B1B00070470022F6E710B513460A4604461946C2
:10B1C000FFF7F0FF204610BD421C0178401C00290B
:10B1D000FBD1801A704730B504460020034600E0DA
:10B1E0005B1C934203D2E05CCD5C401BF8D030BDC9
:10B1F00003460A780270401C491C002AF9D11846FF
:10B2000070470000064C0125064E05E0E36807CCB8
:10B210002B430C3C98471034B442F7D3FFF754FF4C
:10B22000E40102000402020030B58C180278401CD0
:10B2300013071B0F01D10378401C120906D10278B5
:10B24000401C03E005780D70401C491C5B1EF9D1C1
:10B2500001E00B70491C521EFBD1A142E6D3002035
:10B2600030BD0000F0B50025FF248BB0013401266D
:10B270002F460195204603F0DBFC002808D0474804
:10B280004068304204D04648002120183543016010
:10B29000241D76007F1CA4B2042FEBD3FF207D3049
:10B2A00003F0C6FC002807D03E480021016040079B
:10B2B00005433D48006901903C4C280712D0012706
:10B2C00000262F420AD03A48B200111808690969CD
:10B2D000C004C00E8903A258890F90477F00761CD6
:10B2E000042EEED3002D57DA00200590401E4DE0CD
:10B2F000A119403108788506AD0E42B2521C39D0F2
:10B300000121A940089A0091114233D0800903908D
:10B31000284601F0EDFE800020580490002802D15C
:10B320000398032826D103980099032802D1059891
:10B33000084305901F4AA80080180068019A8003FE
:10B34000800F114202D0022802D013E0032811D14D
:10B350000399032907D102281CD00221284603F0B3
:10B3600057FC7F1CFFB20498002803D0049A28469B
:10B3700003999047761C042EBAD3002F0CD00A48AC
:10B3800000690199884207D00190059800273E4640
:10B390000890ADE70321E1E70BB0F0BD006300408A
:10B3A000006000407C610040000500504427002000
:10B3B00000650040000700508307FF22DB0E9A4023
:10B3C0008907090E994000280BDA0007000F08389A
:10B3D000830808489B001818C36993430B43C36153
:10B3E0007047830804489B001B1818689043084363
:10B3F0001860704700ED00E000E400E010B5064979
:10B400000020086048608860C860034940390860CF
:10B41000486004F0E3FB10BD40110140FFB5114F3F
:10B420000446387881B01D461646002801D100F048
:10B43000D1F97869A04211D918200A49604341180E
:10B44000002C06D00298CE640D65886400208865C3
:10B4500048650A98C865002005B0F0BD0020C043CB
:10B46000FAE7000044310020FFB5114F0446387858
:10B4700081B01D461646002801D100F0ABF93869AD
:10B48000A04211D918200A4960434118002C06D067
:10B490000298CE610D6288610020886248620A9835
:10B4A000C862002005B0F0BD0020C043FAE70000EC
:10B4B0004431002070B5074B0646187814460D46F7
:10B4C000002801D100F086F922462946304600F0D6
:10B4D00003F870BD4431002070B50E461821484372
:10B4E000134914464518E86A1835002804D0012885
:10B4F0000FD0022805D113E0284600F0A1F9A042A0
:10B5000001D2002411E022463146284600F0C3FA59
:10B510000BE0284600F094F9A042F4D20446F2E78A
:10B520003146284600F087FA0446204670BD0000E8
:10B530004431002070B505460C460846FFF744FE2E
:10B54000024621462846FFF7B5FF70BD0FB408B587
:10B5500004A900916A46039900F004F801B008BC00
:10B5600004B01847F7B598B007A80290402000250E
:10B570000495039018980C46059506902178641C54
:10B58000002977D0252907D002A800F035FA0598C0
:10B590000028F3DA1BB0F0BD012200210227134678
:10B5A0000826207823281BD02B2816D02D2802D03F
:10B5B000302806D101E0194300E03943641C002A19
:10B5C000EFD1002220780346303B0A2B0AD20A230F
:10B5D0005A431218303A641CF4E704200143EDE7A3
:10B5E0003143EBE70023C7B22E2F0AD1641C207829
:10B5F0000746303F0A2F04D20A277B431B18303BF3
:10B60000F4E76C280DD068280BD0702852D00BDCE2
:10B6100025285AD058282ED063280CD0642858D119
:10B6200010E02078641CECE7732832D0752817D01E
:10B6300078284ED11FE01A981A9A0068011D1160EF
:10B64000017843E01A981A9F0068061D3E60006862
:10B650000191009201460A2202A800F0FCF838E0AD
:10B660001A981A9F0068061D3E60006800920191BA
:10B670000A2209E02FE01A981A9F0068061D3E6012
:10B680000068009201911022014602A800F048F9DA
:10B690001FE01A981A9A0068011D11600668317837
:10B6A000761C002915D002A800F0A6F905980028FC
:10B6B000F5DA0EE01A981A9A00680823011D116045
:10B6C0000168102200960195DFE7252102A800F00D
:10B6D00093F9641C5BE70598002800DC5AE704989E
:10B6E000002804D0024607A91898FFF7E3FE049942
:10B6F0000598401805904DE710B504F005FA10BD07
:10B7000010B508484068002808D08047002804D0B9
:10B71000FF21054A673100F01BFC10BD02F04EFE10
:10B7200010BD0000AC2100208C01020010B502F019
:10B7300095FE002805D01F491D484860C8131E49C2
:10B7400088611E48018CC9B201290BD1828C120775
:10B7500008D1028D1206120F042A03D1828D12061F
:10B76000120F0AD0012921D1818C09071ED1018D28
:10B770000906090F0A2904D007E0114A0121916046
:10B78000F5E7828D1206120F05D00D290ED1808D9E
:10B790000006000F0AD10B480168012904D00A49AC
:10B7A000016001680129FCD1C021416110BD000088
:10B7B000DFFF07C000050040006C0040C00F00F034
:10B7C0000006004000EC06407593000010B504F040
:10B7D000CBFA10BD10B5124C02202061606111A09F
:10B7E000A0611348E0610120800220620020A06275
:10B7F00060620CA1A1642146E0621039E16410216D
:10B800002165A0656065E0650AA1E01DFFF7F0FC19
:10B8100009A12046FFF7ECFC2020A07110BD00001C
:10B82000443100205465726D696E616C0000000047
:10B83000342D0020525454005345474745520000D0
:10B840000269C1688A4203D88068401A801800E003
:10B85000501A401E7047FFB583B00E4670420D9FD0
:10B860000C9C0090002900DB0846012502E0FFF750
:10B8700073FC6D1C05998842F9DA0698A84200D934
:10B880000546002C04D0002E01DB780700D5641E8D
:10B89000B80702D50698002810D0F8070ED1002C62
:10B8A0000CD0A5420AD22021641E039800F0A4F80F
:10B8B0000398C0680028F2DA07B0F0BD0398C068AA
:10B8C0000028F9DB002E02DA2D21009E02E0780725
:10B8D00007D52B21039800F08FF80398C068002843
:10B8E000EADBB807800F022810D1069800280DD196
:10B8F000002C0BD0A54209D23021641E039800F021
:10B900007BF80398C0680028F2DAD5E70197009425
:10B910003146069B059A039800F002F8CCE7000038
:10B92000FFB581B001261F4634460A9D029802E009
:10B93000FFF7FCFB641C03998842F9D2A74200D9A7
:10B940003C460B98C00718D1002D16D00B988007E5
:10B9500001D5002F02D0202000900CE03020FBE722
:10B960006D1E0099019800F047F80198C068002802
:10B970003DDB002D01D0AC42F2D30198C068002815
:10B9800035DB012F01D97F1E06E031460298FFF713
:10B99000CDFB0399884202D303984643F1E7154F44
:10B9A00031460298FFF7C2FB0146029A7143511AD1
:10B9B0000291395C019800F01FF80198C0680028D6
:10B9C00005DB30460399FFF7B1FB0600E8D10B9881
:10B9D000C0070CD0002D0AD0AC4208D220216D1E29
:10B9E000019800F009F80198C0680028F2DA05B063
:10B9F000F0BD00003001020010B5044680686368A5
:10BA0000421C934205D323681954A260E068401C8D
:10BA1000E060A2686068824209D121682069FFF76E
:10BA200049FDA168884203D00020C043E06010BDFA
:10BA30000020A06010BDF7B5064682B0002000903F
:10BA4000F46817463069A04201D9051B02E0B168CD
:10BA5000201A0D1AB0686D1E001BA84200D80546BA
:10BA6000BD4200D33D4670682A4600190399FFF78E
:10BA700087FB00987F1B40190090039864194019B8
:10BA80000390B068A04200D10024F460002FD9D107
:10BA9000009805B0F0BDF7B5C66817460446806843
:10BAA000851B6068BD4206D980190199FFF768FBC4
:10BAB000F019E060FEBD2A4680190199FFF760FB8E
:10BAC00001987E1B411932466068FFF759FBE6601A
:10BAD000FEBD30B47446641E2578641CAB4200D2AF
:10BAE0001D46635D5B00E31830BC184702E008C8E0
:10BAF000121F08C1002AFAD170477047002001E0E8
:10BB000001C1121F002AFBD17047F7B584B0002590
:10BB1000168807461580406B1446002813D003781A
:10BB20000598032E51D30221017021881122491C4E
:10BB300089B2218042542188491C89B22180435412
:10BB40002088401C2080386B00281DD005462088A6
:10BB5000059902461232B24237D811220A5420887F
:10BB60001022401C80B220800A542088401C208073
:10BB70000F202A5C2388401ECA54228840B2521CDF
:10BB800022800028F5DA0025384620300290807B9C
:10BB9000002806D033462246059902F0ABFC05008A
:10BBA00014D10298407B002806D0324621460598E1
:10BBB00000F0F6FD050009D1B878002823D00598DB
:10BBC00086462088001DB04202D90C2007B0F0BD87
:10BBD000684679DF0028F9D1218803207246505445
:10BBE00020881921401C80B2208011542088714681
:10BBF000401C80B2208041186846008804F048F953
:10BC0000218840182080F878002817D02188032345
:10BC10000A46FB56C91C0598B142D6D80221815468
:10BC200021880122491C89B2218042542188491C63
:10BC300089B2218043542088401C208078680028E5
:10BC400017D021880023C3560A46C91C0598B14263
:10BC5000BBD80221815421880A22491C89B2218043
:10BC600042542188491C89B2218043542088401CB9
:10BC70002080388900280AD0009438460196062290
:10BC800002210830059B04F082F905009ED1388A14
:10BC900000280AD00094384601960722032110306C
:10BCA000059B04F074F9050090D1388B00280AD068
:10BCB000009438460196152214211830059B04F093
:10BCC00066F9050082D1386A002806D0334622463C
:10BCD000059901F0DDFB0500D8D1786A002806D06F
:10BCE00033462246059902F0E9FD0500CED10298BF
:10BCF000007B002807D0334622463846059903F0DA
:10BD000013FC0500C2D13878002807D033462246FC
:10BD10003846059902F006FE0500B7D1284655E7DA
:10BD200010B501220221002001F00EF8002801D0F8
:10BD3000072812D107220221012001F005F800286E
:10BD400001D0072809D100210A22084600F0FCFF93
:10BD5000002801D0072800D1002010BD30B5A7B0C1
:10BD6000382101A8FFF725FA022168460171012454
:10BD700084710621C1718482114D24211DA806956C
:10BD8000FFF717FA20A8047040202190B4202290D9
:10BD900038210FA8FFF70DFA10A884810020149510
:10BDA0000090084B1DAA0FA901A800F075FA002801
:10BDB00003D005A2084900F0CBF827B030BD000041
:10BDC0008420002085EC01002E2E5C2E2E5C2E2E71
:10BDD0005C6D61696E2E6300850200000448426854
:10BDE0000121C9050B46934383600A40C260704736
:10BDF0000005005070B504460FCC114D0FC5A0884A
:10BE00002880E08868802089A880A07AE880284679
:10BE10002146083007220B310646103C103DFFF743
:10BE2000AFF9606A286228460321203001710021A1
:10BE3000AE6201732963228AAA86E986017670BD03
:10BE4000342400207047000010B58AB0684602F024
:10BE5000B9F8014600231A46684672DF084C0028EC
:10BE600003D0216A002900D088470548243073DFB9
:10BE7000002803D0216A002900D088470AB010BDED
:10BE80003424002074DF002804D00349096A002903
:10BE900000D00847704700003424002070B500240B
:10BEA000064D06E06968E000085C012102F0C0FD73
:10BEB000641C28788442F5D3002070BD74210020D2
:10BEC000F8B515460C460646052A01D20720F8BDEE
:10BED00002F084FE002803D102F056FE0028F6D1BD
:10BEE000104900204E600C70C8608D6008610E4DD6
:10BEF0000DE0E00069688019009181786A46517010
:10BF000000780A4A694602F0E3FD0028DFD12046A6
:10BF1000641EE4B20028ECD1054A0021024800F07A
:10BF200083F8F8BD7421002028010200F5E2010029
:10BF300071D6010070B5064614460D460C2000F07F
:10BF400027FF22462946304600F010F870BD000059
:10BF50000EB56B461980019202906A460021024894
:10BF6000FFF7E8FF0EBD00000140000018B50124F6
:10BF70006B461C701B78144B186059609A6013490B
:10BF8000401807D001280FD1DA60D868008898617E
:10BF9000D86807E01A6118698068586118690088D4
:10BFA000986118694068D861186858689868D868B6
:10BFB000186958699869D86972B668460078002887
:10BFC000FBD162B618BD0000A0280020FFBFFFFF14
:10BFD000014B1B68184700002027002038B50C468D
:10BFE000A2680C235A43064B09789D58054A126AE9
:10BFF00000920246204608302369A84738BD000059
:10C00000742800205021002010B5064914230A7816
:10C010005A435118091DFFF7E1FF042003F02CFBE0
:10C0200010BD0000A8270020094B9B68002B07D0FB
:10C03000002A07D0002805D00068037C002B03D01D
:10C040000820704707207047417442610020704704
:10C0500088210020FFB59007002581B014460E46C8
:10C06000002832D11B4F002C31D003F035F9049851
:10C0700078610320387033461821224600204B4354
:10C08000BC601834C10089180D704D708E704C6002
:10C090001C19401C0328F5DBFD607D7001240E484F
:10C0A000BD702405046003211420FFF785F90B48B7
:10C0B00004600B4C0198A06003211120FFF77CF96C
:10C0C00060683861002005B0F0BD0720FBE7BD6067
:10C0D000FBE700008821002080E200E000E100E0B2
:10C0E00000150140FEB50D461B49174689680446F8
:10C0F00000292AD0002C28D0052D01D20720FEBD12
:10C100006069002821D0607C012820D0002603F03F
:10C1100001FFC0001049019089684018694603F08A
:10C1200023FF002815D0012101700C4944604968A3
:10C130000830E2C0084901988968411868460078CB
:10C14000487003F023FD0020FEBD0820FEBD2E46F2
:10C15000DDE70420FEBD000088210020001501401D
:10C16000F8B5134D0446A96800291CD0002C1AD03C
:10C170006069002817D00026267403F0CBFEC700A4
:10C18000A8686946381803F0EFFE00280DD0022198
:10C1900001704460A868391868460078487003F058
:10C1A000F5FC3046F8BD0820F8BD0420F8BD0000BD
:10C1B0008821002010B510220E490F48FEF7E0FF3D
:10C1C000FF210D48913101610C4981820C49C182E6
:10C1D00059210183C32181760A4941621B3071DFF5
:10C1E000002803D0084A0949FFF7B2FE0248FFF7CA
:10C1F00001FE10BD88200020F02300203412000032
:10C200007856000011C2010080E80100D102000050
:10C2100010B502A20549FFF79BFE10BD2E2E5C2E25
:10C220002E5C2E2E5C6D61696E2E6300BE020000D6
:10C23000F0B50C4693B01F216A46118007260027EF
:10C240009180002809D0C17849070DD502A9FFF7D0
:10C250005CFC002809D102AD01E000251780002C0C
:10C260000ED0E078002802D0304613B0F0BD01AA0D
:10C270000AA92046FFF749FC0028F6D10AAA02E0E5
:10C2800068460022878068468088C3B26846008876
:10C29000C1B2284672DFE8E770B50D46049916462C
:10C2A000040042D0002E40D0424800224271C360B8
:10C2B0000161242231464048FEF762FF00F0D4F8C5
:10C2C0003D49343108461038016020318160382101
:10C2D0005C38FEF76EFF3848217838380170A17855
:10C2E0008170E178C1706178417062692169426151
:10C2F0000161E268A168C26081600146E369A269E8
:10C30000CB618A61616A002919D00146AC310246CD
:10C31000B83241628A60636A1B880B80616A436A33
:10C32000898899800021436A06E00E2070BD666A04
:10C33000B668765C5654491C9E888E42F7D8A16A2E
:10C3400000291CD01C4AAC3211460C398A6081622B
:10C35000A36A9B888B80A16A836A0988198000215F
:10C36000836A04E0A66AB668765C5654491C9E88C7
:10C370008E42F7D82C210A5D0F4918390A73216AB9
:10C38000002909D00B4914310162226A52884A807F
:10C39000216A026A098811806168002904D0054970
:10C3A000891D416061684160034829463838FFF7BC
:10C3B0003FFF70BDB82000201425002010B5028872
:10C3C0001C4C102A17D00021112A1AD01B2A11D177
:10C3D000007A00280ED1607901281ED0022822D0D0
:10C3E000032822D0042805D12171E2680846002ADA
:10C3F00000D0904710BD817D0129FBD1808820812C
:10C4000010BD6170808821898842F9D1012005E042
:10C4100021690029F4D0884710BD022000F058F8A7
:10C420000028F5D110BD0320F8E703202071042077
:10C43000F4E70000B820002010B5022801D003283E
:10C440000ED1084C207800280AD000202070607996
:10C4500000F03EF8002803D02169002900D0884769
:10C4600010BD0000B820002010B507210148FEF7DC
:10C47000A0FE10BDD020002010B513480078012880
:10C480001FD1124C607800281BD16079002802D09F
:10C4900074DF002816D101200B496070062038395E
:10C4A000C870094800213838FFF7C2FE002809D1BA
:10C4B000607900F00DF8002803D02169002900D030
:10C4C0008847002010BD000014250020B82000205F
:10C4D000F0B5784C87B06071002606A8069602F089
:10C4E000BDFC0127082802D0002808D104E006A8D6
:10C4F00001F0EAFD002804D10698002801D0277039
:10C50000D4E0FFF7B1FF6C4D6878002802D0607965
:10C51000012807D0A87800280CD06079012801D024
:10C52000022824D1E168002903D0E7700820884759
:10C5300000E0E6706079012808D16878002809D009
:10C540005C48193002F00AFC002803D06079022808
:10C5500002D00CE002206071A878002805D0554870
:10C56000193002F0FBFB002801D103206071287B09
:10C57000002804D16079032801D104206071287E4D
:10C58000002804D16079042801D166712671E16820
:10C5900000290AD06079032801D0042805D1287821
:10C5A000002802D06078002817D0A67018216846AD
:10C5B000FEF7FFFD684606700196067203966079E5
:10C5C00001280ED0022815D03B4E243637465C3F5A
:10C5D00003281BD004285DD13AE0A77007208847C4
:10C5E000E4E73448183001906846077046820682B6
:10C5F000277152E02F48183001906846077029894A
:10C600004182A98801820220207146E0A88A6946F9
:10C610004882288A08822848243003F027FD002811
:10C6200005D02878002802D06078002801D00320A7
:10C630002FE002206946087204200396F8701E4815
:10C6400000213838FFF7F4FD002830D1052020E024
:10C65000A88B69460882288C48821748243003F04A
:10C6600005FD002805D02878002802D06078002831
:10C6700001D004200DE002206946087204200396D0
:10C68000F8700D4800213838FFF7D2FD00280ED190
:10C69000062020716079002803D0684673DF0028E7
:10C6A00005D1E168002901D020798847002007B032
:10C6B000F0BD0000B82000201425002070B505460C
:10C6C00001461C220E48FEF75BFD0E4C002626702C
:10C6D0002968002906D00822201DFEF751FD201DE3
:10C6E0007ADF02E00748001D7BDF002807D1401EEB
:10C6F00060806670044A00210448FFF795FC70BD15
:10C7000000260020D8200020B1FE0100BC0002005D
:10C71000F8B5214C028800271E4DE689102A15D055
:10C720001E49112A21D0122A2DD0502A1CD1C2888C
:10C73000801DB24218D14289022A15D1427B037B67
:10C7400010021843C007C00F0CD112E08188698025
:10C7500001461048082218310C30FEF711FD6F70A9
:10C76000002E01D100F0E8FEF8BD0020C043688033
:10C770006F700868FFF7F4FC0028F5D0A169002964
:10C78000F2D08847F8BD0822811802480C30FEF725
:10C79000F7FCE7E7D820002000260020BC000200BC
:10C7A0007CB5054608880C460930904201D90C201A
:10C7B0007CBD684671DF0028FAD1218808206854C2
:10C7C00020881B21401C80B220802954208800A989
:10C7D000401C80B22080401906220131FEF7D0FCB7
:10C7E00020886946801D80B220800978002900D009
:10C7F000012129542088401C208000207CBD00009D
:10C800007FB504460121684681714A4981804A4AC0
:10C8100001A90120A0DF00287ED1228825463C35D1
:10C82000002A09D044482B46801C00904348616888
:10C8300000F066FC00287BD12289002A0AD03E48FD
:10C840002B460A3000903D48E168401F00F058FC3C
:10C8500000286DD1228A002A0AD037482B46123090
:10C86000009036486169001F00F04AFC00285FD143
:10C87000228B002A0AD030482B461A3000902F48CD
:10C88000E169801E00F03CFC002851D1228C002A76
:10C890000AD029482B46223000902848616AC01EE1
:10C8A00000F02EFC002843D1228D002A0AD0224815
:10C8B0002B462A3000902148E16A401E00F020FCFF
:10C8C000002835D1216B00290ED002A803F0C2F850
:10C8D00019482B46323000901848082202A9801FC0
:10C8E00000F00EFC002823D1606B00280BD0124909
:10C8F0002B463A310091027901681048401C00F043
:10C90000FFFB002814D1A16B002910D002A802F06F
:10C9100065FA0948423000E00AE0009007482B46DB
:10C92000072202A9273000F0EBFB002800D10020ED
:10C9300004B070BD0A18000004210020292A00005C
:10C9400010B5044600F0D2FF2046FFF7E1FE214675
:10C95000064800F041F8204602F0B0F92046FFF703
:10C960002DFD204600F016F910BD0000182400200F
:10C9700030B5184B0D4604000FCB85B003936B46C2
:10C9800007C324D0002D22D00020C043A0822868F5
:10C99000A0610020A0752146684663DF002814D1FD
:10C9A00021786846817401210182A21C04A901201A
:10C9B000A0DF002809D12946204602F0CBFC002840
:10C9C00003D12946204603F07FF905B030BD0E2083
:10C9D000FBE70000C000020000281ED000291CD088
:10C9E0000A88102A14D0112A14D0502A15D1CA88C6
:10C9F000038A891D9A4202D14B89022B0ED083886B
:10CA00009A420AD18369002B07D04A890C31184712
:10CA1000898801E00021C943818270474A7B0B7BF2
:10CA200011021943C907C90F00D001218175704750
:10CA300070B504460D460846FEF7C6FB20806560CB
:10CA400070BD000000B5234887B000680590002342
:10CA50004822214905A802F0D5FE002804D0FF2174
:10CA60001EA2DD31FFF774FA6A460121002002F0B0
:10CA7000B1FE002804D0FF2118A2E331FFF768FAC5
:10CA80001A4802F0C5FC002804D0FF2113A2E631A9
:10CA9000FFF75EFA684602F01DFE002804D0FF2171
:10CAA0000EA2EA31FFF754FA114802F009FE0028FD
:10CAB00004D0FF2109A2EE31FFF74AFA0D4802F037
:10CAC000C3FE002804D0FF2104A2F331FFF740FA8F
:10CAD00007B000BD7C000200CC2100202E2E5C2E71
:10CAE0002E5C2E2E5C6D61696E2E6300E81F0020A7
:10CAF00041C901003DFA01001CB5044681786A462F
:10CB00000C4802F0BFF9002812D160781C2148437C
:10CB100009491C2340181A46694602F06DFA064876
:10CB200006494030807A80000A582146684690477E
:10CB30001CBD0000FC200020E0260020E0000200D8
:10CB40007CB5134E00250C463060002918D069468C
:10CB5000002000F0B5F8002819D101A9012000F04B
:10CB6000AFF8002813D1684601790020002901D0D0
:10CB7000022004E069460978002900D00B202070CB
:10CB80007068002802D1FFF7CBF8054628467CBD27
:10CB9000B020002010B51C4C0188606810290DD011
:10CBA00011290AD1401E606007D1FFF7B9F80028AB
:10CBB00003D02168002900D0884710BD00281ED16D
:10CBC00000210122084600F0BFF8002801D0072804
:10CBD00011D107220221012000F0B6F8002801D06F
:10CBE000072808D104220221002000F0ADF8002817
:10CBF00005D0072803D02168002900D08847606845
:10CC0000401C606010BD0000B020002010B5032063
:10CC100000F018FA002801D0062800D1002010BD2D
:10CC2000F8B507460024234802E0641C042C1AD2FD
:10CC3000A2008258BA42F8D1042C14D21D481E4ECC
:10CC40000C38002929D001290ED002290BD160000F
:10CC5000201880194578002D05D018480169002951
:10CC600001D028468847F8BD61006118755C8E19AF
:10CC7000717800290CD011490A2249688068514313
:10CC80000E4A521CFFF72EFA002801D10B484770BC
:10CC90000A48B17814300155DDE78068FFF760FA83
:10CCA00006486100611814308919005D8D78A8422A
:10CCB000D1D0F8BD8C000200B024002098200020C4
:10CCC00004280CD2074A1269074B80001B5C012024
:10CCD0009840904300D00120087000207047002049
:10CCE000FAE70000000500508C00020010B504288F
:10CCF00006D007280FD00A2801D102F097FC10BDFA
:10CD00000B481321408876DF0828F8D00028F6D099
:10CD100008A20C4908E0FFF7AFFB0828EFD0002875
:10CD2000EDD0084903A20831FFF712F910BD000049
:10CD3000802000202E2E5C2E2E5C2E2E5C6D6169D4
:10CD40006E2E63000702000070B50023042811D284
:10CD5000440004190D4D012A02D101290DD00022F1
:10CD600046008019094E801900290CD0012906D0EF
:10CD7000022906D00723184670BD0D30C2B22A55CD
:10CD8000F9E74270F7E78270F5E70000B024002071
:10CD900010B5054A0146127A0020D20702D0084693
:10CDA00000F054F810BD00009820002070B50E4629
:10CDB000204905464E608D6000200A61A9071ED5F6
:10CDC0000024012211462046FFF7BEFF641C042CFC
:10CDD00002D20028F5D012E0002810D172080421F8
:10CDE0001548FFF76DF8002809D1FFF757F800281C
:10CDF00005D11148114A00211438FFF715F9E90748
:10CE000006D00F220E4952058A600023CB608A614A
:10CE100000280DD108480B4A00211C38FFF704F9FF
:10CE2000002805D10448084A01211838FFF7FCF80A
:10CE300070BD0000982000209C00020081D00100FD
:10CE40000005005049E50100DDBD0100FEB57A4D49
:10CE50000722EB6892059A4302936B6800939C004B
:10CE600006461B1900200121019349050746734C12
:10CE70003300FEF72EFE180D1515374755677C88D1
:10CE80007F8891DE9E9E9E9E9EC8CED1D8DEDE1407
:10CE90000F21029A49059143A160E7602F70FEBD02
:10CEA000A260E76060680F2252055040800209D5F9
:10CEB000A160E760022E02D1E120C0000AE07D20DF
:10CEC000400107E0E160A760022E01D1C82001E027
:10CED000FF2091302E706421FEF728F9009941431C
:10CEE00000223FE0A260E76060680F2252055040D8
:10CEF000800204D5A160E76019204001EAE7E16003
:10CF0000A760E3E7A260E76060680F225205504027
:10CF1000800202D5A160E760D1E7E160A760D7E7B2
:10CF2000A260E76060680F2252055040800202D57F
:10CF3000A160E76001E0E160A7602E700098410009
:10CF400000220FE0A260E76060680F2252055040A7
:10CF5000800202D5A160E76001E0E160A7602E7069
:10CF60000099002236480068FFF7BCF8FEBDA260B9
:10CF7000E7601BE061680120800502468A43A260E9
:10CF80000140E16010E06068012189050A468243A2
:10CF9000A2600840E060E3E76068012189050A4675
:10CFA0008243A2600840E0600199C9E7E160A760A0
:10CFB0002DE023484068FFF7D3F811218A1B01D0E8
:10CFC000002807D00F22E96852051140A160E760F0
:10CFD000EF60FEBD0121C905E960012A0CD91046A8
:10CFE000C82148436421FEF7A1F869680022414343
:10CFF00013484068FFF776F80F22E96852051140A0
:10D00000E160A760FEBD0F214905A160E7602E70B9
:10D01000FEBD07229205AAE70D214905A160E76040
:10D0200001218905C2E70321C905A160E7608910D4
:10D03000BCE70F214905B9E7982000200005005002
:10D0400080000200F0B500210B4C0C4D03273F047B
:10D050008A00A25892005619326801238B4003407F
:10D0600000D00323BA431B0413433360491C042933
:10D07000EED30020F0BD00008C000200000700503D
:10D0800010B500780221FFF7CBFD10BD0022D2437E
:10D09000830004490428CA5002D3081820300277BC
:10D0A0007047000044270020F0B50025ED43002A1A
:10D0B00002D00023042601E0042308260B4C04E0E0
:10D0C0009F00E7597F1C04D05B1CB342F8D328466D
:10D0D000F0BD26185DB2203635709E00A151002AA1
:10D0E000F5D1E11820310877F1E70000442700204E
:10D0F00002490918202008567047000044270020E4
:10D10000FFB58FB01E4615460F0004D123A26D2136
:10D110000020FEF71DFF002D04D120A26E2100206B
:10D12000FEF716FF1C216846FEF743F868460178B3
:10D130000220014368460170002401940394049482
:10D140000594012108A80694817068460F9901840E
:10D1500007943178017771784177807FF921084011
:10D16000F721801C0840EF2108404108490068462B
:10D170008177142109A8FEF71CF808A8099007A8D0
:10D180000A9068468585C485058614480D9709AAC6
:10D1900069460088189BA2DF13B0F0BD2E2E5C2ECE
:10D1A0002E5C2E2E5C2E2E5C2E2E5C2E2E5C636F43
:10D1B0006D706F6E656E74735C626C655C626C65DD
:10D1C0005F73657276696365735C626C655F6469E1
:10D1D000735C626C655F6469732E630004210020D8
:10D1E000F8B53E481422017851430C18E0680C2130
:10D1F00048433A492769CC31401805894189009153
:10D20000241D466801F0CCFE01463846FDF78EFF2E
:10D21000002932D000200099A2884D436188AE19C0
:10D220008918CD1900222E4900280A6109D001F081
:10D23000B7FE6188884222D0B54202D1A08800287A
:10D240001DD0A06802281AD001F0AAFEA188CA1930
:10D2500001461046FDF76AFF214C8808E06001F0A6
:10D260009FFE01462846FDF761FF002911D00020EE
:10D27000B5422FD000280ED02CE00120CBE701F0E2
:10D280008FFE01463846FDF751FF154948610320DE
:10D2900021E00120ECE7ADB2B7B201F081FE01461A
:10D2A0003846FDF743FF064601F07AFE0146284660
:10D2B000FDF73CFF864201D1781B09E001F070FECA
:10D2C000064601F06DFE01462846FDF72FFF701A55
:10D2D00080082061022002F0CFF9F8BDA8270020C5
:10D2E0005021002010B50748142201785143081836
:10D2F0000079042802D000F059F810BD012002F096
:10D30000BBF910BDA827002010B50B4814220178E6
:10D3100051430818094AC18811620079012806D0D2
:10D32000032801D0042801D1FFF75AFF10BD0120C6
:10D3300002F0A2F910BD0000A82700205021002013
:10D3400014225043054A002180180171C180012236
:10D350000161C2604161018170470000A82700207F
:10D36000F8B5104C069E65780A2D19D027787D19DE
:10D370000A2D00D30A3D14277D432D1928716A61B7
:10D3800003C92961E860EB802E816078401C6070E1
:10D3900005480078002801D1FFF7B6FF0020F8BD4E
:10D3A0000420F8BDA82700205021002010B50D4C06
:10D3B00014212078484301190020091DFEF70EFEB4
:10D3C0002078FFF7BDFF6078401E60702078401C19
:10D3D000C0B220700A2801D100202070002002F085
:10D3E0004BF910BDA8270020F8B52348C1680029D3
:10D3F0003ED00E6821494C680769C078E11B0D02D8
:10D400002D0AED1C002814D101201D4A0004506093
:10D410001B4A403A50601B49400008601A490860A6
:10D420001A49012008602F20FDF754FE12490120FF
:10D43000C870B54200D23546E81900020F4B000A09
:10D44000403318600D4A5168001B091B0902090A84
:10D450000002000AC91C814209D9506818602F20B7
:10D46000FDF738FE01200749400480390860F8BD07
:10D4700001F032FFF8BD00008821002000150140B6
:10D480004013014080E200E000E100E000100140B4
:10D49000F8B50646108814468446801D0D4698420D
:10D4A00001D90C20F8BD32880720062AFAD31927A3
:10D4B000FF01184BBA4201D99A42F3D1718806296B
:10D4C000F0D3B94201D99942ECD19A4203D09942A2
:10D4D00001D08A42E6D805216046295420881221CD
:10D4E000401C80B2208029542088401C80B22080BB
:10D4F0004119308802F0CCFC2188401880B220808D
:10D500004119708802F0C4FC218840182080002056
:10D51000F8BD0000FFFF000010B5FF2102A231316D
:10D52000FEF716FD10BD00002E2E5C2E2E5C2E2E5A
:10D530005C6D61696E2E6300F8B5164800F080FFDF
:10D54000144D00260C3D144C002807D061690029B9
:10D550001CD001206A461070684616E02878002822
:10D5600005D06169002911D0684606700DE0687821
:10D5700000280DD0A168094800220068FEF7B2FD1E
:10D58000002803D0A169002900D088472E70F8BD7B
:10D590006168F0E7E420002000260020BC000200C3
:10D5A00070B5094B04469E7A082000250E4207D02C
:10D5B0000648844202D01889A04202D1002015609A
:10D5C00070BD052070BD000014270020FFFF000083
:10D5D0000C214843064910B5012240188272911E61
:10D5E0000181FF21C1720721FDF7E3FD10BD00009D
:10D5F0001427002010B5134C207900071FD4606950
:10D60000401C6061E068002801D0042004E000F0C4
:10D6100049FF002803D0022002F006FA10BD20695D
:10D62000002809D06068C10701D00320F4E7012178
:10D63000084360600020EFE7FFF754FE10BD02F0E2
:10D64000E7F910BD5021002010B5084841680A07CD
:10D6500008D48A0702D5012211434160022002F05A
:10D66000E3F910BD02F0D4F910BD000050210020F4
:10D67000F8B500260124154D23E06968F00047182D
:10D68000387821462A698140114218D08A432A619C
:10D6900001F070FA3A782146EB6891401940034650
:10D6A000934099420BD17978012901D0012100E002
:10D6B00000217B684140002B01D010469847761C22
:10D6C000F6B228788642D8D3F8BD00007421002035
:10D6D000FEB50E46044681786A46234801F0D2FB27
:10D6E000002827D160780C21204F4843C019807A48
:10D6F000400620D4022E1ED0012E1ED01C4DA07834
:10D700001C21484319490023F83941181C22684656
:10D71000A847002813D0022E0CD020780C214843B3
:10D7200012490C314018807A124980000A5821466B
:10D7300068469047FEBD104DE1E7104DDFE7022E31
:10D74000F8D060780C214843C019817ABF2211407B
:10D75000817260781C2148430449343941181C23E4
:10D760001A466846A847D8E7FC2000201427002066
:10D7700095F90100D000020039F201005DF10100CD
:10D7800070B50546114A124800241C2363431B1838
:10D790009B7EFF2B04D0641C072CF6D3104670BD73
:10D7A0000A78022A09D01C2262431018FD228276D0
:10D7B00007221030FDF7E4FC04E01C216143081847
:10D7C000FE2181762C700022E8E7000043800000F3
:10D7D0001C260020F7B505250F4F06460024002E15
:10D7E0000AD01C206043C019072231461030FDF7D3
:10D7F000F2FC002807D00AE01C206043C019018B0E
:10D800000298814203D101980025046002E0641C63
:10D81000072CE4D32846FEBD1C2600207CB5054617
:10D8200081B26A46074801F02DFB040008D154215B
:10D83000684601F051FB040002D1284601F09AFA33
:10D8400020467CBDFC20002010B5100004D029210A
:10D8500002A20901FEF77CFB002010BD2E2E5C2EDB
:10D860002E5C2E2E5C6D61696E2E63001FB56946BD
:10D87000087301F09BFB002803D0184A1849FEF7F3
:10D8800067FB03A800F02AFA002804D01449134AC1
:10D89000C91CFEF75DFB01A805210130FDF789FCDD
:10D8A00069464979012001438122114030314A06FD
:10D8B000520E69464A7107228A711022CA710949BB
:10D8C000009169460871084800F022FB002804D046
:10D8D0000349024A1331FEF73BFB1FBD80E80100FC
:10D8E000A202000049D8010081200020F0B591B0CB
:10D8F0000546FF24002007940290EA48007800289B
:10D900004BD0E94F3868002847D001A800F0D8F97B
:10D91000002803D0E54AE649FEF71AFB281D0590CA
:10D920002C2069460883FF20002688710E7103961B
:10D93000DD4C28880C3C10280ED0A88803AA0221B0
:10D94000FFF72EFE002807D103980C214143091947
:10D95000CA7A69468A7148712A881320192A7DD0AB
:10D960000FDC102A1BD0112A55D0132A77D0142A85
:10D9700013D103980C2148430019C07AFF286FD0B7
:10D98000A1E0CC491A2A6CD01E2A65D0522A04D1B3
:10D99000B87A8000095801A8884711B0F0BDC64F79
:10D9A00003AA01213846FFF7FBFD0028F5D10399B2
:10D9B0000C20484302220019827211236A46137414
:10D9C0005171A98801812946083107220091FDF78C
:10D9D000D7FBE87DC10707D04108B2480830405C5A
:10D9E000FF2808D0079006E03A4607A90098FFF7FD
:10D9F000F1FE002837D103990C22514309190798E9
:10DA0000C8728A7A08231A438A726946887101A803
:10DA1000FFF772F827E003980C2148430119887A30
:10DA2000FD2210408872010706D5C0090DD00021E3
:10DA300001A8FFF74DFE08E068468079FF2804D072
:10DA400001F098F9FF206946887103980C22504331
:10DA50001021001981721220694603E08BE043E037
:10DA600014E0E4E00874324604A901A8FEF7B0FA15
:10DA70006846007C122890D103980C214143091973
:10DA8000897A012989D0FFF7A3FD86E72A8A07A9A9
:10DA90000020FFF79FFE00280ED103990C2251436E
:10DAA00009190798C8728A7A08231A438A72694644
:10DAB000887101A8FFF720F803980C21484300194A
:10DAC000C07AFF2806D003981C2148437649403984
:10DAD0004018029003981C21484378494218A888AE
:10DAE0000023029986DF58E76946087403980C21E1
:10DAF00048430119887A042210438872CA7AFF2A9F
:10DB00000BD0402210438872162069460874002307
:10DB1000A8881A4685217FDF21E007A8FFF730FE9D
:10DB200000281FD0064600200D9003990C224A437E
:10DB30001219D27A1C235A43604B0F90D2180E92BE
:10DB40001C2251431A46C4328918109009910A9038
:10DB50000B900C903A1DA88809AB00217FDF0028AC
:10DB600093D180E769460798887103990C22514345
:10DB70000919C872D7E7787A0C21400840007872FA
:10DB800003986F4602464843011984468B7AFB206E
:10DB900003408B7214203874287A002806D0580667
:10DBA000DFD4C87AFFF73AFE2E7A5CE7687A40073E
:10DBB000D7D5B879FF28D4D008273B438B726B7B2D
:10DBC0009B0708D51C2503466B433C4D5B199D7E86
:10DBD0006D086D009D76CB7AFF2BC2D06346E35C67
:10DBE000022B10D01C225043344D07224019103014
:10DBF000FDF7C6FA684680791C2148434019817EAA
:10DC0000FD2211400DE01C214A432749403951189B
:10DC10004A8A1C214843294940180283817E4908C9
:10DC200049008176012101A8FFF752FD1BE7287A00
:10DC30000209012A23D10007000F01281FD10398F0
:10DC40000C2242431219927A120718D51821484320
:10DC50001549243940180E210830FDF7AAFA16207C
:10DC60006946087403980C2148430119887A602298
:10DC700010438872787A0221084378720FE0039883
:10DC80000C2250430019827A80231A438272152095
:10DC90006A461074B87A8000095801A8884700269F
:10DCA000E1E60000EC2000202027002040010200D7
:10DCB000F1090000F0000200FFFF00001C26002018
:10DCC000002806D0FF21017041708170C1700020D2
:10DCD00070470148704700000E800000F0B585B025
:10DCE000040036D029480025056045728572284613
:10DCF000FFF76EFC254818212438FDF75AFA002654
:10DD0000FF27304601F036F821488755761C072E4C
:10DD1000F7D35421684681800721C1801D481C49E2
:10DD200000900831684601F0BBF900280FD1184E69
:10DD30000120083E3070207800280CD06946888881
:10DD4000C988484381B23046103001F0C5F805B0AB
:10DD5000F0BD1148FBE7114F00240D48A1B202AA03
:10DD6000083001F08FF8002809D11C206043C01949
:10DD700000231C2202A901F03FF9002801D03570D0
:10DD8000E5E7641C072CE8D3E1E70000202700202A
:10DD9000F4200020A1DD01000E8000001C260020E0
:10DDA000FFB5564891B000681A9F1E4600286CD0F7
:10DDB000542F6AD86846FFF783FF002803D0504AE3
:10DDC0005049FEF7C5F800246846047004712546E2
:10DDD00005970696A9B20FAA4B4801F053F8002800
:10DDE00006D108220FA91198FDF7F5F9002819D0DE
:10DDF0006D1C072DEED3684680780790FF2844D02D
:10DE000012982025032810D040481C21301AFDF715
:10DE10008DF90127072825D204A80290139800281D
:10DE200012D019E068468570E5E7542F03D04020F2
:10DE30006946087101E0684605716846017903206A
:10DE40000143684601714FE00799384688402E49E2
:10DE500010394968084218D0079802F01FF8684640
:10DE6000057138E025481C214038301AFDF75EF96D
:10DE700000280CD0214D1821243D701BFDF756F9C8
:10DE800000281AD040206946087115B0F0BD04A8DA
:10DE9000029068460571447018480B940C300C9041
:10DEA0004C380790684680781C21484317490595EF
:10DEB0004018089007A806900DE0302168460171CF
:10DEC0004470C7700D480C38807A800703D4284608
:10DED0001821FDF76EF912986946022808790BD0CF
:10DEE000022108436946087104A8029001A9684606
:10DEF000139AFEF76DF8C8E73843F4E720270020AF
:10DF000040010200A1050000FC2000201C2600208A
:10DF100070B5064618480D46007800280ED01749FF
:10DF2000002E0ED0002D0CD02868002809D0144CEB
:10DF30002168002907D011480A3870BD0F48801F9A
:10DF400070BD084670BD20600522691D201DFDF7CB
:10DF500017F92879A072207A02214008400008436E
:10DF6000FB2210402072E07901231843084310403F
:10DF7000E0710020307070BDEC2000200E800000A9
:10DF80002027002010B50E4900234A788C78A24241
:10DF900012D0521CD2B24A70022A00D14B704A7879
:10DFA000074B920018339A58026008691018000253
:10DFB000000A0861012010BD0360002010BD0000B0
:10DFC0008821002070B50222044602700120607092
:10DFD0000620A0701A20E070FF2020710C4D152043
:10DFE000A98A6171090AA171E27120722046093083
:10DFF00010222946FDF7C4F8298A6176090AA1761C
:10E00000698AE176090A2177A87D60771E2070BDB4
:10E010003424002010B5002803D0112802D0FDF7C9
:10E02000F3FF10BD0248082241681143416010BD52
:10E030005021002010B51C4C217820464068012951
:10E0400006D0022929D0032912D1000717D513E0E1
:10E05000000711D415481422017851430818C188CB
:10E06000A28B891A0904090CC18002D001F094FC2A
:10E0700010BDFFF79BF910BD00F014FC10BD6069E6
:10E08000401C606100F00EFA002803D0207801F0F7
:10E09000F3FA10BDFFF726F910BD6078044980003F
:10E0A0000858804710BD000050210020A8270020FC
:10E0B0001401020010B528DFFFF7ACFF10BD10B54A
:10E0C00029DFFFF7A7FF10BD002804D00349496DE1
:10E0D000016000207047032070470000C028002026
:10E0E0000EB5112069460872042213A102A87CDF34
:10E0F000002803D0124AB921FDF72AFF002078DF5B
:10E10000002803D00E4ABC21FDF722FF002000901A
:10E110001022694601900A803C224A808880FF20B4
:10E120009130C88068467ADF002803D0044AC621AF
:10E13000FDF70EFF0EBD00004B5F555800000000BC
:10E1400080E80100002070470020704700207047E1
:10E15000F8B506464078182104464C4324490C2261
:10E1600050436118224A00254B6818328018AE4689
:10E170002F469C46002B0CD0827A1346D20908D039
:10E180005A0606D40D461A4A614689B2175908350F
:10E190008E46174C008918343B4672462946A9DF43
:10E1A0000B2819D0002800D01248012F13D1707805
:10E1B0000C214843001900890F4AA7DF00280AD024
:10E1C0000E49884212D0082810D0891C88420DD0F0
:10E1D00011280BD00020F8BD70780C214843012392
:10E1E0000019008972462946A9DFE0E70148F8BD19
:10E1F000FC26002041800000FFFF000002300000EC
:10E2000070B50C46014660781822084D50434019FD
:10E21000382300F0F1FE002807D16178182251431D
:10E2200049194A68521C00D14A6070BDFC26002082
:10E23000F3B585B00D460E206946088268780C213A
:10E2400003274843224E3B468019008904AA6946A9
:10E25000AADF002838D1687818214843741A0019B9
:10E2600069460A8A0830FCF7B6FF0028687807D0AC
:10E27000182148430119496800290DD0154E0CE0BA
:10E280000C2141438919897A89071DD418214843F3
:10E290000019FCF78EFF17E00F4E27506846028AE0
:10E2A000687818214843001942606878484300198B
:10E2B00069460830FCF764FF687818214843011963
:10E2C000382318220598B047002007B0F0BD0000A1
:10E2D0001427002039F201005DF1010010B5FFF7AD
:10E2E00037FF10BD10B5FFF78BFF10BD10B5FFF75E
:10E2F0009FFF10BDF8B50746104E0125BD403068A0
:10E30000FDF72EFF00280DD10D4C2069284207D1C2
:10E31000384600F02FFC0028E06804D0284303E0D2
:10E32000A8432061F8BDA843E0602069002228438B
:10E330002061A1683068FDF7D5FEF8BD2801020014
:10E340007421002070B51B4C207900072ED41A4888
:10E350001422017851430D182E6900F021FE014668
:10E36000E8882A89761E80188019FCF7DFFE21696B
:10E370000025002909D06169814206D1E560606805
:10E3800001210843606000200AE000F08BF80028BB
:10E3900002D00220E56003E02069002803D00320BA
:10E3A00001F042FB70BDFEF79DFF70BD01F030FB38
:10E3B00070BD000050210020A8270020F8B51E4C99
:10E3C0002078002837D02069002807D00026E06890
:10E3D000002805D00025002E04D013E00126F6E722
:10E3E0000125F8E7684652DF052806D0002806D048
:10E3F000124A9321FDF7ACFD04E0012602E02169F9
:10E4000000988847002D12D1608869460880A0686E
:10E4100061DF052806D0002806D0084AB221FDF7A2
:10E4200097FD04E0012502E0E168A0688847002E1E
:10E43000D8D0002DCFD0F8BDAC2100208C01020037
:10E44000418805480288914204D34088814201D81E
:10E450000120704700207047DC2000201048018C0C
:10E46000C9B2012917D1818C090714D1018D090680
:10E470000A0F03D1828D1206120F0ED0090F012947
:10E4800003D1828D1206120F07D0032903D1808D8C
:10E490000006000F01D000207047012070470000E7
:10E4A000C00F00F070B50E481422017851430C18CB
:10E4B000256900F075FD0146E08822896D1E8018EF
:10E4C0004019FCF733FE07494A69824206D382426B
:10E4D00002D10869002801D0002070BD012070BD64
:10E4E000A827002050210020800701D0002070477D
:10E4F0000120704730B51588EC1C9C4201D90C20D6
:10E5000030BD02244C5513881C255B1C9BB2138024
:10E51000CD5413885B1C9BB21380012807D00228BE
:10E5200007D0032807D0042807D0072030BD0020DB
:10E5300004E0012002E0CC5401E00320C85410881C
:10E54000401C1080002030BD10B50448017AC90776
:10E5500002D00078FEF77AFC10BD00009820002061
:10E56000F8B52C49C8680A690C780F79896886461D
:10E57000944600913EE00099E20055182A7836E072
:10E58000182353436968521CC918AB78D2B293421E
:10E5900000D100220B78022B02D0032B27D123E0DD
:10E5A0004E680346014603E0B14204D00B46C969F8
:10E5B00000291CD0F8E7002919D08B4208D1C06986
:10E5C000002805D1144F0126BE600026B44601275D
:10E5D0000E68C969D961002909D00B689B190B60C5
:10E5E00005E00174C06900E000210028F9D16978D4
:10E5F0009142C5D12146641EE4B20029BBD1054930
:10E6000062460A61C8600F71704501D00120F8BDF3
:10E610000020F8BD8821002000100140F8B5044614
:10E6200031480026C168009107784EE02E48F90075
:10E6300080680D1843E0002C02D02046E4691FE0FA
:10E640002878182141436A68401CC0B251182870CC
:10E65000AA78904200D12E700A784868012A30D1F9
:10E66000027C002A2DD18A684260CA6882600A69E9
:10E67000C260496981611C490979002900D046605E
:10E68000194943680A699C46991A0902174B090AF5
:10E69000994202D28268891807E06146511A09023C
:10E6A0008268090A8A4202D9511A016000E00660B4
:10E6B0004660012186600174C66101F06FFA002C8A
:10E6C000B9D1287869788842BAD138467F1EFFB21E
:10E6D0000028ABD10448C1680098814201D00120D4
:10E6E000F8BD0020F8BD000088210020FFFF7F005A
:10E6F00038B50E4C2078002801D0002038BD012507
:10E70000AB020B4A0BA100200095FCF7ADFE0028E0
:10E7100007D11023094A0AA10090FCF77FFE0028C8
:10E7200001D0082038BD2570E7E70000A8210020AF
:10E73000232900204E6F726D616C0000232D002094
:10E74000496E7075740000000FB408B504A90091FB
:10E750006A460399FCF706FF01B008BC04B01847ED
:10E76000002388B03B4A05211846FDF773FC0028BA
:10E7700004D0BF2138A28900FDF7EAFB0F203A49F7
:10E7800003250024086039A12046FCF7D3FE3A4A4D
:10E790003A490320FEF70AFB002803D038A23C497F
:10E7A000FDF7D6FB01A90020FEF7CAF9002804D026
:10E7B000B92133A28900FDF7CBFB68460079022816
:10E7C00045D0002168460170FEF73CF9FDF7F2FCE8
:10E7D00068460078FFF74AF8FFF782FC00F0ECFE8D
:10E7E000FDF7BCFA1C216846FCF7E3FC0520C003DA
:10E7F00001900F2000040290009468460573C481C4
:10E80000047424480590244806906846FDF756FF96
:10E81000002804D0FF211AA24831FDF799FB0320FC
:10E82000FDF756FE002804D0C3210BA28900FDF796
:10E830008FFB1AA10020FCF77DFE154C0E3448DF3B
:10E840000028FCD00EA22146FDF782FBF7E701214C
:10E85000B8E70000282200202E2E5C2E2E5C2E2EE3
:10E860005C6D61696E2E63001C07005048656C6C1E
:10E870006F21210A00000000EDCC0100CD0C00004A
:10E880002E2E5C2E2E5C2E2E5C6D61696E2E63002A
:10E89000E102000029ED010019D50100456E642157
:10E8A000210A000010B504480822416891434160E4
:10E8B000007800F0E1FE10BD5021002070B5144634
:10E8C00082880E4605462088111D4118921C9942E7
:10E8D00001D8FE2A01D90C2070BD521C3254208868
:10E8E000FF21401C80B2208031542088401C80B21F
:10E8F00020808119288801F0CBFA2188401880B245
:10E900002080AA88002A09D0A968002908D0801987
:10E91000FCF736FC2088A98840182080002070BDB4
:10E92000072070BDF8B50F46017814460546012949
:10E9300002D16878002806D02088821C9A422DD8FF
:10E94000012902D006E00720F8BD69784118891C2A
:10E95000994223D8181A801E86B2684606802188FC
:10E96000B81C081869467DDF0028EDD128780228F8
:10E9700005D169460988B14201D809210AE0082178
:10E98000012805D16878B04202D86A46108001E0BB
:10E990006846068068460088FE2801D90C20F8BD2C
:10E9A0002288401CB8542088401C80B220803954F2
:10E9B00020886946401C208009884018208000205B
:10E9C000F8BD00207047002070470020704700000D
:10E9D0008207D30EFF229A408907090E10B599408D
:10E9E00000280BDA03071B0F083B9C080C4BA40004
:10E9F000E318DC6994430C43DC6107E08408094BAD
:10EA0000A400E418236893430B432360C106C90E96
:10EA100001208840044908600449086010BD0000D6
:10EA200000ED00E000E400E080E200E000E100E052
:10EA3000F3B581B00F46019800F0B8F90124002821
:10EA40001E4E019817D0FEF753FB80192030007F2F
:10EA50008009032802D0012806D007E01848006981
:10EA600001998C40204201D1022100E0032101984C
:10EA700000F0CEF8FEBD00F0A5F90028FAD001980C
:10EA8000FEF736FB05468100C81D0E4AF93089188D
:10EA90000A6980B222430A610B49401800210160D3
:10EAA000002FE7D00198FEF723FB800030580028A4
:10EAB000E0D00648AC404460FEBD00004427002082
:10EAC0000005005000650040006000400063004009
:10EAD000FEB5044623480E46001920214156002762
:10EAE000C8171346401C01D0082738E0F2781946B1
:10EAF0002046FEF7D9FA0546401C2FD0B0780028F2
:10EB000007D01948A100091808680222904308603C
:10EB100007E000217378204600910A46019100F039
:10EB200065F8F078002810D01048AA001018317845
:10EB300002690F4B1A400261E206D20C8907890B69
:10EB40000A4301690A43026109E006483278401924
:10EB50002030017F92011143017700E004273846FD
:10EB6000FEBD000044270020000700500065004063
:10EB7000FFE0FCFF03490969C140C807C00F00D08E
:10EB8000012070470005005070B5124D287900280B
:10EB900001D0082070BD0F4900204039421E0B18DB
:10EBA0002033401CC0B21A702028F8D3002420461D
:10EBB000FEF76CFA641CE4B2082CF8D3032106209B
:10EBC000FFF706FF01200449C007486001202871B3
:10EBD000002070BD842700200063004002480079B7
:10EBE000002800D0012070478427002030B5520053
:10EBF0000A439900039C0A432102049D0A43290405
:10EC00000A43024980004018026030BD00070050EE
:10EC1000820006481018026803231B049A4302600E
:10EC2000026809040A4302607047000000070050B0
:10EC3000034940180068012800D0002070470000F8
:10EC4000006000404058002800D001207047032297
:10EC5000120280184068084000D001207047000070
:10EC6000134610B50A4602A10020FCF76FFC10BD48
:10EC70006E757320646174613D25782C206C656E1F
:10EC80003D25780010B500280CD0032809D10220BA
:10EC9000FEF77EF8002804D0FF2104A26D31FDF7B5
:10ECA00057F910BD00F0C2FC10BD00002E2E5C2EE6
:10ECB0002E5C2E2E5C6D61696E2E630070B504466D
:10ECC0000088174D10281CD0112819D10020FEF7FC
:10ECD0005FF8002804D0FF21124A8D31FDF738F982
:10ECE000A0886880FDF7CEF8FDF738F80320FDF71F
:10ECF000EFFB002804D0FF210A4A9831FDF728F9DC
:10ED000070BD0720FEF744F8002804D0FF21054A13
:10ED10008431FDF71DF9A0886880FDF795F870BD76
:10ED20008020002080E8010010B5007800280AD17A
:10ED300005483B21408876DF002804D0FF2103A24C
:10ED40002631FDF705F910BD802000202E2E5C2E07
:10ED50002E5C2E2E5C6D61696E2E63000021425C7C
:10ED6000002A01D001207047491C0629F7D3002052
:10ED70007047000070B505461C200B4968434418D5
:10ED8000204611300621FCF714FA20461021FCF72A
:10ED900010FAFF2121740020A176C0432083284669
:10EDA00001F07CF870BD00001C2600200449081802
:10EDB00020214156042901DB0120704700207047C3
:10EDC000442700200449081820214156042901D273
:10EDD00001207047002070474427002070B50D00C7
:10EDE000044604D10DA24B210020FDF7B1F8002C00
:10EDF00004D10AA24C210020FDF7AAF8287820703F
:10EE000069886170090AA170A988E170090A2171F5
:10EE1000E8886071000AA07170BD00002E2E5C2E83
:10EE20002E5C2E2E5C2E2E5C2E2E5C2E2E5C636FA6
:10EE30006D706F6E656E74735C626C655C626C6540
:10EE40005F73657276696365735C626C655F646944
:10EE5000735C626C655F6469732E630007490979AE
:10EE6000490701D408207047002804D00449497894
:10EE70000160002070470E207047000050210020E4
:10EE8000A827002030B5124B1B795B0701D408205E
:10EE900030BD002805D0002A03D00468002C10D112
:10EEA00001E00E2030BD0B4B1D68002D09D04568D8
:10EEB0001889414369185D89454358682818884274
:10EEC00001D8072030BD14600020516030BD000023
:10EED0005021002074280020FEB5054625480E4626
:10EEE0000079400701D40820FEBD002D03D028681A
:10EEF000002834D101E00E20FEBD1F4C21680029FE
:10EF00002DD0608921894843616841186868814231
:10EF100025D9FFF7E9FA00280FD068680190296821
:10EF20000C2251430F1979680091401A39890C4617
:10EF3000FCF7FCF8002912D101E01020FEBD2146AB
:10EF40003046FCF7F3F8002909D1002E07D0788964
:10EF500044430198811900980019814201D9072082
:10EF6000FEBD002002460090334629460320FEF7EE
:10EF7000F7F9FEBD502100207428002010B5074885
:10EF80004469601C06D000F00BF801462046FCF7EF
:10EF9000CDF810BD01200007406910BD0010001021
:10EFA00001200007006980B27047000070B500249E
:10EFB0000F482546047044702846FEF7C1F96D1CC1
:10EFC0000A2DF9D30B4D6C80FFF7D8FF861EFFF793
:10EFD000E7FF46430648AE60CC306C6104600481B4
:10EFE00044812C70AC610420EC616860002070BD2D
:10EFF000A827002050210020FFB5274881B00079C4
:10F000001F4616460D46400702D4082005B0F0BD45
:10F01000002D06D00198002803D02868002815D1BB
:10F0200001E00E20F2E71D4C206800280ED0618917
:10F0300020896268414389186A68914206D9002E86
:10F0400004D0B04202D3F119814201D90720DDE793
:10F050000198FFF749FA00281BD03846FFF744FA19
:10F06000002816D06868FFF73FFA002811D06868BA
:10F070003246C1190198FCF783F8009628680C21E4
:10F0800048432458002202212846019BA047002023
:10F09000BCE71020BAE700005021002074280020AF
:10F0A000F8B52C4D044628790E46400701D40820B7
:10F0B000F8BD002C20D0002E1ED0206800281BD0C8
:10F0C000FFF76EFF0146A088814213D3102811D3A9
:10F0D000E08800280ED0FFF751FF471EFFF760FFC2
:10F0E0004743E288A188A8684A431218974201D38F
:10F0F000890703D00720F8BD0E20F8BD69880129D3
:10F1000026D031600C22144B51437060CA185060F5
:10F1100020685850A0881081E0885081FFF740FF98
:10F120000646FFF73DFFA188E288401E5143401884
:10F130003146FCF711F80446FFF732FF0146A86894
:10F1400061430818A8606888401C68800020F8BDEA
:10F150000420F8BD5021002074280020F8B5044692
:10F1600020481E46007915460F46400701D4082066
:10F17000F8BD002F05D0002C03D02068002815D141
:10F1800001E00E20F8BD1848016800290ED0428920
:10F19000018940684A4310186268904206D9002DE0
:10F1A00004D0A94202D3A819884201D90720F8BD8A
:10F1B0003846FFF799F9002811D03046FFF794F947
:10F1C00000280CD06068FFF78FF9002807D02B4685
:10F1D0003A46214601200096FEF7C2F8F8BD1020FD
:10F1E000F8BD0000502100207428002010B51149FE
:10F1F00002460878002811D004280FD0022A16D021
:10F20000032A0BD10A79120711D48A69521C8A6128
:10F21000032A08D0022802D000F02EFA10BD487848
:10F2200000F002FC10BD0D20FCF7EEFE10BDFEF755
:10F2300001FF10BD50210020F8B5044620481E46AD
:10F24000007915460F46400701D40820F8BD002F6D
:10F2500005D0002C03D02068002815D101E00E2035
:10F26000F8BD1848016800290ED04289018940681C
:10F270004A4310186268904206D9002D04D0A94272
:10F2800002D3A819884201D90720F8BD3846FFF7F4
:10F290002BF9002811D03046FFF726F900280CD0B2
:10F2A0006068FFF721F9002807D02B463A4621462F
:10F2B00004200096FEF754F8F8BD1020F8BD0000B9
:10F2C0005021002074280020012252075110886B21
:10F2D000496B41438818704770B501240B4960049D
:10F2E00008600B4940108860094940398860094D21
:10F2F0006C602F20FBF7EEFEAC60074D00242F2042
:10F300002C61FBF7E7FEEC7070BD000080E100E0CF
:10F3100040130140001001408821002030B50A4808
:10F32000FF21C57D0022094C0931094B002D625097
:10F3300007D09969437EC268D154417E491C417609
:10F3400030BD986930BD00008C27002000200040AF
:10F350000025004070B500240546601C90B00007F1
:10F36000000F08A9103008940870601C0007000FF7
:10F37000103048708878F9263040801C88701C2135
:10F3800001A8FBF716FF6946087910210843694672
:10F390000871029408A804940594079406902878AC
:10F3A00008A9887103206946888411200094087098
:10F3B00048708878F7213040801C0840EF210840D1
:10F3C000012630436946887014210AA8FBF7F1FE34
:10F3D00009A80A9068460B9069460E8614204C8650
:10F3E00088862B4668880C330AAA01A9A2DF10B0D0
:10F3F00070BD00001FB501236A46137010720348E8
:10F40000019106C8684690471FBD00008C27002068
:10F4100038B5044609480090A0420DD0FFF754FFCC
:10F420000546234606A10020009AFFF78DF92A1B06
:10F4300010A10020FFF788F9002038BD80200020AF
:10F4400052414D20535441525420414444522030A3
:10F450007825782073686F756C642062652061641C
:10F460006A757374656420746F20307825780D0A8E
:10F470000000000052414D2053495A452073686FE7
:10F48000756C642062652061646A757374656420BC
:10F49000746F2030782578200D0A000010B5012106
:10F4A000202805DA1A4A8140114201D1194810BDBD
:10F4B0008107C90E002808DA0207120F083A9208DD
:10F4C000154B9200D218D26904E08208134B9200C7
:10F4D000D2181268CA401106890F042911D20029D6
:10F4E0000FD002290DD00E494C68C306DB0E012255
:10F4F0009A40002C08D0400980000B5813430B5051
:10F5000004E00448401C10BD06480260002010BD05
:10F51000FC06FFBC0120000000ED00E000E400E07C
:10F52000C021002000E100E0FFB50746806A81B0FD
:10F53000144600283DD0002538462030009033E0A6
:10F540000C20B96A68430E18B088801CFE2802D9C6
:10F550000C2005B0F0BD22880299401C88542088F8
:10F560001622401C80B2208002990A542088401C38
:10F5700080B2208002994118308800F089FC2188EF
:10F58000401880B22080B288002A0AD0B1680029D1
:10F590000FD0029BC018FBF7F3FD2088B1884018FC
:10F5A00020806D1C0098EDB2007BA842C8D80020D6
:10F5B000CFE70720CDE7000000B591B014481090C8
:10F5C00010A91448FDF7D4F9002804D0FF21124AED
:10F5D0000431FCF7BDFC40216846FBF7EAFD0FA1B2
:10F5E0006846FDF725FA0120014608A81031017789
:10F5F0000020014608A841776846FDF701F9002878
:10F6000004D0FF21044A0F31FCF7A2FC11B000BD69
:10F6100061EC01001824002080E801004B61726D4C
:10F62000614D6F62696C69747900000010B500204B
:10F63000FDF7AEFB002804D0FF210BA25331FCF7ED
:10F6400087FCFDF7E3FA002804D0FF2106A257311A
:10F65000FCF77EFC3CDF002804D0FF2102A25B31D6
:10F66000FCF776FC10BD00002E2E5C2E2E5C2E2E9C
:10F670005C6D61696E2E630010B50F49002808703B
:10F6800009D0012811D0022812D0032802D14869DC
:10F69000FEF710FD10BD00208861C8610748407862
:10F6A0000028F7D0FDF730FE10BD00F075F910BD51
:10F6B00000F0D4F810BD000050210020A827002041
:10F6C000002803D00249C860002070470E20704710
:10F6D000AC2100207CB504461448019002460090FD
:10F6E00013A10020FFF730F86946204660DF04468A
:10F6F0000199009888420ED0FFF7E6FD054615A156
:10F700000020009AFFF720F8009821A12A1A002073
:10F71000FFF71AF807E0002C05D0224626A10020AA
:10F72000FFF712F8FEE720467CBD00008020002095
:10F7300073645F626C655F656E61626C653A2052EE
:10F74000414D205354415254206174203078257823
:10F750000D0A000073645F626C655F656E61626CC8
:10F76000653A206170705F72616D5F6261736520E0
:10F7700073686F756C642062652061646A75737468
:10F78000656420746F20307825780D0A0000000031
:10F7900072616D2073697A652073686F756C64207F
:10F7A00062652061646A757374656420746F2030CB
:10F7B000782578200D0A000073645F626C655F65D0
:10F7C0006E61626C653A206572726F7220307825C6
:10F7D000780D0A0070B50E460546144614211046F1
:10F7E000FBF7E7FC012000212080216121732672B4
:10F7F0006572002D00D0A072002070BD10B5FCF71E
:10F8000099FB10BDFFB581B01D4616460C46FEF7AC
:10F810006FFF002C01D0A00702D0072005B0F0BD7B
:10F820002046074C0127A060668065600549019865
:10F8300010DF0028F2D127701620FFF72FFEEDE72A
:10F84000AC210020FDF70100002803D00249086127
:10F85000002070470E207047AC210020F8B5164CF0
:10F8600014226068400840006060144801785143E9
:10F870000E183769FFF794FB01463846FBF756FC34
:10F8800005466061FFF78CFB0146F0887F1EC019BA
:10F89000FBF74CFC02228542606801D1104300E076
:10F8A00090436060E1681040084303D0002000F0FE
:10F8B000BBF8F8BD0220FAE750210020A82700205D
:10F8C00010B502484069FEF7F5FB10BD502100203D
:10F8D00010B5FFF753FB441EFFF762FB4443FFF7ED
:10F8E0005FFB04494A69521E5043CA682146FEF72D
:10F8F000E6FB10BD50210020F8B510481422017815
:10F9000051430C182569FFF74BFB0146E08822891B
:10F9100080184019FBF70AFC0F46FFF72FFB461E25
:10F92000FFF73EFB4643E0882289F1198018044A1C
:10F9300040191269FEF7C3FBF8BD0000A82700209C
:10F940005021002070B5FFF72BFB0546FFF716FB93
:10F95000441EFFF725FB60432946FBF7E7FBFEF754
:10F96000A9FB70BD70B5FFF71BFB8608FFF718FBFE
:10F970000749496948430446FFF700FB451EFFF766
:10F980000FFB684332462146FEF799FB70BD00002D
:10F99000502100200020704770B5144814220178CF
:10F9A00051430C18241DFFF7FBFA6188104E884262
:10F9B00011D2FFF7F5FA61880D1AFFF7F1FA820804
:10F9C000A188E0684018216940194919FEF777FBC2
:10F9D000FFF7E6FA07E0A288E06880188A08216944
:10F9E000FEF76DFB6088F06170BD0000A827002065
:10F9F0005021002010B505480079000703D40120EC
:10FA000000F012F810BD00F003F810BD50210020E6
:10FA100010B504480822416891434160407800F0E5
:10FA200003F810BD502100200249487002498000AF
:10FA300008580047502100200001020010B504467C
:10FA4000FFF7D4FB2046FCF7FDF92046FCF7F4FC59
:10FA500010BD000070B50C00054604D113A233217F
:10FA60000020FCF775FA002D04D110A234210020EB
:10FA7000FCF76EFA207828702088FF2109020840E0
:10FA8000000A6870206809020840000CA87020680D
:10FA9000000EE87020792871207A68712089000AA8
:10FAA000A871A068000CE87170BD00002E2E5C2EBD
:10FAB0002E5C2E2E5C2E2E5C2E2E5C2E2E5C636F0A
:10FAC0006D706F6E656E74735C626C655C626C65A4
:10FAD0005F73657276696365735C626C655F6469A8
:10FAE000735C626C655F6469732E630010B50548D2
:10FAF0000079000702D4FDF7F5FB10BDFFF788FF82
:10FB000010BD000050210020FEB51F4C00252769C4
:10FB1000E06802906846FEF735FA0190FEF720FD96
:10FB200006460198002822D000230098E16817E0DB
:10FB30000E680A46864202D9301A086012E0801B1D
:10FB4000F31800261660D668D169B446002E07D097
:10FB5000FE183602360A566066469660D56115462E
:10FB60000029E5D12846E160FEF758FD06E0284669
:10FB7000FEF754FD002801D1002E02D00298FDF7B7
:10FB800033FC00202071FEBD8821002001200249A5
:10FB9000000508607047000000E200E010B50E4B61
:10FBA000D968002906D002680C68A24204D8A21ABB
:10FBB0000A60C161D86010BD0B4604E00B46C969FC
:10FBC000121B002904D00C689442F7D3A41A0C60CD
:10FBD0000260C161D86110BD88210020F8B51E4DBA
:10FBE000EC68002C37D01D48002740682969401A6E
:10FBF0000602360A2068B0421BD8361AC7192246B8
:10FC0000107CE469002812D0002010746B69002B6E
:10FC10000AD0916950699847002808D0FF2110A2A6
:10FC20006631FCF795F902E0516990698847002C2C
:10FC3000E0D16978A878814206D1401CC0B2A87092
:10FC4000022801D10020A87003490006800D183158
:10FC50000F50FFF79BFFF8BD8821002000150140E1
:10FC60002E2E5C2E2E5C2E2E5C2E2E5C2E2E5C2ECE
:10FC70002E5C636F6D706F6E656E74735C6C696221
:10FC80007261726965735C74696D65725C617070D4
:10FC90005F74696D65722E6300000000FF210748E4
:10FCA0001D31002242500648828A8168895C828A1E
:10FCB000521C82820348C16170470000002000404E
:10FCC0008C2700200025004070B58EB005461C2111
:10FCD0006846FBF76EFA694608780C2108436946C6
:10FCE00008700024019403940494059406942878E1
:10FCF00008A98870022069460884601C0007000F6C
:10FD000010300794087711204877887FF921084040
:10FD1000F721801C0840EF21084001263043694646
:10FD20008877142109A8FBF744FA08A8099007A8C6
:10FD30000A9069468E851420CC85088668882B1D1C
:10FD400009AAA2DF0EB070BD1FB500216A4611706E
:10FD50001072044882680192817506C8684690470F
:10FD60001FBD00008C270020F0B5454D012185B056
:10FD700049022846FEF76BFF01270026414C002868
:10FD800024D0FF2125312846FEF75CFF00281DD036
:10FD9000FF2025302E5081203B4980008860A07EC6
:10FDA000002800D16F600221684601703749086859
:10FDB00008600390E17D68460172E0680190E67595
:10FDC000267606CC6846083C90472BE0042128465E
:10FDD000FEF73DFF002825D0FF2109312846FEF718
:10FDE00031FF00281ED0FFF799FAE07D617E88423E
:10FDF00018D1207E002808D0627EE168E075206975
:10FE0000E0602676667610460AE0A07E002800D1E3
:10FE10006F6081201C4980008860E675607EE16823
:10FE2000FFF7E8FAFF211D312846FEF70BFF0028F7
:10FE30000DD0A18AA07D814202D2FFF72FFF06E0FC
:10FE4000FF211D316E50002801D0FFF77DFFFF21FB
:10FE500045312846FEF7F6FE00280ED0FF2045303B
:10FE60002E50A07E002800D02F60E07D002804D016
:10FE7000E675607EE168FFF7BDFA05B0F0BD0000F1
:10FE8000002000408C2700200023004080240040F8
:10FE90000870000A4870022070470000012181406C
:10FEA000024842688A43426070470000EC2000200C
:10FEB00038B51549154A488890420FD04A78144CF5
:10FEC000521CD2B24A70237B934208D3091D75DFBE
:10FED000002803D0A169002900D0884738BD00253B
:10FEE0004D70217C002907D03B2176DF002803D00C
:10FEF000A169002900D0884761690029EED06846D1
:10FF00000570884738BD0000D8200020FFFF0000A2
:10FF100000260020EFF30580C005C00D1AD0103870
:10FF200040B2002808DA0107090F083989080C4A8D
:10FF300089008918C96904E081080A4A890089187A
:10FF400009688007C00EC1400806800F012803D051
:10FF5000032803D00220704700207047012070471B
:10FF600000ED00E000E400E042788378521CD2B259
:10FF7000934200D100220378934201D100207047C0
:10FF80000A70416840781822504308187047FFB53E
:10FF900083B016460C9D0D9C1F46022200950194CD
:10FFA000039800F00CF8002807D13B461022314698
:10FFB00000950194039800F002F807B0F0BDFFB57A
:10FFC00083B0074600200C9C8646268805463AE00A
:10FFD0007868A90042181188684681805188C180DC
:10FFE0000022694601A865DF002839D168460178FA
:10FFF0000598814226D17046002801D0002200E0F9
:020000040002F8
:1000000002222088891842180D998A4227D8714601
:1000100000290AD1401C80B22080069A049911540C
:100020002088401C208001208646218806980A18D6
:10003000694601A865DF002812D169462088097841
:10004000401820806D1C3888A842C1DC704600280A
:100050000AD02088801B401E80B2FF2802D90C20C5
:1000600007B0F0BD069988550020F9E7017900290D
:1000700002D1007B002800D001207047010000075A
:100080007024002090240020BC24002011000000D7
:100090001200000013000000140000001100030013
:1000A00021CC01001200030021CC01001300030049
:1000B00021CC01001400030021CC0100E025002028
:1000C0009ECADC240EE5A9E093F3A3B50000406EC0
:1000D000CBE9010031E201004DE10100EDE2010058
:1000E000C7E9010001E2010049E10100E5E2010088
:1000F000C3E9010051E1010045E10100DDE2010039
:1001000045F9010065F90100C1F80100F9F80100A5
:10011000D1F80100F5F9010049D60100F5D501003B
:10012000EDFA010045E301008028002003000000F3
:10013000303132333435363738394142434445461D
:100140002E2E5C2E2E5C2E2E5C2E2E5C2E2E5C2EE9
:100150002E5C636F6D706F6E656E74735C626C6540
:100160005C6465766963655F6D616E616765725C2D
:100170006465766963655F6D616E616765725F7006
:1001800065726970686572616C2E63002E2E5C2E3C
:100190002E5C2E2E5C2E2E5C2E2E5C2E2E5C636F23
:1001A0006D706F6E656E74735C736F667464657684
:1001B0006963655C636F6D6D6F6E5C736F667464AD
:1001C00065766963655F68616E646C65725C736FA8
:1001D00066746465766963655F68616E646C657298
:1001E0002E63000004020200802000204C01000069
:1001F00028B2010028020200CC210020F4170000E0
:10020000FCBA010031001729FFFF010002000112B2
:10021000233445566778899AABBCCDDEEFF003FFF7
:08022000FFFFA11424F400000B
:040000050001B0C185
:00000001FF
