:020000040001F9
:10C000007838002035C101004FC1010051C1010045
:10C010000000000000000000000000000000000020
:10C0200000000000000000000000000053C10100FB
:10C03000000000000000000055C1010057C10100D0
:10C0400059C1010059C10100A5C4010015C4010076
:10C0500059C1010000000000A9C2010059C101003E
:10C0600059C1010059C1010059C1010059C1010064
:10C0700059C1010059C1010059C1010059C1010054
:10C0800059C10100F5C3010059C1010059C10100A6
:10C0900025C4010059C101002DC4010059C101008E
:10C0A00059C1010059C1010000000000000000005A
:10C0B0000000000000000000000000000000000080
:10C0C0000348854600F0BCF80048004739E4010009
:10C0D00078380020401E00BF00BF00BF00BF00BF77
:10C0E00000BF00BF00BF00BF00BF00BF00BFF1D155
:10C0F00070470000401E00BF00BF00BF00BF00BF70
:10C1000000BF00BF00BF00BF00BF00BF00BFF1D134
:10C1100070470000401E00BF00BF00BF00BF00BF4F
:10C1200000BF00BF00BF00BF00BF00BF00BFF1D114
:10C13000704700000321094802680A43026008486A
:10C1400002680A4302600748804707480047FEE745
:10C15000FEE7FEE7FEE7FEE7FEE7000024050040FD
:10C160005405004051C40100C1C0010030B50B4668
:10C17000014600202022012409E00D46D5409D42C1
:10C1800005D31D469540491B254695404019154647
:10C19000521E002DF1DC30BD03460B439B0703D03C
:10C1A00009E008C9121F08C0042AFAD203E00B787C
:10C1B0000370401C491C521EF9D27047D2B201E0F4
:10C1C0000270401C491EFBD270470022F6E710B5F2
:10C1D00013460A4604461946FFF7F0FF204610BDF5
:10C1E000F0B51FB40646002082B0054640240191F8
:10C1F00000901BE0019922460F46304600F042F8BD
:10C20000049A059B801A994110D31046194622467C
:10C2100000F028F8361A8F410197224601200021AC
:10C22000009F00F01FF838184D4100902046641E12
:10C230000028DFDC019B00982946324607B0F0BD9C
:10C24000064C0125064E05E0E36807CC2B430C3C69
:10C2500098471034B442F7D3FFF736FFE0FC0100F3
:10C2600000FD010010B5202A04DB0146203A914070
:10C27000002010BD914020239C1A0346E34019433F
:10C28000904010BD10B5202A04DB0846203AD0406B
:10C29000002110BD0B46D340D0402024A21A91406B
:10C2A0000843194610BD0000F8B50024FF250135EC
:10C2B000012627460094284602F092FD002808D067
:10C2C00034484068304204D03348002128183443B1
:10C2D00001602D1D76007F1CADB2042FEBD3FF2033
:10C2E0007D3002F07DFD002807D02C480021016040
:10C2F000400704432A48006900902A4F200712D0C3
:10C300000126002526420AD02748AA0011180869EC
:10C310000969C004C00E8903BA58890F9047760096
:10C320006D1C042DEED3002C30DA00241D4E0021AC
:10C33000301940304156491C25D00778BD06AD0E56
:10C34000284601F027FD80003658002E1BD0BF097B
:10C350000121A940154AA80080180068009A8003AE
:10C36000800F114202D0022802D00CE003280AD12B
:10C37000032F05D102280AD00221284602F018FD19
:10C3800039462846B047641C042CCFD3F8BD03219E
:10C39000F3E7000000630040006000407C61004063
:10C3A00000050050042F00200065004000070050E9
:10C3B0008307FF22DB0E9A408907090E9940002867
:10C3C0000BDA0007000F0838830808489B0018188C
:10C3D000C36993430B43C3617047830804489B00C0
:10C3E0001B181868904308431860704700ED00E080
:10C3F00000E400E010B5064900200860486088604D
:10C40000C860034940390860486003F017F810BD60
:10C410004011014010B50021014802F013FB10BD8E
:10C420000030004010B502F09FFF10BD10B5074866
:10C430004068002807D08047002803D0002211461A
:10C4400000F008FD10BD01F087FE10BDE0280020BF
:10C4500010B501F0CFFE002805D00E490C48486009
:10C46000C8130D4988610D48018CC9B201290ED14C
:10C47000818C09070BD1018D0906090F042906D10A
:10C48000808D0006000F02D105490120886010BD93
:10C49000DFFF07C000050040006C0040C00F00F047
:10C4A00000060040F0B53C4D012185B04902284608
:10C4B00002F0AAFC01270026384C002823D0FF21D7
:10C4C0002531284602F09BFC00281CD0FF20253097
:10C4D0002E508120324980008860607D002800D184
:10C4E0006F600221684601702E4908680860039059
:10C4F000E17C68460172E0680190E67406CC68460B
:10C50000083C90471DE00421284602F07DFC0028ED
:10C5100017D0FF210931284602F071FC002810D005
:10C5200002F096FDE07C217D88420AD1607D0028E2
:10C5300000D16F6081201A4980008860207D02F060
:10C5400007FEFF211D31284602F059FC00280DD0BE
:10C55000A07C218A884202D903F0C0F806E0FF21BE
:10C560001D316E50002801D003F020F9FF21453124
:10C57000284602F044FC00280CD0FF2045302E5005
:10C58000607D002800D02F60E07C002802D0207D54
:10C5900002F0DEFD05B0F0BD002000404C2F002071
:10C5A00000230040802400400FB410B503A9044BC1
:10C5B000044A029800F024F810BC08BC04B01847E4
:10C5C0000FE00100DC28002030B47446641E25789A
:10C5D000641CAB4200D21D46635D5B00E31830BCB7
:10C5E000184702E008C8121F08C1002AFAD1704794
:10C5F0007047002001E001C1121F002AFBD17047E3
:10C60000FFB591B00F460546002606E025280AD062
:10C61000149A139990476D1C761C28780028F5D140
:10C62000304615B0F0BD002400940121F34A029475
:10C6300000E004436D1C2B780846203B98401042D4
:10C64000F7D128782A280ED0022128780246303ADD
:10C65000092A15D8009A0A235A43303A80180C4305
:10C660006D1C0090F1E701CF0090002805DA012051
:10C6700040030443009840420090022004436D1C94
:10C6800028782E2815D10420044368786D1C2A28A8
:10C690000AD101CF6D1C02900BE002990A2251438E
:10C6A000303940186D1C029028780146303909292C
:10C6B000F3D928786C2810D006DC4C281AD06828CA
:10C6C0000ED06A2817D104E0742813D07A2812D12A
:10C6D00010E00120400504430CE00121090501E0C0
:10C6E000032109050C436978814203D1012000052B
:10C6F00024186D1C6D1C287803906E281ED00CDC4D
:10C70000632831D004DC00288AD0582811D1B2E047
:10C7100064287BD069280CD178E073282DD004DC04
:10C720006F2870D0702804D1A7E075286CD07828C5
:10C730006BD0149A13999047761C62E06002400F08
:10C74000022807D003280AD0042838680AD00660D7
:10C750003F1D56E03868F11706604160F8E7386819
:10C760000680F5E70670F3E738786946087400201C
:10C77000487404A80390012003E038680390002067
:10C78000C0433F1D61070FD5002101E00199491CFD
:10C79000029A0191914213DA8142F7DB019A0399DF
:10C7A000895C0029F2D10BE0002101E00199491CCC
:10C7B00001918142FADB019A0399895C0029F5D144
:10C7C00001990098139A401A00902146149B00F09A
:10C7D0003BF901998019461807E0039803990078FE
:10C7E000491C0391149A139990470198401E019097
:10C7F000401CF2D12146149B139A009800F014F9C2
:10C8000086196D1C09E741E033E034E00A2000217D
:10C81000049005916002410F022905D001CFC21793
:10C820009446032905D007E0FF1DFF08FF0003CF52
:10C8300006E000B2C2179446042902D140B2C117E3
:10C840008C4600226146944506DA0A4600214042A1
:10C8500091418C462D2102E0210504D52B216A4609
:10C860001176012103E0E10701D02021F7E70191D2
:10C8700054E00A200BE0102009E010200490002171
:10C880000420044308200591029003E008200021C1
:10C89000059104906002410F022905D001CF0022CA
:10C8A0009446032906D006E0FF1DFF08FF0003CFD2
:10C8B0008C4603E080B2042900D1C0B2002101916E
:10C8C00021072BD50399702906D0049A1021059BC6
:10C8D0004A401A4305D00EE040216A4611760121F4
:10C8E00008E06146014306D030216A46117603997B
:10C8F000517602210191049A0821059B4A401A436E
:10C900000CD16146014301D1610707D530216A4648
:10C910001176012101910299491E0291039958292A
:10C9200004D037A103910FA90F910DE039A1F9E7C8
:10C930006146059B049AFFF753FC039B8C469B5C66
:10C940000F9A521E0F92137061460143F0D10F9857
:10C9500007A9081A20300390600704D501200004BD
:10C960008443029801E0012002900399884201DD8E
:10C97000401A00E000204118029001980918009820
:10C98000401A0090E00306D42146149B139A0098A5
:10C9900000F05AF886190020049008E006A9085C07
:10C9A000149A139990470498401C761C049001999E
:10C9B0008842F3DBE0030CD52146149B139A0098C0
:10C9C00000F042F8861904E0149A30201399904739
:10C9D000761C0299481E02900029F5DC08E00F98A9
:10C9E0000F990078491C0F91149A13999047761C5F
:10C9F0000399481E03900029F1DCFBE60928010099
:10CA000030313233343536373839616263646566C4
:10CA10000000000030313233343536373839414286
:10CA20004344454600000000F8B5044600251E4674
:10CA30001746880404D405E039462020B0476D1C11
:10CA4000641EF9D52846F8BDFFB50446002581B01F
:10CA50001E46C80301D5302700E02027880404D5EE
:10CA600005E038460399B0476D1C641EF9D5284689
:10CA700005B0F0BD40791821484302494018012112
:10CA8000817170473C30002010B541791822514324
:10CA9000134A0B2489180368E401CA791B199A60A8
:10CAA00002680123136208220A74FF221D324A829F
:10CAB000036800249C5042790A4B92009A58091D41
:10CAC000002A0AD00368032424021B190A699A6009
:10CAD00080220A61016809194A6002F077FE10BDE0
:10CAE0003C30002088280020F7B584B00025168847
:10CAF00007461580406B1446002813D0037805982C
:10CB0000032E51D30221017021881122491C89B2C0
:10CB1000218042542188491C89B2218043542088B5
:10CB2000401C2080386B00281DD0054620880599C0
:10CB300002461232B24237D811220A5420881022FB
:10CB4000401C80B220800A542088401C20800F2086
:10CB50002A5C2388401ECA54228840B2521C22807C
:10CB60000028F5DA0025384620300290807B002826
:10CB700006D033462246059901F060FB050014D12A
:10CB80000298407B002806D032462146059800F0E6
:10CB90006BFD050009D1B878002823D0059886469A
:10CBA0002088001DB04202D90C2007B0F0BD6846B5
:10CBB00079DF0028F9D1218803207246505420885B
:10CBC0001921401C80B22080115420887146401CDD
:10CBD00080B2208041186846008802F0D9FE218882
:10CBE00040182080F878002817D0218803230A46AF
:10CBF000FB56C91C0598B142D6D802218154218820
:10CC00000122491C89B2218042542188491C89B2E1
:10CC1000218043542088401C20807868002817D049
:10CC200021880023C3560A46C91C0598B142BBD8C7
:10CC30000221815421880A22491C89B22180425450
:10CC40002188491C89B2218043542088401C2080BF
:10CC5000388900280AD0009438460196062202211D
:10CC60000830059B02F009FF05009ED1388A002894
:10CC70000AD0009438460196072203211030059B04
:10CC800002F0FBFE050090D1388B00280AD00094FA
:10CC900038460196152214211830059B02F0EDFE4E
:10CCA000050082D1386A002806D03346224605990D
:10CCB00001F0CCF80500D8D1786A002806D03346B8
:10CCC0002246059901F0A6FC0500CED10298007B12
:10CCD000002807D0334622463846059902F05AFA12
:10CCE0000500C2D13878002807D03346224638469E
:10CCF000059901F0C3FC0500B7D1284655E710B5EA
:10CD000001220221002000F071FE002801D0072836
:10CD100012D107220221012000F068FE002801D074
:10CD2000072809D100210A22084600F05FFE0028EA
:10CD300001D0072800D1002010BD000030B5A7B0F9
:10CD4000382101A8FFF741FA022168460171002449
:10CD500084710521C17138210FA8FFF736FA01252A
:10CD600010A885810D48149024211DA8FFF72DFAE5
:10CD700020A8057040202190B4202290084B1DAAC5
:10CD80000FA9009401A800F015FA002803D0002292
:10CD9000114600F05FF827B030BD000004280020E5
:10CDA00033EE0100044842680121C9050B46934354
:10CDB00083600A40C26070470005005070B50024CF
:10CDC000064D06E06968E000085C012101F0D6FC30
:10CDD000641C28788442F5D3002070BDA828002068
:10CDE000F8B515460C460646052A01D20720F8BDBF
:10CDF00001F09AFD002803D101F06CFD0028F6D166
:10CE0000104900204E600C70C8608D6008610E4DA6
:10CE10000DE0E00069688019009181786A465170E0
:10CE200000780A4A694601F0F9FC0028DFD1204663
:10CE3000641EE4B20028ECD1054A0021024800F04B
:10CE400041F8F8BDA8280020C0FC01001DE0010049
:10CE500049DF0100BFF34F8F04490348C860BFF3A7
:10CE60004F8F00BFFDE700000400FA0500ED00E071
:10CE700010B58268C368934203D001F0B5F8002072
:10CE800010BD052010BD002906D0002A02D0531E77
:10CE9000134203D0092070470E2070470160838041
:10CEA00000218160C1600846704710B58268C36880
:10CEB0009A1A83889A4203D801F0A0F8002010BD86
:10CEC000042010BD094B9B68002B07D0002A07D017
:10CED000002805D00068037C002B03D00820704791
:10CEE000072070474174426100207047BC28002031
:10CEF000FFB59007002581B014460E46002832D1B8
:10CF00001B4F002C31D002F051F8049878610320B7
:10CF1000387033461821224600204B43BC60183439
:10CF2000C10089180D704D708E704C601C19401C2A
:10CF30000328F5DBFD607D7001240E48BD702405DB
:10CF4000046003211420FFF733FA0B4804600B4CF4
:10CF50000198A06003211120FFF72AFA6068386168
:10CF6000002005B0F0BD0720FBE7BD60FBE7000037
:10CF7000BC28002080E200E000E100E00015014054
:10CF8000FEB50D461B4917468968044600292AD07C
:10CF9000002C28D0052D01D20720FEBD6069002895
:10CFA00021D0607C012820D0002602F029FDC0009D
:10CFB0001049019089684018694602F04BFD00282D
:10CFC00015D0012101700C49446049680830E2C065
:10CFD000084901988968411868460078487002F04D
:10CFE00005FA0020FEBD0820FEBD2E46DDE7042028
:10CFF000FEBD0000BC28002000150140F8B5134D0F
:10D000000446A96800291CD0002C1AD060690028A9
:10D0100017D00026267402F0F3FCC700A868694602
:10D02000381802F017FD00280DD00221017044606D
:10D03000A868391868460078487002F0D7F9304679
:10D04000F8BD0820F8BD0420F8BD0000BC28002071
:10D0500010B5044609488168C2688088511A814227
:10D0600007D10121064801F0BFFD002801D00520AD
:10D0700010BD21460148FFF7FBFE10BDE42E002045
:10D080005E28002070B50446224888B01E460D0078
:10D0900042601CD0A888296882B21F48FFF7F3FEBF
:10D0A000002815D1A889A96882B21B481030FFF763
:10D0B000EAFE00280CD1202218496846FFF76CF8D8
:10D0C000A06806902079002804D0012103E0072001
:10D0D00008B070BD002168460175067760790028A8
:10D0E00000D00E2069464875E0780290A078039041
:10D0F00020780190607800900949684601F01CFD95
:10D100000028E5D101F0CAFD02480121801C01F090
:10D110006BFDDDE75C280020E42E0020C4FB01004D
:10D12000EDF8010010B50446064801214470401C8A
:10D1300001F0C0FD112803D121460348FFF7B5FED9
:10D1400010BD00005C280020F42E0020F0B50C4635
:10D1500093B01F216A46118007260027918000287E
:10D1600009D0C17849070DD502A9FFF7BDFC0028F9
:10D1700009D102AD01E000251780002C0ED0E07827
:10D18000002802D0304613B0F0BD01AA0AA92046FB
:10D19000FFF7AAFC0028F6D10AAA02E0684600229E
:10D1A000878068468088C3B268460088C1B2284636
:10D1B00072DFE8E770B50D4604991646040042D0C8
:10D1C000002E40D0424800224271C36001612422F7
:10D1D00031464048FEF7E0FF00F0BCF83D493431ED
:10D1E0000846103801602031816038215C38FEF734
:10D1F000ECFF3848217838380170A1788170E178E7
:10D20000C170617841706269216942610161E268BF
:10D21000A168C26081600146E369A269CB618A614D
:10D22000616A002919D00146AC310246B832416228
:10D230008A60636A1B880B80616A436A8988998067
:10D240000021436A06E00E2070BD666AB668765C0F
:10D250005654491C9E888E42F7D8A16A00291CD0DA
:10D260001C4AAC3211460C398A608162A36A9B88E1
:10D270008B80A16A836A098819800021836A04E08F
:10D28000A66AB668765C5654491C9E888E42F7D8CA
:10D290002C210A5D0F4918390A73216A002909D027
:10D2A0000B4914310162226A52884A80216A026A5B
:10D2B000098811806168002904D00549891D4160F1
:10D2C00061684160034829463838FFF73FFF70BD69
:10D2D00028280020DC2D002010B502881C4C102AC4
:10D2E00017D00021112A1AD0192A11D180790028CB
:10D2F0000ED1607901281ED0022822D0032822D026
:10D30000042805D12171E2680846002A00D0904720
:10D3100010BD017D0129FBD18088208110BD617085
:10D32000808821898842F9D1012005E021690029FE
:10D33000F4D0884710BD022000F034F80028F5D161
:10D3400010BD0320F8E7032020710420F4E700005B
:10D350002828002010B507210148FEF736FF10BD30
:10D360004028002010B50D480078012814D10C4C3D
:10D370006078002810D16079002802D074DF00287E
:10D380000BD101206070607900F00CF8002803D008
:10D390002169002900D08847002010BDDC2D002025
:10D3A00028280020F0B5754C87B06071002606A8CB
:10D3B000069601F0E7FD0127082806D000286FD166
:10D3C0000698002802D02770D4E00696FFF7C2FF27
:10D3D0006B4D6878002802D06079012805D0A878C4
:10D3E00000280AD06079022807D1E168002903D01B
:10D3F000E7700820884700E0E6706079012808D1CE
:10D400006878002809D05D48193001F097FD0028A0
:10D4100003D06079022802D00CE002206071A87865
:10D42000002805D05548193001F088FD002801D1A9
:10D4300003206071287B002804D16079032801D182
:10D4400004206071287E002804D16079042801D16D
:10D4500066712671E16800290AD06079032801D03D
:10D46000042805D12878002802D06078002818D038
:10D47000A67018216846FEF7A8FE68460670019659
:10D4800006720396607901280FD0022816D03C4E10
:10D49000243637465C3F03281CD004285ED13BE08D
:10D4A00069E0A77007208847E3E734481830019007
:10D4B0006846077046820682277152E02F4818306E
:10D4C00001906846077029894182A988018202205B
:10D4D000207146E0A88A69464882288A088228483E
:10D4E000243002F039FB002805D02878002802D02B
:10D4F0006078002801D003202FE0022069460872DE
:10D5000004200396F8701E4800213838FFF71EFEED
:10D51000002830D1052020E0A88B69460882288C9D
:10D5200048821748243002F017FB002805D02878DD
:10D53000002802D06078002801D004200DE00220ED
:10D540006946087204200396F8700D4800213838A7
:10D55000FFF7FCFD00280ED106202071607900281D
:10D5600003D0684673DF002805D1E168002901D0A7
:10D5700020798847002007B0F0BD0000282800204F
:10D58000DC2D002070B5054601461C220E48FEF732
:10D5900003FE0E4C002626702968002906D00822BA
:10D5A000201DFEF7F9FD201D7ADF02E00748001D6F
:10D5B0007BDF002807D1401E60806670044A00218E
:10D5C0000448FFF77FFC70BDC82E002048280020CB
:10D5D0009DF90100B0FB0100F8B5214C028800273D
:10D5E0001E4DE689102A15D01E49112A21D0122A73
:10D5F0002DD0502A1CD1C288801DB24218D1028B76
:10D60000022A15D1C27E837E10021843C007C00FC4
:10D610000CD112E081886980014610480822163139
:10D620000C30FEF7B9FD6F70002E01D100F058FCF0
:10D63000F8BD0020C04368806F700868FFF7DEFC0B
:10D640000028F5D0A1690029F2D08847F8BD811DD6
:10D65000024808220C30FEF79FFDE7E7482800202B
:10D66000C82E0020B0FB01007CB5054608880C469A
:10D670000930904201D90C207CBD684671DF00283A
:10D68000FAD121880820685420881B21401C80B2D0
:10D6900020802954208800A9401C80B22080401995
:10D6A00006220131FEF778FD20886946801D80B290
:10D6B00020800978002900D0012129542088401CAD
:10D6C000208000207CBD000010B50446FFF784FFD9
:10D6D0002146064800F040F8204601F0BDFB2046F8
:10D6E000FFF7FAFD204600F0B7F810BD1C2D002012
:10D6F00030B5184B0D4604000FCB85B003936B4635
:10D7000007C324D0002D22D00020C043A082286867
:10D71000A0610020A0752146684663DF002814D16F
:10D7200021786846817401210182A21C04A901208C
:10D73000A0DF002809D12946204601F09FFC0028DF
:10D7400003D12946204601F0DFFF05B030BD0E2091
:10D75000FBE70000B4FB010000281ED000291CD00C
:10D760000A88102A14D0112A14D0502A15D1CA8838
:10D77000038A891D9A4202D10B8B022B0ED083881B
:10D780009A420AD18369002B07D00A8B1A311847B5
:10D79000898801E00021C94381827047CA7E8B7E5F
:10D7A00011021943C907C90F00D0012181757047C3
:10D7B00007B584B000280DD0828A114B9A420BD055
:10D7C000827D002A08D06A46128B142A06D90720C7
:10D7D00007B000BD0E20FBE70820F9E70022009209
:10D7E00001920292039282896B461A80039106A9E4
:10D7F000029101219970808A6946A6DFE8E700005E
:10D80000FFFF00007CB5134E00250C463060002958
:10D8100018D06946002000F0B5F8002819D101A9F8
:10D82000012000F0AFF8002813D1684601790020EC
:10D83000002901D0022004E069460978002900D0BF
:10D840000B2020707068002802D1FFF758FA0546B7
:10D8500028467CBD2028002010B51C4C018860683B
:10D8600010290DD011290AD1401E606007D1FFF7A1
:10D8700046FA002803D02168002900D0884710BD4F
:10D8800000281ED100210122084600F0AFF8002830
:10D8900001D0072811D107220221012000F0A6F8AB
:10D8A000002801D0072808D104220221002000F01E
:10D8B0009DF8002805D0072803D02168002900D052
:10D8C00088476068401C606010BD00002028002070
:10D8D00010B5032000F008FA002801D0062800D176
:10D8E000002010BDF8B507460024234802E0641C60
:10D8F000042C1AD2A2008258BA42F8D1042C14D2B5
:10D900001D481E4E0C38002929D001290ED00229AD
:10D910000BD16000201880194578002D05D01848DB
:10D920000169002901D028468847F8BD61006118C7
:10D93000755C8E19717800290CD011490A2249684A
:10D94000806851430E4A521CFFF71AFB002801D190
:10D950000B4847700A48B17814300155DDE78068FC
:10D96000FFF74CFB06486100611814308919005D0F
:10D970008D78A842D1D0F8BD80FB0100782D002021
:10D980000828002004280CD2074A1269074B80009F
:10D990001B5C01209840904300D0012008700020BB
:10D9A00070470020FAE700000005005080FB0100EE
:10D9B00010B5042806D0072810D00A2801D101F09C
:10D9C00030FC10BD08481321408876DF08E00028AD
:10D9D000F7D000221146FFF73DFA10BDFFF7C2FC59
:10D9E0000828F4D110BD00000028002070B50023E5
:10D9F000042811D2440004190D4D012A02D1012935
:10DA00000DD0002246008019094E801900290CD043
:10DA1000012906D0022906D00723184670BD0D3013
:10DA2000C2B22A55F9E74270F7E78270F5E70000C5
:10DA3000782D002010B5054A0146127A0020D20741
:10DA400002D0084600F054F810BD0000082800205D
:10DA500070B50E46204905464E608D6000200A6173
:10DA6000A9071ED50024012211462046FFF7BEFF5C
:10DA7000641C042C02D20028F5D012E0002810D13A
:10DA8000720804211548FFF7ABF9002809D1FFF708
:10DA900095F9002805D11148114A00211438FFF7E3
:10DAA00011FAE90706D00F220E4952058A600023B9
:10DAB000CB608A6100280DD108480B4A00211C3830
:10DAC000FFF700FA002805D10448084A0121183858
:10DAD000FFF7F8F970BD00000828002090FB010056
:10DAE00025DD01000005005091E20100A5CD0100F7
:10DAF000FEB57A4D0722EB6892059A4302936B6854
:10DB000000939C0006461B19002001210193490542
:10DB10000746734C3300FEF757FD180D15153747B0
:10DB200055677C887F8891DE9E9E9E9E9EC8CED142
:10DB3000D8DEDE140F21029A49059143A160E76007
:10DB40002F70FEBDA260E76060680F225205504052
:10DB5000800209D5A160E760022E02D1E120C00059
:10DB60000AE07D20400107E0E160A760022E01D1BC
:10DB7000C82001E0FF2091302E706421FEF7F6FAF4
:10DB80000099414300223FE0A260E76060680F22F5
:10DB900052055040800204D5A160E7601920400181
:10DBA000EAE7E160A760E3E7A260E76060680F2250
:10DBB00052055040800202D5A160E760D1E7E160E4
:10DBC000A760D7E7A260E76060680F225205504067
:10DBD000800202D5A160E76001E0E160A7602E70DD
:10DBE0000098410000220FE0A260E76060680F2209
:10DBF00052055040800202D5A160E76001E0E1607B
:10DC0000A7602E700099002236480068FFF7B8F927
:10DC1000FEBDA260E7601BE061680120800502464E
:10DC20008A43A2600140E16010E06068012189053B
:10DC30000A468243A2600840E060E3E76068012191
:10DC400089050A468243A2600840E0600199C9E75D
:10DC5000E160A7602DE023484068FFF7CFF911216C
:10DC60008A1B01D0002807D00F22E9685205114015
:10DC7000A160E760EF60FEBD0121C905E960012AEE
:10DC80000CD91046C82148436421FEF76FFA696831
:10DC90000022414313484068FFF772F90F22E968F8
:10DCA00052051140E160A760FEBD0F214905A1604A
:10DCB000E7602E70FEBD07229205AAE70D214905F7
:10DCC000A160E76001218905C2E70321C905A160C0
:10DCD000E7608910BCE70F214905B9E70828002053
:10DCE0000005005074FB0100F0B500210B4C0C4DF9
:10DCF00003273F048A00A258920056193268012374
:10DD00008B40034000D00323BA431B04134333600A
:10DD1000491C0429EED30020F0BD000080FB010067
:10DD20000007005010B500780221FFF7DBFD10BDA1
:10DD30000022D243830004490428CA5002D30818A1
:10DD40002030027770470000042F0020F0B5002536
:10DD5000ED43002A02D00023042601E00423082614
:10DD60000B4C04E09F00E7597F1C04D05B1CB342BE
:10DD7000F8D32846F0BD26185DB2203635709E00D7
:10DD8000A151002AF5D1E11820310877F1E7000010
:10DD9000042F00200249091820200856704700006F
:10DDA000042F0020F8B52348C16800293ED00E6832
:10DDB00021494C680769C078E11B0D022D0AED1C52
:10DDC000002814D101201D4A000450601B4A403A2B
:10DDD00050601B49400008601A4908601A49012038
:10DDE00008602F20FEF786F912490120C870B5425D
:10DDF00000D23546E81900020F4B000A4033186084
:10DE00000D4A5168001B091B0902090A0002000A99
:10DE1000C91C814209D9506818602F20FEF76AF9A1
:10DE200001200749400480390860F8BD01F0BEF8C0
:10DE3000F8BD0000BC28002000150140401301403F
:10DE400080E200E000E100E000100140F8B5064685
:10DE5000108814468446801D0D46984201D90C2036
:10DE6000F8BD32880720062AFAD31927FF01184B7C
:10DE7000BA4201D99A42F3D171880629F0D3B94246
:10DE800001D99942ECD19A4203D0994201D08A42F9
:10DE9000E6D805216046295420881221401C80B212
:10DEA000208029542088401C80B22080411930886D
:10DEB00001F06EFD2188401880B2208041197088E1
:10DEC00001F066FD2188401820800020F8BD000088
:10DED000FFFF000010B500221146FEF7BBFF10BD8A
:10DEE000F8B5164800F078F9144D00260C3D144C96
:10DEF000002807D0616900291CD001206A461070F3
:10DF0000684616E02878002805D06169002911D0FC
:10DF1000684606700DE0687800280DD0A1680948B1
:10DF200000220068FFF72CF8002803D0A16900291F
:10DF300000D088472E70F8BD6168F0E754280020B3
:10DF4000C82E0020B0FB0100F8B500260124154DB5
:10DF500023E06968F0004718387821462A69814033
:10DF6000114218D08A432A6100F0AAFC3A7821466F
:10DF7000EB68914019400346934099420BD1797860
:10DF8000012901D0012100E000217B684140002BE4
:10DF900001D010469847761CF6B228788642D8D32E
:10DFA000F8BD0000A828002010B50E4900234A78CB
:10DFB0008C78A24212D0521CD2B24A70022A00D1EE
:10DFC0004B704A78074B920018339A5802600869E0
:10DFD00010180002000A0861012010BD0360002033
:10DFE00010BD0000BC280020826883881A400368A6
:10DFF0009A5C0A708168491C81607047C268838896
:10E000001A4003689954C168491CC160704710B533
:10E010000446C0B2FFF786F8204610BDF8B50746A3
:10E02000104E0125BD403068FEF7E8FF00280DD1F5
:10E030000D4C2069284207D1384600F041FC0028E9
:10E04000E06804D0284303E0A8432061F8BDA8435A
:10E05000E0602069002228432061A1683068FEF753
:10E060008FFFF8BDC0FC0100A8280020F0B58BB0E0
:10E070000D46109F064611461C46202B06D920222D
:10E08000194611A0FEF790FA0C2410E06A461571AB
:10E0900001A81A460130FEF77FF8002000902346C1
:10E0A00001AA3146144800F03FFD040006D0002FBD
:10E0B00004D02A46314611A0FEF776FA1948FEF739
:10E0C00029F820460BB0F0BD4572726F7220696E60
:10E0D000206932635F77726974653A206C656E20DF
:10E0E0003E206D617820286C656E3D25642C206D86
:10E0F00061783D2564290A00C8FC01004572726FF1
:10E10000722077726974696E6720493243206368B0
:10E1100069702025303258206164647220253032C5
:10E12000580A0000102700001FB50A4B6C460FCBA1
:10E130000FC4084800231A466946083800F030FC2E
:10E14000040004D10348083800F0F6FB204604B070
:10E1500010BD0000D0FC0100F8B51E4C207800284E
:10E1600037D02069002807D00026E068002805D0B5
:10E170000025002E04D013E00126F6E70125F8E77C
:10E18000684651DF052806D0002806D00022114637
:10E19000FEF760FE04E0012602E02169009888474E
:10E1A000002D12D1608869460880A06861DF0528CB
:10E1B00006D0002806D000221146FEF74BFE04E0F0
:10E1C000012502E0E168A0688847002ED8D0002D24
:10E1D000CFD0F8BDE0280020418805480288914250
:10E1E00004D34088814201D8012070470020704745
:10E1F0004C2800201048018CC9B2012917D1818C0C
:10E20000090714D1018D09060A0F03D1828D120668
:10E21000120F0ED0090F012903D1828D1206120FA1
:10E2200007D0032903D1808D0006000F01D0002004
:10E230007047012070470000C00F00F030B515880E
:10E24000EC1C9C4201D90C2030BD02244C55138893
:10E250001C255B1C9BB21380CD5413885B1C9BB2A6
:10E260001380012807D0022807D0032807D00428EC
:10E2700007D0072030BD002004E0012002E0CC548C
:10E2800001E00320C8541088401C1080002030BDDD
:10E2900010B50448017AC90702D00078FFF728FCBE
:10E2A00010BD000008280020F8B52C49C8680A698C
:10E2B0000C780F7989688646944600913EE0009973
:10E2C000E20055182A7836E0182353436968521C37
:10E2D000C918AB78D2B2934200D100220B78022B3E
:10E2E00002D0032B27D123E04E680346014603E00A
:10E2F000B14204D00B46C96900291CD0F8E70029B7
:10E3000019D08B4208D1C069002805D1144F0126CD
:10E31000BE600026B44601270E68C969D96100298C
:10E3200009D00B689B190B6005E00174C06900E01F
:10E3300000210028F9D169789142C5D12146641E97
:10E34000E4B20029BBD1054962460A61C8600F7179
:10E35000704501D00120F8BD0020F8BDBC28002088
:10E3600000100140F8B5044631480026C16800910C
:10E3700007784EE02E48F90080680D1843E0002C25
:10E3800002D02046E4691FE02878182141436A68DA
:10E39000401CC0B251182870AA78904200D12E704B
:10E3A0000A784868012A30D1027C002A2DD18A6877
:10E3B0004260CA6882600A69C260496981611C4919
:10E3C0000979002900D04660194943680A699C46CA
:10E3D000991A0902174B090A994202D282688918D0
:10E3E00007E06146511A09028268090A8A4202D985
:10E3F000511A016000E006604660012186600174E8
:10E40000C66100F0FBFF002CB9D1287869788842FA
:10E41000BAD138467F1EFFB20028ABD10448C1688C
:10E420000098814201D00120F8BD0020F8BD000015
:10E43000BC280020FFFF7F008CB064A207CA002325
:10E44000049203910290644A05211846FEF750FD9C
:10E45000002803D000221146FEF7FCFC5F4A09ABFE
:10E4600007CA07C3FF2101315D4805904018069196
:10E470000891079003235B4A05A909A8FEF702FE4D
:10E48000002803D000221146FEF7E4FC564A574903
:10E490000320FFF7DDFA002803D000221146FEF723
:10E4A000D9FC69460020FFF7ADF9002803D000220F
:10E4B0001146FEF7CFFC6846007802287BD000208A
:10E4C000694608714649002348225C39082000F05B
:10E4D000D3FE002803D000221146FEF7BBFC002427
:10E4E000009468460194047060DF002803D0002285
:10E4F0001146FEF7AFFC3E4800F0B4FE002803D002
:10E5000000221146FEF7A6FC1120694608760A2271
:10E5100038A106A87CDF002803D000221146FEF7B0
:10E5200099FC009410216846019401803C214180AF
:10E53000FF2184809131C1807ADF002803D000223E
:10E540001146FEF787FC2E48009069462D48FFF7DC
:10E55000CFF8002803D000221146FEF77BFCFEF71F
:10E56000EDFB1C2105A8FDF730FE0520C003069039
:10E570000F20000407900594032108A80170684645
:10E58000448408A8047120480A9020480B9005A8EC
:10E59000FEF7F8FF002803D000221146FEF75AFCD0
:10E5A000FFF7C2FD02A91AA0FDF7FEFF0320FEF748
:10E5B000F9FE03E0FFE7012082E748DF0028FCD0F6
:10E5C00000221146FEF746FCF7E700005374617223
:10E5D000742E2E2E0A000000542B002068FB010030
:10E5E0005429002085F80100B1D90100CD0C0000AC
:10E5F000C9D601004B61726D615F554152540000F4
:10E6000019EE01001C2D0020C9EE0100D5DE01002D
:10E610002573000070B5144682880E460546208892
:10E62000111D4118921C994201D8FE2A01D90C20D3
:10E6300070BD521C32542088FF21401C80B22080C3
:10E6400031542088401C80B220808119288801F034
:10E650009FF92188401880B22080AA88002A09D01A
:10E66000A968002908D08019FDF796FD2088A9889F
:10E6700040182080002070BD072070BDF8B50F46FF
:10E68000017814460546012902D16878002806D091
:10E690002088821C9A422DD8012902D006E007204A
:10E6A000F8BD69784118891C994223D8181A801E30
:10E6B00086B2684606802188B81C081869467DDF46
:10E6C0000028EDD12878022805D169460988B14291
:10E6D00001D809210AE00821012805D16878B04253
:10E6E00002D86A46108001E06846068068460088C5
:10E6F000FE2801D90C20F8BD2288401CB85420887F
:10E70000401C80B22080395420886946401C2080FB
:10E710000988401820800020F8BD00008207D30E31
:10E72000FF229A408907090E10B5994000280BDA9C
:10E7300003071B0F083B9C080C4BA400E318DC6983
:10E7400094430C43DC6107E08408094BA400E418FF
:10E75000236893430B432360C106C90E0120884000
:10E76000044908600449086010BD000000ED00E0A5
:10E7700000E400E080E200E000E100E0F3B581B0F9
:10E780000F46019800F0E6FB012400281E4E019878
:10E7900017D0FFF7FFFA80192030007F8009032887
:10E7A00002D0012806D007E01848006901998C4082
:10E7B000204201D1022100E00321019800F0F8FA83
:10E7C000FEBD00F0D3FB0028FAD00198FFF7E2FA73
:10E7D00005468100C81D0E4AF93089180A6980B2C1
:10E7E00022430A610B49401800210160002FE7D045
:10E7F0000198FFF7CFFA800030580028E0D0064893
:10E80000AC404460FEBD0000042F00200005005015
:10E81000006500400060004000630040FEB5044613
:10E8200023480E460019202141560027C8171346D9
:10E83000401C01D0082738E0F27819462046FFF73F
:10E8400085FA0546401C2FD0B078002807D019481B
:10E85000A1000918086802229043086007E000211F
:10E860007378204600910A46019100F069FAF07829
:10E87000002810D01048AA001018317802690F4BF8
:10E880001A400261E206D20C8907890B0A4301692A
:10E890000A43026109E00648327840192030017FBE
:10E8A00092011143017700E004273846FEBD0000C5
:10E8B000042F00200007005000650040FFE0FCFF2F
:10E8C00003490969C140C807C00F00D00120704743
:10E8D0000005005070B5124D2879002801D008209D
:10E8E00070BD0F4900204039421E0B182033401CD8
:10E8F000C0B21A702028F8D300242046FFF718FA77
:10E90000641CE4B2082CF8D303210620FFF706FFAD
:10E9100001200449C007486001202871002070BD13
:10E92000442F00200063004002480079002800D0F6
:10E9300001207047442F002010B5FF2305330268E3
:10E940000021D15002681B1DD150FF2302681D33E6
:10E95000D150FF2302682533D15042790E4B9200EB
:10E960009A58002A06D00123032402685B0224027D
:10E9700012195360052302681C02121913604379AF
:10E9800018225343054A0224D4544079182358438B
:10E990008018417010BD0000882800203C30002005
:10E9A000F8B504460D4640791821214E4143715C6B
:10E9B000002901D00820F8BD002D02D11D4D010114
:10E9C0004D191D4F80003A506079391D80000B5061
:10E9D0006079091D80000C502946204600F070FD2A
:10E9E000296816488A001649521810606A68920011
:10E9F000511808602168052212028918A868486227
:10EA0000216809CD89188860CB606079083D800055
:10EA10003858002804D00420297B2056FFF77EFEBA
:10EA2000607918220121504331540020F8BD0000C4
:10EA30003C30002004FC0100882800200C06000067
:10EA400000070050F3B585B00546069818214843E5
:10EA500032494618FF21341D2531284600F0CAF9F5
:10EA60000746E189284600F0C5F901460020FF224B
:10EA70002532A850FF221D32A850FF220932A8508B
:10EA8000121FA8503846084346D0002F01D0052158
:10EA900005E02078002801D0022100E0032106983B
:10EAA00087001F48C05900F0FFFB1D49A078091FCF
:10EAB000002817D00020B0701A484DC8009001A857
:10EAC0004CC060680190608902900920C0012A183A
:10EAD000506C5064800701D5022000E004206A4693
:10EAE000107313E060892289904215D300200090B2
:10EAF000019002900390B0702078002800D001208F
:10EB00006A46107060680190608902900448C95993
:10EB10000838C2596846904707B0F0BD3C30002025
:10EB20009028002028FC01007CB5069C0125019559
:10EB3000009400F011FD7CBDF3B50446244881B07B
:10EB4000807D002801D00820FEBD002C00D1214C82
:10EB5000206800F022F92078012739461E4E8140B6
:10EB6000B1600021606800F00FF91C4DA069686277
:10EB7000607D217D0843E86603CCE8606961207B05
:10EB8000083C01280ED10021A06800F0FDF8E068E3
:10EB900000F003F9207B39468140B160E168A0684C
:10EBA000A96028610A4E02987060216931600028CE
:10EBB00006D00C4A217F0A4850600220FFF7AEFDC4
:10EBC000042028600020F074B074B7757075FEBD25
:10EBD0004C2F0020E4FB0100000500500025004000
:10EBE0008000020000230040F8B5294DEA7C002A8D
:10EBF00001D01120F8BDE974E86000202875687D17
:10EC0000002801D100F0B4FA6868224C002805D031
:10EC100081202149800048600020F8BDFF21253176
:10EC2000204600F0ECF80546FF210931204600F0AF
:10EC3000E6F80746FF214531204600F0E0F8064699
:10EC4000394631432943E9D02846304306D100F004
:10EC5000FFF90F48C17C007D8142DFD8FF2145319B
:10EC600000206050FF21253160500949002DC874F3
:10EC700001D00320F8BD002E01D00F20F8BD497D42
:10EC80000120002901D02060C6E76060C4E70000D1
:10EC90004C2F0020002000400023004010B5044C01
:10ECA000607D002803D100F063FA0120607510BD7B
:10ECB0004C2F0020F8B5204C0026A27C002A01D061
:10ECC0001120F8BDA174A060002020821B4DFF27F9
:10ECD0001D37E8510120A86000F000FD616800299F
:10ECE00011D024E0FF2701372946144800F087F8A7
:10ECF000002802D1208AB842F6D1208AB84203D037
:10ED000000F0ECFC00E03D46A07C218A8842E9D876
:10ED1000218AC81FF9380CD0084F2946384600F020
:10ED20006EF80028F9D00120F8600020A074304669
:10ED3000F8BD0F26F9E700004C2F0020002000400E
:10ED400030B552000A439900039C0A432102049DF6
:10ED50000A4329040A43024980004018026030BD7A
:10ED60000007005030B552000A439900039C0A4343
:10ED70002102049D0A4329040A43024980004018E5
:10ED8000026030BD000700501CB500220B46009207
:10ED900011460192FFF7E6FF1CBD1CB50021009152
:10EDA0000B46012201911146FFF7DCFF1CBD00005C
:10EDB000820006481018026803231B049A4302606D
:10EDC000026809040A43026070470000000700500F
:10EDD000012181400148816070470000000500501A
:10EDE000034940180068012800D000207047000047
:10EDF000006000404058002800D001207047405873
:10EE0000002800D0012070470322120280184068B9
:10EE1000084000D00120704710B508780C462B2818
:10EE200001D100F080FA20782D2801D100F062FA9B
:10EE300010BD10B500280BD0032808D10220FEF722
:10EE4000F9FD002803D000221146FEF703F810BD9B
:10EE500000F0E7F910BD000070B50188194C0546B7
:10EE6000102912D011291BD020464088132924D004
:10EE7000522909D100231A461946A9DF002803D0D8
:10EE800000221146FDF7E6FF70BD0720FEF7D2FD18
:10EE9000002803D000221146FDF7DCFFA8880AE015
:10EEA0000020FEF7C7FD002803D000221146FDF721
:10EEB000D1FF0020C043608070BD00231A46852129
:10EEC0007FDFDBE70028002010B50078002809D19B
:10EED00005483B21408876DF002803D000221146F8
:10EEE000FDF7B8FF10BD00000028002010B54179E3
:10EEF000182251430F4A8918FF2205324A820368BB
:10EF000000249C5042790C4B92009A58091D002A0B
:10EF10000AD00368032424021B190A699A6002229A
:10EF20000A61016809194A600268012111620068DA
:10EF3000416110BD3C300020882800200021425C47
:10EF4000002A01D001207047491C0629F7D3002070
:10EF5000704700000449081820214156042901DBAC
:10EF60000120704700207047042F00200449081832
:10EF700020214156042901D201207047002070470A
:10EF8000042F002007490979490701D40820704758
:10EF9000002804D0044949780160002070470E2001
:10EFA0007047000064280020642F002070B5012401
:10EFB0000B49600408600B494010886009494039DA
:10EFC0008860094D6C602F20FDF794F8AC60074D08
:10EFD00000242F202C61FDF78DF8EC7070BD00002F
:10EFE00080E100E04013014000100140BC280020F7
:10EFF00010B5417918225143134A0B24891802682D
:10F00000E401CB7912199360026801231362002294
:10F01000FF230A7409334B820468E25042790B4B98
:10F0200092009A58091D002A0AD0046803231B0283
:10F03000E4180A69A26004220A610168C9184A60DA
:10F0400000F0D8FB10BD00003C30002088280020D4
:10F05000FF210748093100224250064881690648CD
:10F06000037DC268D154017D491C017570470000C1
:10F0700000200040002500404C2F002070B50024E7
:10F080000546601C90B00007000F08A910300894D6
:10F090000870601C0007000F103048708878F9264F
:10F0A0003040801C88701C2101A8FDF78EF869464D
:10F0B00008791021084369460871029408A804944D
:10F0C000059407940690287808A98871032069465A
:10F0D000888411200094087048708878F7213040A7
:10F0E000801C0840EF2108400126304369468870A3
:10F0F00014210AA8FDF769F809A80A9068460B9040
:10F1000069460E8614204C8688862B4668880C3308
:10F110000AAA01A9A2DF10B070BD000010B54179A4
:10F1200018225143094A0523891802681B02D21884
:10F130009269CC898B681A55CA89521C92B2CA81CD
:10F1400089898A4201D200F055FB10BD3C30002075
:10F150001FB5012269460A7008720448C16801910E
:10F160000021C17406C8684690471FBD4C2F00207F
:10F17000FF220548253200218150FF2209328150AB
:10F1800001210160704700000020004010B500F030
:10F1900031FB10BDFFB50746806A81B014460028D8
:10F1A0003DD0002538462030009033E00C20B96A6D
:10F1B00068430E18B088801CFE2802D90C2005B0C8
:10F1C000F0BD22880299401C885420881622401CD9
:10F1D00080B2208002990A542088401C80B220808E
:10F1E00002994118308800F0D3FB2188401880B282
:10F1F0002080B288002A0AD0B16800290FD0029B73
:10F20000C018FCF7C9FF2088B188401820806D1C09
:10F210000098EDB2007BA842C8D80020CFE70720B5
:10F22000CDE710B50020FEF705FC002803D0002232
:10F230001146FDF70FFEFEF74BFB002803D000221E
:10F240001146FDF707FE3CDF002803D000221146DF
:10F25000FDF700FE10BD10B508461146C046C04679
:10F2600010BD0000002803D00249C860002070478C
:10F270000E207047E028002070B5002901D08C07CF
:10F2800001D0072070BD064C0125A16062800549B0
:10F29000636010DF0028F5D1257016202EDF70BDC9
:10F2A000E028002057F20100F0B4427918235A43B5
:10F2B0000D4B0F4ED418627895000C4A535900221A
:10F2C00075590DE0D6009E5D8E4208D1D100C91857
:10F2D0004A7862704968002904D0F0BC0847521C83
:10F2E0009542EFD8F0BC70473C30002094280020B5
:10F2F00014FC010000B587B0002069460871487110
:10F30000022101AA5054491C1229FBDB6946887569
:10F31000C875069001200090182380216020FEF718
:10F32000A5FE07B000BD00B587B000206946087192
:10F3300020224A71022101AA2F235354491C122969
:10F34000FBDBFF2269468A75C87555220A76487626
:10F350008876C87601200090182301AA80216020B9
:10F36000FEF784FE07B000BDFEB51F4C00252769DF
:10F37000E06802906846FEF717FE0190FEF794FFE2
:10F3800006460198002822D000230098E16817E083
:10F390000E680A46864202D9301A086012E0801BC5
:10F3A000F31800261660D668D169B446002E07D03F
:10F3B000FE183602360A566066469660D5611546D6
:10F3C0000029E5D12846E160FEF7CCFF06E028469B
:10F3D000FEF7C8FF002801D1002E02D00298FEF7E8
:10F3E000E1FC00202071FEBDBC2800200120024964
:10F3F000000508607047000000E200E010B50E4B09
:10F40000D968002906D002680C68A24204D8A21A62
:10F410000A60C161D86010BD0B4604E00B46C969A3
:10F42000121B002904D00C689442F7D3A41A0C6074
:10F430000260C161D86110BDBC280020F8B51E4D26
:10F44000EC68002C36D01D48002740682969401A16
:10F450000602360A2068B0421AD8361AC719224660
:10F46000107CE469002811D0002010746B69002B17
:10F4700009D0916950699847002807D000221146A9
:10F48000FDF7E8FC02E0516990698847002CE1D162
:10F490006978A878814206D1401CC0B2A8700228C1
:10F4A00001D10020A87004490006800D18310F50CA
:10F4B000FFF79CFFF8BD0000BC28002000150140AC
:10F4C000F8B50C460968224D8900204849190860A2
:10F4D00061688900491908602068FFF779FC606855
:10F4E000FFF776FC19482168401C8900491908601B
:10F4F00061688900491908600420FCF7EBFD0025CC
:10F50000144F012620793969C140C807C00F02D0C5
:10F51000002D19D00FE0207831468140F960042099
:10F52000FCF7D8FD2068FFF753FC0420FCF7D2FD60
:10F530006D1C092DE6DB20798640FE600420FCF777
:10F54000C9FD6068FFF744FCF8BD00000C06000030
:10F550000007005000050050FFB50546407918210E
:10F560004843594983B04618002769460F705749E8
:10F570004868C005C00D18D0103840B2002807DA1E
:10F580000207120F083A920892005118C96904E064
:10F5900081084F4A8900891809688007C00EC14058
:10F5A0000806840F012C01D10AE00424684636DFE6
:10F5B00002280AD0002803D000221146FDF74AFC99
:10F5C000B078002803D0012703E072B6F8E70120E5
:10F5D000B070012C0BD062B66846007837DF022885
:10F5E00005D0002803D000221146FDF733FC002F80
:10F5F00002D0112007B0F0BD0498F0710698B081D8
:10F600000598B0600020F0810C9971710D993171ED
:10F61000B071341DC8B200280AD000212846FFF777
:10F6200043FE68792B4980000858002802D048E042
:10F630000121F3E72078002801D0022000E0032018
:10F6400000906879182148431F4900274018001D81
:10F650000290C1892868FFF7CDFB0190FF21253179
:10F660002868FFF7C7FB01461B487F1C874201D370
:10F67000012000E0002008430199014303D001214B
:10F68000484002D008E00298E3E7FF2025302968CF
:10F6900000220A5005200090E089296800220A50C3
:10F6A00028460099FFF700FEA078002803D000202C
:10F6B000B07003209EE7608921898842C1D3002071
:10F6C000B070002096E700003C30002000ED00E024
:10F6D00000E400E088280020FF0F0000FF21074819
:10F6E0001D31002242500648028A8168895C028AE4
:10F6F000521C02820348C161704700000020004094
:10F700004C2F00200025004070B58EB005461C210E
:10F710006846FCF75AFD694608780C21084369469B
:10F7200008700024019403940494059406942878A6
:10F7300008A98870022069460884601C0007000F31
:10F7400010300794087711204877887FF921084006
:10F75000F721801C0840EF2108400126304369460C
:10F760008877142109A8FCF730FD08A8099007A89C
:10F770000A9069468E851420CC85088668882B1DE2
:10F7800009AAA2DF0EB070BD10B54179182251430D
:10F79000054A8918CA89521C92B2CA8189898A424B
:10F7A00001D200F013F810BD3C3000201FB500213D
:10F7B0006A4611701072044882680192817406C80A
:10F7C000684690471FBD00004C2F002010B54179BE
:10F7D00018225143064A89188B68C9890268595C06
:10F7E00005231B02D218D16100F004F810BD0000FF
:10F7F0003C30002070B505464079182148431F4928
:10F8000044182868FF30FF300230016889088900F9
:10F810000160E089A189401C241D884202D16078E2
:10F8200000280ED001262868FF30FF300230016822
:10F8300031430160207B20212173296801220A5075
:10F8400070BDFF200530E0810226296800220A50A1
:10F8500068790B498000085800280AD02A680320DC
:10F860000002121821699160022121612A68101892
:10F87000416004212846FFF717FDD4E73C30002003
:10F880008828002070B50178002909D0012901D00D
:10F89000022904D1002240681146FDF7DBFA70BD51
:10F8A000104C0F4D20782818FDF7D2FB2078401C13
:10F8B000C2B2A81822702038C07F0A2801D0142AAA
:10F8C000EDD307490848FDF773FF082805D0002845
:10F8D00003D000221146FDF7BDFA0020207070BD54
:10F8E00040290020002800201C2D00207CB5017834
:10F8F000254D01290AD002292FD000292CD12946D3
:10F900002248FDF7B5FA00282ED031E04068017892
:10F910001E481038FDF7C9FA1C4C103C002805D0D1
:10F9200001216A4611700190684608E0A068E1680C
:10F93000081A012805D100206946087068466968E0
:10F940008847A068E168081AA188884204D80E4850
:10F950000121801CFFF748F97CBD02216A46117025
:10F96000C068019068460CE001210748FFF7A2F942
:10F9700006488168C0688842EED103206946087055
:10F980006846696888477CBD5C280020F42E00200A
:10F990000870000A487002207047000038B5154909
:10F9A000154A488890420FD04A78144C521CD2B263
:10F9B0004A70237B934208D3091D75DF002803D0CA
:10F9C000A169002900D0884738BD00254D70217CF1
:10F9D000002907D03B2176DF002803D0A169002948
:10F9E00000D0884761690029EED0684605708847D5
:10F9F00038BD000048280020FFFF0000C82E00206E
:10FA000012494868C005C00D19D0103840B200280E
:10FA100007DA0207120F083A920892005118C969D2
:10FA200004E081080A4A8900891809688007C00E25
:10FA3000C1400806800F012803D0032803D002200C
:10FA400070470020704701207047000000ED00E083
:10FA500000E400E042788378521CD2B2934200D195
:10FA600000220378934201D1002070470A70416858
:10FA700040781822504308187047FFB583B01646E7
:10FA80000C9D0D9C1F46022200950194039800F0E6
:10FA90000CF8002807D13B4610223146009501940E
:10FAA000039800F002F807B0F0BDFFB583B0074639
:10FAB00000200C9C8646268805463AE07868A90016
:10FAC00042181188684681805188C18000226946A9
:10FAD00001A865DF002839D1684601780598814280
:10FAE00026D17046002801D0002200E002222088A2
:10FAF000891842180D998A4227D8714600290AD1DF
:10FB0000401C80B22080069A049911542088401C21
:10FB1000208001208646218806980A18694601A897
:10FB200065DF002812D169462088097840182080B6
:10FB30006D1C3888A842C1DC704600280AD0208895
:10FB4000801B401E80B2FF2802D90C2007B0F0BDF8
:10FB5000069988550020F9E70179002902D1007B38
:10FB6000002800D0012070470C0D0E0F010000008E
:10FB700000509D00382D0020582D0020842D00209D
:10FB8000110000001200000013000000140000002B
:10FB900011000300E5D8010012000300E5D80100C0
:10FBA00013000300E5D8010014000300E5D80100AC
:10FBB000A82E00209ECADC240EE5A9E093F3A3B58D
:10FBC0000000406E090000000B0000000A00000069
:10FBD00008000000000000000000000000509D0030
:10FBE00003000000090000000B0000000A000000F4
:10FBF00008000000000000000000000000509D0010
:10FC000003000000070000001E0000000000980133
:10FC100003000000020000000500000004000000D6
:10FC200003000000030000000200000000000000CC
:10FC300000000000000000000001000089CA01006F
:10FC400001020000F1EF01000201000089F701004C
:10FC500001020000F1EF010000010000CDF70100FA
:10FC6000040300000000000005040000EDEE0100A8
:10FC7000010200008DF10100030200001DF10100EE
:10FC8000040300000000000005040000EDEE010088
:10FC9000030000001DF101000200000089F70100CF
:10FCA0000500000075CA01000300000075CA0100CC
:10FCB0000200000075CA01000500000075CA0100BD
:10FCC000543000200300000000300040030000001A
:10FCD000070000001E000000000098010100000065
:10FCE00000FD010000280020F8000000E2C501002E
:10FCF000F8FD0100F8280020800F0000F2C5010087
:10FD00000000FFFF010002000000000000000000F2
:10FD100000000000000000000000000000000000E3
:10FD200000000000000000000000000000000000D3
:10FD3000FFFF0000000000000000000000000000C5
:10FD400000000000000000000000000000000000B3
:10FD500000000000000000000000000000000000A3
:10FD60000000000000000000000000000000000093
:10FD70000000000000000000000000000000000083
:10FD80000000000000000000000000000000000073
:10FD90000000000038FC010048FC010070FC01007C
:10FDA00090FC0100A8FC0100000000000000000021
:10FDB0000000000000000000000000000000000043
:10FDC0000000000000000000000000000000000033
:10FDD0000000000000000000000000000000000023
:10FDE0000000000000000000000000000000000013
:08FDF000000000000024F400F3
:040000050001C0C175
:00000001FF
