:020000040001F9
:10B0000080430020C1B10100DBB10100DDB10100CE
:10B010000000000000000000000000000000000030
:10B02000000000000000000000000000DFB101008F
:10B030000000000000000000E1B10100E3B10100E8
:10B04000E5B10100E5B1010039BB0100E5B1010046
:10B05000E5B1010000000000D1B50100E5B101003B
:10B06000E5B10100E5B10100E5B10100E5B1010084
:10B07000E5B10100E5B10100E5B10100E5B1010074
:10B08000E5B1010069B70100E5B10100E5B10100DA
:10B0900065BA0100E5B101006DBA0100E5B101003A
:10B0A000E5B10100E5B10100000000000000000072
:10B0B0000000000000000000000000000000000090
:10B0C00000F002F800F030F80CA030C8083824185E
:10B0D0002D18A246671EAB4654465D46AC4201D1D0
:10B0E00000F022F87E460F3E0FCCB64601263342D2
:10B0F00000D0FB1AA246AB4633431847485800001D
:10B10000685800000023002400250026103A01D3CF
:10B1100078C1FBD8520700D330C100D50B6070470F
:10B120001FB51FBD10B510BD00F0FBF91146FFF7AC
:10B13000F7FF03F079FD00F013FA03B4FFF7F2FF15
:10B1400003BC00F089FE0000401E00BF00BF00BF2E
:10B1500000BF00BF00BF00BF00BF00BF00BF00BFF7
:10B1600000BFF1D170470000401E00BF00BF00BF0C
:10B1700000BF00BF00BF00BF00BF00BF00BF00BFD7
:10B1800000BFF1D17047000070B505460C46164669
:10B1900002E00FCC0FC5103E102EFAD2082E02D3BB
:10B1A00003CC03C5083E042E07D301CC01C5361FCE
:10B1B00003E021782970641C6D1C761EF9D270BDE5
:10B1C00003210C4802680A4302600B4802680A43E4
:10B1D00002600A4880470A480047FEE7FEE7FEE7AC
:10B1E000FEE7FEE7FEE7000006480749074A084B6E
:10B1F00070470000240500405405004099BA010042
:10B20000C1B001008033002080430020803B00203B
:10B21000803B0020034610B50B439B070FD1042A47
:10B220000DD308C810C9121FA342F8D018BA21BA0A
:10B23000884201D9012010BD0020C04310BD002A62
:10B2400003D0D30703D0521C07E0002010BD0378C1
:10B250000C78401C491C1B1B07D103780C78401C40
:10B26000491C1B1B01D1921EF1D1184610BD0000D4
:10B27000034670B502460B439B070FD10E4CE60107
:10B2800000E008C208C91D1B9D433542F9D0D9B260
:10B290001170521C00290DD01B0AF8E70B78491CCD
:10B2A0001370521C002B05D00B78491C1370521CD4
:10B2B000002BF3D170BD00000101010130B5441C29
:10B2C00003E00178401C00290DD08107F9D10B4B18
:10B2D000DD0104C8D11A91432940FAD0001B0A06A7
:10B2E00003D0C01E30BD001B30BD0A0401D0801E3B
:10B2F00030BD0902FCD0401E30BD0000010101013B
:10B30000F8B5042A2CD3830712D00B78491C03709C
:10B31000401C521E83070BD00B78491C0370401C45
:10B32000521E830704D00B78491C0370401C521E28
:10B330008B079B0F05D0C91ADF002023DE1B08C92D
:10B340000AE0FFF721FFF8BD1D4608C9FD401C4675
:10B35000B4402C4310C0121F042AF5D2F308C91AB6
:10B36000521EF0D40B78491C0370401C521EEAD4C4
:10B370000B78491C0370401C012AE4D40978017041
:10B38000F8BD01E004C0091F0429FBD28B0701D5D9
:10B390000280801CC90700D00270704700290BD0C2
:10B3A000C30702D00270401C491E022904D3830740
:10B3B00002D50280801C891EE3E70022EEE700220E
:10B3C000DFE7002203098B422CD3030A8B4211D3FF
:10B3D00000239C464EE003460B433CD40022430826
:10B3E0008B4231D303098B421CD3030A8B4201D316
:10B3F00094463FE0C3098B4201D3CB01C01A5241AE
:10B4000083098B4201D38B01C01A524143098B42FD
:10B4100001D34B01C01A524103098B4201D30B01E6
:10B42000C01A5241C3088B4201D3CB00C01A52410B
:10B4300083088B4201D38B00C01A524143088B42D0
:10B4400001D34B00C01A5241411A00D20146524169
:10B45000104670475DE0CA0F00D04942031000D388
:10B460004042534000229C4603098B422DD3030ADD
:10B470008B4212D3FC22890112BA030A8B420CD3ED
:10B48000890192118B4208D3890192118B4204D316
:10B4900089013AD0921100E08909C3098B4201D396
:10B4A000CB01C01A524183098B4201D38B01C01AD0
:10B4B000524143098B4201D34B01C01A5241030947
:10B4C0008B4201D30B01C01A5241C3088B4201D3F6
:10B4D000CB00C01A524183088B4201D38B00C01AA3
:10B4E0005241D9D243088B4201D34B00C01A52417A
:10B4F000411A00D20146634652415B10104601D307
:10B500004042002B00D54942704763465B1000D390
:10B51000404201B50020C046C04602BD704770479A
:10B520007047754600F024F8AE460500694653465C
:10B53000C008C000854618B020B5FFF755FE60BCB6
:10B5400000274908B6460026C0C5C0C5C0C5C0C54D
:10B55000C0C5C0C5C0C5C0C5403D49008D46704787
:10B5600010B50446C046C0462046FFF7E6FD10BDB4
:10B57000004870472033002070B58C180578401CB7
:10B580006B075B0F01D10378401C2A1106D10278AA
:10B59000401C03E00678401C0E70491C5B1EF9D16C
:10B5A0002B0705D40023521E0DD40B70491CFAE75B
:10B5B0000378401CCB1A921C03E01D780D70491CC7
:10B5C0005B1C521EF9D5A142D8D3002070BD0000EB
:10B5D000F0B50025FF248BB0013401262F460195DC
:10B5E000204603F0A3FD002808D0474840683042B9
:10B5F00004D046480021201835430160241D760000
:10B600007F1CA4B2042FEBD3FF207D3003F08EFD0E
:10B61000002807D03E4800210160400705433D480F
:10B62000006901903C4C280712D0012700262F42C8
:10B630000AD03A48B200111808690969C004C00E5E
:10B640008903A258890F90477F00761C042EEED301
:10B65000002D57DA00200590401E4DE0A119403121
:10B6600008788506AD0E42B2521C39D00121A9409E
:10B67000089A0091114233D080090390284601F0C6
:10B6800083FF800020580490002802D103980328EB
:10B6900026D103980099032802D105980843059004
:10B6A0001F4AA80080180068019A8003800F114289
:10B6B00002D0022802D013E0032811D103990329F4
:10B6C00007D102281CD00221284603F01FFD7F1C51
:10B6D000FFB20498002803D0049A284603999047A3
:10B6E000761C042EBAD3002F0CD00A4800690199A9
:10B6F000884207D00190059800273E460890ADE7A4
:10B700000321E1E70BB0F0BD0063004000600040A2
:10B710007C610040000500500C27002000650040BF
:10B72000000700508307FF22DB0E9A408907090EAD
:10B73000994000280BDA0007000F083883080848F2
:10B740009B001818C36993430B43C3617047830878
:10B7500004489B001B181868904308431860704702
:10B7600000ED00E000E400E010B5064900200860AC
:10B7700048608860C860034940390860486004F048
:10B7800095FD10BD40110140FFB5114F04463878BA
:10B7900081B01D461646002801D100F0D1F9786924
:10B7A000A04211D918200A4960434118002C06D044
:10B7B0000298CE640D6588640020886548650A9803
:10B7C000C865002005B0F0BD0020C043FAE70000C6
:10B7D000A8320020FFB5114F0446387881B01D46CD
:10B7E0001646002801D100F0ABF93869A04211D902
:10B7F00018200A4960434118002C06D00298CE61F7
:10B800000D6288610020886248620A98C862002040
:10B8100005B0F0BD0020C043FAE70000A8320020C8
:10B8200070B5074B0646187814460D46002801D11E
:10B8300000F086F922462946304600F003F870BD34
:10B84000A832002070B50E4618214843134914460B
:10B850004518E86A1835002804D001280FD00228BE
:10B8600005D113E0284600F0A1F9A04201D200243E
:10B8700011E022463146284600F0C3FA0BE0284684
:10B8800000F094F9A042F4D20446F2E7314628468B
:10B8900000F087FA0446204670BD0000A832002060
:10B8A00070B505460C460846FFF708FD02462146DE
:10B8B0002846FFF7B5FF70BD0FB408B504A9009185
:10B8C0006A46039900F004F801B008BC04B01847B8
:10B8D000F7B598B007A80290402000250495039082
:10B8E00018980C46059506902178641C002977D09D
:10B8F000252907D002A800F035FA05980028F3DAC8
:10B900001BB0F0BD01220021022713460826207833
:10B9100023281BD02B2816D02D2802D0302806D162
:10B9200001E0194300E03943641C002AEFD10022F2
:10B9300020780346303B0A2B0AD20A235A431218B6
:10B94000303A641CF4E704200143EDE73143EBE7B0
:10B950000023C7B22E2F0AD1641C20780746303F3F
:10B960000A2F04D20A277B431B18303BF4E76C28CC
:10B970000DD068280BD0702852D00BDC25285AD067
:10B9800058282ED063280CD0642858D110E0207895
:10B99000641CECE7732832D0752817D078284ED174
:10B9A0001FE01A981A9A0068011D1160017843E09F
:10B9B0001A981A9F0068061D3E6000680191009267
:10B9C00001460A2202A800F0FCF838E01A981A9FF3
:10B9D0000068061D3E600068009201910A2209E09D
:10B9E0002FE01A981A9F0068061D3E6000680092BA
:10B9F00001911022014602A800F048F91FE01A98B0
:10BA00001A9A0068011D116006683178761C0029B9
:10BA100015D002A800F0A6F905980028F5DA0EE086
:10BA20001A981A9A00680823011D116001681022F3
:10BA300000960195DFE7252102A800F093F9641C28
:10BA40005BE70598002800DC5AE70498002804D03A
:10BA5000024607A91898FFF7E3FE049905984018D5
:10BA600005904DE710B504F0B7FB10BD10B50848C0
:10BA70004068002808D08047002804D0FF21054AEC
:10BA8000673100F043FC10BD02F0FCFE10BD000069
:10BA9000A8210020EC08020010B502F043FF0028A6
:10BAA00005D01F491D484860C8131E4988611E48BB
:10BAB000018CC9B201290BD1828C120708D1028DE9
:10BAC0001206120F042A03D1828D1206120F0AD019
:10BAD000012921D1818C09071ED1018D0906090F89
:10BAE0000A2904D007E0114A01219160F5E7828D0F
:10BAF0001206120F05D00D290ED1808D0006000F01
:10BB00000AD10B480168012904D00A490160016883
:10BB10000129FCD1C021416110BD0000DFFF07C039
:10BB200000050040006C0040C00F00F0000600401F
:10BB300000EC06407593000010B504F0C3FC10BD86
:10BB400010B5124C02202061606111A0A061134861
:10BB5000E0610120800220620020A06260620CA1EE
:10BB6000A1642146E0621039E16410212165A065DD
:10BB70006065E0650AA1E01DFFF77AFB09A1204698
:10BB8000FFF776FB2020A07110BD0000A832002036
:10BB90005465726D696E616C00000000982E002083
:10BBA0005254540053454747455200000269C1684A
:10BBB0008A4203D88068401A801800E0501A401E5C
:10BBC0007047FFB583B00E4670420D9F0C9C0090ED
:10BBD000002900DB0846012502E0FFF7FCFB6D1C95
:10BBE00005998842F9DA0698A84200D90546002C42
:10BBF00004D0002E01DB780700D5641EB80702D5FB
:10BC00000698002810D0F8070ED1002C0CD0A542C1
:10BC10000AD22021641E039800F0A4F80398C0689B
:10BC20000028F2DA07B0F0BD0398C0680028F9DBFD
:10BC3000002E02DA2D21009E02E0780707D52B2185
:10BC4000039800F08FF80398C0680028EADBB80773
:10BC5000800F022810D1069800280DD1002C0BD09F
:10BC6000A54209D23021641E039800F07BF80398A6
:10BC7000C0680028F2DAD5E7019700943146069BA8
:10BC8000059A039800F002F8CCE70000FFB581B0F8
:10BC900001261F4634460A9D029802E0FFF791FBF9
:10BCA000641C03998842F9D2A74200D93C460B98FC
:10BCB000C00718D1002D16D00B98800701D5002F92
:10BCC00002D0202000900CE03020FBE76D1E009990
:10BCD000019800F047F80198C06800283DDB002D6E
:10BCE00001D0AC42F2D30198C068002835DB012FA7
:10BCF00001D97F1E06E031460298FFF762FB0399E7
:10BD0000884202D303984643F1E7154F3146029823
:10BD1000FFF757FB0146029A7143511A0291395CB1
:10BD2000019800F01FF80198C068002805DB304634
:10BD30000399FFF746FB0600E8D10B98C0070CD02B
:10BD4000002D0AD0AC4208D220216D1E019800F0CF
:10BD500009F80198C0680028F2DA05B0F0BD0000CB
:10BD60009008020010B5044680686368421C934244
:10BD700005D323681954A260E068401CE060A26803
:10BD80006068824209D121682069FFF749FDA168F6
:10BD9000884203D00020C043E06010BD0020A060B6
:10BDA00010BDF7B5064682B000200090F468174633
:10BDB0003069A04201D9051B02E0B168201A0D1AB2
:10BDC000B0686D1E001BA84200D80546BD4200D3D6
:10BDD0003D4670682A4600190399FFF791FA0098CA
:10BDE0007F1B401900900398641940190390B068B4
:10BDF000A04200D10024F460002FD9D1009805B0F2
:10BE0000F0BDF7B5C668174604468068851B6068B4
:10BE1000BD4206D980190199FFF772FAF019E06066
:10BE2000FEBD2A4680190199FFF76AFA01987E1B28
:10BE3000411932466068FFF763FAE660FEBD30B430
:10BE40007446641E2578641CAB4200D21D46635DB7
:10BE50005B00E31830BC1847FEE7F7B584B0002557
:10BE6000168807461580406B1446002813D00378C7
:10BE70000598032E51D30221017021881122491CFB
:10BE800089B2218042542188491C89B221804354BF
:10BE90002088401C2080386B00281DD00546208853
:10BEA000059902461232B24237D811220A5420882C
:10BEB0001022401C80B220800A542088401C208020
:10BEC0000F202A5C2388401ECA54228840B2521C8C
:10BED00022800028F5DA0025384620300290807B49
:10BEE000002806D033462246059902F067FD05007A
:10BEF00014D10298407B002806D03246214605988E
:10BF000000F0EEFD050009D1B878002823D005988F
:10BF100086462088001DB04202D90C2007B0F0BD33
:10BF2000684679DF0028F9D12188032072465054F1
:10BF300020881921401C80B220801154208871462D
:10BF4000401C80B2208041186846008804F04EFBF7
:10BF5000218840182080F878002817D021880323F2
:10BF60000A46FB56C91C0598B142D6D80221815415
:10BF700021880122491C89B2218042542188491C10
:10BF800089B2218043542088401C20807868002892
:10BF900017D021880023C3560A46C91C0598B14210
:10BFA000BBD80221815421880A22491C89B22180F0
:10BFB00042542188491C89B2218043542088401C66
:10BFC0002080388900280AD000943846019606223D
:10BFD00002210830059B04F088FB05009ED1388AB9
:10BFE00000280AD000943846019607220321103019
:10BFF000059B04F07AFB050090D1388B00280AD00D
:10C00000009438460196152214211830059B04F03F
:10C010006CFB050082D1386A002806D033462246E0
:10C02000059901F083FC0500D8D1786A002806D074
:10C0300033462246059902F0B1FE0500CED10298A2
:10C04000007B002807D0334622463846059903F086
:10C0500081FD0500C2D13878002807D0334622463A
:10C060003846059902F0CEFE0500B7D1284655E7BF
:10C0700010B501220221002001F0B2F8002801D001
:10C08000072812D107220221012001F0A9F8002877
:10C0900001D0072809D100210A22084601F0A0F8A2
:10C0A000002801D0072800D1002010BD30B5A7B06E
:10C0B000382101A8FFF783F90221684601710125A3
:10C0C00085710621C17103218182124806902421C5
:10C0D0000FA8FFF774F910A80572FF202D30002477
:10C0E00013903821149418A8FFF769F910A8058651
:10C0F0000848094B001F1D900FAA0021009401A8B9
:10C1000000F06AFA002803D004A2084900F0FEF803
:10C1100027B030BD8820002005F201002E2E5C2EB5
:10C120002E5C2E2E5C6D61696E2E63001F03000075
:10C1300070B590B005461C216846FFF740F9694686
:10C140000878042108436946087000240194039488
:10C1500004940594012608A906948E701448694633
:10C160000884601C00070794000F0C772030487784
:10C17000887FF9210840F721801C0840EF21084002
:10C18000B0436946887714210AA8FFF718F908A96F
:10C190000C7107A80A910B9069460E864C868E8614
:10C1A00009A80E90A888AB1D0AAAA2DF10B070BD26
:10C1B000062A000010B500280FD001281AD0022846
:10C1C00026D114A10020FFF76BFB102001F02CF802
:10C1D00000281DD0124A134918E013A10020FFF7D0
:10C1E0005FFB112001F020F8002811D00D490C4A06
:10C1F0000C390BE00FA10020FFF752FB0D2001F0DE
:10C2000013F8002804D00749054A891F00F07EF87A
:10C2100010BD00004869676820416C6572740A00AF
:10C220003CED01003B0300004E6F20416C657274D1
:10C230000A0000004D696420416C6572740A0000B8
:10C24000044842680121C9050B46934383600A40B4
:10C25000C26070470005005070B50024064D06E02E
:10C260006968E000085C012102F060FE641C287827
:10C270008442F5D3002070BD70210020F8B515462A
:10C280000C460646052A01D20720F8BD02F024FF1D
:10C29000002803D102F0F6FE0028F6D11049002054
:10C2A0004E600C70C8608D6008610E4D0DE0E000BE
:10C2B00069688019009181786A46517000780A4A4D
:10C2C000694602F083FE0028DFD12046641EE4B2F6
:10C2D0000028ECD1054A0021024800F083F8F8BD9F
:10C2E0007021002088080200BDE701000DDB01007D
:10C2F00070B5064614460D460C2000F095FF224608
:10C300002946304600F010F870BD00000EB56B46AF
:10C310001980019202906A4600210248FFF7E8FF67
:10C320000EBD00000140000018B501246B461C70D2
:10C330001B78144B186059609A601349401807D055
:10C3400001280FD1DA60D86800889861D86807E0C2
:10C350001A611869806858611869008898611869BD
:10C360004068D861186858689868D868186958692A
:10C370009869D86972B6684600780028FBD162B621
:10C3800018BD0000042A0020FFBFFFFF014B1B68FF
:10C3900018470000E826002038B50C46A2680C2398
:10C3A0005A43064B09789D58054A126A0092024684
:10C3B000204608302369A84738BD0000CC2900205A
:10C3C0004C21002010B5064914230A785A4351180D
:10C3D000091DFFF7E1FF042003F0BAFC10BD0000C7
:10C3E00070270020094B9B68002B07D0002A07D03C
:10C3F000002805D00068037C002B03D0082070477C
:10C40000072070474174426100207047842100205A
:10C41000FFB59007002581B014460E46002832D1A2
:10C420001B4F002C31D003F06DFA04987861032083
:10C43000387033461821224600204B43BC60183424
:10C44000C10089180D704D708E704C601C19401C15
:10C450000328F5DBFD607D7001240E48BD702405C6
:10C46000046003211420FFF75DF90B4804600B4CB6
:10C470000198A06003211120FFF754F9606838612A
:10C48000002005B0F0BD0720FBE7BD60FBE7000022
:10C490008421002080E200E000E100E0001501407E
:10C4A000FEB50D461B4917468968044600292AD067
:10C4B000002C28D0052D01D20720FEBD6069002880
:10C4C00021D0607C012820D0002604F0D1F8C000E3
:10C4D0001049019089684018694604F0F3F8002873
:10C4E00015D0012101700C49446049680830E2C050
:10C4F000084901988968411868460078487003F037
:10C50000ADFE0020FEBD0820FEBD2E46DDE7042066
:10C51000FEBD00008421002000150140F8B5134D38
:10C520000446A96800291CD0002C1AD06069002894
:10C5300017D00026267404F09BF8C700A868694647
:10C54000381804F0BFF800280DD0022101704460B3
:10C55000A868391868460078487003F07FFE3046B6
:10C56000F8BD0820F8BD0420F8BD0000842100209B
:10C57000F0B50C4693B01F216A46118007260027AC
:10C580009180002809D0C17849070DD502A9FFF78D
:10C5900064FC002809D102AD01E000251780002CC1
:10C5A0000ED0E078002802D0304613B0F0BD01AACA
:10C5B0000AA92046FFF751FC0028F6D10AAA02E09A
:10C5C00068460022878068468088C3B26846008833
:10C5D000C1B2284672DFE8E770B50D4604991646E9
:10C5E000040042D0002E40D0424800224271C36075
:10C5F0000161242231464048FEF7C6FD00F0D4F820
:10C600003D493431084610380160203181603821BD
:10C610005C38FEF7D4FE3848217838380170A178AC
:10C620008170E178C170617841706269216942610D
:10C630000161E268A168C26081600146E369A269A4
:10C64000CB618A61616A002919D00146AC3102468A
:10C65000B83241628A60636A1B880B80616A436AF0
:10C66000898899800021436A06E00E2070BD666AC1
:10C67000B668765C5654491C9E888E42F7D8A16AEB
:10C6800000291CD01C4AAC3211460C398A608162E8
:10C69000A36A9B888B80A16A836A0988198000211C
:10C6A000836A04E0A66AB668765C5654491C9E8884
:10C6B0008E42F7D82C210A5D0F4918390A73216A76
:10C6C000002909D00B4914310162226A52884A803C
:10C6D000216A026A098811806168002904D005492D
:10C6E000891D416061684160034829463838FFF779
:10C6F0003FFF70BDB4200020B424002010B5028894
:10C700001C4C102A17D00021112A1AD01B2A11D133
:10C71000007A00280ED1607901281ED0022822D08C
:10C72000032822D0042805D12171E2680846002A96
:10C7300000D0904710BD817D0129FBD180882081E8
:10C7400010BD6170808821898842F9D1012005E0FF
:10C7500021690029F4D0884710BD022000F058F864
:10C760000028F5D110BD0320F8E703202071042034
:10C77000F4E70000B420002010B5022801D00328FF
:10C780000ED1084C207800280AD000202070607953
:10C7900000F03EF8002803D02169002900D0884726
:10C7A00010BD0000B420002010B507210148FEF79D
:10C7B00006FE10BDCC20002010B5134800780128DB
:10C7C0001FD1124C607800281BD16079002802D05C
:10C7D00074DF002816D101200B496070062038391B
:10C7E000C870094800213838FFF7C2FE002809D177
:10C7F000607900F00DF8002803D02169002900D0ED
:10C800008847002010BD0000B4240020B420002080
:10C81000F0B5784C87B06071002606A8069602F045
:10C8200021FE0127082802D0002808D104E006A82C
:10C8300001F0A4FE002804D10698002801D027703A
:10C84000D4E0FFF7B1FF6C4D6878002802D0607922
:10C85000012807D0A87800280CD06079012801D0E1
:10C86000022824D1E168002903D0E7700820884716
:10C8700000E0E6706079012808D16878002809D0C6
:10C880005C48193002F06AFD002803D06079022864
:10C8900002D00CE002206071A878002805D055482D
:10C8A000193002F05BFD002801D103206071287B64
:10C8B000002804D16079032801D104206071287E0A
:10C8C000002804D16079042801D166712671E168DD
:10C8D00000290AD06079032801D0042805D12878DE
:10C8E000002802D06078002817D0A670182168466A
:10C8F000FEF765FD6846067001960672039660793C
:10C9000001280ED0022815D03B4E243637465C3F16
:10C9100003281BD004285DD13AE0A7700720884780
:10C92000E4E7344818300190684607704682068272
:10C93000277152E02F481830019068460770298906
:10C940004182A98801820220207146E0A88A6946B6
:10C950004882288A08822848243003F035FF0028BE
:10C9600005D02878002802D06078002801D0032064
:10C970002FE002206946087204200396F8701E48D2
:10C9800000213838FFF7F4FD002830D1052020E0E1
:10C99000A88B69460882288C48821748243003F007
:10C9A00013FF002805D02878002802D060780028DE
:10C9B00001D004200DE0022069460872042003968D
:10C9C000F8700D4800213838FFF7D2FD00280ED14D
:10C9D000062020716079002803D0684673DF0028A4
:10C9E00005D1E168002901D020798847002007B0EF
:10C9F000F0BD0000B4200020B424002070B505462E
:10CA000001461C220E48FEF7BFFB0E4C0026267086
:10CA10002968002906D00822201DFEF771FC201D80
:10CA20007ADF02E00748001D7BDF002807D1401EA7
:10CA300060806670044A00210448FFF7D3FC70BD93
:10CA4000A0250020D42000200D06020018080200B6
:10CA5000F8B5214C028800271E4DE689102A15D012
:10CA60001E49112A21D0122A2DD0502A1CD1C28849
:10CA7000801DB24218D14289022A15D1427B037B24
:10CA800010021843C007C00F0CD112E081886980E2
:10CA900001461048082218310C30FEF731FC6F7047
:10CAA000002E01D100F096FFF8BD0020C043688041
:10CAB0006F700868FFF732FD0028F5D0A1690029E2
:10CAC000F2D08847F8BD0822811802480C30FEF7E2
:10CAD00017FCE7E7D4200020A0250020180802005A
:10CAE0007CB5054608880C460930904201D90C20D7
:10CAF0007CBD684671DF0028FAD12188082068547F
:10CB000020881B21401C80B220802954208800A945
:10CB1000401C80B22080401906220131FEF7F0FB54
:10CB200020886946801D80B220800978002900D0C5
:10CB3000012129542088401C208000207CBD000059
:10CB40007FB504460121684681714A4981804A4A7D
:10CB500001A90120A0DF00287ED1228825463C358E
:10CB6000002A09D044482B46801C00904348616845
:10CB700000F012FD00287BD12289002A0AD03E480D
:10CB80002B460A3000903D48E168401F00F004FD4C
:10CB900000286DD1228A002A0AD037482B4612304D
:10CBA000009036486169001F00F0F6FC00285FD154
:10CBB000228B002A0AD030482B461A3000902F488A
:10CBC000E169801E00F0E8FC002851D1228C002A87
:10CBD0000AD029482B46223000902848616AC01E9E
:10CBE00000F0DAFC002843D1228D002A0AD0224826
:10CBF0002B462A3000902148E16A401E00F0CCFC10
:10CC0000002835D1216B00290ED002A803F08AFA42
:10CC100019482B46323000901848082202A9801F7C
:10CC200000F0BAFC002823D1606B00280BD0124919
:10CC30002B463A310091027901681048401C00F0FF
:10CC4000ABFC002814D1A16B002910D002A802F07F
:10CC5000C9FB0948423000E00AE0009007482B4633
:10CC6000072202A9273000F097FC002800D10020FD
:10CC700004B070BD0A180000E8200020292A000036
:10CC800010B5044610A10020FEF70AFE204602F06F
:10CC9000E1FA2046FFF7DCFE2046FFF72FFD204695
:10CCA00000F0ACF921460D4800F054F90B4821463C
:10CCB0000C3000F02FF8094821461C3000F078F8BD
:10CCC000204601F083F810BD626C655F6576745F85
:10CCD00064697370617463680A000000D8230020DF
:10CCE00038B50446086800280FD020600121684646
:10CCF000817007490180221D69460120A0DF0028BC
:10CD000002D12046FFF714FA38BD072038BD0000D5
:10CD10000218000008B50A88102A12D0502A0FD134
:10CD2000CA88C388891D9A420AD14A89012A07D133
:10CD300000236A461370097B517002686946904768
:10CD400008BD8988C18108BD30B5184B0D46040067
:10CD50000FCB85B003936B4607C324D0002D22D0A0
:10CD60000020C043A0822868A0610020A075214651
:10CD7000684663DF002814D1217868468174012158
:10CD80000182A21C04A90120A0DF002809D12946A4
:10CD9000204602F0F5FD002803D12946204603F085
:10CDA000FBFA05B030BD0E20FBE700005008020082
:10CDB00000281ED000291CD00A88102A14D0112A5D
:10CDC00014D0502A15D1CA88038A891D9A4202D1EB
:10CDD0004B89022B0ED083889A420AD18369002B9B
:10CDE00007D04A890C311847898801E00021C943DE
:10CDF000818270474A7B0B7B11021943C907C90F17
:10CE000000D001218175704707B584B000280DD08E
:10CE1000828A114B9A420BD0827D002A08D06A4642
:10CE2000128B142A06D9072007B000BD0E20FBE79D
:10CE30000820F9E70022009201920292039282896F
:10CE40006B461A80039106A9029101219970808A8C
:10CE50006946A6DFE8E70000FFFF000070B5044662
:10CE60000D460846FEF72AFA2080656070BD000076
:10CE700000B5234887B00068059000234822214967
:10CE800005A803F02BF8002804D051211EA2C900E8
:10CE9000FFF73CFA6A460121002003F007F800285A
:10CEA00003D019A21C49FFF731FA1C4802F0C6FD55
:10CEB000002804D0A52114A28900FFF727FA6846AC
:10CEC00002F074FF002804D053210FA2C900FFF71D
:10CED0001DFA134802F060FF002804D0A7210AA21F
:10CEE0008900FFF713FA0F4803F01AF8002804D05E
:10CEF000152105A24901FFF709FA07B000BD00009E
:10CF0000D8070200902300202E2E5C2E2E5C2E2EA1
:10CF10005C6D61696E2E63008E020000E81F0020C8
:10CF200081CC01001501020038B504460D460121EF
:10CF30006846817006490180224669460120A0DFCB
:10CF4000002803D12946204603F076FA38BD0000B8
:10CF5000041800000A88102A01D18988418170478D
:10CF60001CB5044681786A460C4802F08FFA002806
:10CF700012D160781C21484309491C2340181A46E5
:10CF8000694602F049FB064806494C30807A800029
:10CF90000A582146684690471CBD000044210020E5
:10CFA0009C260020300802007CB5134E00250C465C
:10CFB0003060002918D06946002000F0B5F800283C
:10CFC00019D101A9012000F0AFF8002813D168465B
:10CFD00001790020002901D0022004E06946097887
:10CFE000002900D00B2020707068002802D1FFF7C4
:10CFF0003FF8054628467CBDAC20002010B51C4CEF
:10D000000188606810290DD011290AD1401E606086
:10D0100007D1FFF72DF8002803D02168002900D0A0
:10D02000884710BD00281ED100210122084600F0CB
:10D03000D7F8002801D0072811D1072202210120AA
:10D0400000F0CEF8002801D0072808D104220221E0
:10D05000002000F0C5F8002805D0072803D021687B
:10D06000002900D088476068401C606010BD000047
:10D07000AC20002010B5032000F030FA002801D0C9
:10D08000062800D1002010BDF8B50746002423482B
:10D0900002E0641C042C1AD2A2008258BA42F8D1D1
:10D0A000042C14D21D481E4E0C38002929D0012909
:10D0B0000ED002290BD16000201880194578002D70
:10D0C00005D018480169002901D028468847F8BDD5
:10D0D00061006118755C8E19717800290CD01149B6
:10D0E0000A224968806851430E4A521CFFF7D8F95A
:10D0F000002801D10B4847700A48B1781430015517
:10D10000DDE78068FFF70AFA06486100611814300D
:10D110008919005D8D78A842D1D0F8BDE8070200DA
:10D12000502400209420002004280CD2074A1269C1
:10D13000074B80001B5C01209840904300D00120E9
:10D140000870002070470020FAE70000000500503A
:10D15000E807020010B50446024614A10020FEF7BD
:10D16000ABFB0A2C13D00EDC042C13D0072C09D1F6
:10D17000FFF722FB082805D0002803D012A2164989
:10D18000FFF7C4F810BD0D2C01D00E2CFAD102F01F
:10D19000B9FD10BD11481321408876DF0828F8D06A
:10D1A0000028F6D00C4908A20839E9E76273705FDD
:10D1B0006576656E745F68616E646C657220657615
:10D1C000743A25780A0000002E2E5C2E2E5C2E2E3E
:10D1D0005C6D61696E2E6300C1020000802000203A
:10D1E00070B50023042811D2440004190D4D012A02
:10D1F00002D101290DD0002246008019094E801964
:10D2000000290CD0012906D0022906D00723184690
:10D2100070BD0D30C2B22A55F9E74270F7E782704F
:10D22000F5E700005024002010B5054A0146127AA7
:10D230000020D20702D0084600F054F810BD0000CC
:10D240009420002070B50E46204905464E608D6042
:10D2500000200A61A9071ED500240122114620469C
:10D26000FFF7BEFF641C042C02D20028F5D012E0A8
:10D27000002810D1720804211548FEF7FFFF00288E
:10D2800009D1FEF7E9FF002805D11148114A002114
:10D290001438FFF7A7F8E90706D00F220E49520508
:10D2A0008A600023CB608A6100280DD108480B4AB0
:10D2B00000211C38FFF796F8002805D10448084AD9
:10D2C00001211838FFF78EF870BD0000942000206F
:10D2D000F807020019D501000005005011EA01000D
:10D2E00041C20100FEB57A4D0722EB6892059A43D0
:10D2F00002936B6800939C0006461B1900200121D5
:10D30000019349050746734C3300FEF798FD180D4D
:10D310001515374755677C887F8891DE9E9E9E9EB7
:10D320009EC8CED1D8DEDE140F21029A4905914362
:10D33000A160E7602F70FEBDA260E76060680F2209
:10D3400052055040800209D5A160E760022E02D14B
:10D35000E120C0000AE07D20400107E0E160A76015
:10D36000022E01D1C82001E0FF2091302E706421EF
:10D37000FEF727F80099414300223FE0A260E760F2
:10D3800060680F2252055040800204D5A160E7601A
:10D3900019204001EAE7E160A760E3E7A260E760E7
:10D3A00060680F2252055040800202D5A160E760FC
:10D3B000D1E7E160A760D7E7A260E76060680F226D
:10D3C00052055040800202D5A160E76001E0E160B3
:10D3D000A7602E700098410000220FE0A260E76075
:10D3E00060680F2252055040800202D5A160E760BC
:10D3F00001E0E160A7602E700099002236480068C5
:10D40000FFF74EF8FEBDA260E7601BE061680120F7
:10D41000800502468A43A2600140E16010E0606836
:10D42000012189050A468243A2600840E060E3E7E3
:10D430006068012189050A468243A2600840E060D5
:10D440000199C9E7E160A7602DE023484068FFF734
:10D4500065F811218A1B01D0002807D00F22E96846
:10D4600052051140A160E760EF60FEBD0121C905D2
:10D47000E960012A0CD91046C82148436421FDF710
:10D48000A0FF69680022414313484068FFF708F88D
:10D490000F22E96852051140E160A760FEBD0F212F
:10D4A0004905A160E7602E70FEBD07229205AAE73C
:10D4B0000D214905A160E76001218905C2E703212B
:10D4C000C905A160E7608910BCE70F214905B9E7EC
:10D4D0009420002000050050DC070200F0B5002178
:10D4E0000B4C0C4D03273F048A00A258920056199A
:10D4F000326801238B40034000D00323BA431B044E
:10D5000013433360491C0429EED30020F0BD000012
:10D51000E80702000007005010B500780221FFF76D
:10D52000B3FD10BD0022D243830004490428CA5031
:10D5300002D3081820300277704700000C27002023
:10D54000F0B50025ED43002A02D00023042601E0B7
:10D55000042308260B4C04E09F00E7597F1C04D0ED
:10D560005B1CB342F8D32846F0BD26185DB22036C6
:10D5700035709E00A151002AF5D1E11820310877BD
:10D58000F1E700000C270020024909182020085666
:10D59000704700000C270020FFB58FB01E461546CF
:10D5A0000F0004D123A26D210020FEF7AFFE002D55
:10D5B00004D120A26E210020FEF7A8FE1C2168469F
:10D5C000FDF7FDFE684601780220014368460170C0
:10D5D00000240194039404940594012108A806945E
:10D5E000817068460F9901840794317801777178CA
:10D5F0004177807FF9210840F721801C0840EF2106
:10D6000008404108490068468177142109A8FDF7C0
:10D61000D6FE08A8099007A80A9068468585C485A3
:10D62000058614480D9709AA69460088189BA2DF51
:10D6300013B0F0BD2E2E5C2E2E5C2E2E5C2E2E5C9A
:10D640002E2E5C2E2E5C636F6D706F6E656E747324
:10D650005C626C655C626C655F736572766963655C
:10D66000735C626C655F6469735C626C655F64695E
:10D67000732E6300E8200020F8B53E48142201789C
:10D6800051430C18E0680C2148433B492769401876
:10D69000058941890091241D466801F089FF0146F2
:10D6A0003846FDF78EFE002932D000200099A2886E
:10D6B0004D436188AE198918CD1900222F490028E1
:10D6C0000A6109D001F074FF6188884222D0B54216
:10D6D00002D1A08800281DD0A06803281AD001F02C
:10D6E00067FFA188CA1901461046FDF76AFE234C60
:10D6F0008808E06001F05CFF01462846FDF761FE06
:10D70000002911D00020B5422FD000280ED02CE0E7
:10D710000120CBE701F04CFF01463846FDF751FEF2
:10D7200016494861032021E00120ECE7ADB2B7B211
:10D7300001F03EFF01463846FDF743FE064601F084
:10D7400037FF01462846FDF73CFE864201D1781B93
:10D7500009E001F02DFF064601F02AFF01462846A8
:10D76000FDF72FFE701A80082061022002F0F0FA07
:10D77000F8BD000070270020CC2900204C2100209B
:10D7800010B507481422017851430818007904287D
:10D7900002D000F059F810BD012002F0D9FA10BDF6
:10D7A0007027002010B50B48142201785143081847
:10D7B000094AC18811620079012806D0032801D0E6
:10D7C000042801D1FFF758FF10BD012002F0C0FA74
:10D7D00010BD0000702700204C210020142250436F
:10D7E000054A002180180171C18002220161C260D6
:10D7F000416101817047000070270020F8B5104C8E
:10D80000069E65781E2D19D027787D191E2D00D310
:10D810001E3D14277D432D1928716A6103C92961B2
:10D82000E860EB802E816078401C607005480078CD
:10D83000002801D1FFF7B6FF0020F8BD0420F8BD95
:10D84000702700204C21002010B50D4C14212078A9
:10D85000484301190020091DFEF79EFD2078FFF7BF
:10D86000BDFF6078401E60702078401CC0B2207000
:10D870001E2801D100202070002002F069FA10BD9E
:10D8800070270020F8B52348C16800293ED00E68F3
:10D8900021494C680769C078E11B0D022D0AED1C77
:10D8A000002814D101201D4A000450601B4A403A50
:10D8B00050601B49400008601A4908601A4901205D
:10D8C00008602F20FDF750FC12490120C870B542B6
:10D8D00000D23546E81900020F4B000A40331860A9
:10D8E0000D4A5168001B091B0902090A0002000ABF
:10D8F000C91C814209D9506818602F20FDF734FCFB
:10D9000001200749400480390860F8BD01F0FAFFA2
:10D91000F8BD0000842100200015014040130140A3
:10D9200080E200E000E100E000100140F8B50646AA
:10D93000108814468446801D0D46984201D90C205B
:10D94000F8BD32880720062AFAD31927FF01184BA1
:10D95000BA4201D99A42F3D171880629F0D3B9426B
:10D9600001D99942ECD19A4203D0994201D08A421E
:10D97000E6D805216046295420881221401C80B237
:10D98000208029542088401C80B220804119308892
:10D9900002F02CFE2188401880B220804119708846
:10D9A00002F024FE2188401820800020F8BD0000ED
:10D9B000FFFF000010B5FF2102A2CF31FEF7A6FC49
:10D9C00010BD00002E2E5C2E2E5C2E2E5C6D61692B
:10D9D0006E2E6300F8B5164800F096FF144D002631
:10D9E0000C3D144C002807D0616900291CD001208F
:10D9F0006A461070684616E02878002805D06169EC
:10DA0000002911D0684606700DE0687800280DD016
:10DA1000A168094800220068FEF742FD002803D0F3
:10DA2000A169002900D088472E70F8BD6168F0E731
:10DA3000E0200020A02500201808020070B5094B46
:10DA400004469E7A082000250E4207D006488442EC
:10DA500002D01889A04202D10020156070BD0520B7
:10DA600070BD0000DC260020FFFF00000C214843B1
:10DA7000064910B5012240188272911E0181FF21D2
:10DA8000C1720721FDF799FC10BD0000DC260020C3
:10DA900010B5134C207900071FD46069401C6061E9
:10DAA000E068002801D0042004E000F05FFF0028B7
:10DAB00003D0022002F024FB10BD2069002809D009
:10DAC0006068C10701D00320F4E7012108436060CA
:10DAD0000020EFE7FFF754FE10BD02F005FB10BD7C
:10DAE0004C21002010B5084841680A0708D48A076D
:10DAF00002D5012211434160022002F001FB10BD5A
:10DB000002F0F2FA10BD00004C210020F8B500260A
:10DB10000124154D23E06968F00047183878214644
:10DB20002A698140114218D08A432A6101F0A0FA83
:10DB30003A782146EB689140194003469340994258
:10DB40000BD17978012901D0012100E000217B6807
:10DB50004140002B01D010469847761CF6B2287839
:10DB60008642D8D3F8BD000070210020FEB50E46D5
:10DB7000044681786A46234801F088FC002826D1B3
:10DB800060780C21204F4843C019807A40061FD48A
:10DB9000022E1DD0012E1DD01C4DA0781C21484303
:10DBA0001B49002341181C226846A847002813D0AF
:10DBB000022E0CD020780C21484313490C31401818
:10DBC000807A144980000A58214668469047FEBD75
:10DBD000114DE2E7114DE0E7022EF8D060780C21FC
:10DBE0004843C019817ABF221140817260781C219C
:10DBF00048430549403941181C231A466846A8473E
:10DC0000D8E7000044210020DC2600206D0002003F
:10DC1000D82500202008020061F8010081F70100EA
:10DC200070B50546114A124800241C2363431B1893
:10DC30009B7EFF2B04D0641C072CF6D3104670BDCE
:10DC40000A78022A09D01C2262431018FD2282762B
:10DC500007221030FDF754FB04E01C216143081833
:10DC6000FE2181762C700022E8E70000438000004E
:10DC7000D8250020F7B505250F4F06460024002EB5
:10DC80000AD01C206043C019072231461030FDF72E
:10DC9000C1FA002807D00AE01C206043C019018B9C
:10DCA0000298814203D101980025046002E0641CBF
:10DCB000072CE4D32846FEBDD82500207CB50546B8
:10DCC00081B26A46074801F0E1FB040008D17421E3
:10DCD000684601F007FC040002D1284601F04AFB27
:10DCE00020467CBD4421002070B514460D4610002E
:10DCF00003D006A20949FEF709FB2A78234608A1AA
:10DD00000020FDF7D9FD002070BD00002E2E5C2EF6
:10DD10002E5C2E2E5C6D61696E2E6300D2020000B7
:10DD20006465766963655F6D616E616765725F6585
:10DD300076745F68616E646C65722069643D2578F5
:10DD40002C207265743D25780A0000001FB56946D5
:10DD5000087301F033FC002804D0BB21174A890066
:10DD6000FEF7D4FA03A800F029FA002803D0134ADA
:10DD70001349FEF7CBFA01A805210130FDF71DFB81
:10DD800069464979012001438122114030314A0618
:10DD9000520E69464A7107228A711022CA710949D6
:10DDA000009169460871084800F034FB002804D04F
:10DDB0000349024A1031FEF7A9FA1FBD3CED0100EC
:10DDC000EF020000E9DC010080200020F0B591B0F6
:10DDD0000546FF24002007940290EA4800780028B6
:10DDE0004BD0E94F3868002847D001A800F0D8F997
:10DDF000002803D0E54AE649FEF788FA281D059079
:10DE00002C2069460883FF20002688710E71039636
:10DE1000DD4C28880C3C10280ED0A88803AA0221CB
:10DE2000FFF70CFE002807D103980C214143091984
:10DE3000CA7A69468A7148712A881320192A7DD0C6
:10DE40000FDC102A1BD0112A55D0132A77D0142AA0
:10DE500013D103980C2148430019C07AFF286FD0D2
:10DE6000A1E0CC491A2A6CD01E2A65D0522A04D1CE
:10DE7000B87A8000095801A8884711B0F0BDC64F94
:10DE800003AA01213846FFF7D9FD0028F5D10399EF
:10DE90000C20484302220019827211236A4613742F
:10DEA0005171A98801812946083107220091FDF7A7
:10DEB00027FAE87DC10707D04108B2480830405C26
:10DEC000FF2808D0079006E03A4607A90098FFF718
:10DED000D1FE002837D103990C2251430919079824
:10DEE000C8728A7A08231A438A726946887101A81F
:10DEF000FFF736F827E003980C2148430119887A88
:10DF0000FD2210408872010706D5C0090DD00021FE
:10DF100001A8FFF72BFE08E068468079FF2804D0AF
:10DF200001F028FAFF206946887103980C225043BB
:10DF30001021001981721220694603E08BE043E052
:10DF400014E0E4E00874324604A901A8FEF71EFAC2
:10DF50006846007C122890D103980C21414309198E
:10DF6000897A012989D0FFF781FD86E72A8A07A9E6
:10DF70000020FFF77FFE00280ED103990C225143A9
:10DF800009190798C8728A7A08231A438A7269465F
:10DF9000887101A8FEF7E4FF03980C21484300199B
:10DFA000C07AFF2806D003981C21484376494C3993
:10DFB0004018029003981C21484378494218A888C9
:10DFC0000023029986DF58E76946087403980C21FC
:10DFD00048430119887A042210438872CA7AFF2ABA
:10DFE0000BD0402210438872162069460874002323
:10DFF000A8881A4685217FDF21E007A8FFF710FED9
:10E0000000281FD0064600200D9003990C224A4399
:10E010001219D27A1C235A43604B0F90D2180E92D9
:10E020001C2251431A46C4328918109009910A9053
:10E030000B900C903A1DA88809AB00217FDF0028C7
:10E0400093D180E769460798887103990C22514360
:10E050000919C872D7E7787A0C2140084000787215
:10E0600003986F4602464843011984468B7AFB2089
:10E0700003408B7214203874287A002806D0580682
:10E08000DFD4C87AFFF71AFE2E7A5CE7687A400779
:10E09000D7D5B879FF28D4D008273B438B726B7B48
:10E0A0009B0708D51C2503466B433C4D5B199D7EA1
:10E0B0006D086D009D76CB7AFF2BC2D06346E35C82
:10E0C000022B10D01C225043344D0722401910302F
:10E0D000FDF716F9684680791C2148434019817E76
:10E0E000FD2211400DE01C214A4327494C395118AB
:10E0F0004A8A1C214843294940180283817E4908E5
:10E1000049008176012101A8FFF730FD1BE7287A3D
:10E110000209012A23D10007000F01281FD103980B
:10E120000C2242431219927A120718D5242148432F
:10E130001549303940181A210830FDF740F91620EA
:10E140006946087403980C2148430119887A6022B3
:10E1500010438872787A0221084378720FE003989E
:10E160000C2250430019827A80231A4382721520B0
:10E170006A461074B87A8000095801A888470026BA
:10E18000E1E6000034210020E8260020A00802007B
:10E19000F109000040080200FFFF0000D825002020
:10E1A000002806D0FF21017041708170C1700020ED
:10E1B00070470148704700000E800000F0B585B040
:10E1C000040036D02948002505604572857228462E
:10E1D000FFF74CFC254824213038FDF7F0F80026E5
:10E1E000FF27304601F0C6F821488755761C072ED8
:10E1F000F7D37421684681800721C1801D481C49DE
:10E2000000900831684601F05DFA00280FD1184EE1
:10E210000120083E3070207800280CD0694688889C
:10E22000C988484381B23046103001F05BF905B02F
:10E23000F0BD1148FBE7114F00240D48A1B202AA1E
:10E24000083001F023F9002809D11C206043C019CF
:10E2500000231C2202A901F0DFF9002801D035704B
:10E26000E5E7641C072CE8D3E1E70000E82600207E
:10E270003C21002081E201000E800000D825002012
:10E28000FFB55D4891B000681A9F1E46002875D002
:10E29000742F73D86846FFF783FF002803D0574ACE
:10E2A0005749FEF733F80024684604700471254688
:10E2B00005970696A9B20FAA524801F0E7F8002880
:10E2C00006D108220FA91198FCF7A4FF002817D047
:10E2D0006D1C072DEED368468578FF2D4ED0129821
:10E2E000032810D048481C21301AFDF76AF801278E
:10E2F00007281ED204A80290139800280BD011E022
:10E3000068468570E7E7742F03D04020694608719E
:10E310006BE02020FAE738463A49A84010394968AE
:10E32000084260D0284602F067F92020694608714B
:10E3300049E031481C214C38301AFDF742F80028DA
:10E340001DD02D4824213038301AFDF73AF801004D
:10E350002E482BD040216A4611712D498E4244D05F
:10E36000294AA9001C3A5158B1423CD104A9029152
:10E37000C07A854227D16846447024E033E004A87F
:10E3800002902020694608714C701B490B940C3197
:10E390000C9158390791694689781C2251431A4AD1
:10E3A00005908918089107A906910CE0302269466A
:10E3B0000A714C70CF70807A800704D413482421EE
:10E3C0002438FCF7FCFF129869460228087910D01F
:10E3D000022108436946087104A8029001A9684611
:10E3E000139AFDF7D3FF15B0F0BD694608790321F4
:10E3F000EFE73843EFE70000E8260020A00802001E
:10E40000A105000044210020D8250020DC260020A2
:10E410001C08020070B5064618480D460078002812
:10E420000ED01749002E0ED0002D0CD028680028E1
:10E4300009D0144C2168002907D011480A3870BD52
:10E440000F48801F70BD084670BD20600522691D01
:10E45000201DFCF755FF2879A072207A0221400880
:10E4600040000843FB2210402072E079012318434A
:10E4700008431040E0710020307070BD342100204E
:10E480000E800000E826002010B50E4900234A78CF
:10E490008C78A24212D0521CD2B24A70022A00D109
:10E4A0004B704A78074B920018339A5802600869FB
:10E4B00010180002000A0861012010BD036000204E
:10E4C00010BD00008421002010B5002803D01128C1
:10E4D00002D0FDF777FF10BD0248082241681143C2
:10E4E000416010BD4C21002010B51C4C2178204605
:10E4F0004068012906D0022929D0032912D100073A
:10E5000017D513E0000711D41548142201785143A0
:10E510000818C188A28B891A0904090CC18002D08D
:10E5200001F0A6FD10BDFFF78FF910BD00F02AFC29
:10E5300010BD6069401C606100F018FA002803D02B
:10E54000207801F005FC10BDFFF71AF910BD6078C6
:10E55000044980000858804710BD00004C2100206D
:10E56000702700207408020010B528DFFFF7ACFF09
:10E5700010BD10B529DFFFF7A7FF10BD002804D09C
:10E580000349496D01600020704703207047000077
:10E59000242A00200EB5112069460872072218A10E
:10E5A00002A87CDF002803D0174AC421FDF7AEFE85
:10E5B0000920800178DF002803D0134AC721FDF726
:10E5C000A5FE0020FF2200904132694601900A809A
:10E5D0004122D2004A808880FF209130C88068465E
:10E5E0007ADF002803D0084AD121FDF78FFE0420EE
:10E5F00077DF002803D0044AD521FDF787FE0EBD42
:10E600004B61726D61476F003CED01000020704767
:10E610000020704700207047F8B506464078242156
:10E6200004464C4324490C2250436118224A0025D9
:10E630004B6824328018AE462F469C46002B0CD0E7
:10E64000827A1346D20908D05A0606D40D461A4AD1
:10E65000614689B2175908358E46174C0089243413
:10E660003B4672462946A9DF0B2819D0002800D066
:10E670001248012F13D170780C21484300190089EA
:10E680000F4AA7DF00280AD00E49884212D0082876
:10E6900010D0891C88420DD011280BD00020F8BD65
:10E6A00070780C21484301230019008972462946DD
:10E6B000A9DFE0E70148F8BDB8260020418000004E
:10E6C000FFFF00000230000070B50C460146607884
:10E6D0002422084D50434019382300F09DFF0028A4
:10E6E00007D161782422514349194A68521C00D14C
:10E6F0004A6070BDB8260020F3B589B00D461A20D7
:10E700006946888368780C2103274843224E3B469C
:10E710008019008907AA6946AADF002838D16878DD
:10E7200024214843741A001969468A8B0830FCF783
:10E7300071FD0028687807D02421484301194968F1
:10E7400000290DD0154E0CE00C2141438919897A1E
:10E7500089071DD4242148430019FCF730FE17E037
:10E760000F4E27506846828B687824214843001951
:10E77000426068784843001969460830FCF704FD98
:10E780006878242148430119382324220998B04786
:10E7900000200BB0F0BD0000DC26002061F8010075
:10E7A00081F7010010B5FFF737FF10BD10B5FFF777
:10E7B0008BFF10BD10B5FFF79FFF10BDF8B50746E2
:10E7C000104E0125BD403068FDF7A8FE00280DD190
:10E7D0000D4C2069284207D1384600F049FC00283A
:10E7E000E06804D0284303E0A8432061F8BDA843B3
:10E7F000E0602069002228432061A1683068FDF7AD
:10E800004FFEF8BD880802007021002070B51B4C37
:10E81000207900072ED41A481422017851430D188C
:10E820002E6900F0C5FE0146E8882A89761E801808
:10E830008019FCF7C6FD21690025002909D061690E
:10E84000814206D1E56060680121084360600020D4
:10E850000AE000F08BF8002802D00220E56003E017
:10E860002069002803D0032001F04AFC70BDFEF7A8
:10E8700087FF70BD01F038FC70BD00004C21002006
:10E8800070270020F8B51E4C2078002837D020696A
:10E89000002807D00026E068002805D00025002EBB
:10E8A00004D013E00126F6E70125F8E7684652DFB9
:10E8B000052806D0002806D0124A9321FDF726FD30
:10E8C00004E0012602E0216900988847002D12D15A
:10E8D000608869460880A06861DF052806D00028A6
:10E8E00006D0084AB221FDF711FD04E0012502E03F
:10E8F000E168A0688847002ED8D0002DCFD0F8BDA1
:10E90000A8210020EC0802004188054802889142B5
:10E9100004D34088814201D801207047002070470D
:10E92000D82000201048018CC9B2012917D1818C50
:10E93000090714D1018D09060A0F03D1828D120631
:10E94000120F0ED0090F012903D1828D1206120F6A
:10E9500007D0032903D1808D0006000F01D00020CD
:10E960007047012070470000C00F00F070B50E48DE
:10E970001422017851430C18256900F019FE014654
:10E98000E08822896D1E80184019FCF71AFD07499E
:10E990004A69824206D3824202D10869002801D026
:10E9A000002070BD012070BD702700204C21002088
:10E9B000800701D0002070470120704730B51588CE
:10E9C000EC1C9C4201D90C2030BD02244C5513880C
:10E9D0001C255B1C9BB21380CD5413885B1C9BB21F
:10E9E0001380012807D0022807D0032807D0042865
:10E9F00007D0072030BD002004E0012002E0CC5405
:10EA000001E00320C8541088401C1080002030BD55
:10EA100010B50448017AC90702D00078FEF762FCFD
:10EA200010BD000094200020F8B52C49C8680A6980
:10EA30000C780F7989688646944600913EE00099EB
:10EA4000E20055182A7836E0182353436968521CAF
:10EA5000C918AB78D2B2934200D100220B78022BB6
:10EA600002D0032B27D123E04E680346014603E082
:10EA7000B14204D00B46C96900291CD0F8E700292F
:10EA800019D08B4208D1C069002805D1144F012646
:10EA9000BE600026B44601270E68C969D961002905
:10EAA00009D00B689B190B6005E00174C06900E098
:10EAB00000210028F9D169789142C5D12146641E10
:10EAC000E4B20029BBD1054962460A61C8600F71F2
:10EAD000704501D00120F8BD0020F8BD8421002040
:10EAE00000100140F8B5044631480026C168009185
:10EAF00007784EE02E48F90080680D1843E0002C9E
:10EB000002D02046E4691FE02878182141436A6852
:10EB1000401CC0B251182870AA78904200D12E70C3
:10EB20000A784868012A30D1027C002A2DD18A68EF
:10EB30004260CA6882600A69C260496981611C4991
:10EB40000979002900D04660194943680A699C4642
:10EB5000991A0902174B090A994202D28268891848
:10EB600007E06146511A09028268090A8A4202D9FD
:10EB7000511A016000E00660466001218660017460
:10EB8000C66101F073FB002CB9D1287869788842FE
:10EB9000BAD138467F1EFFB20028ABD10448C16805
:10EBA0000098814201D00120F8BD0020F8BD00008E
:10EBB00084210020FFFF7F0038B50E4C207800280C
:10EBC00001D0002038BD0125AB020B4A0BA100206B
:10EBD0000095FCF7FFFD002807D11023094A0AA180
:10EBE0000090FCF7D1FD002801D0082038BD257029
:10EBF000E7E70000A4210020872A00204E6F726DF5
:10EC0000616C0000872E0020496E70757400000052
:10EC10000FB408B504A900916A460399FCF758FEA1
:10EC200001B008BC04B0184788B040A10020FCF730
:10EC300037FE0023404A05211846FDF7E9FB00286E
:10EC400003D03EA2B021FDF761FB404A40490320BA
:10EC5000FEF7F8FA002803D038A23E49FDF756FB2C
:10EC600001A90020FEF7A0F9002804D0394933A2F9
:10EC7000C91CFDF74BFB68460079022853D00021E0
:10EC8000684601700F203449032500240860334989
:10EC900080208860FEF7ECF868460078FFF756F8A9
:10ECA00068460078002803D02DA10020FCF7F8FD6D
:10ECB000FFF770FC00F0D8FFFDF7F8F91C2168465B
:10ECC000FCF77DFB0520C00301900F20000402909B
:10ECD000009468460573C48104742548059025484E
:10ECE00006906846FDF78AFE002804D0FF2113A293
:10ECF000E631FDF70BFB0320FDF78AFD002804D069
:10ED00001D210EA24901FDF701FB1BA10020FCF70C
:10ED1000C7FD104C0E3448DF0028FCD007A2214666
:10ED2000FDF7F4FAF7E70121AAE7000048656C6CEB
:10ED30006F21210A00000000C82100202E2E5C2E29
:10ED40002E5C2E2E5C6D61696E2E630055D1010024
:10ED5000CD0C00004F0300001C07005000050050C0
:10ED6000426F6E647320657261736564210A0000EE
:10ED7000D5F20100B5D90100537461727421210AE2
:10ED80000000000010B5044808224168914341602A
:10ED9000007800F0DDFF10BD4C21002070B5144656
:10EDA00082880E4605462088111D4118921C994202
:10EDB00001D8FE2A01D90C2070BD521C3254208883
:10EDC000FF21401C80B2208031542088401C80B23A
:10EDD00020808119288801F009FC2188401880B220
:10EDE0002080AA88002A09D0A968002908D08019A3
:10EDF000FCF786FA2088A98840182080002070BD82
:10EE0000072070BDF8B50F46017814460546012964
:10EE100002D16878002806D02088821C9A422DD81A
:10EE2000012902D006E00720F8BD69784118891C45
:10EE3000994223D8181A801E86B268460680218817
:10EE4000B81C081869467DDF0028EDD12878022813
:10EE500005D169460988B14201D809210AE0082193
:10EE6000012805D16878B04202D86A46108001E0D6
:10EE70006846068068460088FE2801D90C20F8BD47
:10EE80002288401CB8542088401C80B2208039540D
:10EE900020886946401C2080098840182080002076
:10EEA000F8BD002070470020704700207047000028
:10EEB00031B5054C04E0401E00902046FCF744F9B3
:10EEC00000980028F7D138BDE70300008207D30E71
:10EED000FF229A408907090E10B5994000280BDAE5
:10EEE00003071B0F083B9C080C4BA400E318DC69CC
:10EEF00094430C43DC6107E08408094BA400E41848
:10EF0000236893430B432360C106C90E0120884048
:10EF1000044908600449086010BD000000ED00E0ED
:10EF200000E400E080E200E000E100E0F3B581B041
:10EF30000F46019800F03EFA012400281E4E019869
:10EF400017D0FEF721FB80192030007F80090328AD
:10EF500002D0012806D007E01848006901998C40CA
:10EF6000204201D1022100E00321019800F0CEF8F7
:10EF7000FEBD00F02BFA0028FAD00198FEF704FB42
:10EF800005468100C81D0E4AF93089180A6980B209
:10EF900022430A610B49401800210160002FE7D08D
:10EFA0000198FEF7F1FA800030580028E0D00648BA
:10EFB000AC404460FEBD00000C270020000500505E
:10EFC000006500400060004000630040FEB504465C
:10EFD00023480E460019202141560027C817134622
:10EFE000401C01D0082738E0F27819462046FEF789
:10EFF000A7FA0546401C2FD0B078002807D0194842
:10F00000A1000918086802229043086007E0002167
:10F010007378204600910A46019100F065F8F07877
:10F02000002810D01048AA001018317802690F4B40
:10F030001A400261E206D20C8907890B0A43016972
:10F040000A43026109E00648327840192030017F06
:10F0500092011143017700E004273846FEBD00000D
:10F060000C2700200007005000650040FFE0FCFF77
:10F0700003490969C140C807C00F00D0012070478B
:10F080000005005070B5124D2879002801D00820E5
:10F0900070BD0F4900204039421E0B182033401C20
:10F0A000C0B21A702028F8D300242046FEF73AFA9E
:10F0B000641CE4B2082CF8D303210620FFF706FFF6
:10F0C00001200449C007486001202871002070BD5C
:10F0D0004C2700200063004002480079002800D03F
:10F0E000012070474C27002030B552000A43990098
:10F0F000039C0A432102049D0A4329040A4302494E
:10F1000080004018026030BD0007005082000648B1
:10F110001018026803231B049A4302600268090462
:10F120000A4302607047000000070050034940187E
:10F130000068012800D000207047000000600040F7
:10F140004058002800D00120704703221202801886
:10F150004068084000D0012070470000F8B517460D
:10F160000D460A783B4619A10020FCF7A5FB28783C
:10F1700080261C4C2B2811D1E6601B48FFF798FE17
:10F18000A6603A4629461948FDF73EFE082805D0F4
:10F19000002803D016A21A49FDF7B8F828782D28C0
:10F1A00013D1E6607D208001FFF782FEA6603A461B
:10F1B00029460E48FDF728FE082806D0002804D06E
:10F1C00007210BA2C901FDF7A1F8F8BD6E757320E8
:10F1D000646174613A25782C6C656E3D2578200A4F
:10F1E0000000000000050050B80B0000F4230020D0
:10F1F0002E2E5C2E2E5C2E2E5C6D61696E2E6300B1
:10F200007603000010B504460AA10020FCF748FB75
:10F21000002C0BD0032C08D10220FEF705F80028A3
:10F2200003D007A20A49FDF771F810BD00F06AFD8E
:10F2300010BD00006F6E5F6164765F6576740A00D2
:10F240002E2E5C2E2E5C2E2E5C6D61696E2E630060
:10F250000902000010B50446028816A10020FCF740
:10F260002BFB2088102817D0112814D10020FDF77F
:10F27000DBFF002803D0144A1449FDF747F8FCF7D8
:10F2800015FF0320FDF7C4FA002804D023210E4AFD
:10F290000901FDF73BF810BD0720FDF7C5FF002869
:10F2A00004D00A49084A0839FDF730F80849A0880F
:10F2B000488010BD6F6E5F626C655F657674206913
:10F2C000643D2578200A00003CED01002902000081
:10F2D0008020002010B5007800280AD105483B2185
:10F2E000408876DF002804D0FF2103A2C431FDF757
:10F2F0000DF810BD802000202E2E5C2E2E5C2E2EB0
:10F300005C6D61696E2E630010B50C4607A100208C
:10F31000FCF7C6FA2078002806D1627806A1FCF72F
:10F32000CBFA6078FCF746FF10BD00006F6E5F6996
:10F3300061735F6576740A00424C455F4941535FD3
:10F340004556545F414C4552545F4C4556454C5FC1
:10F35000555044415445442025780A000021425C20
:10F36000002A01D001207047491C0629F7D300204C
:10F370007047000070B505461C200D4968434418CD
:10F38000204611300621FCF718F820461021FCF722
:10F3900014F8FF2121740020A176C0432083284661
:10F3A00001F02AF9024A0020A9001C3A505070BD11
:10F3B000D82500200449081820214156042901DBE2
:10F3C00001207047002070470C27002004490818CE
:10F3D00020214156042901D20120704700207047A6
:10F3E0000C27002070B50D00044604D10DA24B215E
:10F3F0000020FCF78BFF002C04D10AA24C21002036
:10F40000FCF784FF2878207069886170090AA17070
:10F41000A988E170090A2171E8886071000AA07169
:10F4200070BD00002E2E5C2E2E5C2E2E5C2E2E5CCF
:10F430002E2E5C2E2E5C636F6D706F6E656E747316
:10F440005C626C655C626C655F736572766963654E
:10F45000735C626C655F6469735C626C655F646950
:10F46000732E630007490979490701D408207047C2
:10F47000002804D0044949780160002070470E201C
:10F48000704700004C2100207027002070B5134BFE
:10F490001B795B0701D4082070BD002817D0002A13
:10F4A00015D00368022B10D20C240D4D5C432E594D
:10F4B000002E0AD046686019048945894068614376
:10F4C000654371182818884203D8072070BD0E20A4
:10F4D00070BD13600020516070BD00004C21002001
:10F4E000CC290020FEB5044626480E460079400788
:10F4F00001D40820FEBD002C25D02068022836D279
:10F500000C21214D48432958002930D04019418908
:10F5100002894068514309186068814227D9FFF782
:10F5200047FA002811D06068019021680C225143ED
:10F530004F1979680091401A39890D46FBF741FF50
:10F54000002914D103E00E20FEBD1020FEBD294687
:10F550003046FBF736FF002909D1002E07D0788905
:10F5600000994543019849198019884201D907201B
:10F57000FEBD002002460090334621460320FEF7E0
:10F580003DF9FEBD4C210020CC29002010B50748D4
:10F590004469601C06D000F00BF801462046FBF7DA
:10F5A00010FF10BD01200007406910BD00100010C1
:10F5B00001200007006980B27047000070B5002488
:10F5C00012482546047044702846FEF707F96D1C62
:10F5D0001E2DF9D30E4D6C80FFF7D8FFC61EFFF726
:10F5E000E7FF46430B4AAE6000206C610C214143AB
:10F5F000545089180C81401C4C810228F6D32C7081
:10F60000AC610420EC616860002070BD70270020B0
:10F610004C210020CC290020FFB5284881B000797A
:10F620001F4616460C46400702D4082005B0F0BD20
:10F63000002C1DD0019800281AD02068022815D26D
:10F640000C211F4D4843295800290FD041194A89E0
:10F6500008894968424351186268914206D9002ED0
:10F6600004D0B04202D3F119814203D90720DDE76B
:10F670000E20DBE70198FFF79BF900281BD03846E6
:10F68000FFF796F9002816D06068FFF791F9002877
:10F6900011D060683246C1190198FBF731FE00961F
:10F6A00020680C2148432D58002202212046019B4E
:10F6B000A8470020BAE71020B8E700004C2100203E
:10F6C000CC290020F8B52C4D044628790E46400779
:10F6D00001D40820F8BD002C20D0002E1ED02068B8
:10F6E00000281BD0FFF764FF0146A088814213D396
:10F6F000102811D3E08800280ED0FFF747FF471EDF
:10F70000FFF756FF4743E288A188A8684A431218CA
:10F71000974201D3890703D00720F8BD0E20F8BD1A
:10F720006988022926D031600C22144B5143706045
:10F73000CA18506020685850A0881081E088508115
:10F74000FFF736FF0646FFF733FFA188E288401E29
:10F75000514340183146FBF73EFE0446FFF728FFB1
:10F760000146A86861430818A8606888401C688042
:10F770000020F8BD0420F8BD4C210020CC29002039
:10F78000F8B5044621481E46007915460F46400745
:10F7900001D40820F8BD002F1CD0002C1AD02168FD
:10F7A000022915D20C20414319484258002A0FD093
:10F7B00008184289018940684A43101862689042DB
:10F7C00006D9002D04D0A94202D3A819884203D932
:10F7D0000720F8BD0E20F8BD3846FFF7E9F80028ED
:10F7E00011D03046FFF7E4F800280CD06068FFF72E
:10F7F000DFF8002807D02B463A4621460120009624
:10F80000FDF7FCFFF8BD1020F8BD00004C210020E2
:10F81000CC29002010B5114902460878002811D0E3
:10F8200004280FD0022A16D0032A0BD10A79120716
:10F8300011D48A69521C8A61032A08D0022802D096
:10F8400000F086FA10BD487800F05AFC10BD0D207B
:10F85000FCF7B8FD10BDFEF747FE10BD4C2100209F
:10F86000F8B5044621481E46007915460F46400764
:10F8700001D40820F8BD002F1CD0002C1AD021681C
:10F88000022915D20C20414319484258002A0FD0B2
:10F8900008184289018940684A43101862689042FA
:10F8A00006D9002D04D0A94202D3A819884203D951
:10F8B0000720F8BD0E20F8BD3846FFF779F800287C
:10F8C00011D03046FFF774F800280CD06068FFF7BD
:10F8D0006FF8002807D02B463A46214604200096B0
:10F8E000FDF78CFFF8BD1020F8BD00004C21002072
:10F8F000CC290020012252075110886B496B4143EB
:10F900008818704770B501240B49600408600B49E2
:10F9100040108860094940398860094D6C602F208B
:10F92000FBF722FCAC60074D00242F202C61FBF775
:10F930001BFCEC7070BD000080E100E04013014052
:10F94000001001408421002030B50A48FF21C57D08
:10F950000022094C0931094B002D625007D09969EA
:10F96000437EC268D154417E491C417630BD9869BE
:10F9700030BD00005427002000200040002500403A
:10F9800070B500240546601C90B00007000F08A960
:10F99000103008940870601C0007000F1030487089
:10F9A0008878F9263040801C88701C2101A8FBF75C
:10F9B00006FD6946087910210843694608710294DA
:10F9C00008A80494059407940690287808A98871DB
:10F9D0000320694688841120009408704870887854
:10F9E000F7213040801C0840EF21084001263043B9
:10F9F0006946887014210AA8FBF7E1FC09A80A905F
:10FA000068460B9069460E8614204C8688862B46E5
:10FA100068880C330AAA01A9A2DF10B070BD0000EB
:10FA20001FB501236A46137010720348019106C87E
:10FA3000684690471FBD00005427002038B5044693
:10FA400009480090A0420DD0FFF754FF0546234619
:10FA500006A10020009AFFF7DBF82A1B10A1002066
:10FA6000FFF7D6F8002038BD8020002052414D20FD
:10FA70005354415254204144445220307825782038
:10FA800073686F756C642062652061646A75737455
:10FA9000656420746F20307825780D0A000000001E
:10FAA00052414D2053495A452073686F756C64204C
:10FAB00062652061646A757374656420746F2030B8
:10FAC000782578200D0A000010B50121202805DADC
:10FAD0001A4A8140114201D1194810BD8107C90E4F
:10FAE000002808DA0207120F083A9208154B920014
:10FAF000D218D26904E08208134B9200D21812681F
:10FB0000CA401106890F042911D200290FD00229F9
:10FB10000DD00E494C68C306DB0E01229A40002C22
:10FB200008D0400980000B5813430B5004E00448F0
:10FB3000401C10BD06480260002010BDFC06FFBC42
:10FB40000120000000ED00E000E400E0BC21002006
:10FB500000E100E0FFB50746806A81B01446002846
:10FB60003DD0002538462030009033E00C20B96AA3
:10FB700068430E18B088801CFE2802D90C2005B0FE
:10FB8000F0BD22880299401C885420881622401C0F
:10FB900080B2208002990A542088401C80B22080C4
:10FBA00002994118308800F021FD2188401880B268
:10FBB0002080B288002A0AD0B16800290FD0029BA9
:10FBC000C018FBF79DFB2088B188401820806D1C71
:10FBD0000098EDB2007BA842C8D80020CFE70720EC
:10FBE000CDE7000000B591B040216846FBF7E7FB88
:10FBF00010A16846FDF732F910A104A8FDF72EF90F
:10FC000017A108A8FDF72AF915A10AA8FDF726F9FA
:10FC100014A106A8FDF722F90120014608A8103119
:10FC200001770020014608A841776846FCF788FF65
:10FC300011B000BD4B61726D610000003934633159
:10FC40006431313266326135313165353963653958
:10FC500035653535313735303763363600000000CD
:10FC6000302E3100302E300008B5FFF7BBFF0028E2
:10FC700004D0FF211CA28F31FCF748FB002000902C
:10FC80000421684601700120014668462031417018
:10FC9000002001466846817069461748FDF744F91F
:10FCA000002804D0FF2110A29331FCF72FFB13484A
:10FCB0000090114869460C30FDF712F8002804D076
:10FCC000FF2109A29731FCF721FB0D4800900A485B
:10FCD00069461C30FDF738F8002804D0FF2102A245
:10FCE0009B31FCF713FB08BD2E2E5C2E2E5C2E2EB6
:10FCF0005C6D61696E2E6300D823002009F301005A
:10FD00005DF1010010B50020FDF78EFA002804D047
:10FD1000FF210BA2F131FCF7F9FAFDF7ABF900284E
:10FD200004D0FF2106A2F531FCF7F0FA3CDF0028F1
:10FD300004D0FF2102A2F931FCF7E8FA10BD00005F
:10FD40002E2E5C2E2E5C2E2E5C6D61696E2E630055
:10FD500010B50F490028087009D0012811D00228D9
:10FD600012D0032802D14869FEF7FEFB10BD002027
:10FD70008861C861074840780028F7D0FDF712FD78
:10FD800010BD00F075F910BD00F0D4F810BD0000F2
:10FD90004C21002070270020002803D00249C860B1
:10FDA000002070470E207047A82100207CB5044633
:10FDB000144801900246009013A10020FEF728FF8E
:10FDC0006946204660DF04460199009888420ED0BB
:10FDD000FFF790FD054615A10020009AFEF718FFD9
:10FDE000009821A12A1A0020FEF712FF07E0002C3C
:10FDF00005D0224626A10020FEF70AFFFEE7204696
:10FE00007CBD00008020002073645F626C655F65CC
:10FE10006E61626C653A2052414D205354415254F8
:10FE200020617420307825780D0A000073645F62C9
:10FE30006C655F656E61626C653A206170705F72BF
:10FE4000616D5F626173652073686F756C642062B9
:10FE5000652061646A757374656420746F203078FE
:10FE600025780D0A0000000072616D2073697A65C3
:10FE70002073686F756C642062652061646A7573B5
:10FE800074656420746F2030782578200D0A000096
:10FE900073645F626C655F656E61626C653A206574
:10FEA00072726F7220307825780D0A0070B50E4698
:10FEB0000546144614211046FBF781FA0120002163
:10FEC00020802161217326726572002D00D0A072FE
:10FED000002070BD10B5FCF70BFA10BDFFB581B066
:10FEE0001D4616460C46FEF767FE002C01D0A00703
:10FEF00002D0072005B0F0BD2046074C0127A060C6
:10FF0000668065600549019810DF0028F2D12770EE
:10FF10001620FFF7D9FDEDE7A8210020D5FE01004E
:10FF2000002803D002490861002070470E20704766
:10FF3000A8210020F8B5164C142260684008400043
:10FF400060601448017851430E183769FFF730FBA1
:10FF500001463846FBF735FA05466061FFF728FB96
:10FF60000146F0887F1EC019FBF72BFA022285425A
:10FF7000606801D1104300E090436060E168104088
:10FF8000084303D0002000F0BBF8F8BD0220FAE7D8
:10FF90004C2100207027002010B502484069FEF770
:10FFA000E3FA10BD4C21002010B5FFF7EFFA441E14
:10FFB000FFF7FEFA4443FFF7FBFA04494A69521E71
:10FFC0005043CA682146FEF7D4FA10BD4C210020E8
:10FFD000F8B510481422017851430C182569FFF731
:10FFE000E7FA0146E088228980184019FBF7E9F911
:10FFF0000F46FFF7CBFA461EFFF7DAFA4643E088D2
:020000040002F8
:100000002289F1198018044A40191269FEF7B1FAE1
:10001000F8BD0000702700204C21002070B5FFF7CC
:10002000C7FA0546FFF7B2FA441EFFF7C1FA60436C
:100030002946FBF7C6F9FEF797FA70BD70B5FFF7D2
:10004000B7FA8608FFF7B4FA0749496948430446F6
:10005000FFF79CFA451EFFF7ABFA6843324621468C
:10006000FEF787FA70BD00004C2100200020704789
:1000700070B514481422017851430C18241DFFF761
:1000800097FA6188104E884211D2FFF791FA618881
:100090000D1AFFF78DFA8208A188E06840182169DF
:1000A00040194919FEF765FAFFF782FA07E0A288BE
:1000B000E06880188A082169FEF75BFA6088F061C1
:1000C00070BD0000702700204C21002010B50548AD
:1000D0000079000703D4012000F012F810BD00F0F1
:1000E00003F810BD4C21002010B5044808224168D7
:1000F00091434160407800F003F810BD4C2100208E
:100100000249487002498000085800474C210020ED
:100110006008020010B50446FFF77CFB2046FCF7A0
:100120002BFB10BD70B50C00054604D113A2332182
:100130000020FCF7EBF8002D04D110A234210020A0
:10014000FCF7E4F8207828702088FF210902084095
:10015000000A6870206809020840000CA870206836
:10016000000EE87020792871207A68712089000AD1
:10017000A871A068000CE87170BD00002E2E5C2EE6
:100180002E5C2E2E5C2E2E5C2E2E5C2E2E5C636F33
:100190006D706F6E656E74735C626C655C626C65CD
:1001A0005F73657276696365735C626C655F6469D1
:1001B000735C626C655F6469732E630010B50548FB
:1001C0000079000702D4FDF7DBFA10BDFFF78CFFC2
:1001D00010BD00004C210020FEB51F4C00252769F2
:1001E000E06802906846FEF74FF90190FEF71CFCAC
:1001F00006460198002822D000230098E16817E005
:100200000E680A46864202D9301A086012E0801B46
:10021000F31800261660D668D169B446002E07D0C0
:10022000FE183602360A566066469660D561154657
:100230000029E5D12846E160FEF754FC06E0284697
:10024000FEF750FC002801D1002E02D00298FDF7E5
:1002500019FB00202071FEBD8421002001200249ED
:10026000000508607047000000E200E010B50E4B8A
:10027000D968002906D002680C68A24204D8A21AE4
:100280000A60C161D86010BD0B4604E00B46C96925
:10029000121B002904D00C689442F7D3A41A0C60F6
:1002A0000260C161D86110BD84210020F8B51E4DE7
:1002B000EC68002C37D01D48002740682969401A97
:1002C0000602360A2068B0421BD8361AC7192246E1
:1002D000107CE469002812D0002010746B69002B98
:1002E0000AD0916950699847002808D0FF2110A2D0
:1002F0006631FCF70BF802E0516990698847002CE1
:10030000E0D16978A878814206D1401CC0B2A870BB
:10031000022801D10020A87003490006800D183181
:100320000F50FFF79BFFF8BD84210020001501400E
:100330002E2E5C2E2E5C2E2E5C2E2E5C2E2E5C2EF7
:100340002E5C636F6D706F6E656E74735C6C69624A
:100350007261726965735C74696D65725C617070FD
:100360005F74696D65722E6300000000FF2107480D
:100370001D31002242500648828A8168895C828A47
:10038000521C82820348C161704700000020004077
:10039000542700200025004070B58EB005461C2172
:1003A0006846FBF70CF8694608780C210843694653
:1003B000087000240194039404940594069428780A
:1003C00008A98870022069460884601C0007000F95
:1003D00010300794087711204877887FF92108406A
:1003E000F721801C0840EF21084001263043694670
:1003F0008877142109A8FAF7E2FF08A8099007A84E
:100400000A9069468E851420CC85088668882B1D45
:1004100009AAA2DF0EB070BD1FB500216A46117097
:100420001072044882680192817506C86846904738
:100430001FBD000054270020F0B58FB00D460646C2
:100440001C216846FAF7BBFF684601780220014389
:1004500068460170002401940394049405940127D4
:1004600008A806948770164968460184079469783D
:100470000177A9784177807FF9210840F721801C16
:100480000840EF210840410849006846817714215F
:1004900009A8FAF794FF142109A8FAF790FF08A811
:1004A000099007A80A9068468785C48507860D9538
:1004B0003088B31C09AA6946A2DF0FB0F0BD000066
:1004C000072A0000F0B5454D012185B049022846B4
:1004D000FEF73BFE01270026414C002824D0FF21D7
:1004E00025312846FEF72CFE00281DD0FF202530A0
:1004F0002E5081203B4980008860A07E002800D1DA
:100500006F600221684601703749086808600390EF
:10051000E17D68460172E0680190E675267606CCBA
:100520006846083C90472BE004212846FEF70DFE64
:10053000002825D0FF2109312846FEF701FE0028BA
:100540001ED0FFF701FAE07D617E884218D1207E3F
:10055000002808D0627EE168E0752069E0602676B8
:10056000667610460AE0A07E002800D16F608120E8
:100570001C4980008860E675607EE168FFF750FAEC
:10058000FF211D312846FEF7DBFD00280DD0A18A92
:10059000A07D814202D2FFF7E9FE06E0FF211D3176
:1005A0006E50002801D0FFF737FFFF214531284664
:1005B000FEF7C6FD00280ED0FF2045302E50A07E4D
:1005C000002800D02F60E07D002804D0E675607E12
:1005D000E168FFF725FA05B0F0BD000000200040FB
:1005E0005427002000230040802400400870000AA7
:1005F0004870022070470000012181400248426893
:100600008A434260704700003421002038B5154904
:10061000154A488890420FD04A78144C521CD2B2E6
:100620004A70237B934208D3091D75DF002803D04D
:10063000A169002900D0884738BD00254D70217C74
:10064000002907D03B2176DF002803D0A1690029CB
:1006500000D0884761690029EED068460570884758
:1006600038BD0000D4200020FFFF0000A02500209E
:10067000EFF30580C005C00D1AD0103840B2002835
:1006800008DA0107090F083989080C4A8900891816
:10069000C96904E081080A4A890089180968800745
:1006A000C00EC1400806800F012803D0032803D0E4
:1006B00002207047002070470120704700ED00E0E5
:1006C00000E400E042788378521CD2B2934200D119
:1006D00000220378934201D1002070470A704168DC
:1006E00040781822504308187047FFB583B016466B
:1006F0000C9D0D9C1F46022200950194039800F06A
:100700000CF8002807D13B46102231460095019491
:10071000039800F002F807B0F0BDFFB583B00746BC
:1007200000200C9C8646268805463AE07868A90099
:1007300042181188684681805188C180002269462C
:1007400001A865DF002839D1684601780598814203
:1007500026D17046002801D0002200E00222208825
:10076000891842180D998A4227D8714600290AD162
:10077000401C80B22080069A049911542088401CA5
:10078000208001208646218806980A18694601A81B
:1007900065DF002812D1694620880978401820803A
:1007A0006D1C3888A842C1DC704600280AD0208819
:1007B000801B401E80B2FF2802D90C2007B0F0BD7C
:1007C000069988550020F9E70179002902D1007BBC
:1007D000002800D0012070470100000710240020ED
:1007E000302400205C2400201100000012000000D2
:1007F00013000000140000001100030089D0010064
:100800001200030089D001001300030089D0010009
:100810001400030089D0010080250020FFFFFFFFA6
:10082000ABEE0100F9E6010015E60100B5E70100B5
:10083000A7EE0100C9E6010011E60100ADE70100E5
:10084000A3EE010019E601000DE60100A5E7010095
:100850009ECADC240EE5A9E093F3A3B50000406E28
:100860001D0002003D00020099FF0100D1FF0100C0
:10087000A9FF0100CD000200E5DA010091DA0100D4
:10088000BD0102000DE80100E42900200300000082
:1008900030313233343536373839414243444546B6
:1008A0002E2E5C2E2E5C2E2E5C2E2E5C2E2E5C2E82
:1008B0002E5C636F6D706F6E656E74735C626C65D9
:1008C0005C6465766963655F6D616E616765725CC6
:1008D0006465766963655F6D616E616765725F709F
:1008E00065726970686572616C2E63002E2E5C2ED5
:1008F0002E5C2E2E5C2E2E5C2E2E5C2E2E5C636FBC
:100900006D706F6E656E74735C736F66746465761C
:100910006963655C636F6D6D6F6E5C736F66746445
:1009200065766963655F68616E646C65725C736F40
:1009300066746465766963655F68616E646C657230
:100940002E6300006409020080200020480100009E
:1009500078B5010080090200C8210020B8210000FC
:1009600004B101002114FFFF0112021B0A1806192D
:10097000041A0404012803FFFFFF811324F400007C
:040000050001B0C185
:00000001FF
